{
  "_format": "hh-sol-artifact-1",
  "contractName": "LlpManager",
  "sourceName": "contracts/core/LlpManager.sol",
  "abi": [
    {
      "inputs": [
        {
          "internalType": "address",
          "name": "_vault",
          "type": "address"
        },
        {
          "internalType": "address",
          "name": "_usdl",
          "type": "address"
        },
        {
          "internalType": "address",
          "name": "_llp",
          "type": "address"
        },
        {
          "internalType": "address",
          "name": "_shortsTracker",
          "type": "address"
        },
        {
          "internalType": "uint256",
          "name": "_cooldownDuration",
          "type": "uint256"
        }
      ],
      "stateMutability": "nonpayable",
      "type": "constructor"
    },
    {
      "anonymous": false,
      "inputs": [
        {
          "indexed": false,
          "internalType": "address",
          "name": "account",
          "type": "address"
        },
        {
          "indexed": false,
          "internalType": "address",
          "name": "token",
          "type": "address"
        },
        {
          "indexed": false,
          "internalType": "uint256",
          "name": "amount",
          "type": "uint256"
        },
        {
          "indexed": false,
          "internalType": "uint256",
          "name": "aumInUsdl",
          "type": "uint256"
        },
        {
          "indexed": false,
          "internalType": "uint256",
          "name": "llpSupply",
          "type": "uint256"
        },
        {
          "indexed": false,
          "internalType": "uint256",
          "name": "usdlAmount",
          "type": "uint256"
        },
        {
          "indexed": false,
          "internalType": "uint256",
          "name": "mintAmount",
          "type": "uint256"
        }
      ],
      "name": "AddLiquidity",
      "type": "event"
    },
    {
      "anonymous": false,
      "inputs": [
        {
          "indexed": false,
          "internalType": "address",
          "name": "account",
          "type": "address"
        },
        {
          "indexed": false,
          "internalType": "address",
          "name": "token",
          "type": "address"
        },
        {
          "indexed": false,
          "internalType": "uint256",
          "name": "llpAmount",
          "type": "uint256"
        },
        {
          "indexed": false,
          "internalType": "uint256",
          "name": "aumInUsdl",
          "type": "uint256"
        },
        {
          "indexed": false,
          "internalType": "uint256",
          "name": "llpSupply",
          "type": "uint256"
        },
        {
          "indexed": false,
          "internalType": "uint256",
          "name": "usdlAmount",
          "type": "uint256"
        },
        {
          "indexed": false,
          "internalType": "uint256",
          "name": "amountOut",
          "type": "uint256"
        }
      ],
      "name": "RemoveLiquidity",
      "type": "event"
    },
    {
      "inputs": [],
      "name": "BASIS_POINTS_DIVISOR",
      "outputs": [
        {
          "internalType": "uint256",
          "name": "",
          "type": "uint256"
        }
      ],
      "stateMutability": "view",
      "type": "function"
    },
    {
      "inputs": [],
      "name": "LLP_PRECISION",
      "outputs": [
        {
          "internalType": "uint256",
          "name": "",
          "type": "uint256"
        }
      ],
      "stateMutability": "view",
      "type": "function"
    },
    {
      "inputs": [],
      "name": "MAX_COOLDOWN_DURATION",
      "outputs": [
        {
          "internalType": "uint256",
          "name": "",
          "type": "uint256"
        }
      ],
      "stateMutability": "view",
      "type": "function"
    },
    {
      "inputs": [],
      "name": "PRICE_PRECISION",
      "outputs": [
        {
          "internalType": "uint256",
          "name": "",
          "type": "uint256"
        }
      ],
      "stateMutability": "view",
      "type": "function"
    },
    {
      "inputs": [],
      "name": "USDL_DECIMALS",
      "outputs": [
        {
          "internalType": "uint256",
          "name": "",
          "type": "uint256"
        }
      ],
      "stateMutability": "view",
      "type": "function"
    },
    {
      "inputs": [
        {
          "internalType": "address",
          "name": "_token",
          "type": "address"
        },
        {
          "internalType": "uint256",
          "name": "_amount",
          "type": "uint256"
        },
        {
          "internalType": "uint256",
          "name": "_minUsdl",
          "type": "uint256"
        },
        {
          "internalType": "uint256",
          "name": "_minLlp",
          "type": "uint256"
        }
      ],
      "name": "addLiquidity",
      "outputs": [
        {
          "internalType": "uint256",
          "name": "",
          "type": "uint256"
        }
      ],
      "stateMutability": "nonpayable",
      "type": "function"
    },
    {
      "inputs": [
        {
          "internalType": "address",
          "name": "_fundingAccount",
          "type": "address"
        },
        {
          "internalType": "address",
          "name": "_account",
          "type": "address"
        },
        {
          "internalType": "address",
          "name": "_token",
          "type": "address"
        },
        {
          "internalType": "uint256",
          "name": "_amount",
          "type": "uint256"
        },
        {
          "internalType": "uint256",
          "name": "_minUsdl",
          "type": "uint256"
        },
        {
          "internalType": "uint256",
          "name": "_minLlp",
          "type": "uint256"
        }
      ],
      "name": "addLiquidityForAccount",
      "outputs": [
        {
          "internalType": "uint256",
          "name": "",
          "type": "uint256"
        }
      ],
      "stateMutability": "nonpayable",
      "type": "function"
    },
    {
      "inputs": [],
      "name": "aumAddition",
      "outputs": [
        {
          "internalType": "uint256",
          "name": "",
          "type": "uint256"
        }
      ],
      "stateMutability": "view",
      "type": "function"
    },
    {
      "inputs": [],
      "name": "aumDeduction",
      "outputs": [
        {
          "internalType": "uint256",
          "name": "",
          "type": "uint256"
        }
      ],
      "stateMutability": "view",
      "type": "function"
    },
    {
      "inputs": [],
      "name": "cooldownDuration",
      "outputs": [
        {
          "internalType": "uint256",
          "name": "",
          "type": "uint256"
        }
      ],
      "stateMutability": "view",
      "type": "function"
    },
    {
      "inputs": [
        {
          "internalType": "bool",
          "name": "maximise",
          "type": "bool"
        }
      ],
      "name": "getAum",
      "outputs": [
        {
          "internalType": "uint256",
          "name": "",
          "type": "uint256"
        }
      ],
      "stateMutability": "view",
      "type": "function"
    },
    {
      "inputs": [
        {
          "internalType": "bool",
          "name": "maximise",
          "type": "bool"
        }
      ],
      "name": "getAumInUsdl",
      "outputs": [
        {
          "internalType": "uint256",
          "name": "",
          "type": "uint256"
        }
      ],
      "stateMutability": "view",
      "type": "function"
    },
    {
      "inputs": [],
      "name": "getAums",
      "outputs": [
        {
          "internalType": "uint256[]",
          "name": "",
          "type": "uint256[]"
        }
      ],
      "stateMutability": "view",
      "type": "function"
    },
    {
      "inputs": [
        {
          "internalType": "address",
          "name": "_token",
          "type": "address"
        }
      ],
      "name": "getGlobalShortAveragePrice",
      "outputs": [
        {
          "internalType": "uint256",
          "name": "",
          "type": "uint256"
        }
      ],
      "stateMutability": "view",
      "type": "function"
    },
    {
      "inputs": [
        {
          "internalType": "address",
          "name": "_token",
          "type": "address"
        },
        {
          "internalType": "uint256",
          "name": "_price",
          "type": "uint256"
        },
        {
          "internalType": "uint256",
          "name": "_size",
          "type": "uint256"
        }
      ],
      "name": "getGlobalShortDelta",
      "outputs": [
        {
          "internalType": "uint256",
          "name": "",
          "type": "uint256"
        },
        {
          "internalType": "bool",
          "name": "",
          "type": "bool"
        }
      ],
      "stateMutability": "view",
      "type": "function"
    },
    {
      "inputs": [
        {
          "internalType": "bool",
          "name": "_maximise",
          "type": "bool"
        }
      ],
      "name": "getPrice",
      "outputs": [
        {
          "internalType": "uint256",
          "name": "",
          "type": "uint256"
        }
      ],
      "stateMutability": "view",
      "type": "function"
    },
    {
      "inputs": [],
      "name": "gov",
      "outputs": [
        {
          "internalType": "address",
          "name": "",
          "type": "address"
        }
      ],
      "stateMutability": "view",
      "type": "function"
    },
    {
      "inputs": [],
      "name": "inPrivateMode",
      "outputs": [
        {
          "internalType": "bool",
          "name": "",
          "type": "bool"
        }
      ],
      "stateMutability": "view",
      "type": "function"
    },
    {
      "inputs": [
        {
          "internalType": "address",
          "name": "",
          "type": "address"
        }
      ],
      "name": "isHandler",
      "outputs": [
        {
          "internalType": "bool",
          "name": "",
          "type": "bool"
        }
      ],
      "stateMutability": "view",
      "type": "function"
    },
    {
      "inputs": [
        {
          "internalType": "address",
          "name": "",
          "type": "address"
        }
      ],
      "name": "lastAddedAt",
      "outputs": [
        {
          "internalType": "uint256",
          "name": "",
          "type": "uint256"
        }
      ],
      "stateMutability": "view",
      "type": "function"
    },
    {
      "inputs": [],
      "name": "llp",
      "outputs": [
        {
          "internalType": "address",
          "name": "",
          "type": "address"
        }
      ],
      "stateMutability": "view",
      "type": "function"
    },
    {
      "inputs": [
        {
          "internalType": "address",
          "name": "_tokenOut",
          "type": "address"
        },
        {
          "internalType": "uint256",
          "name": "_llpAmount",
          "type": "uint256"
        },
        {
          "internalType": "uint256",
          "name": "_minOut",
          "type": "uint256"
        },
        {
          "internalType": "address",
          "name": "_receiver",
          "type": "address"
        }
      ],
      "name": "removeLiquidity",
      "outputs": [
        {
          "internalType": "uint256",
          "name": "",
          "type": "uint256"
        }
      ],
      "stateMutability": "nonpayable",
      "type": "function"
    },
    {
      "inputs": [
        {
          "internalType": "address",
          "name": "_account",
          "type": "address"
        },
        {
          "internalType": "address",
          "name": "_tokenOut",
          "type": "address"
        },
        {
          "internalType": "uint256",
          "name": "_llpAmount",
          "type": "uint256"
        },
        {
          "internalType": "uint256",
          "name": "_minOut",
          "type": "uint256"
        },
        {
          "internalType": "address",
          "name": "_receiver",
          "type": "address"
        }
      ],
      "name": "removeLiquidityForAccount",
      "outputs": [
        {
          "internalType": "uint256",
          "name": "",
          "type": "uint256"
        }
      ],
      "stateMutability": "nonpayable",
      "type": "function"
    },
    {
      "inputs": [
        {
          "internalType": "uint256",
          "name": "_aumAddition",
          "type": "uint256"
        },
        {
          "internalType": "uint256",
          "name": "_aumDeduction",
          "type": "uint256"
        }
      ],
      "name": "setAumAdjustment",
      "outputs": [],
      "stateMutability": "nonpayable",
      "type": "function"
    },
    {
      "inputs": [
        {
          "internalType": "uint256",
          "name": "_cooldownDuration",
          "type": "uint256"
        }
      ],
      "name": "setCooldownDuration",
      "outputs": [],
      "stateMutability": "nonpayable",
      "type": "function"
    },
    {
      "inputs": [
        {
          "internalType": "address",
          "name": "_gov",
          "type": "address"
        }
      ],
      "name": "setGov",
      "outputs": [],
      "stateMutability": "nonpayable",
      "type": "function"
    },
    {
      "inputs": [
        {
          "internalType": "address",
          "name": "_handler",
          "type": "address"
        },
        {
          "internalType": "bool",
          "name": "_isActive",
          "type": "bool"
        }
      ],
      "name": "setHandler",
      "outputs": [],
      "stateMutability": "nonpayable",
      "type": "function"
    },
    {
      "inputs": [
        {
          "internalType": "bool",
          "name": "_inPrivateMode",
          "type": "bool"
        }
      ],
      "name": "setInPrivateMode",
      "outputs": [],
      "stateMutability": "nonpayable",
      "type": "function"
    },
    {
      "inputs": [
        {
          "internalType": "contract IShortsTracker",
          "name": "_shortsTracker",
          "type": "address"
        }
      ],
      "name": "setShortsTracker",
      "outputs": [],
      "stateMutability": "nonpayable",
      "type": "function"
    },
    {
      "inputs": [
        {
          "internalType": "uint256",
          "name": "_shortsTrackerAveragePriceWeight",
          "type": "uint256"
        }
      ],
      "name": "setShortsTrackerAveragePriceWeight",
      "outputs": [],
      "stateMutability": "nonpayable",
      "type": "function"
    },
    {
      "inputs": [],
      "name": "shortsTracker",
      "outputs": [
        {
          "internalType": "contract IShortsTracker",
          "name": "",
          "type": "address"
        }
      ],
      "stateMutability": "view",
      "type": "function"
    },
    {
      "inputs": [],
      "name": "shortsTrackerAveragePriceWeight",
      "outputs": [
        {
          "internalType": "uint256",
          "name": "",
          "type": "uint256"
        }
      ],
      "stateMutability": "view",
      "type": "function"
    },
    {
      "inputs": [],
      "name": "usdl",
      "outputs": [
        {
          "internalType": "address",
          "name": "",
          "type": "address"
        }
      ],
      "stateMutability": "view",
      "type": "function"
    },
    {
      "inputs": [],
      "name": "vault",
      "outputs": [
        {
          "internalType": "contract IVault",
          "name": "",
          "type": "address"
        }
      ],
      "stateMutability": "view",
      "type": "function"
    }
  ],
  "bytecode": "608060405234801561001057600080fd5b5060405161265f38038061265f833981810160405260a081101561003357600080fd5b5080516020820151604083015160608401516080909401516001600081905580546001600160a01b031990811633908117821617909155600280546001600160a01b039687169083161790556004805494861694821694909417909355600580549285169284169290921790915560038054939094169290911691909117909155600655612599806100c66000396000f3fe608060405234801561001057600080fd5b50600436106101965760003560e01c8063033914761461019b578063070eacee146101cc578063126082cf146101e857806312d43a51146101f057806317eb2a1514610214578063196b68cb1461025c5780631e9049cf146102645780631ece366a1461026c57806335269315146102a4578063440d828a146102ac57806346ea87af146102d25780634f5f6b5e146102f857806361dbc8c51461031757806364e6617f1461031f578063657bc5d0146103275780636a86da191461032f57806371d597ad1461034e5780638116f131146103925780638b770e111461039a5780638fed0b2c146103c05780639116c4ae146103fa57806395082d251461041d578063966be075146104255780639cb7de4b14610442578063a1acd3d514610470578063b172bb0c146104bb578063bf0c180e146104c3578063cfad57a2146104e2578063d34ee09314610508578063d76437161461052e578063e245b5af14610536578063ed0d1c0414610555578063f073658a146105ad578063fbfa77cf146105b5575b600080fd5b6101ba600480360360208110156101b157600080fd5b503515156105bd565b60408051918252519081900360200190f35b6101d4610c3b565b604080519115158252519081900360200190f35b6101ba610c44565b6101f8610c4a565b604080516001600160a01b039092168252519081900360200190f35b6101ba600480360360c081101561022a57600080fd5b506001600160a01b03813581169160208101358216916040820135169060608101359060808101359060a00135610c59565b6101ba610ccc565b6101ba610cd2565b6101ba6004803603608081101561028257600080fd5b506001600160a01b038135169060208101359060408101359060600135610cd9565b6101ba610d88565b6101ba600480360360208110156102c257600080fd5b50356001600160a01b0316610d8e565b6101d4600480360360208110156102e857600080fd5b50356001600160a01b031661109f565b6103156004803603602081101561030e57600080fd5b50356110b4565b005b6101ba61115c565b6101ba611161565b6101f8611167565b6103156004803603602081101561034557600080fd5b50351515611176565b6101ba600480360360a081101561036457600080fd5b506001600160a01b0381358116916020810135821691604082013591606081013591608090910135166111d6565b6101f8611247565b6101ba600480360360208110156103b057600080fd5b50356001600160a01b0316611256565b6101ba600480360360808110156103d657600080fd5b506001600160a01b0381358116916020810135916040820135916060013516611268565b6103156004803603604081101561041057600080fd5b5080359060200135611308565b6101ba611360565b6103156004803603602081101561043b57600080fd5b5035611370565b6103156004803603604081101561045857600080fd5b506001600160a01b0381351690602001351515611404565b6104a26004803603606081101561048657600080fd5b506001600160a01b03813516906020810135906040013561147c565b6040805192835290151560208301528051918290030190f35b6101ba6114d0565b6101ba600480360360208110156104d957600080fd5b503515156114d6565b610315600480360360208110156104f857600080fd5b50356001600160a01b031661150d565b6103156004803603602081101561051e57600080fd5b50356001600160a01b031661157c565b6101ba6115eb565b6101ba6004803603602081101561054c57600080fd5b503515156115f7565b61055d6116a1565b60408051602080825283518183015283519192839290830191858101910280838360005b83811015610599578181015183820152602001610581565b505050509050019250505060405180910390f35b6101f861170f565b6101f861171e565b600080600260009054906101000a90046001600160a01b03166001600160a01b0316630842b0766040518163ffffffff1660e01b815260040160206040518083038186803b15801561060e57600080fd5b505afa158015610622573d6000803e3d6000fd5b505050506040513d602081101561063857600080fd5b5051600854600254919250906000906001600160a01b0316815b84811015610bf45760025460408051630e468baf60e41b81526004810184905290516000926001600160a01b03169163e468baf0916024808301926020929190829003018186803b1580156106a657600080fd5b505afa1580156106ba573d6000803e3d6000fd5b505050506040513d60208110156106d057600080fd5b505160025460408051630daf9c2160e41b81526001600160a01b0380851660048301529151939450600093919092169163daf9c210916024808301926020929190829003018186803b15801561072557600080fd5b505afa158015610739573d6000803e3d6000fd5b505050506040513d602081101561074f57600080fd5b505190508061075f575050610bec565b6000896107e457846001600160a01b03166381a612d6846040518263ffffffff1660e01b815260040180826001600160a01b0316815260200191505060206040518083038186803b1580156107b357600080fd5b505afa1580156107c7573d6000803e3d6000fd5b505050506040513d60208110156107dd57600080fd5b505161085e565b846001600160a01b031663e124e6d2846040518263ffffffff1660e01b815260040180826001600160a01b0316815260200191505060206040518083038186803b15801561083157600080fd5b505afa158015610845573d6000803e3d6000fd5b505050506040513d602081101561085b57600080fd5b50515b90506000856001600160a01b03166352f55eed856040518263ffffffff1660e01b815260040180826001600160a01b0316815260200191505060206040518083038186803b1580156108af57600080fd5b505afa1580156108c3573d6000803e3d6000fd5b505050506040513d60208110156108d957600080fd5b5051604080516323b95ceb60e21b81526001600160a01b038781166004830152915192935060009291891691638ee573ac91602480820192602092909190829003018186803b15801561092b57600080fd5b505afa15801561093f573d6000803e3d6000fd5b505050506040513d602081101561095557600080fd5b5051604080516342b60b0360e01b81526001600160a01b0388811660048301529151929350908916916342b60b0391602480820192602092909190829003018186803b1580156109a457600080fd5b505afa1580156109b8573d6000803e3d6000fd5b505050506040513d60208110156109ce57600080fd5b5051156109fe576109f76109f0600a83900a6109ea858761172d565b9061178f565b8a906117ce565b9850610be6565b6000876001600160a01b0316638a78daa8876040518263ffffffff1660e01b815260040180826001600160a01b0316815260200191505060206040518083038186803b158015610a4d57600080fd5b505afa158015610a61573d6000803e3d6000fd5b505050506040513d6020811015610a7757600080fd5b505190508015610ab957600080610a8f88878561147c565b9150915080610aa957610aa28c836117ce565b9b50610ab6565b610ab38b836117ce565b9a505b50505b610b3c886001600160a01b031663f07456ce886040518263ffffffff1660e01b815260040180826001600160a01b0316815260200191505060206040518083038186803b158015610b0957600080fd5b505afa158015610b1d573d6000803e3d6000fd5b505050506040513d6020811015610b3357600080fd5b50518b906117ce565b99506000886001600160a01b031663c3c7b9e9886040518263ffffffff1660e01b815260040180826001600160a01b0316815260200191505060206040518083038186803b158015610b8d57600080fd5b505afa158015610ba1573d6000803e3d6000fd5b505050506040513d6020811015610bb757600080fd5b50519050610be1610bda600a85900a6109ea88610bd48987611826565b9061172d565b8c906117ce565b9a5050505b50505050505b600101610652565b50828211610c0b57610c068383611826565b610c0e565b60005b92508260095411610c2c57600954610c27908490611826565b610c2f565b60005b9450505050505b919050565b600a5460ff1681565b61271081565b6001546001600160a01b031681565b600060026000541415610ca1576040805162461bcd60e51b815260206004820152601f6024820152600080516020612421833981519152604482015290519081900360640190fd5b6002600055610cae611868565b610cbc8787878787876118c6565b6001600055979650505050505050565b60085481565b6202a30081565b600060026000541415610d21576040805162461bcd60e51b815260206004820152601f6024820152600080516020612421833981519152604482015290519081900360640190fd5b6002600055600a5460ff1615610d6c576040805162461bcd60e51b815260206004820152601e60248201526000805160206124c9833981519152604482015290519081900360640190fd5b610d7a3333878787876118c6565b600160005595945050505050565b60065481565b6003546000906001600160a01b0316801580610e0c5750806001600160a01b0316639a11178f6040518163ffffffff1660e01b815260040160206040518083038186803b158015610dde57600080fd5b505afa158015610df2573d6000803e3d6000fd5b505050506040513d6020811015610e0857600080fd5b5051155b15610e935760025460408051636274980360e01b81526001600160a01b038681166004830152915191909216916362749803916024808301926020929190829003018186803b158015610e5e57600080fd5b505afa158015610e72573d6000803e3d6000fd5b505050506040513d6020811015610e8857600080fd5b50519150610c369050565b600b5480610f1e5760025460408051636274980360e01b81526001600160a01b038781166004830152915191909216916362749803916024808301926020929190829003018186803b158015610ee857600080fd5b505afa158015610efc573d6000803e3d6000fd5b505050506040513d6020811015610f1257600080fd5b50519250610c36915050565b612710811415610f7557816001600160a01b03166362749803856040518263ffffffff1660e01b815260040180826001600160a01b0316815260200191505060206040518083038186803b158015610ee857600080fd5b60025460408051636274980360e01b81526001600160a01b03878116600483015291516000939290921691636274980391602480820192602092909190829003018186803b158015610fc657600080fd5b505afa158015610fda573d6000803e3d6000fd5b505050506040513d6020811015610ff057600080fd5b505160408051636274980360e01b81526001600160a01b038881166004830152915192935060009291861691636274980391602480820192602092909190829003018186803b15801561104257600080fd5b505afa158015611056573d6000803e3d6000fd5b505050506040513d602081101561106c57600080fd5b50519050610c2f6127106109ea611083848761172d565b61109961109261271089611826565b879061172d565b906117ce565b600c6020526000908152604090205460ff1681565b6001546001600160a01b03163314611101576040805162461bcd60e51b81526020600482015260156024820152600080516020612441833981519152604482015290519081900360640190fd5b612710600b541115611157576040805162461bcd60e51b815260206004820152601a602482015279131b1c13585b9859d95c8e881a5b9d985b1a59081dd95a59da1d60321b604482015290519081900360640190fd5b600b55565b601281565b600b5481565b6003546001600160a01b031681565b6001546001600160a01b031633146111c3576040805162461bcd60e51b81526020600482015260156024820152600080516020612441833981519152604482015290519081900360640190fd5b600a805460ff1916911515919091179055565b60006002600054141561121e576040805162461bcd60e51b815260206004820152601f6024820152600080516020612421833981519152604482015290519081900360640190fd5b600260005561122b611868565b6112388686868686611bdf565b60016000559695505050505050565b6005546001600160a01b031681565b60076020526000908152604090205481565b6000600260005414156112b0576040805162461bcd60e51b815260206004820152601f6024820152600080516020612421833981519152604482015290519081900360640190fd5b6002600055600a5460ff16156112fb576040805162461bcd60e51b815260206004820152601e60248201526000805160206124c9833981519152604482015290519081900360640190fd5b610d7a3386868686611bdf565b6001546001600160a01b03163314611355576040805162461bcd60e51b81526020600482015260156024820152600080516020612441833981519152604482015290519081900360640190fd5b600891909155600955565b68327cb2734119d3b7a9601e1b81565b6001546001600160a01b031633146113bd576040805162461bcd60e51b81526020600482015260156024820152600080516020612441833981519152604482015290519081900360640190fd5b6202a3008111156113ff5760405162461bcd60e51b81526004018080602001828103825260258152602001806124e96025913960400191505060405180910390fd5b600655565b6001546001600160a01b03163314611451576040805162461bcd60e51b81526020600482015260156024820152600080516020612441833981519152604482015290519081900360640190fd5b6001600160a01b03919091166000908152600c60205260409020805460ff1916911515919091179055565b600080600061148a86610d8e565b905060008582116114a45761149f8683611826565b6114ae565b6114ae8287611826565b905060006114c0836109ea888561172d565b9450505084109050935093915050565b60095481565b6000806114e2836105bd565b905061150668327cb2734119d3b7a9601e1b6109ea83670de0b6b3a764000061172d565b9392505050565b6001546001600160a01b0316331461155a576040805162461bcd60e51b81526020600482015260156024820152600080516020612441833981519152604482015290519081900360640190fd5b600180546001600160a01b0319166001600160a01b0392909216919091179055565b6001546001600160a01b031633146115c9576040805162461bcd60e51b81526020600482015260156024820152600080516020612441833981519152604482015290519081900360640190fd5b600380546001600160a01b0319166001600160a01b0392909216919091179055565b670de0b6b3a764000081565b600080611603836105bd565b90506000600560009054906101000a90046001600160a01b03166001600160a01b03166318160ddd6040518163ffffffff1660e01b815260040160206040518083038186803b15801561165557600080fd5b505afa158015611669573d6000803e3d6000fd5b505050506040513d602081101561167f57600080fd5b50519050611699816109ea84670de0b6b3a764000061172d565b949350505050565b6040805160028082526060808301845292839291906020830190803683370190505090506116cf60016105bd565b816000815181106116dc57fe5b6020026020010181815250506116f260006105bd565b816001815181106116ff57fe5b6020908102919091010152905090565b6004546001600160a01b031681565b6002546001600160a01b031681565b60008261173c57506000611789565b8282028284828161174957fe5b04146117865760405162461bcd60e51b81526004018080602001828103825260218152602001806124856021913960400191505060405180910390fd5b90505b92915050565b600061178683836040518060400160405280601a815260200179536166654d6174683a206469766973696f6e206279207a65726f60301b81525061207c565b600082820183811015611786576040805162461bcd60e51b815260206004820152601b60248201527a536166654d6174683a206164646974696f6e206f766572666c6f7760281b604482015290519081900360640190fd5b600061178683836040518060400160405280601e81526020017f536166654d6174683a207375627472616374696f6e206f766572666c6f77000081525061211e565b336000908152600c602052604090205460ff166118c4576040805162461bcd60e51b815260206004820152601560248201527426363826b0b730b3b2b91d103337b93134b23232b760591b604482015290519081900360640190fd5b565b600080841161191a576040805162461bcd60e51b815260206004820152601b60248201527a131b1c13585b9859d95c8e881a5b9d985b1a590817d85b5bdd5b9d602a1b604482015290519081900360640190fd5b600061192660016114d6565b90506000600560009054906101000a90046001600160a01b03166001600160a01b03166318160ddd6040518163ffffffff1660e01b815260040160206040518083038186803b15801561197857600080fd5b505afa15801561198c573d6000803e3d6000fd5b505050506040513d60208110156119a257600080fd5b50516002549091506119c3906001600160a01b03898116918c911689612178565b60025460408051635000600160e01b81526001600160a01b038a811660048301523060248301529151600093929092169163500060019160448082019260209290919082900301818787803b158015611a1b57600080fd5b505af1158015611a2f573d6000803e3d6000fd5b505050506040513d6020811015611a4557600080fd5b5051905085811015611a885760405162461bcd60e51b81526004018080602001828103825260248152602001806124616024913960400191505060405180910390fd5b60008315611aa357611a9e846109ea848661172d565b611aa5565b815b905085811015611ae65760405162461bcd60e51b81526004018080602001828103825260238152602001806124a66023913960400191505060405180910390fd5b600554604080516340c10f1960e01b81526001600160a01b038d8116600483015260248201859052915191909216916340c10f1991604480830192600092919082900301818387803b158015611b3b57600080fd5b505af1158015611b4f573d6000803e3d6000fd5b5050506001600160a01b03808c166000818152600760209081526040918290204290558151928352928d16928201929092528082018b9052606081018790526080810186905260a0810185905260c0810184905290517f38dc38b96482be64113daffd8d464ebda93e856b70ccfc605e69ccf892ab981e92509081900360e00190a19a9950505050505050505050565b6000808411611c35576040805162461bcd60e51b815260206004820152601e60248201527f4c6c704d616e616765723a20696e76616c6964205f6c6c70416d6f756e740000604482015290519081900360640190fd5b6006546001600160a01b0387166000908152600760205260409020544291611c5d91906117ce565b1115611c9a5760405162461bcd60e51b815260040180806020018281038252602c81526020018061250e602c913960400191505060405180910390fd5b6000611ca660006114d6565b90506000600560009054906101000a90046001600160a01b03166001600160a01b03166318160ddd6040518163ffffffff1660e01b815260040160206040518083038186803b158015611cf857600080fd5b505afa158015611d0c573d6000803e3d6000fd5b505050506040513d6020811015611d2257600080fd5b505190506000611d36826109ea898661172d565b60048054604080516370a0823160e01b81523093810193909352519293506000926001600160a01b03909116916370a08231916024808301926020929190829003018186803b158015611d8857600080fd5b505afa158015611d9c573d6000803e3d6000fd5b505050506040513d6020811015611db257600080fd5b5051905080821115611e39576004546001600160a01b03166340c10f1930611dda8585611826565b6040518363ffffffff1660e01b815260040180836001600160a01b0316815260200182815260200192505050600060405180830381600087803b158015611e2057600080fd5b505af1158015611e34573d6000803e3d6000fd5b505050505b60055460408051632770a7eb60e21b81526001600160a01b038d81166004830152602482018c905291519190921691639dc29fac91604480830192600092919082900301818387803b158015611e8e57600080fd5b505af1158015611ea2573d6000803e3d6000fd5b5050600480546002546040805163a9059cbb60e01b81526001600160a01b039283169481019490945260248401889052519116935063a9059cbb925060448083019260209291908290030181600087803b158015611eff57600080fd5b505af1158015611f13573d6000803e3d6000fd5b505050506040513d6020811015611f2957600080fd5b5050600254604080516308a62c5360e11b81526001600160a01b038c8116600483015289811660248301529151600093929092169163114c58a69160448082019260209290919082900301818787803b158015611f8557600080fd5b505af1158015611f99573d6000803e3d6000fd5b505050506040513d6020811015611faf57600080fd5b5051905087811015612008576040805162461bcd60e51b815260206004820152601f60248201527f4c6c704d616e616765723a20696e73756666696369656e74206f757470757400604482015290519081900360640190fd5b604080516001600160a01b03808e1682528c1660208201528082018b9052606081018790526080810186905260a0810185905260c0810183905290517f87b9679bb9a4944bafa98c267e7cd4a00ab29fed48afdefae25f0fca5da279409181900360e00190a19a9950505050505050505050565b600081836121085760405162461bcd60e51b81526004018080602001828103825283818151815260200191508051906020019080838360005b838110156120cd5781810151838201526020016120b5565b50505050905090810190601f1680156120fa5780820380516001836020036101000a031916815260200191505b509250505060405180910390fd5b50600083858161211457fe5b0495945050505050565b600081848411156121705760405162461bcd60e51b81526020600482018181528351602484015283519092839260449091019190850190808383600083156120cd5781810151838201526020016120b5565b505050900390565b604080516001600160a01b0380861660248301528416604482015260648082018490528251808303909101815260849091019091526020810180516001600160e01b03166323b872dd60e01b1790526121d29085906121d8565b50505050565b606061222d826040518060400160405280602081526020017f5361666545524332303a206c6f772d6c6576656c2063616c6c206661696c6564815250856001600160a01b031661228e9092919063ffffffff16565b8051909150156122895780806020019051602081101561224c57600080fd5b50516122895760405162461bcd60e51b815260040180806020018281038252602a81526020018061253a602a913960400191505060405180910390fd5b505050565b60606116998484600085856122a2856123b4565b6122f3576040805162461bcd60e51b815260206004820152601d60248201527f416464726573733a2063616c6c20746f206e6f6e2d636f6e7472616374000000604482015290519081900360640190fd5b60006060866001600160a01b031685876040518082805190602001908083835b602083106123325780518252601f199092019160209182019101612313565b6001836020036101000a03801982511681845116808217855250505050505090500191505060006040518083038185875af1925050503d8060008114612394576040519150601f19603f3d011682016040523d82523d6000602084013e612399565b606091505b50915091506123a98282866123ba565b979650505050505050565b3b151590565b606083156123c9575081611506565b8251156123d95782518084602001fd5b60405162461bcd60e51b81526020600482018181528451602484015284518593919283926044019190850190808383600083156120cd5781810151838201526020016120b556fe5265656e7472616e637947756172643a207265656e7472616e742063616c6c00476f7665726e61626c653a20666f7262696464656e00000000000000000000004c6c704d616e616765723a20696e73756666696369656e74205553444c206f7574707574536166654d6174683a206d756c7469706c69636174696f6e206f766572666c6f774c6c704d616e616765723a20696e73756666696369656e74204c4c50206f75747075744c6c704d616e616765723a20616374696f6e206e6f7420656e61626c656400004c6c704d616e616765723a20696e76616c6964205f636f6f6c646f776e4475726174696f6e4c6c704d616e616765723a20636f6f6c646f776e206475726174696f6e206e6f7420796574207061737365645361666545524332303a204552433230206f7065726174696f6e20646964206e6f742073756363656564a26469706673582212208235434922621ce92f7db85bb183018e7eade4679108991143ef01da5c6cef9f64736f6c634300060c003300000000000000000000000033c93b584fceb5ee55ed1bd8674a0ad2942d871b0000000000000000000000006edfea46dc4f5b58ededaf6b93a4e1fc86c7f636000000000000000000000000460ac11e717735443c604ed13c8313047cebb16a000000000000000000000000659af020acf24559ca45d219cee498ac3b48da960000000000000000000000000000000000000000000000000000000000000384",
  "deployedBytecode": "0x608060405234801561001057600080fd5b50600436106101965760003560e01c8063033914761461019b578063070eacee146101cc578063126082cf146101e857806312d43a51146101f057806317eb2a1514610214578063196b68cb1461025c5780631e9049cf146102645780631ece366a1461026c57806335269315146102a4578063440d828a146102ac57806346ea87af146102d25780634f5f6b5e146102f857806361dbc8c51461031757806364e6617f1461031f578063657bc5d0146103275780636a86da191461032f57806371d597ad1461034e5780638116f131146103925780638b770e111461039a5780638fed0b2c146103c05780639116c4ae146103fa57806395082d251461041d578063966be075146104255780639cb7de4b14610442578063a1acd3d514610470578063b172bb0c146104bb578063bf0c180e146104c3578063cfad57a2146104e2578063d34ee09314610508578063d76437161461052e578063e245b5af14610536578063ed0d1c0414610555578063f073658a146105ad578063fbfa77cf146105b5575b600080fd5b6101ba600480360360208110156101b157600080fd5b503515156105bd565b60408051918252519081900360200190f35b6101d4610c3b565b604080519115158252519081900360200190f35b6101ba610c44565b6101f8610c4a565b604080516001600160a01b039092168252519081900360200190f35b6101ba600480360360c081101561022a57600080fd5b506001600160a01b03813581169160208101358216916040820135169060608101359060808101359060a00135610c59565b6101ba610ccc565b6101ba610cd2565b6101ba6004803603608081101561028257600080fd5b506001600160a01b038135169060208101359060408101359060600135610cd9565b6101ba610d88565b6101ba600480360360208110156102c257600080fd5b50356001600160a01b0316610d8e565b6101d4600480360360208110156102e857600080fd5b50356001600160a01b031661109f565b6103156004803603602081101561030e57600080fd5b50356110b4565b005b6101ba61115c565b6101ba611161565b6101f8611167565b6103156004803603602081101561034557600080fd5b50351515611176565b6101ba600480360360a081101561036457600080fd5b506001600160a01b0381358116916020810135821691604082013591606081013591608090910135166111d6565b6101f8611247565b6101ba600480360360208110156103b057600080fd5b50356001600160a01b0316611256565b6101ba600480360360808110156103d657600080fd5b506001600160a01b0381358116916020810135916040820135916060013516611268565b6103156004803603604081101561041057600080fd5b5080359060200135611308565b6101ba611360565b6103156004803603602081101561043b57600080fd5b5035611370565b6103156004803603604081101561045857600080fd5b506001600160a01b0381351690602001351515611404565b6104a26004803603606081101561048657600080fd5b506001600160a01b03813516906020810135906040013561147c565b6040805192835290151560208301528051918290030190f35b6101ba6114d0565b6101ba600480360360208110156104d957600080fd5b503515156114d6565b610315600480360360208110156104f857600080fd5b50356001600160a01b031661150d565b6103156004803603602081101561051e57600080fd5b50356001600160a01b031661157c565b6101ba6115eb565b6101ba6004803603602081101561054c57600080fd5b503515156115f7565b61055d6116a1565b60408051602080825283518183015283519192839290830191858101910280838360005b83811015610599578181015183820152602001610581565b505050509050019250505060405180910390f35b6101f861170f565b6101f861171e565b600080600260009054906101000a90046001600160a01b03166001600160a01b0316630842b0766040518163ffffffff1660e01b815260040160206040518083038186803b15801561060e57600080fd5b505afa158015610622573d6000803e3d6000fd5b505050506040513d602081101561063857600080fd5b5051600854600254919250906000906001600160a01b0316815b84811015610bf45760025460408051630e468baf60e41b81526004810184905290516000926001600160a01b03169163e468baf0916024808301926020929190829003018186803b1580156106a657600080fd5b505afa1580156106ba573d6000803e3d6000fd5b505050506040513d60208110156106d057600080fd5b505160025460408051630daf9c2160e41b81526001600160a01b0380851660048301529151939450600093919092169163daf9c210916024808301926020929190829003018186803b15801561072557600080fd5b505afa158015610739573d6000803e3d6000fd5b505050506040513d602081101561074f57600080fd5b505190508061075f575050610bec565b6000896107e457846001600160a01b03166381a612d6846040518263ffffffff1660e01b815260040180826001600160a01b0316815260200191505060206040518083038186803b1580156107b357600080fd5b505afa1580156107c7573d6000803e3d6000fd5b505050506040513d60208110156107dd57600080fd5b505161085e565b846001600160a01b031663e124e6d2846040518263ffffffff1660e01b815260040180826001600160a01b0316815260200191505060206040518083038186803b15801561083157600080fd5b505afa158015610845573d6000803e3d6000fd5b505050506040513d602081101561085b57600080fd5b50515b90506000856001600160a01b03166352f55eed856040518263ffffffff1660e01b815260040180826001600160a01b0316815260200191505060206040518083038186803b1580156108af57600080fd5b505afa1580156108c3573d6000803e3d6000fd5b505050506040513d60208110156108d957600080fd5b5051604080516323b95ceb60e21b81526001600160a01b038781166004830152915192935060009291891691638ee573ac91602480820192602092909190829003018186803b15801561092b57600080fd5b505afa15801561093f573d6000803e3d6000fd5b505050506040513d602081101561095557600080fd5b5051604080516342b60b0360e01b81526001600160a01b0388811660048301529151929350908916916342b60b0391602480820192602092909190829003018186803b1580156109a457600080fd5b505afa1580156109b8573d6000803e3d6000fd5b505050506040513d60208110156109ce57600080fd5b5051156109fe576109f76109f0600a83900a6109ea858761172d565b9061178f565b8a906117ce565b9850610be6565b6000876001600160a01b0316638a78daa8876040518263ffffffff1660e01b815260040180826001600160a01b0316815260200191505060206040518083038186803b158015610a4d57600080fd5b505afa158015610a61573d6000803e3d6000fd5b505050506040513d6020811015610a7757600080fd5b505190508015610ab957600080610a8f88878561147c565b9150915080610aa957610aa28c836117ce565b9b50610ab6565b610ab38b836117ce565b9a505b50505b610b3c886001600160a01b031663f07456ce886040518263ffffffff1660e01b815260040180826001600160a01b0316815260200191505060206040518083038186803b158015610b0957600080fd5b505afa158015610b1d573d6000803e3d6000fd5b505050506040513d6020811015610b3357600080fd5b50518b906117ce565b99506000886001600160a01b031663c3c7b9e9886040518263ffffffff1660e01b815260040180826001600160a01b0316815260200191505060206040518083038186803b158015610b8d57600080fd5b505afa158015610ba1573d6000803e3d6000fd5b505050506040513d6020811015610bb757600080fd5b50519050610be1610bda600a85900a6109ea88610bd48987611826565b9061172d565b8c906117ce565b9a5050505b50505050505b600101610652565b50828211610c0b57610c068383611826565b610c0e565b60005b92508260095411610c2c57600954610c27908490611826565b610c2f565b60005b9450505050505b919050565b600a5460ff1681565b61271081565b6001546001600160a01b031681565b600060026000541415610ca1576040805162461bcd60e51b815260206004820152601f6024820152600080516020612421833981519152604482015290519081900360640190fd5b6002600055610cae611868565b610cbc8787878787876118c6565b6001600055979650505050505050565b60085481565b6202a30081565b600060026000541415610d21576040805162461bcd60e51b815260206004820152601f6024820152600080516020612421833981519152604482015290519081900360640190fd5b6002600055600a5460ff1615610d6c576040805162461bcd60e51b815260206004820152601e60248201526000805160206124c9833981519152604482015290519081900360640190fd5b610d7a3333878787876118c6565b600160005595945050505050565b60065481565b6003546000906001600160a01b0316801580610e0c5750806001600160a01b0316639a11178f6040518163ffffffff1660e01b815260040160206040518083038186803b158015610dde57600080fd5b505afa158015610df2573d6000803e3d6000fd5b505050506040513d6020811015610e0857600080fd5b5051155b15610e935760025460408051636274980360e01b81526001600160a01b038681166004830152915191909216916362749803916024808301926020929190829003018186803b158015610e5e57600080fd5b505afa158015610e72573d6000803e3d6000fd5b505050506040513d6020811015610e8857600080fd5b50519150610c369050565b600b5480610f1e5760025460408051636274980360e01b81526001600160a01b038781166004830152915191909216916362749803916024808301926020929190829003018186803b158015610ee857600080fd5b505afa158015610efc573d6000803e3d6000fd5b505050506040513d6020811015610f1257600080fd5b50519250610c36915050565b612710811415610f7557816001600160a01b03166362749803856040518263ffffffff1660e01b815260040180826001600160a01b0316815260200191505060206040518083038186803b158015610ee857600080fd5b60025460408051636274980360e01b81526001600160a01b03878116600483015291516000939290921691636274980391602480820192602092909190829003018186803b158015610fc657600080fd5b505afa158015610fda573d6000803e3d6000fd5b505050506040513d6020811015610ff057600080fd5b505160408051636274980360e01b81526001600160a01b038881166004830152915192935060009291861691636274980391602480820192602092909190829003018186803b15801561104257600080fd5b505afa158015611056573d6000803e3d6000fd5b505050506040513d602081101561106c57600080fd5b50519050610c2f6127106109ea611083848761172d565b61109961109261271089611826565b879061172d565b906117ce565b600c6020526000908152604090205460ff1681565b6001546001600160a01b03163314611101576040805162461bcd60e51b81526020600482015260156024820152600080516020612441833981519152604482015290519081900360640190fd5b612710600b541115611157576040805162461bcd60e51b815260206004820152601a602482015279131b1c13585b9859d95c8e881a5b9d985b1a59081dd95a59da1d60321b604482015290519081900360640190fd5b600b55565b601281565b600b5481565b6003546001600160a01b031681565b6001546001600160a01b031633146111c3576040805162461bcd60e51b81526020600482015260156024820152600080516020612441833981519152604482015290519081900360640190fd5b600a805460ff1916911515919091179055565b60006002600054141561121e576040805162461bcd60e51b815260206004820152601f6024820152600080516020612421833981519152604482015290519081900360640190fd5b600260005561122b611868565b6112388686868686611bdf565b60016000559695505050505050565b6005546001600160a01b031681565b60076020526000908152604090205481565b6000600260005414156112b0576040805162461bcd60e51b815260206004820152601f6024820152600080516020612421833981519152604482015290519081900360640190fd5b6002600055600a5460ff16156112fb576040805162461bcd60e51b815260206004820152601e60248201526000805160206124c9833981519152604482015290519081900360640190fd5b610d7a3386868686611bdf565b6001546001600160a01b03163314611355576040805162461bcd60e51b81526020600482015260156024820152600080516020612441833981519152604482015290519081900360640190fd5b600891909155600955565b68327cb2734119d3b7a9601e1b81565b6001546001600160a01b031633146113bd576040805162461bcd60e51b81526020600482015260156024820152600080516020612441833981519152604482015290519081900360640190fd5b6202a3008111156113ff5760405162461bcd60e51b81526004018080602001828103825260258152602001806124e96025913960400191505060405180910390fd5b600655565b6001546001600160a01b03163314611451576040805162461bcd60e51b81526020600482015260156024820152600080516020612441833981519152604482015290519081900360640190fd5b6001600160a01b03919091166000908152600c60205260409020805460ff1916911515919091179055565b600080600061148a86610d8e565b905060008582116114a45761149f8683611826565b6114ae565b6114ae8287611826565b905060006114c0836109ea888561172d565b9450505084109050935093915050565b60095481565b6000806114e2836105bd565b905061150668327cb2734119d3b7a9601e1b6109ea83670de0b6b3a764000061172d565b9392505050565b6001546001600160a01b0316331461155a576040805162461bcd60e51b81526020600482015260156024820152600080516020612441833981519152604482015290519081900360640190fd5b600180546001600160a01b0319166001600160a01b0392909216919091179055565b6001546001600160a01b031633146115c9576040805162461bcd60e51b81526020600482015260156024820152600080516020612441833981519152604482015290519081900360640190fd5b600380546001600160a01b0319166001600160a01b0392909216919091179055565b670de0b6b3a764000081565b600080611603836105bd565b90506000600560009054906101000a90046001600160a01b03166001600160a01b03166318160ddd6040518163ffffffff1660e01b815260040160206040518083038186803b15801561165557600080fd5b505afa158015611669573d6000803e3d6000fd5b505050506040513d602081101561167f57600080fd5b50519050611699816109ea84670de0b6b3a764000061172d565b949350505050565b6040805160028082526060808301845292839291906020830190803683370190505090506116cf60016105bd565b816000815181106116dc57fe5b6020026020010181815250506116f260006105bd565b816001815181106116ff57fe5b6020908102919091010152905090565b6004546001600160a01b031681565b6002546001600160a01b031681565b60008261173c57506000611789565b8282028284828161174957fe5b04146117865760405162461bcd60e51b81526004018080602001828103825260218152602001806124856021913960400191505060405180910390fd5b90505b92915050565b600061178683836040518060400160405280601a815260200179536166654d6174683a206469766973696f6e206279207a65726f60301b81525061207c565b600082820183811015611786576040805162461bcd60e51b815260206004820152601b60248201527a536166654d6174683a206164646974696f6e206f766572666c6f7760281b604482015290519081900360640190fd5b600061178683836040518060400160405280601e81526020017f536166654d6174683a207375627472616374696f6e206f766572666c6f77000081525061211e565b336000908152600c602052604090205460ff166118c4576040805162461bcd60e51b815260206004820152601560248201527426363826b0b730b3b2b91d103337b93134b23232b760591b604482015290519081900360640190fd5b565b600080841161191a576040805162461bcd60e51b815260206004820152601b60248201527a131b1c13585b9859d95c8e881a5b9d985b1a590817d85b5bdd5b9d602a1b604482015290519081900360640190fd5b600061192660016114d6565b90506000600560009054906101000a90046001600160a01b03166001600160a01b03166318160ddd6040518163ffffffff1660e01b815260040160206040518083038186803b15801561197857600080fd5b505afa15801561198c573d6000803e3d6000fd5b505050506040513d60208110156119a257600080fd5b50516002549091506119c3906001600160a01b03898116918c911689612178565b60025460408051635000600160e01b81526001600160a01b038a811660048301523060248301529151600093929092169163500060019160448082019260209290919082900301818787803b158015611a1b57600080fd5b505af1158015611a2f573d6000803e3d6000fd5b505050506040513d6020811015611a4557600080fd5b5051905085811015611a885760405162461bcd60e51b81526004018080602001828103825260248152602001806124616024913960400191505060405180910390fd5b60008315611aa357611a9e846109ea848661172d565b611aa5565b815b905085811015611ae65760405162461bcd60e51b81526004018080602001828103825260238152602001806124a66023913960400191505060405180910390fd5b600554604080516340c10f1960e01b81526001600160a01b038d8116600483015260248201859052915191909216916340c10f1991604480830192600092919082900301818387803b158015611b3b57600080fd5b505af1158015611b4f573d6000803e3d6000fd5b5050506001600160a01b03808c166000818152600760209081526040918290204290558151928352928d16928201929092528082018b9052606081018790526080810186905260a0810185905260c0810184905290517f38dc38b96482be64113daffd8d464ebda93e856b70ccfc605e69ccf892ab981e92509081900360e00190a19a9950505050505050505050565b6000808411611c35576040805162461bcd60e51b815260206004820152601e60248201527f4c6c704d616e616765723a20696e76616c6964205f6c6c70416d6f756e740000604482015290519081900360640190fd5b6006546001600160a01b0387166000908152600760205260409020544291611c5d91906117ce565b1115611c9a5760405162461bcd60e51b815260040180806020018281038252602c81526020018061250e602c913960400191505060405180910390fd5b6000611ca660006114d6565b90506000600560009054906101000a90046001600160a01b03166001600160a01b03166318160ddd6040518163ffffffff1660e01b815260040160206040518083038186803b158015611cf857600080fd5b505afa158015611d0c573d6000803e3d6000fd5b505050506040513d6020811015611d2257600080fd5b505190506000611d36826109ea898661172d565b60048054604080516370a0823160e01b81523093810193909352519293506000926001600160a01b03909116916370a08231916024808301926020929190829003018186803b158015611d8857600080fd5b505afa158015611d9c573d6000803e3d6000fd5b505050506040513d6020811015611db257600080fd5b5051905080821115611e39576004546001600160a01b03166340c10f1930611dda8585611826565b6040518363ffffffff1660e01b815260040180836001600160a01b0316815260200182815260200192505050600060405180830381600087803b158015611e2057600080fd5b505af1158015611e34573d6000803e3d6000fd5b505050505b60055460408051632770a7eb60e21b81526001600160a01b038d81166004830152602482018c905291519190921691639dc29fac91604480830192600092919082900301818387803b158015611e8e57600080fd5b505af1158015611ea2573d6000803e3d6000fd5b5050600480546002546040805163a9059cbb60e01b81526001600160a01b039283169481019490945260248401889052519116935063a9059cbb925060448083019260209291908290030181600087803b158015611eff57600080fd5b505af1158015611f13573d6000803e3d6000fd5b505050506040513d6020811015611f2957600080fd5b5050600254604080516308a62c5360e11b81526001600160a01b038c8116600483015289811660248301529151600093929092169163114c58a69160448082019260209290919082900301818787803b158015611f8557600080fd5b505af1158015611f99573d6000803e3d6000fd5b505050506040513d6020811015611faf57600080fd5b5051905087811015612008576040805162461bcd60e51b815260206004820152601f60248201527f4c6c704d616e616765723a20696e73756666696369656e74206f757470757400604482015290519081900360640190fd5b604080516001600160a01b03808e1682528c1660208201528082018b9052606081018790526080810186905260a0810185905260c0810183905290517f87b9679bb9a4944bafa98c267e7cd4a00ab29fed48afdefae25f0fca5da279409181900360e00190a19a9950505050505050505050565b600081836121085760405162461bcd60e51b81526004018080602001828103825283818151815260200191508051906020019080838360005b838110156120cd5781810151838201526020016120b5565b50505050905090810190601f1680156120fa5780820380516001836020036101000a031916815260200191505b509250505060405180910390fd5b50600083858161211457fe5b0495945050505050565b600081848411156121705760405162461bcd60e51b81526020600482018181528351602484015283519092839260449091019190850190808383600083156120cd5781810151838201526020016120b5565b505050900390565b604080516001600160a01b0380861660248301528416604482015260648082018490528251808303909101815260849091019091526020810180516001600160e01b03166323b872dd60e01b1790526121d29085906121d8565b50505050565b606061222d826040518060400160405280602081526020017f5361666545524332303a206c6f772d6c6576656c2063616c6c206661696c6564815250856001600160a01b031661228e9092919063ffffffff16565b8051909150156122895780806020019051602081101561224c57600080fd5b50516122895760405162461bcd60e51b815260040180806020018281038252602a81526020018061253a602a913960400191505060405180910390fd5b505050565b60606116998484600085856122a2856123b4565b6122f3576040805162461bcd60e51b815260206004820152601d60248201527f416464726573733a2063616c6c20746f206e6f6e2d636f6e7472616374000000604482015290519081900360640190fd5b60006060866001600160a01b031685876040518082805190602001908083835b602083106123325780518252601f199092019160209182019101612313565b6001836020036101000a03801982511681845116808217855250505050505090500191505060006040518083038185875af1925050503d8060008114612394576040519150601f19603f3d011682016040523d82523d6000602084013e612399565b606091505b50915091506123a98282866123ba565b979650505050505050565b3b151590565b606083156123c9575081611506565b8251156123d95782518084602001fd5b60405162461bcd60e51b81526020600482018181528451602484015284518593919283926044019190850190808383600083156120cd5781810151838201526020016120b556fe5265656e7472616e637947756172643a207265656e7472616e742063616c6c00476f7665726e61626c653a20666f7262696464656e00000000000000000000004c6c704d616e616765723a20696e73756666696369656e74205553444c206f7574707574536166654d6174683a206d756c7469706c69636174696f6e206f766572666c6f774c6c704d616e616765723a20696e73756666696369656e74204c4c50206f75747075744c6c704d616e616765723a20616374696f6e206e6f7420656e61626c656400004c6c704d616e616765723a20696e76616c6964205f636f6f6c646f776e4475726174696f6e4c6c704d616e616765723a20636f6f6c646f776e206475726174696f6e206e6f7420796574207061737365645361666545524332303a204552433230206f7065726174696f6e20646964206e6f742073756363656564a26469706673582212203779e4ab8eb7136b77085aaa57c5e88d0fdc162dafc8436a385ddd7ca19bc25364736f6c634300060c0033",
  "linkReferences": {},
  "deployedLinkReferences": {}
}