{
  "_format": "hh-sol-artifact-1",
  "contractName": "PositionRouter",
  "sourceName": "contracts/core/PositionRouter.sol",
  "abi": [
    {
      "inputs": [
        {
          "internalType": "address",
          "name": "_vault",
          "type": "address"
        },
        {
          "internalType": "address",
          "name": "_router",
          "type": "address"
        },
        {
          "internalType": "address",
          "name": "_weth",
          "type": "address"
        },
        {
          "internalType": "address",
          "name": "_shortsTracker",
          "type": "address"
        },
        {
          "internalType": "uint256",
          "name": "_depositFee",
          "type": "uint256"
        },
        {
          "internalType": "uint256",
          "name": "_minExecutionFee",
          "type": "uint256"
        }
      ],
      "stateMutability": "nonpayable",
      "type": "constructor"
    },
    {
      "anonymous": false,
      "inputs": [
        {
          "indexed": false,
          "internalType": "address",
          "name": "callbackTarget",
          "type": "address"
        },
        {
          "indexed": false,
          "internalType": "bool",
          "name": "success",
          "type": "bool"
        }
      ],
      "name": "Callback",
      "type": "event"
    },
    {
      "anonymous": false,
      "inputs": [
        {
          "indexed": true,
          "internalType": "address",
          "name": "account",
          "type": "address"
        },
        {
          "indexed": false,
          "internalType": "address[]",
          "name": "path",
          "type": "address[]"
        },
        {
          "indexed": false,
          "internalType": "address",
          "name": "indexToken",
          "type": "address"
        },
        {
          "indexed": false,
          "internalType": "uint256",
          "name": "collateralDelta",
          "type": "uint256"
        },
        {
          "indexed": false,
          "internalType": "uint256",
          "name": "sizeDelta",
          "type": "uint256"
        },
        {
          "indexed": false,
          "internalType": "bool",
          "name": "isLong",
          "type": "bool"
        },
        {
          "indexed": false,
          "internalType": "address",
          "name": "receiver",
          "type": "address"
        },
        {
          "indexed": false,
          "internalType": "uint256",
          "name": "acceptablePrice",
          "type": "uint256"
        },
        {
          "indexed": false,
          "internalType": "uint256",
          "name": "minOut",
          "type": "uint256"
        },
        {
          "indexed": false,
          "internalType": "uint256",
          "name": "executionFee",
          "type": "uint256"
        },
        {
          "indexed": false,
          "internalType": "uint256",
          "name": "blockGap",
          "type": "uint256"
        },
        {
          "indexed": false,
          "internalType": "uint256",
          "name": "timeGap",
          "type": "uint256"
        }
      ],
      "name": "CancelDecreasePosition",
      "type": "event"
    },
    {
      "anonymous": false,
      "inputs": [
        {
          "indexed": true,
          "internalType": "address",
          "name": "account",
          "type": "address"
        },
        {
          "indexed": false,
          "internalType": "address[]",
          "name": "path",
          "type": "address[]"
        },
        {
          "indexed": false,
          "internalType": "address",
          "name": "indexToken",
          "type": "address"
        },
        {
          "indexed": false,
          "internalType": "uint256",
          "name": "amountIn",
          "type": "uint256"
        },
        {
          "indexed": false,
          "internalType": "uint256",
          "name": "minOut",
          "type": "uint256"
        },
        {
          "indexed": false,
          "internalType": "uint256",
          "name": "sizeDelta",
          "type": "uint256"
        },
        {
          "indexed": false,
          "internalType": "bool",
          "name": "isLong",
          "type": "bool"
        },
        {
          "indexed": false,
          "internalType": "uint256",
          "name": "acceptablePrice",
          "type": "uint256"
        },
        {
          "indexed": false,
          "internalType": "uint256",
          "name": "executionFee",
          "type": "uint256"
        },
        {
          "indexed": false,
          "internalType": "uint256",
          "name": "blockGap",
          "type": "uint256"
        },
        {
          "indexed": false,
          "internalType": "uint256",
          "name": "timeGap",
          "type": "uint256"
        }
      ],
      "name": "CancelIncreasePosition",
      "type": "event"
    },
    {
      "anonymous": false,
      "inputs": [
        {
          "indexed": true,
          "internalType": "address",
          "name": "account",
          "type": "address"
        },
        {
          "indexed": false,
          "internalType": "address[]",
          "name": "path",
          "type": "address[]"
        },
        {
          "indexed": false,
          "internalType": "address",
          "name": "indexToken",
          "type": "address"
        },
        {
          "indexed": false,
          "internalType": "uint256",
          "name": "collateralDelta",
          "type": "uint256"
        },
        {
          "indexed": false,
          "internalType": "uint256",
          "name": "sizeDelta",
          "type": "uint256"
        },
        {
          "indexed": false,
          "internalType": "bool",
          "name": "isLong",
          "type": "bool"
        },
        {
          "indexed": false,
          "internalType": "address",
          "name": "receiver",
          "type": "address"
        },
        {
          "indexed": false,
          "internalType": "uint256",
          "name": "acceptablePrice",
          "type": "uint256"
        },
        {
          "indexed": false,
          "internalType": "uint256",
          "name": "minOut",
          "type": "uint256"
        },
        {
          "indexed": false,
          "internalType": "uint256",
          "name": "executionFee",
          "type": "uint256"
        },
        {
          "indexed": false,
          "internalType": "uint256",
          "name": "index",
          "type": "uint256"
        },
        {
          "indexed": false,
          "internalType": "uint256",
          "name": "queueIndex",
          "type": "uint256"
        },
        {
          "indexed": false,
          "internalType": "uint256",
          "name": "blockNumber",
          "type": "uint256"
        },
        {
          "indexed": false,
          "internalType": "uint256",
          "name": "blockTime",
          "type": "uint256"
        }
      ],
      "name": "CreateDecreasePosition",
      "type": "event"
    },
    {
      "anonymous": false,
      "inputs": [
        {
          "indexed": true,
          "internalType": "address",
          "name": "account",
          "type": "address"
        },
        {
          "indexed": false,
          "internalType": "address[]",
          "name": "path",
          "type": "address[]"
        },
        {
          "indexed": false,
          "internalType": "address",
          "name": "indexToken",
          "type": "address"
        },
        {
          "indexed": false,
          "internalType": "uint256",
          "name": "amountIn",
          "type": "uint256"
        },
        {
          "indexed": false,
          "internalType": "uint256",
          "name": "minOut",
          "type": "uint256"
        },
        {
          "indexed": false,
          "internalType": "uint256",
          "name": "sizeDelta",
          "type": "uint256"
        },
        {
          "indexed": false,
          "internalType": "bool",
          "name": "isLong",
          "type": "bool"
        },
        {
          "indexed": false,
          "internalType": "uint256",
          "name": "acceptablePrice",
          "type": "uint256"
        },
        {
          "indexed": false,
          "internalType": "uint256",
          "name": "executionFee",
          "type": "uint256"
        },
        {
          "indexed": false,
          "internalType": "uint256",
          "name": "index",
          "type": "uint256"
        },
        {
          "indexed": false,
          "internalType": "uint256",
          "name": "queueIndex",
          "type": "uint256"
        },
        {
          "indexed": false,
          "internalType": "uint256",
          "name": "blockNumber",
          "type": "uint256"
        },
        {
          "indexed": false,
          "internalType": "uint256",
          "name": "blockTime",
          "type": "uint256"
        },
        {
          "indexed": false,
          "internalType": "uint256",
          "name": "gasPrice",
          "type": "uint256"
        }
      ],
      "name": "CreateIncreasePosition",
      "type": "event"
    },
    {
      "anonymous": false,
      "inputs": [
        {
          "indexed": false,
          "internalType": "address",
          "name": "account",
          "type": "address"
        },
        {
          "indexed": false,
          "internalType": "uint256",
          "name": "sizeDelta",
          "type": "uint256"
        },
        {
          "indexed": false,
          "internalType": "uint256",
          "name": "marginFeeBasisPoints",
          "type": "uint256"
        },
        {
          "indexed": false,
          "internalType": "bytes32",
          "name": "referralCode",
          "type": "bytes32"
        },
        {
          "indexed": false,
          "internalType": "address",
          "name": "referrer",
          "type": "address"
        }
      ],
      "name": "DecreasePositionReferral",
      "type": "event"
    },
    {
      "anonymous": false,
      "inputs": [
        {
          "indexed": true,
          "internalType": "address",
          "name": "account",
          "type": "address"
        },
        {
          "indexed": false,
          "internalType": "address[]",
          "name": "path",
          "type": "address[]"
        },
        {
          "indexed": false,
          "internalType": "address",
          "name": "indexToken",
          "type": "address"
        },
        {
          "indexed": false,
          "internalType": "uint256",
          "name": "collateralDelta",
          "type": "uint256"
        },
        {
          "indexed": false,
          "internalType": "uint256",
          "name": "sizeDelta",
          "type": "uint256"
        },
        {
          "indexed": false,
          "internalType": "bool",
          "name": "isLong",
          "type": "bool"
        },
        {
          "indexed": false,
          "internalType": "address",
          "name": "receiver",
          "type": "address"
        },
        {
          "indexed": false,
          "internalType": "uint256",
          "name": "acceptablePrice",
          "type": "uint256"
        },
        {
          "indexed": false,
          "internalType": "uint256",
          "name": "minOut",
          "type": "uint256"
        },
        {
          "indexed": false,
          "internalType": "uint256",
          "name": "executionFee",
          "type": "uint256"
        },
        {
          "indexed": false,
          "internalType": "uint256",
          "name": "blockGap",
          "type": "uint256"
        },
        {
          "indexed": false,
          "internalType": "uint256",
          "name": "timeGap",
          "type": "uint256"
        }
      ],
      "name": "ExecuteDecreasePosition",
      "type": "event"
    },
    {
      "anonymous": false,
      "inputs": [
        {
          "indexed": true,
          "internalType": "address",
          "name": "account",
          "type": "address"
        },
        {
          "indexed": false,
          "internalType": "address[]",
          "name": "path",
          "type": "address[]"
        },
        {
          "indexed": false,
          "internalType": "address",
          "name": "indexToken",
          "type": "address"
        },
        {
          "indexed": false,
          "internalType": "uint256",
          "name": "amountIn",
          "type": "uint256"
        },
        {
          "indexed": false,
          "internalType": "uint256",
          "name": "minOut",
          "type": "uint256"
        },
        {
          "indexed": false,
          "internalType": "uint256",
          "name": "sizeDelta",
          "type": "uint256"
        },
        {
          "indexed": false,
          "internalType": "bool",
          "name": "isLong",
          "type": "bool"
        },
        {
          "indexed": false,
          "internalType": "uint256",
          "name": "acceptablePrice",
          "type": "uint256"
        },
        {
          "indexed": false,
          "internalType": "uint256",
          "name": "executionFee",
          "type": "uint256"
        },
        {
          "indexed": false,
          "internalType": "uint256",
          "name": "blockGap",
          "type": "uint256"
        },
        {
          "indexed": false,
          "internalType": "uint256",
          "name": "timeGap",
          "type": "uint256"
        }
      ],
      "name": "ExecuteIncreasePosition",
      "type": "event"
    },
    {
      "anonymous": false,
      "inputs": [
        {
          "indexed": false,
          "internalType": "address",
          "name": "account",
          "type": "address"
        },
        {
          "indexed": false,
          "internalType": "uint256",
          "name": "sizeDelta",
          "type": "uint256"
        },
        {
          "indexed": false,
          "internalType": "uint256",
          "name": "marginFeeBasisPoints",
          "type": "uint256"
        },
        {
          "indexed": false,
          "internalType": "bytes32",
          "name": "referralCode",
          "type": "bytes32"
        },
        {
          "indexed": false,
          "internalType": "address",
          "name": "referrer",
          "type": "address"
        }
      ],
      "name": "IncreasePositionReferral",
      "type": "event"
    },
    {
      "anonymous": false,
      "inputs": [
        {
          "indexed": false,
          "internalType": "address",
          "name": "admin",
          "type": "address"
        }
      ],
      "name": "SetAdmin",
      "type": "event"
    },
    {
      "anonymous": false,
      "inputs": [
        {
          "indexed": false,
          "internalType": "uint256",
          "name": "callbackGasLimit",
          "type": "uint256"
        }
      ],
      "name": "SetCallbackGasLimit",
      "type": "event"
    },
    {
      "anonymous": false,
      "inputs": [
        {
          "indexed": false,
          "internalType": "uint256",
          "name": "minBlockDelayKeeper",
          "type": "uint256"
        },
        {
          "indexed": false,
          "internalType": "uint256",
          "name": "minTimeDelayPublic",
          "type": "uint256"
        },
        {
          "indexed": false,
          "internalType": "uint256",
          "name": "maxTimeDelay",
          "type": "uint256"
        }
      ],
      "name": "SetDelayValues",
      "type": "event"
    },
    {
      "anonymous": false,
      "inputs": [
        {
          "indexed": false,
          "internalType": "uint256",
          "name": "depositFee",
          "type": "uint256"
        }
      ],
      "name": "SetDepositFee",
      "type": "event"
    },
    {
      "anonymous": false,
      "inputs": [
        {
          "indexed": false,
          "internalType": "uint256",
          "name": "ethTransferGasLimit",
          "type": "uint256"
        }
      ],
      "name": "SetEthTransferGasLimit",
      "type": "event"
    },
    {
      "anonymous": false,
      "inputs": [
        {
          "indexed": false,
          "internalType": "uint256",
          "name": "increasePositionBufferBps",
          "type": "uint256"
        }
      ],
      "name": "SetIncreasePositionBufferBps",
      "type": "event"
    },
    {
      "anonymous": false,
      "inputs": [
        {
          "indexed": false,
          "internalType": "bool",
          "name": "isLeverageEnabled",
          "type": "bool"
        }
      ],
      "name": "SetIsLeverageEnabled",
      "type": "event"
    },
    {
      "anonymous": false,
      "inputs": [
        {
          "indexed": false,
          "internalType": "address[]",
          "name": "tokens",
          "type": "address[]"
        },
        {
          "indexed": false,
          "internalType": "uint256[]",
          "name": "longSizes",
          "type": "uint256[]"
        },
        {
          "indexed": false,
          "internalType": "uint256[]",
          "name": "shortSizes",
          "type": "uint256[]"
        }
      ],
      "name": "SetMaxGlobalSizes",
      "type": "event"
    },
    {
      "anonymous": false,
      "inputs": [
        {
          "indexed": false,
          "internalType": "uint256",
          "name": "minExecutionFee",
          "type": "uint256"
        }
      ],
      "name": "SetMinExecutionFee",
      "type": "event"
    },
    {
      "anonymous": false,
      "inputs": [
        {
          "indexed": true,
          "internalType": "address",
          "name": "account",
          "type": "address"
        },
        {
          "indexed": false,
          "internalType": "bool",
          "name": "isActive",
          "type": "bool"
        }
      ],
      "name": "SetPositionKeeper",
      "type": "event"
    },
    {
      "anonymous": false,
      "inputs": [
        {
          "indexed": false,
          "internalType": "address",
          "name": "referralStorage",
          "type": "address"
        }
      ],
      "name": "SetReferralStorage",
      "type": "event"
    },
    {
      "anonymous": false,
      "inputs": [
        {
          "indexed": false,
          "internalType": "uint256",
          "name": "increasePositionRequestKeysStart",
          "type": "uint256"
        },
        {
          "indexed": false,
          "internalType": "uint256",
          "name": "decreasePositionRequestKeysStart",
          "type": "uint256"
        }
      ],
      "name": "SetRequestKeysStartValues",
      "type": "event"
    },
    {
      "anonymous": false,
      "inputs": [
        {
          "indexed": false,
          "internalType": "address",
          "name": "token",
          "type": "address"
        },
        {
          "indexed": false,
          "internalType": "address",
          "name": "receiver",
          "type": "address"
        },
        {
          "indexed": false,
          "internalType": "uint256",
          "name": "amount",
          "type": "uint256"
        }
      ],
      "name": "WithdrawFees",
      "type": "event"
    },
    {
      "inputs": [],
      "name": "BASIS_POINTS_DIVISOR",
      "outputs": [
        {
          "internalType": "uint256",
          "name": "",
          "type": "uint256"
        }
      ],
      "stateMutability": "view",
      "type": "function"
    },
    {
      "inputs": [],
      "name": "admin",
      "outputs": [
        {
          "internalType": "address",
          "name": "",
          "type": "address"
        }
      ],
      "stateMutability": "view",
      "type": "function"
    },
    {
      "inputs": [
        {
          "internalType": "address",
          "name": "_token",
          "type": "address"
        },
        {
          "internalType": "address",
          "name": "_spender",
          "type": "address"
        },
        {
          "internalType": "uint256",
          "name": "_amount",
          "type": "uint256"
        }
      ],
      "name": "approve",
      "outputs": [],
      "stateMutability": "nonpayable",
      "type": "function"
    },
    {
      "inputs": [],
      "name": "callbackGasLimit",
      "outputs": [
        {
          "internalType": "uint256",
          "name": "",
          "type": "uint256"
        }
      ],
      "stateMutability": "view",
      "type": "function"
    },
    {
      "inputs": [
        {
          "internalType": "bytes32",
          "name": "_key",
          "type": "bytes32"
        },
        {
          "internalType": "address payable",
          "name": "_executionFeeReceiver",
          "type": "address"
        }
      ],
      "name": "cancelDecreasePosition",
      "outputs": [
        {
          "internalType": "bool",
          "name": "",
          "type": "bool"
        }
      ],
      "stateMutability": "nonpayable",
      "type": "function"
    },
    {
      "inputs": [
        {
          "internalType": "bytes32",
          "name": "_key",
          "type": "bytes32"
        },
        {
          "internalType": "address payable",
          "name": "_executionFeeReceiver",
          "type": "address"
        }
      ],
      "name": "cancelIncreasePosition",
      "outputs": [
        {
          "internalType": "bool",
          "name": "",
          "type": "bool"
        }
      ],
      "stateMutability": "nonpayable",
      "type": "function"
    },
    {
      "inputs": [
        {
          "internalType": "address[]",
          "name": "_path",
          "type": "address[]"
        },
        {
          "internalType": "address",
          "name": "_indexToken",
          "type": "address"
        },
        {
          "internalType": "uint256",
          "name": "_collateralDelta",
          "type": "uint256"
        },
        {
          "internalType": "uint256",
          "name": "_sizeDelta",
          "type": "uint256"
        },
        {
          "internalType": "bool",
          "name": "_isLong",
          "type": "bool"
        },
        {
          "internalType": "address",
          "name": "_receiver",
          "type": "address"
        },
        {
          "internalType": "uint256",
          "name": "_acceptablePrice",
          "type": "uint256"
        },
        {
          "internalType": "uint256",
          "name": "_minOut",
          "type": "uint256"
        },
        {
          "internalType": "uint256",
          "name": "_executionFee",
          "type": "uint256"
        },
        {
          "internalType": "bool",
          "name": "_withdrawETH",
          "type": "bool"
        },
        {
          "internalType": "address",
          "name": "_callbackTarget",
          "type": "address"
        }
      ],
      "name": "createDecreasePosition",
      "outputs": [
        {
          "internalType": "bytes32",
          "name": "",
          "type": "bytes32"
        }
      ],
      "stateMutability": "payable",
      "type": "function"
    },
    {
      "inputs": [
        {
          "internalType": "address[]",
          "name": "_path",
          "type": "address[]"
        },
        {
          "internalType": "address",
          "name": "_indexToken",
          "type": "address"
        },
        {
          "internalType": "uint256",
          "name": "_amountIn",
          "type": "uint256"
        },
        {
          "internalType": "uint256",
          "name": "_minOut",
          "type": "uint256"
        },
        {
          "internalType": "uint256",
          "name": "_sizeDelta",
          "type": "uint256"
        },
        {
          "internalType": "bool",
          "name": "_isLong",
          "type": "bool"
        },
        {
          "internalType": "uint256",
          "name": "_acceptablePrice",
          "type": "uint256"
        },
        {
          "internalType": "uint256",
          "name": "_executionFee",
          "type": "uint256"
        },
        {
          "internalType": "bytes32",
          "name": "_referralCode",
          "type": "bytes32"
        },
        {
          "internalType": "address",
          "name": "_callbackTarget",
          "type": "address"
        }
      ],
      "name": "createIncreasePosition",
      "outputs": [
        {
          "internalType": "bytes32",
          "name": "",
          "type": "bytes32"
        }
      ],
      "stateMutability": "payable",
      "type": "function"
    },
    {
      "inputs": [
        {
          "internalType": "address[]",
          "name": "_path",
          "type": "address[]"
        },
        {
          "internalType": "address",
          "name": "_indexToken",
          "type": "address"
        },
        {
          "internalType": "uint256",
          "name": "_minOut",
          "type": "uint256"
        },
        {
          "internalType": "uint256",
          "name": "_sizeDelta",
          "type": "uint256"
        },
        {
          "internalType": "bool",
          "name": "_isLong",
          "type": "bool"
        },
        {
          "internalType": "uint256",
          "name": "_acceptablePrice",
          "type": "uint256"
        },
        {
          "internalType": "uint256",
          "name": "_executionFee",
          "type": "uint256"
        },
        {
          "internalType": "bytes32",
          "name": "_referralCode",
          "type": "bytes32"
        },
        {
          "internalType": "address",
          "name": "_callbackTarget",
          "type": "address"
        }
      ],
      "name": "createIncreasePositionETH",
      "outputs": [
        {
          "internalType": "bytes32",
          "name": "",
          "type": "bytes32"
        }
      ],
      "stateMutability": "payable",
      "type": "function"
    },
    {
      "inputs": [
        {
          "internalType": "uint256",
          "name": "",
          "type": "uint256"
        }
      ],
      "name": "decreasePositionRequestKeys",
      "outputs": [
        {
          "internalType": "bytes32",
          "name": "",
          "type": "bytes32"
        }
      ],
      "stateMutability": "view",
      "type": "function"
    },
    {
      "inputs": [],
      "name": "decreasePositionRequestKeysStart",
      "outputs": [
        {
          "internalType": "uint256",
          "name": "",
          "type": "uint256"
        }
      ],
      "stateMutability": "view",
      "type": "function"
    },
    {
      "inputs": [
        {
          "internalType": "bytes32",
          "name": "",
          "type": "bytes32"
        }
      ],
      "name": "decreasePositionRequests",
      "outputs": [
        {
          "internalType": "address",
          "name": "account",
          "type": "address"
        },
        {
          "internalType": "address",
          "name": "indexToken",
          "type": "address"
        },
        {
          "internalType": "uint256",
          "name": "collateralDelta",
          "type": "uint256"
        },
        {
          "internalType": "uint256",
          "name": "sizeDelta",
          "type": "uint256"
        },
        {
          "internalType": "bool",
          "name": "isLong",
          "type": "bool"
        },
        {
          "internalType": "address",
          "name": "receiver",
          "type": "address"
        },
        {
          "internalType": "uint256",
          "name": "acceptablePrice",
          "type": "uint256"
        },
        {
          "internalType": "uint256",
          "name": "minOut",
          "type": "uint256"
        },
        {
          "internalType": "uint256",
          "name": "executionFee",
          "type": "uint256"
        },
        {
          "internalType": "uint256",
          "name": "blockNumber",
          "type": "uint256"
        },
        {
          "internalType": "uint256",
          "name": "blockTime",
          "type": "uint256"
        },
        {
          "internalType": "bool",
          "name": "withdrawETH",
          "type": "bool"
        },
        {
          "internalType": "address",
          "name": "callbackTarget",
          "type": "address"
        }
      ],
      "stateMutability": "view",
      "type": "function"
    },
    {
      "inputs": [
        {
          "internalType": "address",
          "name": "",
          "type": "address"
        }
      ],
      "name": "decreasePositionsIndex",
      "outputs": [
        {
          "internalType": "uint256",
          "name": "",
          "type": "uint256"
        }
      ],
      "stateMutability": "view",
      "type": "function"
    },
    {
      "inputs": [],
      "name": "depositFee",
      "outputs": [
        {
          "internalType": "uint256",
          "name": "",
          "type": "uint256"
        }
      ],
      "stateMutability": "view",
      "type": "function"
    },
    {
      "inputs": [],
      "name": "ethTransferGasLimit",
      "outputs": [
        {
          "internalType": "uint256",
          "name": "",
          "type": "uint256"
        }
      ],
      "stateMutability": "view",
      "type": "function"
    },
    {
      "inputs": [
        {
          "internalType": "bytes32",
          "name": "_key",
          "type": "bytes32"
        },
        {
          "internalType": "address payable",
          "name": "_executionFeeReceiver",
          "type": "address"
        }
      ],
      "name": "executeDecreasePosition",
      "outputs": [
        {
          "internalType": "bool",
          "name": "",
          "type": "bool"
        }
      ],
      "stateMutability": "nonpayable",
      "type": "function"
    },
    {
      "inputs": [
        {
          "internalType": "uint256",
          "name": "_endIndex",
          "type": "uint256"
        },
        {
          "internalType": "address payable",
          "name": "_executionFeeReceiver",
          "type": "address"
        }
      ],
      "name": "executeDecreasePositions",
      "outputs": [],
      "stateMutability": "nonpayable",
      "type": "function"
    },
    {
      "inputs": [
        {
          "internalType": "bytes32",
          "name": "_key",
          "type": "bytes32"
        },
        {
          "internalType": "address payable",
          "name": "_executionFeeReceiver",
          "type": "address"
        }
      ],
      "name": "executeIncreasePosition",
      "outputs": [
        {
          "internalType": "bool",
          "name": "",
          "type": "bool"
        }
      ],
      "stateMutability": "nonpayable",
      "type": "function"
    },
    {
      "inputs": [
        {
          "internalType": "uint256",
          "name": "_endIndex",
          "type": "uint256"
        },
        {
          "internalType": "address payable",
          "name": "_executionFeeReceiver",
          "type": "address"
        }
      ],
      "name": "executeIncreasePositions",
      "outputs": [],
      "stateMutability": "nonpayable",
      "type": "function"
    },
    {
      "inputs": [
        {
          "internalType": "address",
          "name": "",
          "type": "address"
        }
      ],
      "name": "feeReserves",
      "outputs": [
        {
          "internalType": "uint256",
          "name": "",
          "type": "uint256"
        }
      ],
      "stateMutability": "view",
      "type": "function"
    },
    {
      "inputs": [
        {
          "internalType": "bytes32",
          "name": "_key",
          "type": "bytes32"
        }
      ],
      "name": "getDecreasePositionRequestPath",
      "outputs": [
        {
          "internalType": "address[]",
          "name": "",
          "type": "address[]"
        }
      ],
      "stateMutability": "view",
      "type": "function"
    },
    {
      "inputs": [
        {
          "internalType": "bytes32",
          "name": "_key",
          "type": "bytes32"
        }
      ],
      "name": "getIncreasePositionRequestPath",
      "outputs": [
        {
          "internalType": "address[]",
          "name": "",
          "type": "address[]"
        }
      ],
      "stateMutability": "view",
      "type": "function"
    },
    {
      "inputs": [
        {
          "internalType": "address",
          "name": "_account",
          "type": "address"
        },
        {
          "internalType": "uint256",
          "name": "_index",
          "type": "uint256"
        }
      ],
      "name": "getRequestKey",
      "outputs": [
        {
          "internalType": "bytes32",
          "name": "",
          "type": "bytes32"
        }
      ],
      "stateMutability": "pure",
      "type": "function"
    },
    {
      "inputs": [],
      "name": "getRequestQueueLengths",
      "outputs": [
        {
          "internalType": "uint256",
          "name": "",
          "type": "uint256"
        },
        {
          "internalType": "uint256",
          "name": "",
          "type": "uint256"
        },
        {
          "internalType": "uint256",
          "name": "",
          "type": "uint256"
        },
        {
          "internalType": "uint256",
          "name": "",
          "type": "uint256"
        }
      ],
      "stateMutability": "view",
      "type": "function"
    },
    {
      "inputs": [],
      "name": "gov",
      "outputs": [
        {
          "internalType": "address",
          "name": "",
          "type": "address"
        }
      ],
      "stateMutability": "view",
      "type": "function"
    },
    {
      "inputs": [],
      "name": "increasePositionBufferBps",
      "outputs": [
        {
          "internalType": "uint256",
          "name": "",
          "type": "uint256"
        }
      ],
      "stateMutability": "view",
      "type": "function"
    },
    {
      "inputs": [
        {
          "internalType": "uint256",
          "name": "",
          "type": "uint256"
        }
      ],
      "name": "increasePositionRequestKeys",
      "outputs": [
        {
          "internalType": "bytes32",
          "name": "",
          "type": "bytes32"
        }
      ],
      "stateMutability": "view",
      "type": "function"
    },
    {
      "inputs": [],
      "name": "increasePositionRequestKeysStart",
      "outputs": [
        {
          "internalType": "uint256",
          "name": "",
          "type": "uint256"
        }
      ],
      "stateMutability": "view",
      "type": "function"
    },
    {
      "inputs": [
        {
          "internalType": "bytes32",
          "name": "",
          "type": "bytes32"
        }
      ],
      "name": "increasePositionRequests",
      "outputs": [
        {
          "internalType": "address",
          "name": "account",
          "type": "address"
        },
        {
          "internalType": "address",
          "name": "indexToken",
          "type": "address"
        },
        {
          "internalType": "uint256",
          "name": "amountIn",
          "type": "uint256"
        },
        {
          "internalType": "uint256",
          "name": "minOut",
          "type": "uint256"
        },
        {
          "internalType": "uint256",
          "name": "sizeDelta",
          "type": "uint256"
        },
        {
          "internalType": "bool",
          "name": "isLong",
          "type": "bool"
        },
        {
          "internalType": "uint256",
          "name": "acceptablePrice",
          "type": "uint256"
        },
        {
          "internalType": "uint256",
          "name": "executionFee",
          "type": "uint256"
        },
        {
          "internalType": "uint256",
          "name": "blockNumber",
          "type": "uint256"
        },
        {
          "internalType": "uint256",
          "name": "blockTime",
          "type": "uint256"
        },
        {
          "internalType": "bool",
          "name": "hasCollateralInETH",
          "type": "bool"
        },
        {
          "internalType": "address",
          "name": "callbackTarget",
          "type": "address"
        }
      ],
      "stateMutability": "view",
      "type": "function"
    },
    {
      "inputs": [
        {
          "internalType": "address",
          "name": "",
          "type": "address"
        }
      ],
      "name": "increasePositionsIndex",
      "outputs": [
        {
          "internalType": "uint256",
          "name": "",
          "type": "uint256"
        }
      ],
      "stateMutability": "view",
      "type": "function"
    },
    {
      "inputs": [],
      "name": "isLeverageEnabled",
      "outputs": [
        {
          "internalType": "bool",
          "name": "",
          "type": "bool"
        }
      ],
      "stateMutability": "view",
      "type": "function"
    },
    {
      "inputs": [
        {
          "internalType": "address",
          "name": "",
          "type": "address"
        }
      ],
      "name": "isPositionKeeper",
      "outputs": [
        {
          "internalType": "bool",
          "name": "",
          "type": "bool"
        }
      ],
      "stateMutability": "view",
      "type": "function"
    },
    {
      "inputs": [
        {
          "internalType": "address",
          "name": "",
          "type": "address"
        }
      ],
      "name": "maxGlobalLongSizes",
      "outputs": [
        {
          "internalType": "uint256",
          "name": "",
          "type": "uint256"
        }
      ],
      "stateMutability": "view",
      "type": "function"
    },
    {
      "inputs": [
        {
          "internalType": "address",
          "name": "",
          "type": "address"
        }
      ],
      "name": "maxGlobalShortSizes",
      "outputs": [
        {
          "internalType": "uint256",
          "name": "",
          "type": "uint256"
        }
      ],
      "stateMutability": "view",
      "type": "function"
    },
    {
      "inputs": [],
      "name": "maxTimeDelay",
      "outputs": [
        {
          "internalType": "uint256",
          "name": "",
          "type": "uint256"
        }
      ],
      "stateMutability": "view",
      "type": "function"
    },
    {
      "inputs": [],
      "name": "minBlockDelayKeeper",
      "outputs": [
        {
          "internalType": "uint256",
          "name": "",
          "type": "uint256"
        }
      ],
      "stateMutability": "view",
      "type": "function"
    },
    {
      "inputs": [],
      "name": "minExecutionFee",
      "outputs": [
        {
          "internalType": "uint256",
          "name": "",
          "type": "uint256"
        }
      ],
      "stateMutability": "view",
      "type": "function"
    },
    {
      "inputs": [],
      "name": "minTimeDelayPublic",
      "outputs": [
        {
          "internalType": "uint256",
          "name": "",
          "type": "uint256"
        }
      ],
      "stateMutability": "view",
      "type": "function"
    },
    {
      "inputs": [],
      "name": "referralStorage",
      "outputs": [
        {
          "internalType": "address",
          "name": "",
          "type": "address"
        }
      ],
      "stateMutability": "view",
      "type": "function"
    },
    {
      "inputs": [],
      "name": "router",
      "outputs": [
        {
          "internalType": "address",
          "name": "",
          "type": "address"
        }
      ],
      "stateMutability": "view",
      "type": "function"
    },
    {
      "inputs": [
        {
          "internalType": "address payable",
          "name": "_receiver",
          "type": "address"
        },
        {
          "internalType": "uint256",
          "name": "_amount",
          "type": "uint256"
        }
      ],
      "name": "sendValue",
      "outputs": [],
      "stateMutability": "nonpayable",
      "type": "function"
    },
    {
      "inputs": [
        {
          "internalType": "address",
          "name": "_admin",
          "type": "address"
        }
      ],
      "name": "setAdmin",
      "outputs": [],
      "stateMutability": "nonpayable",
      "type": "function"
    },
    {
      "inputs": [
        {
          "internalType": "uint256",
          "name": "_callbackGasLimit",
          "type": "uint256"
        }
      ],
      "name": "setCallbackGasLimit",
      "outputs": [],
      "stateMutability": "nonpayable",
      "type": "function"
    },
    {
      "inputs": [
        {
          "internalType": "uint256",
          "name": "_minBlockDelayKeeper",
          "type": "uint256"
        },
        {
          "internalType": "uint256",
          "name": "_minTimeDelayPublic",
          "type": "uint256"
        },
        {
          "internalType": "uint256",
          "name": "_maxTimeDelay",
          "type": "uint256"
        }
      ],
      "name": "setDelayValues",
      "outputs": [],
      "stateMutability": "nonpayable",
      "type": "function"
    },
    {
      "inputs": [
        {
          "internalType": "uint256",
          "name": "_depositFee",
          "type": "uint256"
        }
      ],
      "name": "setDepositFee",
      "outputs": [],
      "stateMutability": "nonpayable",
      "type": "function"
    },
    {
      "inputs": [
        {
          "internalType": "uint256",
          "name": "_ethTransferGasLimit",
          "type": "uint256"
        }
      ],
      "name": "setEthTransferGasLimit",
      "outputs": [],
      "stateMutability": "nonpayable",
      "type": "function"
    },
    {
      "inputs": [
        {
          "internalType": "address",
          "name": "_gov",
          "type": "address"
        }
      ],
      "name": "setGov",
      "outputs": [],
      "stateMutability": "nonpayable",
      "type": "function"
    },
    {
      "inputs": [
        {
          "internalType": "uint256",
          "name": "_increasePositionBufferBps",
          "type": "uint256"
        }
      ],
      "name": "setIncreasePositionBufferBps",
      "outputs": [],
      "stateMutability": "nonpayable",
      "type": "function"
    },
    {
      "inputs": [
        {
          "internalType": "bool",
          "name": "_isLeverageEnabled",
          "type": "bool"
        }
      ],
      "name": "setIsLeverageEnabled",
      "outputs": [],
      "stateMutability": "nonpayable",
      "type": "function"
    },
    {
      "inputs": [
        {
          "internalType": "address[]",
          "name": "_tokens",
          "type": "address[]"
        },
        {
          "internalType": "uint256[]",
          "name": "_longSizes",
          "type": "uint256[]"
        },
        {
          "internalType": "uint256[]",
          "name": "_shortSizes",
          "type": "uint256[]"
        }
      ],
      "name": "setMaxGlobalSizes",
      "outputs": [],
      "stateMutability": "nonpayable",
      "type": "function"
    },
    {
      "inputs": [
        {
          "internalType": "uint256",
          "name": "_minExecutionFee",
          "type": "uint256"
        }
      ],
      "name": "setMinExecutionFee",
      "outputs": [],
      "stateMutability": "nonpayable",
      "type": "function"
    },
    {
      "inputs": [
        {
          "internalType": "address",
          "name": "_account",
          "type": "address"
        },
        {
          "internalType": "bool",
          "name": "_isActive",
          "type": "bool"
        }
      ],
      "name": "setPositionKeeper",
      "outputs": [],
      "stateMutability": "nonpayable",
      "type": "function"
    },
    {
      "inputs": [
        {
          "internalType": "address",
          "name": "_referralStorage",
          "type": "address"
        }
      ],
      "name": "setReferralStorage",
      "outputs": [],
      "stateMutability": "nonpayable",
      "type": "function"
    },
    {
      "inputs": [
        {
          "internalType": "uint256",
          "name": "_increasePositionRequestKeysStart",
          "type": "uint256"
        },
        {
          "internalType": "uint256",
          "name": "_decreasePositionRequestKeysStart",
          "type": "uint256"
        }
      ],
      "name": "setRequestKeysStartValues",
      "outputs": [],
      "stateMutability": "nonpayable",
      "type": "function"
    },
    {
      "inputs": [],
      "name": "shortsTracker",
      "outputs": [
        {
          "internalType": "address",
          "name": "",
          "type": "address"
        }
      ],
      "stateMutability": "view",
      "type": "function"
    },
    {
      "inputs": [],
      "name": "vault",
      "outputs": [
        {
          "internalType": "address",
          "name": "",
          "type": "address"
        }
      ],
      "stateMutability": "view",
      "type": "function"
    },
    {
      "inputs": [],
      "name": "weth",
      "outputs": [
        {
          "internalType": "address",
          "name": "",
          "type": "address"
        }
      ],
      "stateMutability": "view",
      "type": "function"
    },
    {
      "inputs": [
        {
          "internalType": "address",
          "name": "_token",
          "type": "address"
        },
        {
          "internalType": "address",
          "name": "_receiver",
          "type": "address"
        }
      ],
      "name": "withdrawFees",
      "outputs": [],
      "stateMutability": "nonpayable",
      "type": "function"
    },
    {
      "stateMutability": "payable",
      "type": "receive"
    }
  ],
  "bytecode": "60806040526207a12060075560646009556012805460ff191660011790553480156200002a57600080fd5b5060405162005d8138038062005d81833981810160405260c08110156200005057600080fd5b508051602082015160408301516060840151608085015160a090950151600160008181558154336001600160a01b031991821681179093556003805482166001600160a01b03998a16179055600580548216978916979097179096556006805487169588169590951790945560089690965560048054851695909216949094179055600280549092169093179055600e55615c8f908190620000f290396000f3fe6080604052600436106102945760003560e01c80626cc35e146102f057806304225954146103215780630d4d003d1461035d5780631045c74e146103aa578063126082cf146103dd57806312d43a51146103f25780631bca8cf0146104075780631ce9cb8f1461041c5780631f2851061461044f578063225fc9fd146104f1578063233bfe3b1461052a57806324a084df1461055457806324f746971461058d57806327b42c0f146105a25780632d79cf42146105db578063308aa81f146105f05780633422ead11461062057806336eba48a1461065b5780633a2a80c71461068e5780633a9b52ad146106a35780633e72a262146106cd5780633fc8cef3146106e25780634067b132146106f75780634278555f1461072d578063490ae210146107575780635841fcaa146107815780635b88e8c6146107965780635d5c22e81461086f57806360a362e2146108e957806362f8a3fe14610922578063633451de1461095b57806363ae21031461098e578063657bc5d0146109a357806367a52793146109b8578063704b6c02146109cd5780637be7d14114610a005780637c2eb9f714610aeb5780638a54942f14610b1757806395e9bbd714610b415780639698d25a14610b6b57806398d1e03a14610b9e5780639a20810014610bb35780639b57862014610bec578063ae4d7f9a14610c01578063cb0269c914610c34578063cfad57a214610c49578063e1f21c6714610c7c578063ef12c67e14610cbf578063f255527814610e71578063f2ae372f14610eac578063f2cea6a514610f8b578063f3883d8b14610fc6578063f851a44014610fff578063f887ea4014611014578063fa44457714611029578063faf990f31461105c578063fbfa77cf146110f5578063fc2cee621461110a576102eb565b366102eb576006546001600160a01b031633146102e9576040805162461bcd60e51b815260206004820152600e60248201526d34b73b30b634b21039b2b73232b960911b604482015290519081900360640190fd5b005b600080fd5b3480156102fc57600080fd5b50610305611134565b604080516001600160a01b039092168252519081900360200190f35b34801561032d57600080fd5b5061034b6004803603602081101561034457600080fd5b5035611143565b60408051918252519081900360200190f35b34801561036957600080fd5b506103966004803603604081101561038057600080fd5b50803590602001356001600160a01b0316611161565b604080519115158252519081900360200190f35b3480156103b657600080fd5b5061034b600480360360208110156103cd57600080fd5b50356001600160a01b03166115ff565b3480156103e957600080fd5b5061034b611611565b3480156103fe57600080fd5b50610305611617565b34801561041357600080fd5b5061034b611626565b34801561042857600080fd5b5061034b6004803603602081101561043f57600080fd5b50356001600160a01b031661162c565b34801561045b57600080fd5b506104796004803603602081101561047257600080fd5b503561163e565b604080516001600160a01b039e8f1681529c8e1660208e01528c81019b909b5260608c019990995296151560808b0152948a1660a08a015260c089019390935260e088019190915261010087015261012086015261014085015215156101608401529092166101808201529051908190036101a00190f35b3480156104fd57600080fd5b506103966004803603604081101561051457600080fd5b50803590602001356001600160a01b03166116b1565b34801561053657600080fd5b506102e96004803603602081101561054d57600080fd5b5035611a7b565b34801561056057600080fd5b506102e96004803603604081101561057757600080fd5b506001600160a01b038135169060200135611b01565b34801561059957600080fd5b5061034b611b65565b3480156105ae57600080fd5b50610396600480360360408110156105c557600080fd5b50803590602001356001600160a01b0316611b6b565b3480156105e757600080fd5b5061034b611fd1565b3480156105fc57600080fd5b506102e96004803603604081101561061357600080fd5b5080359060200135611fd7565b34801561062c57600080fd5b506102e96004803603604081101561064357600080fd5b506001600160a01b038135169060200135151561206b565b34801561066757600080fd5b506103966004803603602081101561067e57600080fd5b50356001600160a01b0316612116565b34801561069a57600080fd5b5061034b61212b565b3480156106af57600080fd5b506102e9600480360360208110156106c657600080fd5b5035612131565b3480156106d957600080fd5b506103966121b7565b3480156106ee57600080fd5b506103056121c0565b34801561070357600080fd5b506102e96004803603606081101561071a57600080fd5b50803590602081013590604001356121cf565b34801561073957600080fd5b5061034b6004803603602081101561075057600080fd5b503561226e565b34801561076357600080fd5b506102e96004803603602081101561077a57600080fd5b503561227b565b34801561078d57600080fd5b5061034b612301565b61034b60048036036101208110156107ad57600080fd5b810190602081018135600160201b8111156107c757600080fd5b8201836020820111156107d957600080fd5b803590602001918460208302840111600160201b831117156107fa57600080fd5b919080806020026020016040519081016040528093929190818152602001838360200280828437600092019190915250929550505081356001600160a01b03908116935060208301359260408101359250606081013515159160808201359160a08101359160c08201359160e0013516612307565b34801561087b57600080fd5b506108996004803603602081101561089257600080fd5b50356124c3565b60408051602080825283518183015283519192839290830191858101910280838360005b838110156108d55781810151838201526020016108bd565b505050509050019250505060405180910390f35b3480156108f557600080fd5b506103966004803603604081101561090c57600080fd5b50803590602001356001600160a01b03166125f9565b34801561092e57600080fd5b5061034b6004803603604081101561094557600080fd5b506001600160a01b038135169060200135612997565b34801561096757600080fd5b5061034b6004803603602081101561097e57600080fd5b50356001600160a01b03166129dd565b34801561099a57600080fd5b5061034b6129ef565b3480156109af57600080fd5b506103056129f5565b3480156109c457600080fd5b5061034b612a04565b3480156109d957600080fd5b506102e9600480360360208110156109f057600080fd5b50356001600160a01b0316612a0a565b61034b6004803603610160811015610a1757600080fd5b810190602081018135600160201b811115610a3157600080fd5b820183602082011115610a4357600080fd5b803590602001918460208302840111600160201b83111715610a6457600080fd5b919080806020026020016040519081016040528093929190818152602001838360200280828437600092019190915250929550505081356001600160a01b039081169350602083013592604081013592506060810135151591608082013581169160a08101359160c08201359160e081013591610100820135151591610120013516612aab565b348015610af757600080fd5b506102e960048036036020811015610b0e57600080fd5b50351515612c5b565b348015610b2357600080fd5b506102e960048036036020811015610b3a57600080fd5b5035612ced565b348015610b4d57600080fd5b5061089960048036036020811015610b6457600080fd5b5035612d73565b348015610b7757600080fd5b5061034b60048036036020811015610b8e57600080fd5b50356001600160a01b0316612ea1565b348015610baa57600080fd5b5061034b612eb3565b348015610bbf57600080fd5b506102e960048036036040811015610bd657600080fd5b50803590602001356001600160a01b0316612eb9565b348015610bf857600080fd5b5061034b613091565b348015610c0d57600080fd5b506102e960048036036020811015610c2457600080fd5b50356001600160a01b0316613097565b348015610c4057600080fd5b5061034b613136565b348015610c5557600080fd5b506102e960048036036020811015610c6c57600080fd5b50356001600160a01b031661313c565b348015610c8857600080fd5b506102e960048036036060811015610c9f57600080fd5b506001600160a01b038135811691602081013590911690604001356131ab565b348015610ccb57600080fd5b506102e960048036036060811015610ce257600080fd5b810190602081018135600160201b811115610cfc57600080fd5b820183602082011115610d0e57600080fd5b803590602001918460208302840111600160201b83111715610d2f57600080fd5b9190808060200260200160405190810160405280939291908181526020018383602002808284376000920191909152509295949360208101935035915050600160201b811115610d7e57600080fd5b820183602082011115610d9057600080fd5b803590602001918460208302840111600160201b83111715610db157600080fd5b9190808060200260200160405190810160405280939291908181526020018383602002808284376000920191909152509295949360208101935035915050600160201b811115610e0057600080fd5b820183602082011115610e1257600080fd5b803590602001918460208302840111600160201b83111715610e3357600080fd5b919080806020026020016040519081016040528093929190818152602001838360200280828437600092019190915250929550613280945050505050565b348015610e7d57600080fd5b506102e960048036036040811015610e9457600080fd5b506001600160a01b038135811691602001351661346d565b61034b6004803603610140811015610ec357600080fd5b810190602081018135600160201b811115610edd57600080fd5b820183602082011115610eef57600080fd5b803590602001918460208302840111600160201b83111715610f1057600080fd5b919080806020026020016040519081016040528093929190818152602001838360200280828437600092019190915250929550506001600160a01b038335811694506020840135936040810135935060608101359250608081013515159160a08201359160c08101359160e08201359161010001351661354f565b348015610f9757600080fd5b50610fa0613732565b604080519485526020850193909352838301919091526060830152519081900360800190f35b348015610fd257600080fd5b506102e960048036036040811015610fe957600080fd5b50803590602001356001600160a01b0316613744565b34801561100b57600080fd5b5061030561391c565b34801561102057600080fd5b5061030561392b565b34801561103557600080fd5b5061034b6004803603602081101561104c57600080fd5b50356001600160a01b031661393a565b34801561106857600080fd5b506110866004803603602081101561107f57600080fd5b503561394c565b604080516001600160a01b039d8e1681529b8d1660208d01528b81019a909a5260608b019890985260808a019690965293151560a089015260c088019290925260e087015261010086015261012085015215156101408401529092166101608201529051908190036101800190f35b34801561110157600080fd5b506103056139c0565b34801561111657600080fd5b506102e96004803603602081101561112d57600080fd5b50356139cf565b600a546001600160a01b031681565b6013818154811061115057fe5b600091825260209091200154905081565b6000600260005414156111a9576040805162461bcd60e51b815260206004820152601f6024820152600080516020615b6f833981519152604482015290519081900360640190fd5b60026000556111b6615999565b6000848152601c602090815260409182902082516101c08101845281546001600160a01b031681526001820180548551818602810186019096528086529194929385810193929083018282801561123657602002820191906000526020600020905b81546001600160a01b03168152600190910190602001808311611218575b505050918352505060028201546001600160a01b0390811660208301526003830154604083015260048301546060830152600583015460ff8082161515608085015261010091829004831660a0850152600685015460c0850152600785015460e08501526008850154828501526009850154610120850152600a850154610140850152600b9094015493841615156101608401529092048216610180909101528151919250166112ea5760019150506115f4565b60006113058261014001518361016001518460000151613a55565b905080611317576000925050506115f4565b6000858152601c6020526040812080546001600160a01b0319168155906113416001830182615a30565b506002810180546001600160a01b0319169055600060038201819055600482018190556005820180546001600160a81b031990811690915560068301829055600783018290556008830182905560098301829055600a8301829055600b90920180549092169091558251602084015180516113e792919084906113c057fe5b60200260200101518560400151866060015187608001518860a00151308a60e00151613bdb565b9050801561149657600183602001515111156114575760035460208401518051611440926001600160a01b031691849160009061142057fe5b60200260200101516001600160a01b03166140889092919063ffffffff16565b6114548360200151846101000151306140df565b90505b8261018001511561147557611470818460c0015161416a565b611496565b6114968360c001518285602001516001876020015151038151811061142057fe5b6114a58361012001518661416a565b82600001516001600160a01b03167f21435c5b618d77ff3657140cd3318e2cffaebc5e0e1b7318f56a9ba4044c3ed284602001518560400151866060015187608001518860a001518960c001518a60e001518b61010001518c610120015161151b8e6101400151436142cd90919063ffffffff16565b6101608f015161152c9042906142cd565b60405180806020018c6001600160a01b031681526020018b81526020018a81526020018915158152602001886001600160a01b0316815260200187815260200186815260200185815260200184815260200183815260200182810382528d818151815260200191508051906020019060200280838360005b838110156115bc5781810151838201526020016115a4565b505050509050019c5050505050505050505050505060405180910390a26115ec836101a00151876001600061430f565b600193505050505b600160005592915050565b600c6020526000908152604090205481565b61271081565b6001546001600160a01b031681565b60165481565b600b6020526000908152604090205481565b601c602052600090815260409020805460028201546003830154600484015460058501546006860154600787015460088801546009890154600a8a0154600b909a01546001600160a01b03998a169a988a16999798969760ff80881698610100988990048316989093918216929104168d565b6000600260005414156116f9576040805162461bcd60e51b815260206004820152601f6024820152600080516020615b6f833981519152604482015290519081900360640190fd5b6002600055611706615a4e565b6000848152601a602090815260409182902082516101a08101845281546001600160a01b031681526001820180548551818602810186019096528086529194929385810193929083018282801561178657602002820191906000526020600020905b81546001600160a01b03168152600190910190602001808311611768575b505050918352505060028201546001600160a01b039081166020830152600383015460408301526004830154606083015260058301546080830152600683015460ff908116151560a0840152600784015460c0840152600884015460e0840152600984015461010080850191909152600a850154610120850152600b909401549081161515610140840152929092048216610160909101528151919250166118325760019150506115f4565b600061184d8261012001518361014001518460000151614415565b90508061185f576000925050506115f4565b6000858152601a6020526040812080546001600160a01b0319168155906118896001830182615a30565b506002810180546001600160a01b0319169055600060038201819055600482018190556005820181905560068201805460ff19169055600782018190556008820181905560098201819055600a820155600b0180546001600160a81b03191690556101608201511561190c576119078260600151836000015161416a565b61192a565b61192a82600001518360600151846020015160008151811061142057fe5b6119398261010001518561416a565b81600001516001600160a01b03167f35b638e650e2328786fb405bd69d2083dbedc018d086662e74b775b4f1dae4bf83602001518460400151856060015186608001518760a001518860c001518960e001518a61010001516119a98c6101200151436142cd90919063ffffffff16565b6101408d01516119ba9042906142cd565b60405180806020018b6001600160a01b031681526020018a8152602001898152602001888152602001871515815260200186815260200185815260200184815260200183815260200182810382528c818151815260200191508051906020019060200280838360005b83811015611a3b578181015183820152602001611a23565b505050509050019b50505050505050505050505060405180910390a2611a6a826101800151866000600161430f565b600192505050600160005592915050565b6002546001600160a01b03163314611ac6576040805162461bcd60e51b81526020600482015260096024820152683337b93134b23232b760b91b604482015290519081900360640190fd5b60098190556040805182815290517f21167d0d4661af93817ebce920f18986eed3d75d5e1c03f2aed05efcbafbc4529181900360200190a150565b6001546001600160a01b03163314611b4e576040805162461bcd60e51b81526020600482015260156024820152600080516020615b8f833981519152604482015290519081900360640190fd5b611b616001600160a01b0383168261447d565b5050565b60175481565b600060026000541415611bb3576040805162461bcd60e51b815260206004820152601f6024820152600080516020615b6f833981519152604482015290519081900360640190fd5b6002600055611bc0615a4e565b6000848152601a602090815260409182902082516101a08101845281546001600160a01b0316815260018201805485518186028101860190965280865291949293858101939290830182828015611c4057602002820191906000526020600020905b81546001600160a01b03168152600190910190602001808311611c22575b505050918352505060028201546001600160a01b039081166020830152600383015460408301526004830154606083015260058301546080830152600683015460ff908116151560a0840152600784015460c0840152600884015460e0840152600984015461010080850191909152600a850154610120850152600b90940154908116151561014084015292909204821661016090910152815191925016611cec5760019150506115f4565b6000611d078261012001518361014001518460000151613a55565b905080611d19576000925050506115f4565b6000858152601a6020526040812080546001600160a01b031916815590611d436001830182615a30565b506002810180546001600160a01b0319169055600060038201819055600482018190556005820181905560068201805460ff19169055600782018190556008820181905560098201819055600a820155600b0180546001600160a81b0319169055606082015115611e5457606082015160208301515160011015611dff57600354606084015160208501518051611de9936001600160a01b031692919060009061142057fe5b611dfc83602001518460800151306140df565b90505b6000611e23846000015185602001518487604001518860c001518960a00151614562565b60035460208601518051929350611e51926001600160a01b0390921691849190600019810190811061142057fe5b50505b815160208301518051611e929291906000198101908110611e7157fe5b602002602001015184604001518560a001518660c001518760e00151614758565b611ea18261010001518561416a565b81600001516001600160a01b03167f1be316b94d38c07bd41cdb4913772d0a0a82802786a2f8b657b6e85dbcdfc64183602001518460400151856060015186608001518760a001518860c001518960e001518a6101000151611f118c6101200151436142cd90919063ffffffff16565b6101408d0151611f229042906142cd565b60405180806020018b6001600160a01b031681526020018a8152602001898152602001888152602001871515815260200186815260200185815260200184815260200183815260200182810382528c818151815260200191508051906020019060200280838360005b83811015611fa3578181015183820152602001611f8b565b505050509050019b50505050505050505050505060405180910390a2611a6a8261018001518660018061430f565b60075481565b6002546001600160a01b03163314612022576040805162461bcd60e51b81526020600482015260096024820152683337b93134b23232b760b91b604482015290519081900360640190fd5b60158290556016819055604080518381526020810183905281517febb0f666150f4be5b60c45df8f3e49992510b0128027fe58eea6110f296493bc929181900390910190a15050565b6002546001600160a01b031633146120b6576040805162461bcd60e51b81526020600482015260096024820152683337b93134b23232b760b91b604482015290519081900360640190fd5b6001600160a01b038216600081815260186020908152604091829020805460ff1916851515908117909155825190815291517ffbabc02389290a451c6e600d05bf9887b99bfad39d8e1237e4e3df042e4941fe9281900390910190a25050565b60186020526000908152604090205460ff1681565b60105481565b6002546001600160a01b0316331461217c576040805162461bcd60e51b81526020600482015260096024820152683337b93134b23232b760b91b604482015290519081900360640190fd5b60078190556040805182815290517f4d371d598d3a13f99ce992a17975bbaf1e1c256e072ec7d2f93ce88e40d9ba1c9181900360200190a150565b60125460ff1681565b6006546001600160a01b031681565b6002546001600160a01b0316331461221a576040805162461bcd60e51b81526020600482015260096024820152683337b93134b23232b760b91b604482015290519081900360640190fd5b600f83905560108290556011819055604080518481526020810184905280820183905290517fb98e759701eaca2e60c25e91109003c1c7442ef731b5d569037063005da8254d9181900360600190a1505050565b6014818154811061115057fe5b6002546001600160a01b031633146122c6576040805162461bcd60e51b81526020600482015260096024820152683337b93134b23232b760b91b604482015290519081900360640190fd5b60088190556040805182815290517f974fd3c1fcb4653dfc4fb740c4c692cd212d55c28f163f310128cb64d83006759181900360200190a150565b600f5481565b60006002600054141561234f576040805162461bcd60e51b815260206004820152601f6024820152600080516020615b6f833981519152604482015290519081900360640190fd5b6002600055600e54841015612391576040805162461bcd60e51b815260206004820152600360248201526266656560e81b604482015290519081900360640190fd5b833410156123cc576040805162461bcd60e51b81526020600482015260036024820152621d985b60ea1b604482015290519081900360640190fd5b8951600114806123dd575089516002145b612414576040805162461bcd60e51b81526020600482015260036024820152623632b760e91b604482015290519081900360640190fd5b6006548a516001600160a01b03909116908b9060009061243057fe5b60200260200101516001600160a01b03161461247c576040805162461bcd60e51b815260206004808301919091526024820152630e0c2e8d60e31b604482015290519081900360640190fd5b612484614832565b61248d8361489e565b600061249934866142cd565b90506124af338c8c848d8d8d8d8d60018d614912565b60016000559b9a5050505050505050505050565b60606124cd615999565b6000838152601c602090815260409182902082516101c08101845281546001600160a01b031681526001820180548551818602810186019096528086529194929385810193929083018282801561254d57602002820191906000526020600020905b81546001600160a01b0316815260019091019060200180831161252f575b505050918352505060028201546001600160a01b039081166020808401919091526003840154604084015260048401546060840152600584015460ff8082161515608086015261010091829004841660a0860152600686015460c0860152600786015460e08601526008860154828601526009860154610120860152600a860154610140860152600b909501549485161515610160850152909304166101809091015201519392505050565b600060026000541415612641576040805162461bcd60e51b815260206004820152601f6024820152600080516020615b6f833981519152604482015290519081900360640190fd5b600260005561264e615999565b6000848152601c602090815260409182902082516101c08101845281546001600160a01b03168152600182018054855181860281018601909652808652919492938581019392908301828280156126ce57602002820191906000526020600020905b81546001600160a01b031681526001909101906020018083116126b0575b505050918352505060028201546001600160a01b0390811660208301526003830154604083015260048301546060830152600583015460ff8082161515608085015261010091829004831660a0850152600685015460c0850152600785015460e08501526008850154828501526009850154610120850152600a850154610140850152600b9094015493841615156101608401529092048216610180909101528151919250166127825760019150506115f4565b600061279d8261014001518361016001518460000151614415565b9050806127af576000925050506115f4565b6000858152601c6020526040812080546001600160a01b0319168155906127d96001830182615a30565b506002810180546001600160a01b0319169055600060038201819055600482018190556005820180546001600160a81b031990811690915560068301829055600783018290556008830182905560098301829055600a830191909155600b90910180549091169055610120820151612851908561416a565b81600001516001600160a01b03167f87abfd78e844f28318363bdf3da99eab2f4a2da9ff7ae365484507f7b6c3f80583602001518460400151856060015186608001518760a001518860c001518960e001518a61010001518b61012001516128c78d6101400151436142cd90919063ffffffff16565b6101608e01516128d89042906142cd565b60405180806020018c6001600160a01b031681526020018b81526020018a81526020018915158152602001886001600160a01b0316815260200187815260200186815260200185815260200184815260200183815260200182810382528d818151815260200191508051906020019060200280838360005b83811015612968578181015183820152602001612950565b505050509050019c5050505050505050505050505060405180910390a2611a6a826101a001518660008061430f565b6000828260405160200180836001600160a01b031660601b8152601401828152602001925050506040516020818303038152906040528051906020012090505b92915050565b60196020526000908152604090205481565b600e5481565b6004546001600160a01b031681565b60085481565b6001546001600160a01b03163314612a57576040805162461bcd60e51b81526020600482015260156024820152600080516020615b8f833981519152604482015290519081900360640190fd5b600280546001600160a01b0383166001600160a01b0319909116811790915560408051918252517f5a272403b402d892977df56625f4164ccaf70ca3863991c43ecfe76a6905b0a19181900360200190a150565b600060026000541415612af3576040805162461bcd60e51b815260206004820152601f6024820152600080516020615b6f833981519152604482015290519081900360640190fd5b6002600055600e54841015612b35576040805162461bcd60e51b815260206004820152600360248201526266656560e81b604482015290519081900360640190fd5b833414612b6f576040805162461bcd60e51b81526020600482015260036024820152621d985b60ea1b604482015290519081900360640190fd5b8b5160011480612b8057508b516002145b612bb7576040805162461bcd60e51b81526020600482015260036024820152623632b760e91b604482015290519081900360640190fd5b8215612c2a576006548c516001600160a01b03909116908d906000198101908110612bde57fe5b60200260200101516001600160a01b031614612c2a576040805162461bcd60e51b815260206004808301919091526024820152630e0c2e8d60e31b604482015290519081900360640190fd5b612c32614832565b612c46338d8d8d8d8d8d8d8d8d8d8d614aa9565b60016000559c9b505050505050505050505050565b6002546001600160a01b03163314612ca6576040805162461bcd60e51b81526020600482015260096024820152683337b93134b23232b760b91b604482015290519081900360640190fd5b6012805482151560ff19909116811790915560408051918252517f4eb87a5935d402aa24c01b45bfb30adefcd2328b480f2d967864de4b64ea929f9181900360200190a150565b6002546001600160a01b03163314612d38576040805162461bcd60e51b81526020600482015260096024820152683337b93134b23232b760b91b604482015290519081900360640190fd5b60178190556040805182815290517f22bd2c9f980325d046be74aaef5fc76df4a2bc3fbc7c5a1200fcc79fe80dab6c9181900360200190a150565b6060612d7d615a4e565b6000838152601a602090815260409182902082516101a08101845281546001600160a01b0316815260018201805485518186028101860190965280865291949293858101939290830182828015612dfd57602002820191906000526020600020905b81546001600160a01b03168152600190910190602001808311612ddf575b505050918352505060028201546001600160a01b03908116602080840191909152600384015460408401526004840154606084015260058401546080840152600684015460ff908116151560a0850152600785015460c0850152600885015460e0850152600985015461010080860191909152600a860154610120860152600b90950154908116151561014085015293909304166101609091015201519392505050565b600d6020526000908152604090205481565b60095481565b3360009081526018602052604090205460ff16612f03576040805162461bcd60e51b815260206004820152600360248201526234303360e81b604482015290519081900360640190fd5b601554601354808210612f17575050611b61565b80841115612f23578093505b8382101561308957600060138381548110612f3a57fe5b90600052602060002001549050306001600160a01b03166327b42c0f82866040518363ffffffff1660e01b815260040180838152602001826001600160a01b0316815260200192505050602060405180830381600087803b158015612f9e57600080fd5b505af1925050508015612fc357506040513d6020811015612fbe57600080fd5b505160015b613057576040805163225fc9fd60e01b8152600481018390526001600160a01b03861660248201529051309163225fc9fd9160448083019260209291908290030181600087803b15801561301657600080fd5b505af192505050801561303b57506040513d602081101561303657600080fd5b505160015b6130455750613089565b80613051575050613089565b50613065565b80613063575050613089565b505b6013838154811061307257fe5b600091825260208220015550600190910190612f23565b506015555050565b60155481565b6002546001600160a01b031633146130e2576040805162461bcd60e51b81526020600482015260096024820152683337b93134b23232b760b91b604482015290519081900360640190fd5b600a80546001600160a01b0383166001600160a01b0319909116811790915560408051918252517f828abcccea18192c21d645e575652c49e20b986dab777906fc473d056b01b6a89181900360200190a150565b60115481565b6001546001600160a01b03163314613189576040805162461bcd60e51b81526020600482015260156024820152600080516020615b8f833981519152604482015290519081900360640190fd5b600180546001600160a01b0319166001600160a01b0392909216919091179055565b6001546001600160a01b031633146131f8576040805162461bcd60e51b81526020600482015260156024820152600080516020615b8f833981519152604482015290519081900360640190fd5b826001600160a01b031663095ea7b383836040518363ffffffff1660e01b815260040180836001600160a01b0316815260200182815260200192505050602060405180830381600087803b15801561324f57600080fd5b505af1158015613263573d6000803e3d6000fd5b505050506040513d602081101561327957600080fd5b5050505050565b6002546001600160a01b031633146132cb576040805162461bcd60e51b81526020600482015260096024820152683337b93134b23232b760b91b604482015290519081900360640190fd5b60005b83518110156133665760008482815181106132e557fe5b602002602001015190508382815181106132fb57fe5b6020026020010151600c6000836001600160a01b03166001600160a01b031681526020019081526020016000208190555082828151811061333857fe5b6020908102919091018101516001600160a01b039092166000908152600d90915260409020556001016132ce565b507fae32d569b058895b9620d6552b09aaffedc9a6f396be4d595a224ad09f8b213983838360405180806020018060200180602001848103845287818151815260200191508051906020019060200280838360005b838110156133d35781810151838201526020016133bb565b50505050905001848103835286818151815260200191508051906020019060200280838360005b838110156134125781810151838201526020016133fa565b50505050905001848103825285818151815260200191508051906020019060200280838360005b83811015613451578181015183820152602001613439565b50505050905001965050505050505060405180910390a1505050565b6002546001600160a01b031633146134b8576040805162461bcd60e51b81526020600482015260096024820152683337b93134b23232b760b91b604482015290519081900360640190fd5b6001600160a01b0382166000908152600b6020526040902054806134dc5750611b61565b6001600160a01b0383166000818152600b6020526040812055613500908383614088565b604080516001600160a01b0380861682528416602082015280820183905290517f4f1b51dd7a2fcb861aa2670f668be66835c4ee12b4bbbf037e4d0018f39819e49181900360600190a1505050565b600060026000541415613597576040805162461bcd60e51b815260206004820152601f6024820152600080516020615b6f833981519152604482015290519081900360640190fd5b6002600055600e548410156135d9576040805162461bcd60e51b815260206004820152600360248201526266656560e81b604482015290519081900360640190fd5b833414613613576040805162461bcd60e51b81526020600482015260036024820152621d985b60ea1b604482015290519081900360640190fd5b8a516001148061362457508a516002145b61365b576040805162461bcd60e51b81526020600482015260036024820152623632b760e91b604482015290519081900360640190fd5b613663614832565b61366c8361489e565b881561371e576005548b516001600160a01b0390911690631b827878908d9060009061369457fe5b602002602001015133308d6040518563ffffffff1660e01b815260040180856001600160a01b03168152602001846001600160a01b03168152602001836001600160a01b03168152602001828152602001945050505050600060405180830381600087803b15801561370557600080fd5b505af1158015613719573d6000803e3d6000fd5b505050505b6124af338c8c8c8c8c8c8c8c60008c614912565b60155460135460165460145490919293565b3360009081526018602052604090205460ff1661378e576040805162461bcd60e51b815260206004820152600360248201526234303360e81b604482015290519081900360640190fd5b6016546014548082106137a2575050611b61565b808411156137ae578093505b83821015613914576000601483815481106137c557fe5b90600052602060002001549050306001600160a01b0316630d4d003d82866040518363ffffffff1660e01b815260040180838152602001826001600160a01b0316815260200192505050602060405180830381600087803b15801561382957600080fd5b505af192505050801561384e57506040513d602081101561384957600080fd5b505160015b6138e25760408051633051b17160e11b8152600481018390526001600160a01b0386166024820152905130916360a362e29160448083019260209291908290030181600087803b1580156138a157600080fd5b505af19250505080156138c657506040513d60208110156138c157600080fd5b505160015b6138cf576138dd565b806138db575050613914565b505b6138f0565b806138ee575050613914565b505b601483815481106138fd57fe5b6000918252602082200155506001909101906137ae565b506016555050565b6002546001600160a01b031681565b6005546001600160a01b031681565b601b6020526000908152604090205481565b601a602052600090815260409020805460028201546003830154600484015460058501546006860154600787015460088801546009890154600a8a0154600b909a01546001600160a01b03998a169a988a169997989697959660ff958616969495939492939092908216916101009004168c565b6003546001600160a01b031681565b6002546001600160a01b03163314613a1a576040805162461bcd60e51b81526020600482015260096024820152683337b93134b23232b760b91b604482015290519081900360640190fd5b600e8190556040805182815290517f52a8358457e20bbb36e4086b83fb0749599f1893fe4c35a876c46dc4886d12db9181900360200190a150565b600042613a6d60115485614c8390919063ffffffff16565b11613aa9576040805162461bcd60e51b8152602060048201526007602482015266195e1c1a5c995960ca1b604482015290519081900360640190fd5b600033301480613ac857503360009081526018602052604090205460ff165b60125490915060ff16158015613adc575080155b15613b14576040805162461bcd60e51b815260206004820152600360248201526234303360e81b604482015290519081900360640190fd5b8015613b3a5743613b30600f5487614c8390919063ffffffff16565b1115915050613bd4565b336001600160a01b03841614613b7d576040805162461bcd60e51b815260206004820152600360248201526234303360e81b604482015290519081900360640190fd5b42613b9360105486614c8390919063ffffffff16565b1115613bce576040805162461bcd60e51b815260206004820152600560248201526464656c617960d81b604482015290519081900360640190fd5b60019150505b9392505050565b6003546000906001600160a01b03168185613c6e57816001600160a01b031663e124e6d28a6040518263ffffffff1660e01b815260040180826001600160a01b0316815260200191505060206040518083038186803b158015613c3d57600080fd5b505afa158015613c51573d6000803e3d6000fd5b505050506040513d6020811015613c6757600080fd5b5051613ce8565b816001600160a01b03166381a612d68a6040518263ffffffff1660e01b815260040180826001600160a01b0316815260200191505060206040518083038186803b158015613cbb57600080fd5b505afa158015613ccf573d6000803e3d6000fd5b505050506040513d6020811015613ce557600080fd5b50515b90508515613d3e5783811015613d39576040805162461bcd60e51b81526020600482015260116024820152706d61726b5072696365203c20707269636560781b604482015290519081900360640190fd5b613d87565b83811115613d87576040805162461bcd60e51b81526020600482015260116024820152706d61726b5072696365203e20707269636560781b604482015290519081900360640190fd5b6000826001600160a01b03166312d43a516040518163ffffffff1660e01b815260040160206040518083038186803b158015613dc257600080fd5b505afa158015613dd6573d6000803e3d6000fd5b505050506040513d6020811015613dec57600080fd5b81019080805190602001909291905050509050600460009054906101000a90046001600160a01b03166001600160a01b031663f3238cec8d8d8d8b8d8860006040518863ffffffff1660e01b815260040180886001600160a01b03168152602001876001600160a01b03168152602001866001600160a01b0316815260200185151581526020018481526020018381526020018215158152602001975050505050505050600060405180830381600087803b158015613eaa57600080fd5b505af1158015613ebe573d6000803e3d6000fd5b50505050806001600160a01b0316636d63c1d0846040518263ffffffff1660e01b815260040180826001600160a01b03168152602001915050600060405180830381600087803b158015613f1157600080fd5b505af1158015613f25573d6000803e3d6000fd5b505050506000600560009054906101000a90046001600160a01b03166001600160a01b0316632662166b8e8e8e8e8e8e8e6040518863ffffffff1660e01b815260040180886001600160a01b03168152602001876001600160a01b03168152602001866001600160a01b031681526020018581526020018481526020018315158152602001826001600160a01b03168152602001975050505050505050602060405180830381600087803b158015613fdc57600080fd5b505af1158015613ff0573d6000803e3d6000fd5b505050506040513d602081101561400657600080fd5b50516040805163d3c87bbb60e01b81526001600160a01b03878116600483015291519293509084169163d3c87bbb9160248082019260009290919082900301818387803b15801561405657600080fd5b505af115801561406a573d6000803e3d6000fd5b505050506140788d8a614cdb565b9c9b505050505050505050505050565b604080516001600160a01b038416602482015260448082018490528251808303909101815260649091019091526020810180516001600160e01b031663a9059cbb60e01b1790526140da908490614e64565b505050565b60008351600214156141265761411f846000815181106140fb57fe5b60200260200101518560018151811061411057fe5b60200260200101518585614f15565b9050613bd4565b6040805162461bcd60e51b81526020600482015260146024820152730d2dcecc2d8d2c840bee0c2e8d05cd8cadccee8d60631b604482015290519081900360640190fd5b60065460408051632e1a7d4d60e01b81526004810185905290516001600160a01b03909216918291632e1a7d4d91602480830192600092919082900301818387803b1580156141b857600080fd5b505af11580156141cc573d6000803e3d6000fd5b505060075491506000905080808080888887f1905080156141ef57505050611b61565b826001600160a01b031663d0e30db0866040518263ffffffff1660e01b81526004016000604051808303818588803b15801561422a57600080fd5b505af115801561423e573d6000803e3d6000fd5b5050505050826001600160a01b031663a9059cbb85876040518363ffffffff1660e01b815260040180836001600160a01b0316815260200182815260200192505050602060405180830381600087803b15801561429a57600080fd5b505af11580156142ae573d6000803e3d6000fd5b505050506040513d60208110156142c457600080fd5b50505050505050565b6000613bd483836040518060400160405280601e81526020017f536166654d6174683a207375627472616374696f6e206f766572666c6f770000815250614ffa565b6001600160a01b0384166143225761440f565b614334846001600160a01b0316615091565b61433d5761440f565b6017548061434b575061440f565b6000856001600160a01b031663eb7a199c838787876040518563ffffffff1660e01b815260040180848152602001831515815260200182151581526020019350505050600060405180830381600088803b1580156143a857600080fd5b5087f1935050505080156143ba575060015b6143c3576143c7565b5060015b604080516001600160a01b0388168152821515602082015281517f46ddbd62fc1a7626fe9c43026cb0694aec0b031fe81ac66fb4cfe9381dc6fe72929181900390910190a150505b50505050565b60008033301480613ac857503360009081526018602052604090205460ff1660125490915060ff16158015613adc575080613b14576040805162461bcd60e51b815260206004820152600360248201526234303360e81b604482015290519081900360640190fd5b804710156144d2576040805162461bcd60e51b815260206004820152601d60248201527f416464726573733a20696e73756666696369656e742062616c616e6365000000604482015290519081900360640190fd5b6040516000906001600160a01b0384169083908381818185875af1925050503d806000811461451d576040519150601f19603f3d011682016040523d82523d6000602084013e614522565b606091505b50509050806140da5760405162461bcd60e51b815260040180806020018281038252603a815260200180615baf603a913960400191505060405180910390fd5b600080736e95c21b88574a06a0e08b9f7f35f35fc917f5f263e0cab550600360009054906101000a90046001600160a01b03168a8a8a8a8a8a6009546040518963ffffffff1660e01b815260040180896001600160a01b03168152602001886001600160a01b0316815260200180602001878152602001866001600160a01b031681526020018515158152602001848152602001838152602001828103825288818151815260200191508051906020019060200280838360005b8381101561463457818101518382015260200161461c565b50505050905001995050505050505050505060206040518083038186803b15801561465e57600080fd5b505af4158015614672573d6000803e3d6000fd5b505050506040513d602081101561468857600080fd5b5051905080156147495760006146c16127106146bb6146b46008546127106142cd90919063ffffffff16565b8a90615097565b906150f0565b905060006146cf88836142cd565b905060008960018b5103815181106146e357fe5b6020026020010151905061472582600b6000846001600160a01b03166001600160a01b0316815260200190815260200160002054614c8390919063ffffffff16565b6001600160a01b039091166000908152600b602052604090205550915061474e9050565b859150505b9695505050505050565b61476384838561512f565b60035460055460048054604080516317c3cf0f60e31b81526001600160a01b03958616938101939093529284166024830152831660448201528883166064820152878316608482015291861660a483015260c4820185905283151560e4830152610104820183905251736e95c21b88574a06a0e08b9f7f35f35fc917f5f29163be1e787891610124808301926000929190829003018186803b15801561480857600080fd5b505af415801561481c573d6000803e3d6000fd5b5050505061482a86846152f8565b505050505050565b341561489c57600660009054906101000a90046001600160a01b03166001600160a01b031663d0e30db0346040518263ffffffff1660e01b81526004016000604051808303818588803b15801561488857600080fd5b505af1158015613279573d6000803e3d6000fd5b565b80158015906148b75750600a546001600160a01b031615155b1561490f57600a54604080516356b4b2ad60e01b81523360048201526024810184905290516001600160a01b03909216916356b4b2ad9160448082019260009290919082900301818387803b15801561488857600080fd5b50565b600061491c615a4e565b604051806101a001604052808e6001600160a01b031681526020018d81526020018c6001600160a01b031681526020018b81526020018a815260200189815260200188151581526020018781526020018681526020014381526020014281526020018515158152602001846001600160a01b031681525090506000806149a183615414565b915091508e6001600160a01b03167f5265bc4952da402633b3fc35f67ab4245493a0ab94dd8ab123667c8d45a4485c8f8f8f8f8f8f8f8f8b60016013805490500343423a60405180806020018e6001600160a01b031681526020018d81526020018c81526020018b81526020018a1515815260200189815260200188815260200187815260200186815260200185815260200184815260200183815260200182810382528f818151815260200191508051906020019060200280838360005b83811015614a78578181015183820152602001614a60565b505050509050019e50505050505050505050505050505060405180910390a29e9d5050505050505050505050505050565b6000614ab3615999565b604051806101c001604052808f6001600160a01b031681526020018e81526020018d6001600160a01b031681526020018c81526020018b81526020018a15158152602001896001600160a01b031681526020018881526020018781526020018681526020014381526020014281526020018515158152602001846001600160a01b03168152509050600080614b47836155b2565b9150915082600001516001600160a01b03167f81ed0476a7e785a9e4728fffd679ea97176ca1ac85e1003462558bb5677da57b84602001518560400151866060015187608001518860a001518960c001518a60e001518b61010001518c61012001518c600160148054905003434260405180806020018e6001600160a01b031681526020018d81526020018c81526020018b151581526020018a6001600160a01b0316815260200189815260200188815260200187815260200186815260200185815260200184815260200183815260200182810382528f818151815260200191508051906020019060200280838360005b83811015614c51578181015183820152602001614c39565b505050509050019e50505050505050505050505050505060405180910390a29f9e505050505050505050505050505050565b600082820183811015613bd4576040805162461bcd60e51b815260206004820152601b60248201527a536166654d6174683a206164646974696f6e206f766572666c6f7760281b604482015290519081900360640190fd5b600a546001600160a01b031680614cf25750611b61565b600080826001600160a01b031663534ef883866040518263ffffffff1660e01b815260040180826001600160a01b03168152602001915050604080518083038186803b158015614d4157600080fd5b505afa158015614d55573d6000803e3d6000fd5b505050506040513d6040811015614d6b57600080fd5b508051602090910151909250905081614d8657505050611b61565b7f474c763ff84bf2c2039a6d9fea955ecd0f724030e3c365b91169c6a16fe751b78585600360009054906101000a90046001600160a01b03166001600160a01b031663318bc6896040518163ffffffff1660e01b815260040160206040518083038186803b158015614df757600080fd5b505afa158015614e0b573d6000803e3d6000fd5b505050506040513d6020811015614e2157600080fd5b5051604080516001600160a01b03948516815260208101939093528281019190915260608201869052918416608082015290519081900360a00190a15050505050565b6060614eb9826040518060400160405280602081526020017f5361666545524332303a206c6f772d6c6576656c2063616c6c206661696c6564815250856001600160a01b031661575b9092919063ffffffff16565b8051909150156140da57808060200190516020811015614ed857600080fd5b50516140da5760405162461bcd60e51b815260040180806020018281038252602a815260200180615c30602a913960400191505060405180910390fd5b60035460408051634998b10960e11b81526001600160a01b03878116600483015286811660248301528481166044830152915160009384931691639331621291606480830192602092919082900301818787803b158015614f7557600080fd5b505af1158015614f89573d6000803e3d6000fd5b505050506040513d6020811015614f9f57600080fd5b5051905083811015614ff1576040805162461bcd60e51b81526020600482015260166024820152751a5b9cdd59999a58da595b9d08185b5bdd5b9d13dd5d60521b604482015290519081900360640190fd5b95945050505050565b600081848411156150895760405162461bcd60e51b81526004018080602001828103825283818151815260200191508051906020019080838360005b8381101561504e578181015183820152602001615036565b50505050905090810190601f16801561507b5780820380516001836020036101000a031916815260200191505b509250505060405180910390fd5b505050900390565b3b151590565b6000826150a6575060006129d7565b828202828482816150b357fe5b0414613bd45760405162461bcd60e51b8152600401808060200182810382526021815260200180615c0f6021913960400191505060405180910390fd5b6000613bd483836040518060400160405280601a815260200179536166654d6174683a206469766973696f6e206279207a65726f60301b815250615772565b80615139576140da565b8115615237576001600160a01b0383166000908152600c602052604090205480158015906151ea57506003546040805163783a2b6760e11b81526001600160a01b038781166004830152915184936151e893879391169163f07456ce91602480820192602092909190829003018186803b1580156151b657600080fd5b505afa1580156151ca573d6000803e3d6000fd5b505050506040513d60208110156151e057600080fd5b505190614c83565b115b15615231576040805162461bcd60e51b81526020600482015260126024820152711b585e081b1bdb99dcc8195e18d95959195960721b604482015290519081900360640190fd5b506140da565b6001600160a01b0383166000908152600d602052604090205480158015906152b057506003546040805163114f1b5560e31b81526001600160a01b038781166004830152915184936152ae938793911691638a78daa891602480820192602092909190829003018186803b1580156151b657600080fd5b115b1561440f576040805162461bcd60e51b81526020600482015260136024820152721b585e081cda1bdc9d1cc8195e18d959591959606a1b604482015290519081900360640190fd5b600a546001600160a01b03168061530f5750611b61565b600080826001600160a01b031663534ef883866040518263ffffffff1660e01b815260040180826001600160a01b03168152602001915050604080518083038186803b15801561535e57600080fd5b505afa158015615372573d6000803e3d6000fd5b505050506040513d604081101561538857600080fd5b5080516020909101519092509050816153a357505050611b61565b7fc2414023ce7002ee98557d1e7be21e5559073336f2217ee5f9b2e50fd85f71ee8585600360009054906101000a90046001600160a01b03166001600160a01b031663318bc6896040518163ffffffff1660e01b815260040160206040518083038186803b158015614df757600080fd5b80516001600160a01b038116600090815260196020526040812054909182918290615440906001614c83565b6001600160a01b03831660009081526019602052604081208290559091506154688383612997565b6000818152601a60209081526040909120885181546001600160a01b0319166001600160a01b03909116178155888201518051939450899391926154b492600185019290910190615ad5565b5060408201516002820180546001600160a01b039283166001600160a01b0319909116179055606083015160038301556080830151600483015560a0830151600583015560c083015160068301805491151560ff1992831617905560e084015160078401556101008085015160088501556101208501516009850155610140850151600a850155610160850151600b90940180546101809096015190931602610100600160a81b0319931515949091169390931791909116919091179055601380546001810182556000919091527f66de8ffda797e3de9c05e8fc57b3bf0ec28a930d40b0d285d93c06501cf6a09001819055909350915050915091565b80516001600160a01b0381166000908152601b60205260408120549091829182906155de906001614c83565b6001600160a01b0383166000908152601b602052604081208290559091506156068383612997565b6000818152601c60209081526040909120885181546001600160a01b0319166001600160a01b039091161781558882015180519394508993919261565292600185019290910190615ad5565b5060408201516002820180546001600160a01b039283166001600160a01b0319909116179055606083015160038301556080830151600483015560a083015160058301805460c08601518416610100908102610100600160a81b031994151560ff199384161785161790925560e0860151600686015581860151600786015561012086015160088601556101408601516009860155610160860151600a860155610180860151600b90950180546101a090970151909416909102931515941693909317909216179055601480546001810182556000919091527fce6d7b5282bd9a3661ae061feed1dbda4e52ab073b1f9285be6e155d9c38d4ec01819055909350915050915091565b606061576a84846000856157d7565b949350505050565b600081836157c15760405162461bcd60e51b815260206004820181815283516024840152835190928392604490910191908501908083836000831561504e578181015183820152602001615036565b5060008385816157cd57fe5b0495945050505050565b6060824710156158185760405162461bcd60e51b8152600401808060200182810382526026815260200180615be96026913960400191505060405180910390fd5b61582185615091565b615872576040805162461bcd60e51b815260206004820152601d60248201527f416464726573733a2063616c6c20746f206e6f6e2d636f6e7472616374000000604482015290519081900360640190fd5b60006060866001600160a01b031685876040518082805190602001908083835b602083106158b15780518252601f199092019160209182019101615892565b6001836020036101000a03801982511681845116808217855250505050505090500191505060006040518083038185875af1925050503d8060008114615913576040519150601f19603f3d011682016040523d82523d6000602084013e615918565b606091505b5091509150615928828286615933565b979650505050505050565b60608315615942575081613bd4565b8251156159525782518084602001fd5b60405162461bcd60e51b815260206004820181815284516024840152845185939192839260440191908501908083836000831561504e578181015183820152602001615036565b604051806101c0016040528060006001600160a01b031681526020016060815260200160006001600160a01b03168152602001600081526020016000815260200160001515815260200160006001600160a01b03168152602001600081526020016000815260200160008152602001600081526020016000815260200160001515815260200160006001600160a01b031681525090565b508054600082559060005260206000209081019061490f9190615b3a565b604051806101a0016040528060006001600160a01b031681526020016060815260200160006001600160a01b031681526020016000815260200160008152602001600081526020016000151581526020016000815260200160008152602001600081526020016000815260200160001515815260200160006001600160a01b031681525090565b828054828255906000526020600020908101928215615b2a579160200282015b82811115615b2a57825182546001600160a01b0319166001600160a01b03909116178255602090920191600190910190615af5565b50615b36929150615b4f565b5090565b5b80821115615b365760008155600101615b3b565b5b80821115615b365780546001600160a01b0319168155600101615b5056fe5265656e7472616e637947756172643a207265656e7472616e742063616c6c00476f7665726e61626c653a20666f7262696464656e0000000000000000000000416464726573733a20756e61626c6520746f2073656e642076616c75652c20726563697069656e74206d61792068617665207265766572746564416464726573733a20696e73756666696369656e742062616c616e636520666f722063616c6c536166654d6174683a206d756c7469706c69636174696f6e206f766572666c6f775361666545524332303a204552433230206f7065726174696f6e20646964206e6f742073756363656564a26469706673582212203411d5da3819097cb4fb096ce4a112413d4cf8e6844eb7477e4c9cc31b79793164736f6c634300060c003300000000000000000000000033c93b584fceb5ee55ed1bd8674a0ad2942d871b00000000000000000000000083f5e19b35567a41b6d4544d5f1285c3638c9d400000000000000000000000004cb55c4c3b0ec4e2ac20ee90afef7a32c1f56d64000000000000000000000000659af020acf24559ca45d219cee498ac3b48da96000000000000000000000000000000000000000000000000000000000000001e000000000000000000000000000000000000000000000000000110d9316ec000$4ebf70e2aa99c076c4a72b3e77f175d419$__63e0cab550600360009054906101000a90046001600160a01b03168a8a8a8a8a8a6009546040518963ffffffff1660e01b815260040180896001600160a01b03168152602001886001600160a01b0316815260200180602001878152602001866001600160a01b031681526020018515158152602001848152602001838152602001828103825288818151815260200191508051906020019060200280838360005b8381101561463457818101518382015260200161461c565b50505050905001995050505050505050505060206040518083038186803b15801561465e57600080fd5b505af4158015614672573d6000803e3d6000fd5b505050506040513d602081101561468857600080fd5b5051905080156147495760006146c16127106146bb6146b46008546127106142cd90919063ffffffff16565b8a90615097565b906150f0565b905060006146cf88836142cd565b905060008960018b5103815181106146e357fe5b6020026020010151905061472582600b6000846001600160a01b03166001600160a01b0316815260200190815260200160002054614c8390919063ffffffff16565b6001600160a01b039091166000908152600b602052604090205550915061474e9050565b859150505b9695505050505050565b61476384838561512f565b60035460055460048054604080516317c3cf0f60e31b81526001600160a01b03958616938101939093529284166024830152831660448201528883166064820152878316608482015291861660a483015260c4820185905283151560e483015261010482018390525173__$4ebf70e2aa99c076c4a72b3e77f175d419$__9163be1e787891610124808301926000929190829003018186803b15801561480857600080fd5b505af415801561481c573d6000803e3d6000fd5b5050505061482a86846152f8565b505050505050565b341561489c57600660009054906101000a90046001600160a01b03166001600160a01b031663d0e30db0346040518263ffffffff1660e01b81526004016000604051808303818588803b15801561488857600080fd5b505af1158015613279573d6000803e3d6000fd5b565b80158015906148b75750600a546001600160a01b031615155b1561490f57600a54604080516356b4b2ad60e01b81523360048201526024810184905290516001600160a01b03909216916356b4b2ad9160448082019260009290919082900301818387803b15801561488857600080fd5b50565b600061491c615a4e565b604051806101a001604052808e6001600160a01b031681526020018d81526020018c6001600160a01b031681526020018b81526020018a815260200189815260200188151581526020018781526020018681526020014381526020014281526020018515158152602001846001600160a01b031681525090506000806149a183615414565b915091508e6001600160a01b03167f5265bc4952da402633b3fc35f67ab4245493a0ab94dd8ab123667c8d45a4485c8f8f8f8f8f8f8f8f8b60016013805490500343423a60405180806020018e6001600160a01b031681526020018d81526020018c81526020018b81526020018a1515815260200189815260200188815260200187815260200186815260200185815260200184815260200183815260200182810382528f818151815260200191508051906020019060200280838360005b83811015614a78578181015183820152602001614a60565b505050509050019e50505050505050505050505050505060405180910390a29e9d5050505050505050505050505050565b6000614ab3615999565b604051806101c001604052808f6001600160a01b031681526020018e81526020018d6001600160a01b031681526020018c81526020018b81526020018a15158152602001896001600160a01b031681526020018881526020018781526020018681526020014381526020014281526020018515158152602001846001600160a01b03168152509050600080614b47836155b2565b9150915082600001516001600160a01b03167f81ed0476a7e785a9e4728fffd679ea97176ca1ac85e1003462558bb5677da57b84602001518560400151866060015187608001518860a001518960c001518a60e001518b61010001518c61012001518c600160148054905003434260405180806020018e6001600160a01b031681526020018d81526020018c81526020018b151581526020018a6001600160a01b0316815260200189815260200188815260200187815260200186815260200185815260200184815260200183815260200182810382528f818151815260200191508051906020019060200280838360005b83811015614c51578181015183820152602001614c39565b505050509050019e50505050505050505050505050505060405180910390a29f9e505050505050505050505050505050565b600082820183811015613bd4576040805162461bcd60e51b815260206004820152601b60248201527a536166654d6174683a206164646974696f6e206f766572666c6f7760281b604482015290519081900360640190fd5b600a546001600160a01b031680614cf25750611b61565b600080826001600160a01b031663534ef883866040518263ffffffff1660e01b815260040180826001600160a01b03168152602001915050604080518083038186803b158015614d4157600080fd5b505afa158015614d55573d6000803e3d6000fd5b505050506040513d6040811015614d6b57600080fd5b508051602090910151909250905081614d8657505050611b61565b7f474c763ff84bf2c2039a6d9fea955ecd0f724030e3c365b91169c6a16fe751b78585600360009054906101000a90046001600160a01b03166001600160a01b031663318bc6896040518163ffffffff1660e01b815260040160206040518083038186803b158015614df757600080fd5b505afa158015614e0b573d6000803e3d6000fd5b505050506040513d6020811015614e2157600080fd5b5051604080516001600160a01b03948516815260208101939093528281019190915260608201869052918416608082015290519081900360a00190a15050505050565b6060614eb9826040518060400160405280602081526020017f5361666545524332303a206c6f772d6c6576656c2063616c6c206661696c6564815250856001600160a01b031661575b9092919063ffffffff16565b8051909150156140da57808060200190516020811015614ed857600080fd5b50516140da5760405162461bcd60e51b815260040180806020018281038252602a815260200180615c30602a913960400191505060405180910390fd5b60035460408051634998b10960e11b81526001600160a01b03878116600483015286811660248301528481166044830152915160009384931691639331621291606480830192602092919082900301818787803b158015614f7557600080fd5b505af1158015614f89573d6000803e3d6000fd5b505050506040513d6020811015614f9f57600080fd5b5051905083811015614ff1576040805162461bcd60e51b81526020600482015260166024820152751a5b9cdd59999a58da595b9d08185b5bdd5b9d13dd5d60521b604482015290519081900360640190fd5b95945050505050565b600081848411156150895760405162461bcd60e51b81526004018080602001828103825283818151815260200191508051906020019080838360005b8381101561504e578181015183820152602001615036565b50505050905090810190601f16801561507b5780820380516001836020036101000a031916815260200191505b509250505060405180910390fd5b505050900390565b3b151590565b6000826150a6575060006129d7565b828202828482816150b357fe5b0414613bd45760405162461bcd60e51b8152600401808060200182810382526021815260200180615c0f6021913960400191505060405180910390fd5b6000613bd483836040518060400160405280601a815260200179536166654d6174683a206469766973696f6e206279207a65726f60301b815250615772565b80615139576140da565b8115615237576001600160a01b0383166000908152600c602052604090205480158015906151ea57506003546040805163783a2b6760e11b81526001600160a01b038781166004830152915184936151e893879391169163f07456ce91602480820192602092909190829003018186803b1580156151b657600080fd5b505afa1580156151ca573d6000803e3d6000fd5b505050506040513d60208110156151e057600080fd5b505190614c83565b115b15615231576040805162461bcd60e51b81526020600482015260126024820152711b585e081b1bdb99dcc8195e18d95959195960721b604482015290519081900360640190fd5b506140da565b6001600160a01b0383166000908152600d602052604090205480158015906152b057506003546040805163114f1b5560e31b81526001600160a01b038781166004830152915184936152ae938793911691638a78daa891602480820192602092909190829003018186803b1580156151b657600080fd5b115b1561440f576040805162461bcd60e51b81526020600482015260136024820152721b585e081cda1bdc9d1cc8195e18d959591959606a1b604482015290519081900360640190fd5b600a546001600160a01b03168061530f5750611b61565b600080826001600160a01b031663534ef883866040518263ffffffff1660e01b815260040180826001600160a01b03168152602001915050604080518083038186803b15801561535e57600080fd5b505afa158015615372573d6000803e3d6000fd5b505050506040513d604081101561538857600080fd5b5080516020909101519092509050816153a357505050611b61565b7fc2414023ce7002ee98557d1e7be21e5559073336f2217ee5f9b2e50fd85f71ee8585600360009054906101000a90046001600160a01b03166001600160a01b031663318bc6896040518163ffffffff1660e01b815260040160206040518083038186803b158015614df757600080fd5b80516001600160a01b038116600090815260196020526040812054909182918290615440906001614c83565b6001600160a01b03831660009081526019602052604081208290559091506154688383612997565b6000818152601a60209081526040909120885181546001600160a01b0319166001600160a01b03909116178155888201518051939450899391926154b492600185019290910190615ad5565b5060408201516002820180546001600160a01b039283166001600160a01b0319909116179055606083015160038301556080830151600483015560a0830151600583015560c083015160068301805491151560ff1992831617905560e084015160078401556101008085015160088501556101208501516009850155610140850151600a850155610160850151600b90940180546101809096015190931602610100600160a81b0319931515949091169390931791909116919091179055601380546001810182556000919091527f66de8ffda797e3de9c05e8fc57b3bf0ec28a930d40b0d285d93c06501cf6a09001819055909350915050915091565b80516001600160a01b0381166000908152601b60205260408120549091829182906155de906001614c83565b6001600160a01b0383166000908152601b602052604081208290559091506156068383612997565b6000818152601c60209081526040909120885181546001600160a01b0319166001600160a01b039091161781558882015180519394508993919261565292600185019290910190615ad5565b5060408201516002820180546001600160a01b039283166001600160a01b0319909116179055606083015160038301556080830151600483015560a083015160058301805460c08601518416610100908102610100600160a81b031994151560ff199384161785161790925560e0860151600686015581860151600786015561012086015160088601556101408601516009860155610160860151600a860155610180860151600b90950180546101a090970151909416909102931515941693909317909216179055601480546001810182556000919091527fce6d7b5282bd9a3661ae061feed1dbda4e52ab073b1f9285be6e155d9c38d4ec01819055909350915050915091565b606061576a84846000856157d7565b949350505050565b600081836157c15760405162461bcd60e51b815260206004820181815283516024840152835190928392604490910191908501908083836000831561504e578181015183820152602001615036565b5060008385816157cd57fe5b0495945050505050565b6060824710156158185760405162461bcd60e51b8152600401808060200182810382526026815260200180615be96026913960400191505060405180910390fd5b61582185615091565b615872576040805162461bcd60e51b815260206004820152601d60248201527f416464726573733a2063616c6c20746f206e6f6e2d636f6e7472616374000000604482015290519081900360640190fd5b60006060866001600160a01b031685876040518082805190602001908083835b602083106158b15780518252601f199092019160209182019101615892565b6001836020036101000a03801982511681845116808217855250505050505090500191505060006040518083038185875af1925050503d8060008114615913576040519150601f19603f3d011682016040523d82523d6000602084013e615918565b606091505b5091509150615928828286615933565b979650505050505050565b60608315615942575081613bd4565b8251156159525782518084602001fd5b60405162461bcd60e51b815260206004820181815284516024840152845185939192839260440191908501908083836000831561504e578181015183820152602001615036565b604051806101c0016040528060006001600160a01b031681526020016060815260200160006001600160a01b03168152602001600081526020016000815260200160001515815260200160006001600160a01b03168152602001600081526020016000815260200160008152602001600081526020016000815260200160001515815260200160006001600160a01b031681525090565b508054600082559060005260206000209081019061490f9190615b3a565b604051806101a0016040528060006001600160a01b031681526020016060815260200160006001600160a01b031681526020016000815260200160008152602001600081526020016000151581526020016000815260200160008152602001600081526020016000815260200160001515815260200160006001600160a01b031681525090565b828054828255906000526020600020908101928215615b2a579160200282015b82811115615b2a57825182546001600160a01b0319166001600160a01b03909116178255602090920191600190910190615af5565b50615b36929150615b4f565b5090565b5b80821115615b365760008155600101615b3b565b5b80821115615b365780546001600160a01b0319168155600101615b5056fe5265656e7472616e637947756172643a207265656e7472616e742063616c6c00476f7665726e61626c653a20666f7262696464656e0000000000000000000000416464726573733a20756e61626c6520746f2073656e642076616c75652c20726563697069656e74206d61792068617665207265766572746564416464726573733a20696e73756666696369656e742062616c616e636520666f722063616c6c536166654d6174683a206d756c7469706c69636174696f6e206f766572666c6f775361666545524332303a204552433230206f7065726174696f6e20646964206e6f742073756363656564a26469706673582212203411d5da3819097cb4fb096ce4a112413d4cf8e6844eb7477e4c9cc31b79793164736f6c634300060c0033",
  "deployedBytecode": "0x6080604052600436106102945760003560e01c80626cc35e146102f057806304225954146103215780630d4d003d1461035d5780631045c74e146103aa578063126082cf146103dd57806312d43a51146103f25780631bca8cf0146104075780631ce9cb8f1461041c5780631f2851061461044f578063225fc9fd146104f1578063233bfe3b1461052a57806324a084df1461055457806324f746971461058d57806327b42c0f146105a25780632d79cf42146105db578063308aa81f146105f05780633422ead11461062057806336eba48a1461065b5780633a2a80c71461068e5780633a9b52ad146106a35780633e72a262146106cd5780633fc8cef3146106e25780634067b132146106f75780634278555f1461072d578063490ae210146107575780635841fcaa146107815780635b88e8c6146107965780635d5c22e81461086f57806360a362e2146108e957806362f8a3fe14610922578063633451de1461095b57806363ae21031461098e578063657bc5d0146109a357806367a52793146109b8578063704b6c02146109cd5780637be7d14114610a005780637c2eb9f714610aeb5780638a54942f14610b1757806395e9bbd714610b415780639698d25a14610b6b57806398d1e03a14610b9e5780639a20810014610bb35780639b57862014610bec578063ae4d7f9a14610c01578063cb0269c914610c34578063cfad57a214610c49578063e1f21c6714610c7c578063ef12c67e14610cbf578063f255527814610e71578063f2ae372f14610eac578063f2cea6a514610f8b578063f3883d8b14610fc6578063f851a44014610fff578063f887ea4014611014578063fa44457714611029578063faf990f31461105c578063fbfa77cf146110f5578063fc2cee621461110a576102eb565b366102eb576006546001600160a01b031633146102e9576040805162461bcd60e51b815260206004820152600e60248201526d34b73b30b634b21039b2b73232b960911b604482015290519081900360640190fd5b005b600080fd5b3480156102fc57600080fd5b50610305611134565b604080516001600160a01b039092168252519081900360200190f35b34801561032d57600080fd5b5061034b6004803603602081101561034457600080fd5b5035611143565b60408051918252519081900360200190f35b34801561036957600080fd5b506103966004803603604081101561038057600080fd5b50803590602001356001600160a01b0316611161565b604080519115158252519081900360200190f35b3480156103b657600080fd5b5061034b600480360360208110156103cd57600080fd5b50356001600160a01b03166115ff565b3480156103e957600080fd5b5061034b611611565b3480156103fe57600080fd5b50610305611617565b34801561041357600080fd5b5061034b611626565b34801561042857600080fd5b5061034b6004803603602081101561043f57600080fd5b50356001600160a01b031661162c565b34801561045b57600080fd5b506104796004803603602081101561047257600080fd5b503561163e565b604080516001600160a01b039e8f1681529c8e1660208e01528c81019b909b5260608c019990995296151560808b0152948a1660a08a015260c089019390935260e088019190915261010087015261012086015261014085015215156101608401529092166101808201529051908190036101a00190f35b3480156104fd57600080fd5b506103966004803603604081101561051457600080fd5b50803590602001356001600160a01b03166116b1565b34801561053657600080fd5b506102e96004803603602081101561054d57600080fd5b5035611a7b565b34801561056057600080fd5b506102e96004803603604081101561057757600080fd5b506001600160a01b038135169060200135611b01565b34801561059957600080fd5b5061034b611b65565b3480156105ae57600080fd5b50610396600480360360408110156105c557600080fd5b50803590602001356001600160a01b0316611b6b565b3480156105e757600080fd5b5061034b611fd1565b3480156105fc57600080fd5b506102e96004803603604081101561061357600080fd5b5080359060200135611fd7565b34801561062c57600080fd5b506102e96004803603604081101561064357600080fd5b506001600160a01b038135169060200135151561206b565b34801561066757600080fd5b506103966004803603602081101561067e57600080fd5b50356001600160a01b0316612116565b34801561069a57600080fd5b5061034b61212b565b3480156106af57600080fd5b506102e9600480360360208110156106c657600080fd5b5035612131565b3480156106d957600080fd5b506103966121b7565b3480156106ee57600080fd5b506103056121c0565b34801561070357600080fd5b506102e96004803603606081101561071a57600080fd5b50803590602081013590604001356121cf565b34801561073957600080fd5b5061034b6004803603602081101561075057600080fd5b503561226e565b34801561076357600080fd5b506102e96004803603602081101561077a57600080fd5b503561227b565b34801561078d57600080fd5b5061034b612301565b61034b60048036036101208110156107ad57600080fd5b810190602081018135600160201b8111156107c757600080fd5b8201836020820111156107d957600080fd5b803590602001918460208302840111600160201b831117156107fa57600080fd5b919080806020026020016040519081016040528093929190818152602001838360200280828437600092019190915250929550505081356001600160a01b03908116935060208301359260408101359250606081013515159160808201359160a08101359160c08201359160e0013516612307565b34801561087b57600080fd5b506108996004803603602081101561089257600080fd5b50356124c3565b60408051602080825283518183015283519192839290830191858101910280838360005b838110156108d55781810151838201526020016108bd565b505050509050019250505060405180910390f35b3480156108f557600080fd5b506103966004803603604081101561090c57600080fd5b50803590602001356001600160a01b03166125f9565b34801561092e57600080fd5b5061034b6004803603604081101561094557600080fd5b506001600160a01b038135169060200135612997565b34801561096757600080fd5b5061034b6004803603602081101561097e57600080fd5b50356001600160a01b03166129dd565b34801561099a57600080fd5b5061034b6129ef565b3480156109af57600080fd5b506103056129f5565b3480156109c457600080fd5b5061034b612a04565b3480156109d957600080fd5b506102e9600480360360208110156109f057600080fd5b50356001600160a01b0316612a0a565b61034b6004803603610160811015610a1757600080fd5b810190602081018135600160201b811115610a3157600080fd5b820183602082011115610a4357600080fd5b803590602001918460208302840111600160201b83111715610a6457600080fd5b919080806020026020016040519081016040528093929190818152602001838360200280828437600092019190915250929550505081356001600160a01b039081169350602083013592604081013592506060810135151591608082013581169160a08101359160c08201359160e081013591610100820135151591610120013516612aab565b348015610af757600080fd5b506102e960048036036020811015610b0e57600080fd5b50351515612c5b565b348015610b2357600080fd5b506102e960048036036020811015610b3a57600080fd5b5035612ced565b348015610b4d57600080fd5b5061089960048036036020811015610b6457600080fd5b5035612d73565b348015610b7757600080fd5b5061034b60048036036020811015610b8e57600080fd5b50356001600160a01b0316612ea1565b348015610baa57600080fd5b5061034b612eb3565b348015610bbf57600080fd5b506102e960048036036040811015610bd657600080fd5b50803590602001356001600160a01b0316612eb9565b348015610bf857600080fd5b5061034b613091565b348015610c0d57600080fd5b506102e960048036036020811015610c2457600080fd5b50356001600160a01b0316613097565b348015610c4057600080fd5b5061034b613136565b348015610c5557600080fd5b506102e960048036036020811015610c6c57600080fd5b50356001600160a01b031661313c565b348015610c8857600080fd5b506102e960048036036060811015610c9f57600080fd5b506001600160a01b038135811691602081013590911690604001356131ab565b348015610ccb57600080fd5b506102e960048036036060811015610ce257600080fd5b810190602081018135600160201b811115610cfc57600080fd5b820183602082011115610d0e57600080fd5b803590602001918460208302840111600160201b83111715610d2f57600080fd5b9190808060200260200160405190810160405280939291908181526020018383602002808284376000920191909152509295949360208101935035915050600160201b811115610d7e57600080fd5b820183602082011115610d9057600080fd5b803590602001918460208302840111600160201b83111715610db157600080fd5b9190808060200260200160405190810160405280939291908181526020018383602002808284376000920191909152509295949360208101935035915050600160201b811115610e0057600080fd5b820183602082011115610e1257600080fd5b803590602001918460208302840111600160201b83111715610e3357600080fd5b919080806020026020016040519081016040528093929190818152602001838360200280828437600092019190915250929550613280945050505050565b348015610e7d57600080fd5b506102e960048036036040811015610e9457600080fd5b506001600160a01b038135811691602001351661346d565b61034b6004803603610140811015610ec357600080fd5b810190602081018135600160201b811115610edd57600080fd5b820183602082011115610eef57600080fd5b803590602001918460208302840111600160201b83111715610f1057600080fd5b919080806020026020016040519081016040528093929190818152602001838360200280828437600092019190915250929550506001600160a01b038335811694506020840135936040810135935060608101359250608081013515159160a08201359160c08101359160e08201359161010001351661354f565b348015610f9757600080fd5b50610fa0613732565b604080519485526020850193909352838301919091526060830152519081900360800190f35b348015610fd257600080fd5b506102e960048036036040811015610fe957600080fd5b50803590602001356001600160a01b0316613744565b34801561100b57600080fd5b5061030561391c565b34801561102057600080fd5b5061030561392b565b34801561103557600080fd5b5061034b6004803603602081101561104c57600080fd5b50356001600160a01b031661393a565b34801561106857600080fd5b506110866004803603602081101561107f57600080fd5b503561394c565b604080516001600160a01b039d8e1681529b8d1660208d01528b81019a909a5260608b019890985260808a019690965293151560a089015260c088019290925260e087015261010086015261012085015215156101408401529092166101608201529051908190036101800190f35b34801561110157600080fd5b506103056139c0565b34801561111657600080fd5b506102e96004803603602081101561112d57600080fd5b50356139cf565b600a546001600160a01b031681565b6013818154811061115057fe5b600091825260209091200154905081565b6000600260005414156111a9576040805162461bcd60e51b815260206004820152601f6024820152600080516020615b6f833981519152604482015290519081900360640190fd5b60026000556111b6615999565b6000848152601c602090815260409182902082516101c08101845281546001600160a01b031681526001820180548551818602810186019096528086529194929385810193929083018282801561123657602002820191906000526020600020905b81546001600160a01b03168152600190910190602001808311611218575b505050918352505060028201546001600160a01b0390811660208301526003830154604083015260048301546060830152600583015460ff8082161515608085015261010091829004831660a0850152600685015460c0850152600785015460e08501526008850154828501526009850154610120850152600a850154610140850152600b9094015493841615156101608401529092048216610180909101528151919250166112ea5760019150506115f4565b60006113058261014001518361016001518460000151613a55565b905080611317576000925050506115f4565b6000858152601c6020526040812080546001600160a01b0319168155906113416001830182615a30565b506002810180546001600160a01b0319169055600060038201819055600482018190556005820180546001600160a81b031990811690915560068301829055600783018290556008830182905560098301829055600a8301829055600b90920180549092169091558251602084015180516113e792919084906113c057fe5b60200260200101518560400151866060015187608001518860a00151308a60e00151613bdb565b9050801561149657600183602001515111156114575760035460208401518051611440926001600160a01b031691849160009061142057fe5b60200260200101516001600160a01b03166140889092919063ffffffff16565b6114548360200151846101000151306140df565b90505b8261018001511561147557611470818460c0015161416a565b611496565b6114968360c001518285602001516001876020015151038151811061142057fe5b6114a58361012001518661416a565b82600001516001600160a01b03167f21435c5b618d77ff3657140cd3318e2cffaebc5e0e1b7318f56a9ba4044c3ed284602001518560400151866060015187608001518860a001518960c001518a60e001518b61010001518c610120015161151b8e6101400151436142cd90919063ffffffff16565b6101608f015161152c9042906142cd565b60405180806020018c6001600160a01b031681526020018b81526020018a81526020018915158152602001886001600160a01b0316815260200187815260200186815260200185815260200184815260200183815260200182810382528d818151815260200191508051906020019060200280838360005b838110156115bc5781810151838201526020016115a4565b505050509050019c5050505050505050505050505060405180910390a26115ec836101a00151876001600061430f565b600193505050505b600160005592915050565b600c6020526000908152604090205481565b61271081565b6001546001600160a01b031681565b60165481565b600b6020526000908152604090205481565b601c602052600090815260409020805460028201546003830154600484015460058501546006860154600787015460088801546009890154600a8a0154600b909a01546001600160a01b03998a169a988a16999798969760ff80881698610100988990048316989093918216929104168d565b6000600260005414156116f9576040805162461bcd60e51b815260206004820152601f6024820152600080516020615b6f833981519152604482015290519081900360640190fd5b6002600055611706615a4e565b6000848152601a602090815260409182902082516101a08101845281546001600160a01b031681526001820180548551818602810186019096528086529194929385810193929083018282801561178657602002820191906000526020600020905b81546001600160a01b03168152600190910190602001808311611768575b505050918352505060028201546001600160a01b039081166020830152600383015460408301526004830154606083015260058301546080830152600683015460ff908116151560a0840152600784015460c0840152600884015460e0840152600984015461010080850191909152600a850154610120850152600b909401549081161515610140840152929092048216610160909101528151919250166118325760019150506115f4565b600061184d8261012001518361014001518460000151614415565b90508061185f576000925050506115f4565b6000858152601a6020526040812080546001600160a01b0319168155906118896001830182615a30565b506002810180546001600160a01b0319169055600060038201819055600482018190556005820181905560068201805460ff19169055600782018190556008820181905560098201819055600a820155600b0180546001600160a81b03191690556101608201511561190c576119078260600151836000015161416a565b61192a565b61192a82600001518360600151846020015160008151811061142057fe5b6119398261010001518561416a565b81600001516001600160a01b03167f35b638e650e2328786fb405bd69d2083dbedc018d086662e74b775b4f1dae4bf83602001518460400151856060015186608001518760a001518860c001518960e001518a61010001516119a98c6101200151436142cd90919063ffffffff16565b6101408d01516119ba9042906142cd565b60405180806020018b6001600160a01b031681526020018a8152602001898152602001888152602001871515815260200186815260200185815260200184815260200183815260200182810382528c818151815260200191508051906020019060200280838360005b83811015611a3b578181015183820152602001611a23565b505050509050019b50505050505050505050505060405180910390a2611a6a826101800151866000600161430f565b600192505050600160005592915050565b6002546001600160a01b03163314611ac6576040805162461bcd60e51b81526020600482015260096024820152683337b93134b23232b760b91b604482015290519081900360640190fd5b60098190556040805182815290517f21167d0d4661af93817ebce920f18986eed3d75d5e1c03f2aed05efcbafbc4529181900360200190a150565b6001546001600160a01b03163314611b4e576040805162461bcd60e51b81526020600482015260156024820152600080516020615b8f833981519152604482015290519081900360640190fd5b611b616001600160a01b0383168261447d565b5050565b60175481565b600060026000541415611bb3576040805162461bcd60e51b815260206004820152601f6024820152600080516020615b6f833981519152604482015290519081900360640190fd5b6002600055611bc0615a4e565b6000848152601a602090815260409182902082516101a08101845281546001600160a01b0316815260018201805485518186028101860190965280865291949293858101939290830182828015611c4057602002820191906000526020600020905b81546001600160a01b03168152600190910190602001808311611c22575b505050918352505060028201546001600160a01b039081166020830152600383015460408301526004830154606083015260058301546080830152600683015460ff908116151560a0840152600784015460c0840152600884015460e0840152600984015461010080850191909152600a850154610120850152600b90940154908116151561014084015292909204821661016090910152815191925016611cec5760019150506115f4565b6000611d078261012001518361014001518460000151613a55565b905080611d19576000925050506115f4565b6000858152601a6020526040812080546001600160a01b031916815590611d436001830182615a30565b506002810180546001600160a01b0319169055600060038201819055600482018190556005820181905560068201805460ff19169055600782018190556008820181905560098201819055600a820155600b0180546001600160a81b0319169055606082015115611e5457606082015160208301515160011015611dff57600354606084015160208501518051611de9936001600160a01b031692919060009061142057fe5b611dfc83602001518460800151306140df565b90505b6000611e23846000015185602001518487604001518860c001518960a00151614562565b60035460208601518051929350611e51926001600160a01b0390921691849190600019810190811061142057fe5b50505b815160208301518051611e929291906000198101908110611e7157fe5b602002602001015184604001518560a001518660c001518760e00151614758565b611ea18261010001518561416a565b81600001516001600160a01b03167f1be316b94d38c07bd41cdb4913772d0a0a82802786a2f8b657b6e85dbcdfc64183602001518460400151856060015186608001518760a001518860c001518960e001518a6101000151611f118c6101200151436142cd90919063ffffffff16565b6101408d0151611f229042906142cd565b60405180806020018b6001600160a01b031681526020018a8152602001898152602001888152602001871515815260200186815260200185815260200184815260200183815260200182810382528c818151815260200191508051906020019060200280838360005b83811015611fa3578181015183820152602001611f8b565b505050509050019b50505050505050505050505060405180910390a2611a6a8261018001518660018061430f565b60075481565b6002546001600160a01b03163314612022576040805162461bcd60e51b81526020600482015260096024820152683337b93134b23232b760b91b604482015290519081900360640190fd5b60158290556016819055604080518381526020810183905281517febb0f666150f4be5b60c45df8f3e49992510b0128027fe58eea6110f296493bc929181900390910190a15050565b6002546001600160a01b031633146120b6576040805162461bcd60e51b81526020600482015260096024820152683337b93134b23232b760b91b604482015290519081900360640190fd5b6001600160a01b038216600081815260186020908152604091829020805460ff1916851515908117909155825190815291517ffbabc02389290a451c6e600d05bf9887b99bfad39d8e1237e4e3df042e4941fe9281900390910190a25050565b60186020526000908152604090205460ff1681565b60105481565b6002546001600160a01b0316331461217c576040805162461bcd60e51b81526020600482015260096024820152683337b93134b23232b760b91b604482015290519081900360640190fd5b60078190556040805182815290517f4d371d598d3a13f99ce992a17975bbaf1e1c256e072ec7d2f93ce88e40d9ba1c9181900360200190a150565b60125460ff1681565b6006546001600160a01b031681565b6002546001600160a01b0316331461221a576040805162461bcd60e51b81526020600482015260096024820152683337b93134b23232b760b91b604482015290519081900360640190fd5b600f83905560108290556011819055604080518481526020810184905280820183905290517fb98e759701eaca2e60c25e91109003c1c7442ef731b5d569037063005da8254d9181900360600190a1505050565b6014818154811061115057fe5b6002546001600160a01b031633146122c6576040805162461bcd60e51b81526020600482015260096024820152683337b93134b23232b760b91b604482015290519081900360640190fd5b60088190556040805182815290517f974fd3c1fcb4653dfc4fb740c4c692cd212d55c28f163f310128cb64d83006759181900360200190a150565b600f5481565b60006002600054141561234f576040805162461bcd60e51b815260206004820152601f6024820152600080516020615b6f833981519152604482015290519081900360640190fd5b6002600055600e54841015612391576040805162461bcd60e51b815260206004820152600360248201526266656560e81b604482015290519081900360640190fd5b833410156123cc576040805162461bcd60e51b81526020600482015260036024820152621d985b60ea1b604482015290519081900360640190fd5b8951600114806123dd575089516002145b612414576040805162461bcd60e51b81526020600482015260036024820152623632b760e91b604482015290519081900360640190fd5b6006548a516001600160a01b03909116908b9060009061243057fe5b60200260200101516001600160a01b03161461247c576040805162461bcd60e51b815260206004808301919091526024820152630e0c2e8d60e31b604482015290519081900360640190fd5b612484614832565b61248d8361489e565b600061249934866142cd565b90506124af338c8c848d8d8d8d8d60018d614912565b60016000559b9a5050505050505050505050565b60606124cd615999565b6000838152601c602090815260409182902082516101c08101845281546001600160a01b031681526001820180548551818602810186019096528086529194929385810193929083018282801561254d57602002820191906000526020600020905b81546001600160a01b0316815260019091019060200180831161252f575b505050918352505060028201546001600160a01b039081166020808401919091526003840154604084015260048401546060840152600584015460ff8082161515608086015261010091829004841660a0860152600686015460c0860152600786015460e08601526008860154828601526009860154610120860152600a860154610140860152600b909501549485161515610160850152909304166101809091015201519392505050565b600060026000541415612641576040805162461bcd60e51b815260206004820152601f6024820152600080516020615b6f833981519152604482015290519081900360640190fd5b600260005561264e615999565b6000848152601c602090815260409182902082516101c08101845281546001600160a01b03168152600182018054855181860281018601909652808652919492938581019392908301828280156126ce57602002820191906000526020600020905b81546001600160a01b031681526001909101906020018083116126b0575b505050918352505060028201546001600160a01b0390811660208301526003830154604083015260048301546060830152600583015460ff8082161515608085015261010091829004831660a0850152600685015460c0850152600785015460e08501526008850154828501526009850154610120850152600a850154610140850152600b9094015493841615156101608401529092048216610180909101528151919250166127825760019150506115f4565b600061279d8261014001518361016001518460000151614415565b9050806127af576000925050506115f4565b6000858152601c6020526040812080546001600160a01b0319168155906127d96001830182615a30565b506002810180546001600160a01b0319169055600060038201819055600482018190556005820180546001600160a81b031990811690915560068301829055600783018290556008830182905560098301829055600a830191909155600b90910180549091169055610120820151612851908561416a565b81600001516001600160a01b03167f87abfd78e844f28318363bdf3da99eab2f4a2da9ff7ae365484507f7b6c3f80583602001518460400151856060015186608001518760a001518860c001518960e001518a61010001518b61012001516128c78d6101400151436142cd90919063ffffffff16565b6101608e01516128d89042906142cd565b60405180806020018c6001600160a01b031681526020018b81526020018a81526020018915158152602001886001600160a01b0316815260200187815260200186815260200185815260200184815260200183815260200182810382528d818151815260200191508051906020019060200280838360005b83811015612968578181015183820152602001612950565b505050509050019c5050505050505050505050505060405180910390a2611a6a826101a001518660008061430f565b6000828260405160200180836001600160a01b031660601b8152601401828152602001925050506040516020818303038152906040528051906020012090505b92915050565b60196020526000908152604090205481565b600e5481565b6004546001600160a01b031681565b60085481565b6001546001600160a01b03163314612a57576040805162461bcd60e51b81526020600482015260156024820152600080516020615b8f833981519152604482015290519081900360640190fd5b600280546001600160a01b0383166001600160a01b0319909116811790915560408051918252517f5a272403b402d892977df56625f4164ccaf70ca3863991c43ecfe76a6905b0a19181900360200190a150565b600060026000541415612af3576040805162461bcd60e51b815260206004820152601f6024820152600080516020615b6f833981519152604482015290519081900360640190fd5b6002600055600e54841015612b35576040805162461bcd60e51b815260206004820152600360248201526266656560e81b604482015290519081900360640190fd5b833414612b6f576040805162461bcd60e51b81526020600482015260036024820152621d985b60ea1b604482015290519081900360640190fd5b8b5160011480612b8057508b516002145b612bb7576040805162461bcd60e51b81526020600482015260036024820152623632b760e91b604482015290519081900360640190fd5b8215612c2a576006548c516001600160a01b03909116908d906000198101908110612bde57fe5b60200260200101516001600160a01b031614612c2a576040805162461bcd60e51b815260206004808301919091526024820152630e0c2e8d60e31b604482015290519081900360640190fd5b612c32614832565b612c46338d8d8d8d8d8d8d8d8d8d8d614aa9565b60016000559c9b505050505050505050505050565b6002546001600160a01b03163314612ca6576040805162461bcd60e51b81526020600482015260096024820152683337b93134b23232b760b91b604482015290519081900360640190fd5b6012805482151560ff19909116811790915560408051918252517f4eb87a5935d402aa24c01b45bfb30adefcd2328b480f2d967864de4b64ea929f9181900360200190a150565b6002546001600160a01b03163314612d38576040805162461bcd60e51b81526020600482015260096024820152683337b93134b23232b760b91b604482015290519081900360640190fd5b60178190556040805182815290517f22bd2c9f980325d046be74aaef5fc76df4a2bc3fbc7c5a1200fcc79fe80dab6c9181900360200190a150565b6060612d7d615a4e565b6000838152601a602090815260409182902082516101a08101845281546001600160a01b0316815260018201805485518186028101860190965280865291949293858101939290830182828015612dfd57602002820191906000526020600020905b81546001600160a01b03168152600190910190602001808311612ddf575b505050918352505060028201546001600160a01b03908116602080840191909152600384015460408401526004840154606084015260058401546080840152600684015460ff908116151560a0850152600785015460c0850152600885015460e0850152600985015461010080860191909152600a860154610120860152600b90950154908116151561014085015293909304166101609091015201519392505050565b600d6020526000908152604090205481565b60095481565b3360009081526018602052604090205460ff16612f03576040805162461bcd60e51b815260206004820152600360248201526234303360e81b604482015290519081900360640190fd5b601554601354808210612f17575050611b61565b80841115612f23578093505b8382101561308957600060138381548110612f3a57fe5b90600052602060002001549050306001600160a01b03166327b42c0f82866040518363ffffffff1660e01b815260040180838152602001826001600160a01b0316815260200192505050602060405180830381600087803b158015612f9e57600080fd5b505af1925050508015612fc357506040513d6020811015612fbe57600080fd5b505160015b613057576040805163225fc9fd60e01b8152600481018390526001600160a01b03861660248201529051309163225fc9fd9160448083019260209291908290030181600087803b15801561301657600080fd5b505af192505050801561303b57506040513d602081101561303657600080fd5b505160015b6130455750613089565b80613051575050613089565b50613065565b80613063575050613089565b505b6013838154811061307257fe5b600091825260208220015550600190910190612f23565b506015555050565b60155481565b6002546001600160a01b031633146130e2576040805162461bcd60e51b81526020600482015260096024820152683337b93134b23232b760b91b604482015290519081900360640190fd5b600a80546001600160a01b0383166001600160a01b0319909116811790915560408051918252517f828abcccea18192c21d645e575652c49e20b986dab777906fc473d056b01b6a89181900360200190a150565b60115481565b6001546001600160a01b03163314613189576040805162461bcd60e51b81526020600482015260156024820152600080516020615b8f833981519152604482015290519081900360640190fd5b600180546001600160a01b0319166001600160a01b0392909216919091179055565b6001546001600160a01b031633146131f8576040805162461bcd60e51b81526020600482015260156024820152600080516020615b8f833981519152604482015290519081900360640190fd5b826001600160a01b031663095ea7b383836040518363ffffffff1660e01b815260040180836001600160a01b0316815260200182815260200192505050602060405180830381600087803b15801561324f57600080fd5b505af1158015613263573d6000803e3d6000fd5b505050506040513d602081101561327957600080fd5b5050505050565b6002546001600160a01b031633146132cb576040805162461bcd60e51b81526020600482015260096024820152683337b93134b23232b760b91b604482015290519081900360640190fd5b60005b83518110156133665760008482815181106132e557fe5b602002602001015190508382815181106132fb57fe5b6020026020010151600c6000836001600160a01b03166001600160a01b031681526020019081526020016000208190555082828151811061333857fe5b6020908102919091018101516001600160a01b039092166000908152600d90915260409020556001016132ce565b507fae32d569b058895b9620d6552b09aaffedc9a6f396be4d595a224ad09f8b213983838360405180806020018060200180602001848103845287818151815260200191508051906020019060200280838360005b838110156133d35781810151838201526020016133bb565b50505050905001848103835286818151815260200191508051906020019060200280838360005b838110156134125781810151838201526020016133fa565b50505050905001848103825285818151815260200191508051906020019060200280838360005b83811015613451578181015183820152602001613439565b50505050905001965050505050505060405180910390a1505050565b6002546001600160a01b031633146134b8576040805162461bcd60e51b81526020600482015260096024820152683337b93134b23232b760b91b604482015290519081900360640190fd5b6001600160a01b0382166000908152600b6020526040902054806134dc5750611b61565b6001600160a01b0383166000818152600b6020526040812055613500908383614088565b604080516001600160a01b0380861682528416602082015280820183905290517f4f1b51dd7a2fcb861aa2670f668be66835c4ee12b4bbbf037e4d0018f39819e49181900360600190a1505050565b600060026000541415613597576040805162461bcd60e51b815260206004820152601f6024820152600080516020615b6f833981519152604482015290519081900360640190fd5b6002600055600e548410156135d9576040805162461bcd60e51b815260206004820152600360248201526266656560e81b604482015290519081900360640190fd5b833414613613576040805162461bcd60e51b81526020600482015260036024820152621d985b60ea1b604482015290519081900360640190fd5b8a516001148061362457508a516002145b61365b576040805162461bcd60e51b81526020600482015260036024820152623632b760e91b604482015290519081900360640190fd5b613663614832565b61366c8361489e565b881561371e576005548b516001600160a01b0390911690631b827878908d9060009061369457fe5b602002602001015133308d6040518563ffffffff1660e01b815260040180856001600160a01b03168152602001846001600160a01b03168152602001836001600160a01b03168152602001828152602001945050505050600060405180830381600087803b15801561370557600080fd5b505af1158015613719573d6000803e3d6000fd5b505050505b6124af338c8c8c8c8c8c8c8c60008c614912565b60155460135460165460145490919293565b3360009081526018602052604090205460ff1661378e576040805162461bcd60e51b815260206004820152600360248201526234303360e81b604482015290519081900360640190fd5b6016546014548082106137a2575050611b61565b808411156137ae578093505b83821015613914576000601483815481106137c557fe5b90600052602060002001549050306001600160a01b0316630d4d003d82866040518363ffffffff1660e01b815260040180838152602001826001600160a01b0316815260200192505050602060405180830381600087803b15801561382957600080fd5b505af192505050801561384e57506040513d602081101561384957600080fd5b505160015b6138e25760408051633051b17160e11b8152600481018390526001600160a01b0386166024820152905130916360a362e29160448083019260209291908290030181600087803b1580156138a157600080fd5b505af19250505080156138c657506040513d60208110156138c157600080fd5b505160015b6138cf576138dd565b806138db575050613914565b505b6138f0565b806138ee575050613914565b505b601483815481106138fd57fe5b6000918252602082200155506001909101906137ae565b506016555050565b6002546001600160a01b031681565b6005546001600160a01b031681565b601b6020526000908152604090205481565b601a602052600090815260409020805460028201546003830154600484015460058501546006860154600787015460088801546009890154600a8a0154600b909a01546001600160a01b03998a169a988a169997989697959660ff958616969495939492939092908216916101009004168c565b6003546001600160a01b031681565b6002546001600160a01b03163314613a1a576040805162461bcd60e51b81526020600482015260096024820152683337b93134b23232b760b91b604482015290519081900360640190fd5b600e8190556040805182815290517f52a8358457e20bbb36e4086b83fb0749599f1893fe4c35a876c46dc4886d12db9181900360200190a150565b600042613a6d60115485614c8390919063ffffffff16565b11613aa9576040805162461bcd60e51b8152602060048201526007602482015266195e1c1a5c995960ca1b604482015290519081900360640190fd5b600033301480613ac857503360009081526018602052604090205460ff165b60125490915060ff16158015613adc575080155b15613b14576040805162461bcd60e51b815260206004820152600360248201526234303360e81b604482015290519081900360640190fd5b8015613b3a5743613b30600f5487614c8390919063ffffffff16565b1115915050613bd4565b336001600160a01b03841614613b7d576040805162461bcd60e51b815260206004820152600360248201526234303360e81b604482015290519081900360640190fd5b42613b9360105486614c8390919063ffffffff16565b1115613bce576040805162461bcd60e51b815260206004820152600560248201526464656c617960d81b604482015290519081900360640190fd5b60019150505b9392505050565b6003546000906001600160a01b03168185613c6e57816001600160a01b031663e124e6d28a6040518263ffffffff1660e01b815260040180826001600160a01b0316815260200191505060206040518083038186803b158015613c3d57600080fd5b505afa158015613c51573d6000803e3d6000fd5b505050506040513d6020811015613c6757600080fd5b5051613ce8565b816001600160a01b03166381a612d68a6040518263ffffffff1660e01b815260040180826001600160a01b0316815260200191505060206040518083038186803b158015613cbb57600080fd5b505afa158015613ccf573d6000803e3d6000fd5b505050506040513d6020811015613ce557600080fd5b50515b90508515613d3e5783811015613d39576040805162461bcd60e51b81526020600482015260116024820152706d61726b5072696365203c20707269636560781b604482015290519081900360640190fd5b613d87565b83811115613d87576040805162461bcd60e51b81526020600482015260116024820152706d61726b5072696365203e20707269636560781b604482015290519081900360640190fd5b6000826001600160a01b03166312d43a516040518163ffffffff1660e01b815260040160206040518083038186803b158015613dc257600080fd5b505afa158015613dd6573d6000803e3d6000fd5b505050506040513d6020811015613dec57600080fd5b81019080805190602001909291905050509050600460009054906101000a90046001600160a01b03166001600160a01b031663f3238cec8d8d8d8b8d8860006040518863ffffffff1660e01b815260040180886001600160a01b03168152602001876001600160a01b03168152602001866001600160a01b0316815260200185151581526020018481526020018381526020018215158152602001975050505050505050600060405180830381600087803b158015613eaa57600080fd5b505af1158015613ebe573d6000803e3d6000fd5b50505050806001600160a01b0316636d63c1d0846040518263ffffffff1660e01b815260040180826001600160a01b03168152602001915050600060405180830381600087803b158015613f1157600080fd5b505af1158015613f25573d6000803e3d6000fd5b505050506000600560009054906101000a90046001600160a01b03166001600160a01b0316632662166b8e8e8e8e8e8e8e6040518863ffffffff1660e01b815260040180886001600160a01b03168152602001876001600160a01b03168152602001866001600160a01b031681526020018581526020018481526020018315158152602001826001600160a01b03168152602001975050505050505050602060405180830381600087803b158015613fdc57600080fd5b505af1158015613ff0573d6000803e3d6000fd5b505050506040513d602081101561400657600080fd5b50516040805163d3c87bbb60e01b81526001600160a01b03878116600483015291519293509084169163d3c87bbb9160248082019260009290919082900301818387803b15801561405657600080fd5b505af115801561406a573d6000803e3d6000fd5b505050506140788d8a614cdb565b9c9b505050505050505050505050565b604080516001600160a01b038416602482015260448082018490528251808303909101815260649091019091526020810180516001600160e01b031663a9059cbb60e01b1790526140da908490614e64565b505050565b60008351600214156141265761411f846000815181106140fb57fe5b60200260200101518560018151811061411057fe5b60200260200101518585614f15565b9050613bd4565b6040805162461bcd60e51b81526020600482015260146024820152730d2dcecc2d8d2c840bee0c2e8d05cd8cadccee8d60631b604482015290519081900360640190fd5b60065460408051632e1a7d4d60e01b81526004810185905290516001600160a01b03909216918291632e1a7d4d91602480830192600092919082900301818387803b1580156141b857600080fd5b505af11580156141cc573d6000803e3d6000fd5b505060075491506000905080808080888887f1905080156141ef57505050611b61565b826001600160a01b031663d0e30db0866040518263ffffffff1660e01b81526004016000604051808303818588803b15801561422a57600080fd5b505af115801561423e573d6000803e3d6000fd5b5050505050826001600160a01b031663a9059cbb85876040518363ffffffff1660e01b815260040180836001600160a01b0316815260200182815260200192505050602060405180830381600087803b15801561429a57600080fd5b505af11580156142ae573d6000803e3d6000fd5b505050506040513d60208110156142c457600080fd5b50505050505050565b6000613bd483836040518060400160405280601e81526020017f536166654d6174683a207375627472616374696f6e206f766572666c6f770000815250614ffa565b6001600160a01b0384166143225761440f565b614334846001600160a01b0316615091565b61433d5761440f565b6017548061434b575061440f565b6000856001600160a01b031663eb7a199c838787876040518563ffffffff1660e01b815260040180848152602001831515815260200182151581526020019350505050600060405180830381600088803b1580156143a857600080fd5b5087f1935050505080156143ba575060015b6143c3576143c7565b5060015b604080516001600160a01b0388168152821515602082015281517f46ddbd62fc1a7626fe9c43026cb0694aec0b031fe81ac66fb4cfe9381dc6fe72929181900390910190a150505b50505050565b60008033301480613ac857503360009081526018602052604090205460ff1660125490915060ff16158015613adc575080613b14576040805162461bcd60e51b815260206004820152600360248201526234303360e81b604482015290519081900360640190fd5b804710156144d2576040805162461bcd60e51b815260206004820152601d60248201527f416464726573733a20696e73756666696369656e742062616c616e6365000000604482015290519081900360640190fd5b6040516000906001600160a01b0384169083908381818185875af1925050503d806000811461451d576040519150601f19603f3d011682016040523d82523d6000602084013e614522565b606091505b50509050806140da5760405162461bcd60e51b815260040180806020018281038252603a815260200180615baf603a913960400191505060405180910390fd5b60008073__$4ebf70e2aa99c076c4a72b3e77f175d419$__63e0cab550600360009054906101000a90046001600160a01b03168a8a8a8a8a8a6009546040518963ffffffff1660e01b815260040180896001600160a01b03168152602001886001600160a01b0316815260200180602001878152602001866001600160a01b031681526020018515158152602001848152602001838152602001828103825288818151815260200191508051906020019060200280838360005b8381101561463457818101518382015260200161461c565b50505050905001995050505050505050505060206040518083038186803b15801561465e57600080fd5b505af4158015614672573d6000803e3d6000fd5b505050506040513d602081101561468857600080fd5b5051905080156147495760006146c16127106146bb6146b46008546127106142cd90919063ffffffff16565b8a90615097565b906150f0565b905060006146cf88836142cd565b905060008960018b5103815181106146e357fe5b6020026020010151905061472582600b6000846001600160a01b03166001600160a01b0316815260200190815260200160002054614c8390919063ffffffff16565b6001600160a01b039091166000908152600b602052604090205550915061474e9050565b859150505b9695505050505050565b61476384838561512f565b60035460055460048054604080516317c3cf0f60e31b81526001600160a01b03958616938101939093529284166024830152831660448201528883166064820152878316608482015291861660a483015260c4820185905283151560e483015261010482018390525173__$4ebf70e2aa99c076c4a72b3e77f175d419$__9163be1e787891610124808301926000929190829003018186803b15801561480857600080fd5b505af415801561481c573d6000803e3d6000fd5b5050505061482a86846152f8565b505050505050565b341561489c57600660009054906101000a90046001600160a01b03166001600160a01b031663d0e30db0346040518263ffffffff1660e01b81526004016000604051808303818588803b15801561488857600080fd5b505af1158015613279573d6000803e3d6000fd5b565b80158015906148b75750600a546001600160a01b031615155b1561490f57600a54604080516356b4b2ad60e01b81523360048201526024810184905290516001600160a01b03909216916356b4b2ad9160448082019260009290919082900301818387803b15801561488857600080fd5b50565b600061491c615a4e565b604051806101a001604052808e6001600160a01b031681526020018d81526020018c6001600160a01b031681526020018b81526020018a815260200189815260200188151581526020018781526020018681526020014381526020014281526020018515158152602001846001600160a01b031681525090506000806149a183615414565b915091508e6001600160a01b03167f5265bc4952da402633b3fc35f67ab4245493a0ab94dd8ab123667c8d45a4485c8f8f8f8f8f8f8f8f8b60016013805490500343423a60405180806020018e6001600160a01b031681526020018d81526020018c81526020018b81526020018a1515815260200189815260200188815260200187815260200186815260200185815260200184815260200183815260200182810382528f818151815260200191508051906020019060200280838360005b83811015614a78578181015183820152602001614a60565b505050509050019e50505050505050505050505050505060405180910390a29e9d5050505050505050505050505050565b6000614ab3615999565b604051806101c001604052808f6001600160a01b031681526020018e81526020018d6001600160a01b031681526020018c81526020018b81526020018a15158152602001896001600160a01b031681526020018881526020018781526020018681526020014381526020014281526020018515158152602001846001600160a01b03168152509050600080614b47836155b2565b9150915082600001516001600160a01b03167f81ed0476a7e785a9e4728fffd679ea97176ca1ac85e1003462558bb5677da57b84602001518560400151866060015187608001518860a001518960c001518a60e001518b61010001518c61012001518c600160148054905003434260405180806020018e6001600160a01b031681526020018d81526020018c81526020018b151581526020018a6001600160a01b0316815260200189815260200188815260200187815260200186815260200185815260200184815260200183815260200182810382528f818151815260200191508051906020019060200280838360005b83811015614c51578181015183820152602001614c39565b505050509050019e50505050505050505050505050505060405180910390a29f9e505050505050505050505050505050565b600082820183811015613bd4576040805162461bcd60e51b815260206004820152601b60248201527a536166654d6174683a206164646974696f6e206f766572666c6f7760281b604482015290519081900360640190fd5b600a546001600160a01b031680614cf25750611b61565b600080826001600160a01b031663534ef883866040518263ffffffff1660e01b815260040180826001600160a01b03168152602001915050604080518083038186803b158015614d4157600080fd5b505afa158015614d55573d6000803e3d6000fd5b505050506040513d6040811015614d6b57600080fd5b508051602090910151909250905081614d8657505050611b61565b7f474c763ff84bf2c2039a6d9fea955ecd0f724030e3c365b91169c6a16fe751b78585600360009054906101000a90046001600160a01b03166001600160a01b031663318bc6896040518163ffffffff1660e01b815260040160206040518083038186803b158015614df757600080fd5b505afa158015614e0b573d6000803e3d6000fd5b505050506040513d6020811015614e2157600080fd5b5051604080516001600160a01b03948516815260208101939093528281019190915260608201869052918416608082015290519081900360a00190a15050505050565b6060614eb9826040518060400160405280602081526020017f5361666545524332303a206c6f772d6c6576656c2063616c6c206661696c6564815250856001600160a01b031661575b9092919063ffffffff16565b8051909150156140da57808060200190516020811015614ed857600080fd5b50516140da5760405162461bcd60e51b815260040180806020018281038252602a815260200180615c30602a913960400191505060405180910390fd5b60035460408051634998b10960e11b81526001600160a01b03878116600483015286811660248301528481166044830152915160009384931691639331621291606480830192602092919082900301818787803b158015614f7557600080fd5b505af1158015614f89573d6000803e3d6000fd5b505050506040513d6020811015614f9f57600080fd5b5051905083811015614ff1576040805162461bcd60e51b81526020600482015260166024820152751a5b9cdd59999a58da595b9d08185b5bdd5b9d13dd5d60521b604482015290519081900360640190fd5b95945050505050565b600081848411156150895760405162461bcd60e51b81526004018080602001828103825283818151815260200191508051906020019080838360005b8381101561504e578181015183820152602001615036565b50505050905090810190601f16801561507b5780820380516001836020036101000a031916815260200191505b509250505060405180910390fd5b505050900390565b3b151590565b6000826150a6575060006129d7565b828202828482816150b357fe5b0414613bd45760405162461bcd60e51b8152600401808060200182810382526021815260200180615c0f6021913960400191505060405180910390fd5b6000613bd483836040518060400160405280601a815260200179536166654d6174683a206469766973696f6e206279207a65726f60301b815250615772565b80615139576140da565b8115615237576001600160a01b0383166000908152600c602052604090205480158015906151ea57506003546040805163783a2b6760e11b81526001600160a01b038781166004830152915184936151e893879391169163f07456ce91602480820192602092909190829003018186803b1580156151b657600080fd5b505afa1580156151ca573d6000803e3d6000fd5b505050506040513d60208110156151e057600080fd5b505190614c83565b115b15615231576040805162461bcd60e51b81526020600482015260126024820152711b585e081b1bdb99dcc8195e18d95959195960721b604482015290519081900360640190fd5b506140da565b6001600160a01b0383166000908152600d602052604090205480158015906152b057506003546040805163114f1b5560e31b81526001600160a01b038781166004830152915184936152ae938793911691638a78daa891602480820192602092909190829003018186803b1580156151b657600080fd5b115b1561440f576040805162461bcd60e51b81526020600482015260136024820152721b585e081cda1bdc9d1cc8195e18d959591959606a1b604482015290519081900360640190fd5b600a546001600160a01b03168061530f5750611b61565b600080826001600160a01b031663534ef883866040518263ffffffff1660e01b815260040180826001600160a01b03168152602001915050604080518083038186803b15801561535e57600080fd5b505afa158015615372573d6000803e3d6000fd5b505050506040513d604081101561538857600080fd5b5080516020909101519092509050816153a357505050611b61565b7fc2414023ce7002ee98557d1e7be21e5559073336f2217ee5f9b2e50fd85f71ee8585600360009054906101000a90046001600160a01b03166001600160a01b031663318bc6896040518163ffffffff1660e01b815260040160206040518083038186803b158015614df757600080fd5b80516001600160a01b038116600090815260196020526040812054909182918290615440906001614c83565b6001600160a01b03831660009081526019602052604081208290559091506154688383612997565b6000818152601a60209081526040909120885181546001600160a01b0319166001600160a01b03909116178155888201518051939450899391926154b492600185019290910190615ad5565b5060408201516002820180546001600160a01b039283166001600160a01b0319909116179055606083015160038301556080830151600483015560a0830151600583015560c083015160068301805491151560ff1992831617905560e084015160078401556101008085015160088501556101208501516009850155610140850151600a850155610160850151600b90940180546101809096015190931602610100600160a81b0319931515949091169390931791909116919091179055601380546001810182556000919091527f66de8ffda797e3de9c05e8fc57b3bf0ec28a930d40b0d285d93c06501cf6a09001819055909350915050915091565b80516001600160a01b0381166000908152601b60205260408120549091829182906155de906001614c83565b6001600160a01b0383166000908152601b602052604081208290559091506156068383612997565b6000818152601c60209081526040909120885181546001600160a01b0319166001600160a01b039091161781558882015180519394508993919261565292600185019290910190615ad5565b5060408201516002820180546001600160a01b039283166001600160a01b0319909116179055606083015160038301556080830151600483015560a083015160058301805460c08601518416610100908102610100600160a81b031994151560ff199384161785161790925560e0860151600686015581860151600786015561012086015160088601556101408601516009860155610160860151600a860155610180860151600b90950180546101a090970151909416909102931515941693909317909216179055601480546001810182556000919091527fce6d7b5282bd9a3661ae061feed1dbda4e52ab073b1f9285be6e155d9c38d4ec01819055909350915050915091565b606061576a84846000856157d7565b949350505050565b600081836157c15760405162461bcd60e51b815260206004820181815283516024840152835190928392604490910191908501908083836000831561504e578181015183820152602001615036565b5060008385816157cd57fe5b0495945050505050565b6060824710156158185760405162461bcd60e51b8152600401808060200182810382526026815260200180615be96026913960400191505060405180910390fd5b61582185615091565b615872576040805162461bcd60e51b815260206004820152601d60248201527f416464726573733a2063616c6c20746f206e6f6e2d636f6e7472616374000000604482015290519081900360640190fd5b60006060866001600160a01b031685876040518082805190602001908083835b602083106158b15780518252601f199092019160209182019101615892565b6001836020036101000a03801982511681845116808217855250505050505090500191505060006040518083038185875af1925050503d8060008114615913576040519150601f19603f3d011682016040523d82523d6000602084013e615918565b606091505b5091509150615928828286615933565b979650505050505050565b60608315615942575081613bd4565b8251156159525782518084602001fd5b60405162461bcd60e51b815260206004820181815284516024840152845185939192839260440191908501908083836000831561504e578181015183820152602001615036565b604051806101c0016040528060006001600160a01b031681526020016060815260200160006001600160a01b03168152602001600081526020016000815260200160001515815260200160006001600160a01b03168152602001600081526020016000815260200160008152602001600081526020016000815260200160001515815260200160006001600160a01b031681525090565b508054600082559060005260206000209081019061490f9190615b3a565b604051806101a0016040528060006001600160a01b031681526020016060815260200160006001600160a01b031681526020016000815260200160008152602001600081526020016000151581526020016000815260200160008152602001600081526020016000815260200160001515815260200160006001600160a01b031681525090565b828054828255906000526020600020908101928215615b2a579160200282015b82811115615b2a57825182546001600160a01b0319166001600160a01b03909116178255602090920191600190910190615af5565b50615b36929150615b4f565b5090565b5b80821115615b365760008155600101615b3b565b5b80821115615b365780546001600160a01b0319168155600101615b5056fe5265656e7472616e637947756172643a207265656e7472616e742063616c6c00476f7665726e61626c653a20666f7262696464656e0000000000000000000000416464726573733a20756e61626c6520746f2073656e642076616c75652c20726563697069656e74206d61792068617665207265766572746564416464726573733a20696e73756666696369656e742062616c616e636520666f722063616c6c536166654d6174683a206d756c7469706c69636174696f6e206f766572666c6f775361666545524332303a204552433230206f7065726174696f6e20646964206e6f742073756363656564a26469706673582212203411d5da3819097cb4fb096ce4a112413d4cf8e6844eb7477e4c9cc31b79793164736f6c634300060c0033",
  "linkReferences": {
    "contracts/core/PositionUtils.sol": {
      "PositionUtils": [
        {
          "length": 20,
          "start": 18009
        },
        {
          "length": 20,
          "start": 18624
        }
      ]
    }
  },
  "deployedLinkReferences": {
    "contracts/core/PositionUtils.sol": {
      "PositionUtils": [
        {
          "length": 20,
          "start": 17767
        },
        {
          "length": 20,
          "start": 18382
        }
      ]
    }
  }
}