{
  "_format": "hh-sol-artifact-1",
  "contractName": "Reader",
  "sourceName": "contracts/peripherals/Reader.sol",
  "abi": [
    {
      "inputs": [],
      "name": "BASIS_POINTS_DIVISOR",
      "outputs": [
        {
          "internalType": "uint256",
          "name": "",
          "type": "uint256"
        }
      ],
      "stateMutability": "view",
      "type": "function"
    },
    {
      "inputs": [],
      "name": "POSITION_PROPS_LENGTH",
      "outputs": [
        {
          "internalType": "uint256",
          "name": "",
          "type": "uint256"
        }
      ],
      "stateMutability": "view",
      "type": "function"
    },
    {
      "inputs": [],
      "name": "PRICE_PRECISION",
      "outputs": [
        {
          "internalType": "uint256",
          "name": "",
          "type": "uint256"
        }
      ],
      "stateMutability": "view",
      "type": "function"
    },
    {
      "inputs": [],
      "name": "USDL_DECIMALS",
      "outputs": [
        {
          "internalType": "uint256",
          "name": "",
          "type": "uint256"
        }
      ],
      "stateMutability": "view",
      "type": "function"
    },
    {
      "inputs": [
        {
          "internalType": "contract IVault",
          "name": "_vault",
          "type": "address"
        },
        {
          "internalType": "address",
          "name": "_tokenIn",
          "type": "address"
        },
        {
          "internalType": "address",
          "name": "_tokenOut",
          "type": "address"
        },
        {
          "internalType": "uint256",
          "name": "_amountIn",
          "type": "uint256"
        }
      ],
      "name": "getAmountOut",
      "outputs": [
        {
          "internalType": "uint256",
          "name": "",
          "type": "uint256"
        },
        {
          "internalType": "uint256",
          "name": "",
          "type": "uint256"
        }
      ],
      "stateMutability": "view",
      "type": "function"
    },
    {
      "inputs": [
        {
          "internalType": "contract IVault",
          "name": "_vault",
          "type": "address"
        },
        {
          "internalType": "address",
          "name": "_tokenIn",
          "type": "address"
        },
        {
          "internalType": "address",
          "name": "_tokenOut",
          "type": "address"
        },
        {
          "internalType": "uint256",
          "name": "_amountIn",
          "type": "uint256"
        }
      ],
      "name": "getFeeBasisPoints",
      "outputs": [
        {
          "internalType": "uint256",
          "name": "",
          "type": "uint256"
        },
        {
          "internalType": "uint256",
          "name": "",
          "type": "uint256"
        },
        {
          "internalType": "uint256",
          "name": "",
          "type": "uint256"
        }
      ],
      "stateMutability": "view",
      "type": "function"
    },
    {
      "inputs": [
        {
          "internalType": "address",
          "name": "_vault",
          "type": "address"
        },
        {
          "internalType": "address[]",
          "name": "_tokens",
          "type": "address[]"
        }
      ],
      "name": "getFees",
      "outputs": [
        {
          "internalType": "uint256[]",
          "name": "",
          "type": "uint256[]"
        }
      ],
      "stateMutability": "view",
      "type": "function"
    },
    {
      "inputs": [
        {
          "internalType": "address",
          "name": "_vault",
          "type": "address"
        },
        {
          "internalType": "address",
          "name": "_weth",
          "type": "address"
        },
        {
          "internalType": "uint256",
          "name": "_usdlAmount",
          "type": "uint256"
        },
        {
          "internalType": "address[]",
          "name": "_tokens",
          "type": "address[]"
        }
      ],
      "name": "getFullVaultTokenInfo",
      "outputs": [
        {
          "internalType": "uint256[]",
          "name": "",
          "type": "uint256[]"
        }
      ],
      "stateMutability": "view",
      "type": "function"
    },
    {
      "inputs": [
        {
          "internalType": "address",
          "name": "_vault",
          "type": "address"
        },
        {
          "internalType": "address",
          "name": "_weth",
          "type": "address"
        },
        {
          "internalType": "address[]",
          "name": "_tokens",
          "type": "address[]"
        }
      ],
      "name": "getFundingRates",
      "outputs": [
        {
          "internalType": "uint256[]",
          "name": "",
          "type": "uint256[]"
        }
      ],
      "stateMutability": "view",
      "type": "function"
    },
    {
      "inputs": [
        {
          "internalType": "contract IVault",
          "name": "_vault",
          "type": "address"
        },
        {
          "internalType": "address",
          "name": "_tokenIn",
          "type": "address"
        },
        {
          "internalType": "address",
          "name": "_tokenOut",
          "type": "address"
        }
      ],
      "name": "getMaxAmountIn",
      "outputs": [
        {
          "internalType": "uint256",
          "name": "",
          "type": "uint256"
        }
      ],
      "stateMutability": "view",
      "type": "function"
    },
    {
      "inputs": [
        {
          "internalType": "address",
          "name": "_vault",
          "type": "address"
        },
        {
          "internalType": "address",
          "name": "_account",
          "type": "address"
        },
        {
          "internalType": "address[]",
          "name": "_collateralTokens",
          "type": "address[]"
        },
        {
          "internalType": "address[]",
          "name": "_indexTokens",
          "type": "address[]"
        },
        {
          "internalType": "bool[]",
          "name": "_isLong",
          "type": "bool[]"
        }
      ],
      "name": "getPositions",
      "outputs": [
        {
          "internalType": "uint256[]",
          "name": "",
          "type": "uint256[]"
        }
      ],
      "stateMutability": "view",
      "type": "function"
    },
    {
      "inputs": [
        {
          "internalType": "contract IVaultPriceFeed",
          "name": "_priceFeed",
          "type": "address"
        },
        {
          "internalType": "address[]",
          "name": "_tokens",
          "type": "address[]"
        }
      ],
      "name": "getPrices",
      "outputs": [
        {
          "internalType": "uint256[]",
          "name": "",
          "type": "uint256[]"
        }
      ],
      "stateMutability": "view",
      "type": "function"
    },
    {
      "inputs": [
        {
          "internalType": "address",
          "name": "_account",
          "type": "address"
        },
        {
          "internalType": "address[]",
          "name": "_yieldTrackers",
          "type": "address[]"
        }
      ],
      "name": "getStakingInfo",
      "outputs": [
        {
          "internalType": "uint256[]",
          "name": "",
          "type": "uint256[]"
        }
      ],
      "stateMutability": "view",
      "type": "function"
    },
    {
      "inputs": [
        {
          "internalType": "address",
          "name": "_account",
          "type": "address"
        },
        {
          "internalType": "address[]",
          "name": "_tokens",
          "type": "address[]"
        }
      ],
      "name": "getTokenBalances",
      "outputs": [
        {
          "internalType": "uint256[]",
          "name": "",
          "type": "uint256[]"
        }
      ],
      "stateMutability": "view",
      "type": "function"
    },
    {
      "inputs": [
        {
          "internalType": "address",
          "name": "_account",
          "type": "address"
        },
        {
          "internalType": "address[]",
          "name": "_tokens",
          "type": "address[]"
        }
      ],
      "name": "getTokenBalancesWithSupplies",
      "outputs": [
        {
          "internalType": "uint256[]",
          "name": "",
          "type": "uint256[]"
        }
      ],
      "stateMutability": "view",
      "type": "function"
    },
    {
      "inputs": [
        {
          "internalType": "contract IERC20",
          "name": "_token",
          "type": "address"
        },
        {
          "internalType": "address[]",
          "name": "_excludedAccounts",
          "type": "address[]"
        }
      ],
      "name": "getTokenSupply",
      "outputs": [
        {
          "internalType": "uint256",
          "name": "",
          "type": "uint256"
        }
      ],
      "stateMutability": "view",
      "type": "function"
    },
    {
      "inputs": [
        {
          "internalType": "contract IERC20",
          "name": "_token",
          "type": "address"
        },
        {
          "internalType": "address[]",
          "name": "_accounts",
          "type": "address[]"
        }
      ],
      "name": "getTotalBalance",
      "outputs": [
        {
          "internalType": "uint256",
          "name": "",
          "type": "uint256"
        }
      ],
      "stateMutability": "view",
      "type": "function"
    },
    {
      "inputs": [
        {
          "internalType": "address[]",
          "name": "_yieldTokens",
          "type": "address[]"
        }
      ],
      "name": "getTotalStaked",
      "outputs": [
        {
          "internalType": "uint256[]",
          "name": "",
          "type": "uint256[]"
        }
      ],
      "stateMutability": "view",
      "type": "function"
    },
    {
      "inputs": [
        {
          "internalType": "address",
          "name": "_vault",
          "type": "address"
        },
        {
          "internalType": "address",
          "name": "_weth",
          "type": "address"
        },
        {
          "internalType": "uint256",
          "name": "_usdlAmount",
          "type": "uint256"
        },
        {
          "internalType": "address[]",
          "name": "_tokens",
          "type": "address[]"
        }
      ],
      "name": "getVaultTokenInfo",
      "outputs": [
        {
          "internalType": "uint256[]",
          "name": "",
          "type": "uint256[]"
        }
      ],
      "stateMutability": "view",
      "type": "function"
    },
    {
      "inputs": [
        {
          "internalType": "address",
          "name": "_vault",
          "type": "address"
        },
        {
          "internalType": "address",
          "name": "_weth",
          "type": "address"
        },
        {
          "internalType": "uint256",
          "name": "_usdlAmount",
          "type": "uint256"
        },
        {
          "internalType": "address[]",
          "name": "_tokens",
          "type": "address[]"
        }
      ],
      "name": "getVaultTokenInfoV2",
      "outputs": [
        {
          "internalType": "uint256[]",
          "name": "",
          "type": "uint256[]"
        }
      ],
      "stateMutability": "view",
      "type": "function"
    },
    {
      "inputs": [
        {
          "internalType": "address",
          "name": "_account",
          "type": "address"
        },
        {
          "internalType": "address[]",
          "name": "_vesters",
          "type": "address[]"
        }
      ],
      "name": "getVestingInfo",
      "outputs": [
        {
          "internalType": "uint256[]",
          "name": "",
          "type": "uint256[]"
        }
      ],
      "stateMutability": "view",
      "type": "function"
    },
    {
      "inputs": [],
      "name": "gov",
      "outputs": [
        {
          "internalType": "address",
          "name": "",
          "type": "address"
        }
      ],
      "stateMutability": "view",
      "type": "function"
    },
    {
      "inputs": [],
      "name": "hasMaxGlobalShortSizes",
      "outputs": [
        {
          "internalType": "bool",
          "name": "",
          "type": "bool"
        }
      ],
      "stateMutability": "view",
      "type": "function"
    },
    {
      "inputs": [
        {
          "internalType": "bool",
          "name": "_hasMaxGlobalShortSizes",
          "type": "bool"
        }
      ],
      "name": "setConfig",
      "outputs": [],
      "stateMutability": "nonpayable",
      "type": "function"
    },
    {
      "inputs": [
        {
          "internalType": "address",
          "name": "_gov",
          "type": "address"
        }
      ],
      "name": "setGov",
      "outputs": [],
      "stateMutability": "nonpayable",
      "type": "function"
    }
  ],
  "bytecode": "0x608060405234801561001057600080fd5b50600080546001600160a01b031916331790556156c380620000336000396000f3fe608060405234801561001057600080fd5b50600436106101335760003560e01c8063126082cf1461013857806312d43a511461015257806320542568146101765780632413c8c1146102875780632ac0184c146103285780632e3e3342146103d95780633613d5271461048a578063440f018c1461053b578063482119341461059557806361dbc8c5146106465780637b906e931461064e57806386d4d0f51461070f5780638e83ca32146107c0578063937a0be81461088157806395082d251461093257806395a7535a1461093a5780639b0183c3146109f4578063ad7e549714610a15578063c6f1d67614610a1d578063cfad57a214610a39578063d7176ca914610a5f578063d802178e14610ab4578063dc383cab14610b65578063f3535e6c14610d23578063fbdb05ca14610d5b575b600080fd5b610140610e0c565b60408051918252519081900360200190f35b61015a610e12565b604080516001600160a01b039092168252519081900360200190f35b6102376004803603608081101561018c57600080fd5b6001600160a01b03823581169260208101359091169160408201359190810190608081016060820135600160201b8111156101c657600080fd5b8201836020820111156101d857600080fd5b803590602001918460208302840111600160201b831117156101f957600080fd5b919080806020026020016040519081016040528093929190818152602001838360200280828437600092019190915250929550610e21945050505050565b60408051602080825283518183015283519192839290830191858101910280838360005b8381101561027357818101518382015260200161025b565b505050509050019250505060405180910390f35b6102376004803603602081101561029d57600080fd5b810190602081018135600160201b8111156102b757600080fd5b8201836020820111156102c957600080fd5b803590602001918460208302840111600160201b831117156102ea57600080fd5b91908080602002602001604051908101604052809392919081815260200183836020028082843760009201919091525092955061152f945050505050565b6101406004803603604081101561033e57600080fd5b6001600160a01b038235169190810190604081016020820135600160201b81111561036857600080fd5b82018360208201111561037a57600080fd5b803590602001918460208302840111600160201b8311171561039b57600080fd5b919080806020026020016040519081016040528093929190818152602001838360200280828437600092019190915250929550611628945050505050565b610237600480360360408110156103ef57600080fd5b6001600160a01b038235169190810190604081016020820135600160201b81111561041957600080fd5b82018360208201111561042b57600080fd5b803590602001918460208302840111600160201b8311171561044c57600080fd5b919080806020026020016040519081016040528093929190818152602001838360200280828437600092019190915250929550611753945050505050565b610237600480360360408110156104a057600080fd5b6001600160a01b038235169190810190604081016020820135600160201b8111156104ca57600080fd5b8201836020820111156104dc57600080fd5b803590602001918460208302840111600160201b831117156104fd57600080fd5b919080806020026020016040519081016040528093929190818152602001838360200280828437600092019190915250929550611958945050505050565b6105776004803603608081101561055157600080fd5b506001600160a01b03813581169160208101358216916040820135169060600135611d7e565b60408051938452602084019290925282820152519081900360600190f35b610237600480360360408110156105ab57600080fd5b6001600160a01b038235169190810190604081016020820135600160201b8111156105d557600080fd5b8201836020820111156105e757600080fd5b803590602001918460208302840111600160201b8311171561060857600080fd5b9190808060200260200160405190810160405280939291908181526020018383602002808284376000920191909152509295506122e3945050505050565b610140612797565b6102376004803603608081101561066457600080fd5b6001600160a01b03823581169260208101359091169160408201359190810190608081016060820135600160201b81111561069e57600080fd5b8201836020820111156106b057600080fd5b803590602001918460208302840111600160201b831117156106d157600080fd5b91908080602002602001604051908101604052809392919081815260200183836020028082843760009201919091525092955061279c945050505050565b6102376004803603604081101561072557600080fd5b6001600160a01b038235169190810190604081016020820135600160201b81111561074f57600080fd5b82018360208201111561076157600080fd5b803590602001918460208302840111600160201b8311171561078257600080fd5b919080806020026020016040519081016040528093929190818152602001838360200280828437600092019190915250929550612fcd945050505050565b610237600480360360808110156107d657600080fd5b6001600160a01b03823581169260208101359091169160408201359190810190608081016060820135600160201b81111561081057600080fd5b82018360208201111561082257600080fd5b803590602001918460208302840111600160201b8311171561084357600080fd5b9190808060200260200160405190810160405280939291908181526020018383602002808284376000920191909152509295506130cd945050505050565b6102376004803603604081101561089757600080fd5b6001600160a01b038235169190810190604081016020820135600160201b8111156108c157600080fd5b8201836020820111156108d357600080fd5b803590602001918460208302840111600160201b831117156108f457600080fd5b919080806020026020016040519081016040528093929190818152602001838360200280828437600092019190915250929550613a4a945050505050565b610140613bdf565b6102376004803603606081101561095057600080fd5b6001600160a01b038235811692602081013590911691810190606081016040820135600160201b81111561098357600080fd5b82018360208201111561099557600080fd5b803590602001918460208302840111600160201b831117156109b657600080fd5b919080806020026020016040519081016040528093929190818152602001838360200280828437600092019190915250929550613bef945050505050565b610a1360048036036020811015610a0a57600080fd5b503515156140bd565b005b610140614132565b610a25614137565b604080519115158252519081900360200190f35b610a1360048036036020811015610a4f57600080fd5b50356001600160a01b0316614147565b610a9b60048036036080811015610a7557600080fd5b506001600160a01b038135811691602081013582169160408201351690606001356141c0565b6040805192835260208301919091528051918290030190f35b61023760048036036040811015610aca57600080fd5b6001600160a01b038235169190810190604081016020820135600160201b811115610af457600080fd5b820183602082011115610b0657600080fd5b803590602001918460208302840111600160201b83111715610b2757600080fd5b919080806020026020016040519081016040528093929190818152602001838360200280828437600092019190915250929550614876945050505050565b610237600480360360a0811015610b7b57600080fd5b6001600160a01b038235811692602081013590911691810190606081016040820135600160201b811115610bae57600080fd5b820183602082011115610bc057600080fd5b803590602001918460208302840111600160201b83111715610be157600080fd5b9190808060200260200160405190810160405280939291908181526020018383602002808284376000920191909152509295949360208101935035915050600160201b811115610c3057600080fd5b820183602082011115610c4257600080fd5b803590602001918460208302840111600160201b83111715610c6357600080fd5b9190808060200260200160405190810160405280939291908181526020018383602002808284376000920191909152509295949360208101935035915050600160201b811115610cb257600080fd5b820183602082011115610cc457600080fd5b803590602001918460208302840111600160201b83111715610ce557600080fd5b9190808060200260200160405190810160405280939291908181526020018383602002808284376000920191909152509295506149c2945050505050565b61014060048036036060811015610d3957600080fd5b506001600160a01b038135811691602081013582169160409091013516614dbe565b61014060048036036040811015610d7157600080fd5b6001600160a01b038235169190810190604081016020820135600160201b811115610d9b57600080fd5b820183602082011115610dad57600080fd5b803590602001918460208302840111600160201b83111715610dce57600080fd5b919080806020026020016040519081016040528093929190818152602001838360200280828437600092019190915250929550615385945050505050565b61271081565b6000546001600160a01b031681565b60606000600a905060008690506000816001600160a01b031663741bef1a6040518163ffffffff1660e01b815260040160206040518083038186803b158015610e6957600080fd5b505afa158015610e7d573d6000803e3d6000fd5b505050506040513d6020811015610e9357600080fd5b5051855190915060609084026001600160401b0381118015610eb457600080fd5b50604051908082528060200260200182016040528015610ede578160200160208202803683370190505b50905060005b8651811015611522576000878281518110610efb57fe5b6020026020010151905060006001600160a01b0316816001600160a01b03161415610f235750885b846001600160a01b03166352f55eed826040518263ffffffff1660e01b815260040180826001600160a01b0316815260200191505060206040518083038186803b158015610f7057600080fd5b505afa158015610f84573d6000803e3d6000fd5b505050506040513d6020811015610f9a57600080fd5b505183518490848902908110610fac57fe5b602002602001018181525050846001600160a01b031663c3c7b9e9826040518263ffffffff1660e01b815260040180826001600160a01b0316815260200191505060206040518083038186803b15801561100557600080fd5b505afa158015611019573d6000803e3d6000fd5b505050506040513d602081101561102f57600080fd5b5051835184906001858a020190811061104457fe5b602002602001018181525050846001600160a01b031663e3f646b7826040518263ffffffff1660e01b815260040180826001600160a01b0316815260200191505060206040518083038186803b15801561109d57600080fd5b505afa1580156110b1573d6000803e3d6000fd5b505050506040513d60208110156110c757600080fd5b5051835184906002858a02019081106110dc57fe5b602002602001018181525050846001600160a01b0316632c668ec1828b6040518363ffffffff1660e01b815260040180836001600160a01b031681526020018281526020019250505060206040518083038186803b15801561113d57600080fd5b505afa158015611151573d6000803e3d6000fd5b505050506040513d602081101561116757600080fd5b5051835184906003858a020190811061117c57fe5b602002602001018181525050846001600160a01b031663ab2f3ad4826040518263ffffffff1660e01b815260040180826001600160a01b0316815260200191505060206040518083038186803b1580156111d557600080fd5b505afa1580156111e9573d6000803e3d6000fd5b505050506040513d60208110156111ff57600080fd5b5051835184906004858a020190811061121457fe5b602002602001018181525050846001600160a01b03166381a612d6826040518263ffffffff1660e01b815260040180826001600160a01b0316815260200191505060206040518083038186803b15801561126d57600080fd5b505afa158015611281573d6000803e3d6000fd5b505050506040513d602081101561129757600080fd5b5051835184906005858a02019081106112ac57fe5b602002602001018181525050846001600160a01b031663e124e6d2826040518263ffffffff1660e01b815260040180826001600160a01b0316815260200191505060206040518083038186803b15801561130557600080fd5b505afa158015611319573d6000803e3d6000fd5b505050506040513d602081101561132f57600080fd5b5051835184906006858a020190811061134457fe5b602002602001018181525050846001600160a01b031663f07456ce826040518263ffffffff1660e01b815260040180826001600160a01b0316815260200191505060206040518083038186803b15801561139d57600080fd5b505afa1580156113b1573d6000803e3d6000fd5b505050506040513d60208110156113c757600080fd5b5051835184906007858a02019081106113dc57fe5b602090810291909101810191909152604080516356c8c2c160e01b81526001600160a01b038481166004830152600060248301529151918716926356c8c2c192604480840193829003018186803b15801561143657600080fd5b505afa15801561144a573d6000803e3d6000fd5b505050506040513d602081101561146057600080fd5b5051835184906008858a020190811061147557fe5b602090810291909101810191909152604080516356c8c2c160e01b81526001600160a01b038481166004830152600160248301529151918716926356c8c2c192604480840193829003018186803b1580156114cf57600080fd5b505afa1580156114e3573d6000803e3d6000fd5b505050506040513d60208110156114f957600080fd5b5051835184906009858a020190811061150e57fe5b602090810291909101015250600101610ee4565b5098975050505050505050565b60608082516001600160401b038111801561154957600080fd5b50604051908082528060200260200182016040528015611573578160200160208202803683370190505b50905060005b835181101561162157600084828151811061159057fe5b60200260200101519050806001600160a01b031663817b1cd26040518163ffffffff1660e01b815260040160206040518083038186803b1580156115d357600080fd5b505afa1580156115e7573d6000803e3d6000fd5b505050506040513d60208110156115fd57600080fd5b5051835184908490811061160d57fe5b602090810291909101015250600101611579565b5092915050565b600080836001600160a01b03166318160ddd6040518163ffffffff1660e01b815260040160206040518083038186803b15801561166457600080fd5b505afa158015611678573d6000803e3d6000fd5b505050506040513d602081101561168e57600080fd5b5051905060005b83518110156117495760008482815181106116ac57fe5b602002602001015190506000866001600160a01b03166370a08231836040518263ffffffff1660e01b815260040180826001600160a01b0316815260200191505060206040518083038186803b15801561170557600080fd5b505afa158015611719573d6000803e3d6000fd5b505050506040513d602081101561172f57600080fd5b5051905061173d848261543e565b93505050600101611695565b5090505b92915050565b60606000600290506060818451026001600160401b038111801561177657600080fd5b506040519080825280602002602001820160405280156117a0578160200160208202803683370190505b50905060005b845181101561194f5760008582815181106117bd57fe5b6020026020010151905060006001600160a01b0316816001600160a01b0316141561182c57866001600160a01b03163183858402815181106117fb57fe5b6020026020010181815250506000838584026001018151811061181a57fe5b60200260200101818152505050611947565b806001600160a01b03166370a08231886040518263ffffffff1660e01b815260040180826001600160a01b0316815260200191505060206040518083038186803b15801561187957600080fd5b505afa15801561188d573d6000803e3d6000fd5b505050506040513d60208110156118a357600080fd5b5051835184908487029081106118b557fe5b602002602001018181525050806001600160a01b03166318160ddd6040518163ffffffff1660e01b815260040160206040518083038186803b1580156118fa57600080fd5b505afa15801561190e573d6000803e3d6000fd5b505050506040513d602081101561192457600080fd5b50518351849060018588020190811061193957fe5b602002602001018181525050505b6001016117a6565b50949350505050565b60606000600690506060818451026001600160401b038111801561197b57600080fd5b506040519080825280602002602001820160405280156119a5578160200160208202803683370190505b50905060005b845181101561194f5760008582815181106119c257fe5b60200260200101519050866001600160a01b03166376d697608260016040518363ffffffff1660e01b815260040180836001600160a01b0316815260200182151581526020019250505060206040518083038186803b158015611a2457600080fd5b505afa158015611a38573d6000803e3d6000fd5b505050506040513d6020811015611a4e57600080fd5b505183518490848702908110611a6057fe5b602090810291909101810191909152604080516303b6b4bb60e51b81526001600160a01b038481166004830152600060248301529151918a16926376d6976092604480840193829003018186803b158015611aba57600080fd5b505afa158015611ace573d6000803e3d6000fd5b505050506040513d6020811015611ae457600080fd5b505183518490600185880201908110611af957fe5b602090810291909101810191909152604080516356c8c2c160e01b81526001600160a01b038481166004830152600160248301529151918a16926356c8c2c192604480840193829003018186803b158015611b5357600080fd5b505afa158015611b67573d6000803e3d6000fd5b505050506040513d6020811015611b7d57600080fd5b505183518490600285880201908110611b9257fe5b602090810291909101810191909152604080516356c8c2c160e01b81526001600160a01b038481166004830152600060248301529151918a16926356c8c2c192604480840193829003018186803b158015611bec57600080fd5b505afa158015611c00573d6000803e3d6000fd5b505050506040513d6020811015611c1657600080fd5b505183518490600385880201908110611c2b57fe5b602002602001018181525050866001600160a01b0316636ce8a44b826040518263ffffffff1660e01b815260040180826001600160a01b0316815260200191505060206040518083038186803b158015611c8457600080fd5b505afa158015611c98573d6000803e3d6000fd5b505050506040513d6020811015611cae57600080fd5b5051611cbb576000611cbe565b60015b60ff168385840260040181518110611cd257fe5b602002602001018181525050866001600160a01b03166348cac277826040518263ffffffff1660e01b815260040180826001600160a01b0316815260200191505060206040518083038186803b158015611d2b57600080fd5b505afa158015611d3f573d6000803e3d6000fd5b505050506040513d6020811015611d5557600080fd5b505183518490600585880201908110611d6a57fe5b6020908102919091010152506001016119ab565b600080600080876001600160a01b03166381a612d6886040518263ffffffff1660e01b815260040180826001600160a01b0316815260200191505060206040518083038186803b158015611dd157600080fd5b505afa158015611de5573d6000803e3d6000fd5b505050506040513d6020811015611dfb57600080fd5b5051604080516323b95ceb60e21b81526001600160a01b038a811660048301529151929350600092918b1691638ee573ac91602480820192602092909190829003018186803b158015611e4d57600080fd5b505afa158015611e61573d6000803e3d6000fd5b505050506040513d6020811015611e7757600080fd5b505190506000611e9d68327cb2734119d3b7a9601e1b611e978986615480565b906154d9565b9050611eb9600a83900a611e9783670de0b6b3a7640000615480565b905060008a6001600160a01b03166342b60b038b6040518263ffffffff1660e01b815260040180826001600160a01b0316815260200191505060206040518083038186803b158015611f0a57600080fd5b505afa158015611f1e573d6000803e3d6000fd5b505050506040513d6020811015611f3457600080fd5b50518015611fb757508a6001600160a01b03166342b60b038a6040518263ffffffff1660e01b815260040180826001600160a01b0316815260200191505060206040518083038186803b158015611f8a57600080fd5b505afa158015611f9e573d6000803e3d6000fd5b505050506040513d6020811015611fb457600080fd5b50515b905060008161202a578b6001600160a01b031663a22f23926040518163ffffffff1660e01b815260040160206040518083038186803b158015611ff957600080fd5b505afa15801561200d573d6000803e3d6000fd5b505050506040513d602081101561202357600080fd5b5051612090565b8b6001600160a01b031663df73a2676040518163ffffffff1660e01b815260040160206040518083038186803b15801561206357600080fd5b505afa158015612077573d6000803e3d6000fd5b505050506040513d602081101561208d57600080fd5b50515b9050600082612103578c6001600160a01b0316637a210a2b6040518163ffffffff1660e01b815260040160206040518083038186803b1580156120d257600080fd5b505afa1580156120e6573d6000803e3d6000fd5b505050506040513d60208110156120fc57600080fd5b5051612169565b8c6001600160a01b03166310eb56c26040518163ffffffff1660e01b815260040160206040518083038186803b15801561213c57600080fd5b505afa158015612150573d6000803e3d6000fd5b505050506040513d602081101561216657600080fd5b50515b905060008d6001600160a01b031663c7e074c38e87868660016040518663ffffffff1660e01b815260040180866001600160a01b0316815260200185815260200184815260200183815260200182151581526020019550505050505060206040518083038186803b1580156121dd57600080fd5b505afa1580156121f1573d6000803e3d6000fd5b505050506040513d602081101561220757600080fd5b8101908080519060200190929190505050905060008e6001600160a01b031663c7e074c38e88878760006040518663ffffffff1660e01b815260040180866001600160a01b0316815260200185815260200184815260200183815260200182151581526020019550505050505060206040518083038186803b15801561228c57600080fd5b505afa1580156122a0573d6000803e3d6000fd5b505050506040513d60208110156122b657600080fd5b5051905060008183116122c957816122cb565b825b9b509199509750505050505050509450945094915050565b60606000600790506060818451026001600160401b038111801561230657600080fd5b50604051908082528060200260200182016040528015612330578160200160208202803683370190505b50905060005b845181101561194f57600085828151811061234d57fe5b60200260200101519050806001600160a01b0316635d50e729886040518263ffffffff1660e01b815260040180826001600160a01b0316815260200191505060206040518083038186803b1580156123a457600080fd5b505afa1580156123b8573d6000803e3d6000fd5b505050506040513d60208110156123ce57600080fd5b5051835184908487029081106123e057fe5b602002602001018181525050806001600160a01b031663d5a73fdd886040518263ffffffff1660e01b815260040180826001600160a01b0316815260200191505060206040518083038186803b15801561243957600080fd5b505afa15801561244d573d6000803e3d6000fd5b505050506040513d602081101561246357600080fd5b50518351849060018588020190811061247857fe5b60200260200101818152505085828151811061249057fe5b60200260200101516001600160a01b03166370a08231886040518263ffffffff1660e01b815260040180826001600160a01b0316815260200191505060206040518083038186803b1580156124e457600080fd5b505afa1580156124f8573d6000803e3d6000fd5b505050506040513d602081101561250e57600080fd5b50518351849060028588020190811061252357fe5b602002602001018181525050806001600160a01b03166371417b32886040518263ffffffff1660e01b815260040180826001600160a01b0316815260200191505060206040518083038186803b15801561257c57600080fd5b505afa158015612590573d6000803e3d6000fd5b505050506040513d60208110156125a657600080fd5b5051835184906003858802019081106125bb57fe5b602002602001018181525050806001600160a01b031663402914f5886040518263ffffffff1660e01b815260040180826001600160a01b0316815260200191505060206040518083038186803b15801561261457600080fd5b505afa158015612628573d6000803e3d6000fd5b505050506040513d602081101561263e57600080fd5b50518351849060048588020190811061265357fe5b602002602001018181525050806001600160a01b03166308f26c76886040518263ffffffff1660e01b815260040180826001600160a01b0316815260200191505060206040518083038186803b1580156126ac57600080fd5b505afa1580156126c0573d6000803e3d6000fd5b505050506040513d60208110156126d657600080fd5b5051835184906005858802019081106126eb57fe5b602002602001018181525050806001600160a01b03166345f01ee6886040518263ffffffff1660e01b815260040180826001600160a01b0316815260200191505060206040518083038186803b15801561274457600080fd5b505afa158015612758573d6000803e3d6000fd5b505050506040513d602081101561276e57600080fd5b50518351849060068588020190811061278357fe5b602090810291909101015250600101612336565b601281565b60606000600c905060008690506000816001600160a01b031663741bef1a6040518163ffffffff1660e01b815260040160206040518083038186803b1580156127e457600080fd5b505afa1580156127f8573d6000803e3d6000fd5b505050506040513d602081101561280e57600080fd5b5051855190915060609084026001600160401b038111801561282f57600080fd5b50604051908082528060200260200182016040528015612859578160200160208202803683370190505b50905060005b865181101561152257600087828151811061287657fe5b6020026020010151905060006001600160a01b0316816001600160a01b0316141561289e5750885b846001600160a01b03166352f55eed826040518263ffffffff1660e01b815260040180826001600160a01b0316815260200191505060206040518083038186803b1580156128eb57600080fd5b505afa1580156128ff573d6000803e3d6000fd5b505050506040513d602081101561291557600080fd5b50518351849084890290811061292757fe5b602002602001018181525050846001600160a01b031663c3c7b9e9826040518263ffffffff1660e01b815260040180826001600160a01b0316815260200191505060206040518083038186803b15801561298057600080fd5b505afa158015612994573d6000803e3d6000fd5b505050506040513d60208110156129aa57600080fd5b5051835184906001858a02019081106129bf57fe5b602002602001018181525050846001600160a01b031663e3f646b7826040518263ffffffff1660e01b815260040180826001600160a01b0316815260200191505060206040518083038186803b158015612a1857600080fd5b505afa158015612a2c573d6000803e3d6000fd5b505050506040513d6020811015612a4257600080fd5b5051835184906002858a0201908110612a5757fe5b602002602001018181525050846001600160a01b0316632c668ec1828b6040518363ffffffff1660e01b815260040180836001600160a01b031681526020018281526020019250505060206040518083038186803b158015612ab857600080fd5b505afa158015612acc573d6000803e3d6000fd5b505050506040513d6020811015612ae257600080fd5b5051835184906003858a0201908110612af757fe5b602002602001018181525050846001600160a01b031663ab2f3ad4826040518263ffffffff1660e01b815260040180826001600160a01b0316815260200191505060206040518083038186803b158015612b5057600080fd5b505afa158015612b64573d6000803e3d6000fd5b505050506040513d6020811015612b7a57600080fd5b5051835184906004858a0201908110612b8f57fe5b602002602001018181525050846001600160a01b0316634a993ee9826040518263ffffffff1660e01b815260040180826001600160a01b0316815260200191505060206040518083038186803b158015612be857600080fd5b505afa158015612bfc573d6000803e3d6000fd5b505050506040513d6020811015612c1257600080fd5b5051835184906005858a0201908110612c2757fe5b602002602001018181525050846001600160a01b031663e6eaf59c826040518263ffffffff1660e01b815260040180826001600160a01b0316815260200191505060206040518083038186803b158015612c8057600080fd5b505afa158015612c94573d6000803e3d6000fd5b505050506040513d6020811015612caa57600080fd5b5051835184906006858a0201908110612cbf57fe5b602002602001018181525050846001600160a01b03166381a612d6826040518263ffffffff1660e01b815260040180826001600160a01b0316815260200191505060206040518083038186803b158015612d1857600080fd5b505afa158015612d2c573d6000803e3d6000fd5b505050506040513d6020811015612d4257600080fd5b5051835184906007858a0201908110612d5757fe5b602002602001018181525050846001600160a01b031663e124e6d2826040518263ffffffff1660e01b815260040180826001600160a01b0316815260200191505060206040518083038186803b158015612db057600080fd5b505afa158015612dc4573d6000803e3d6000fd5b505050506040513d6020811015612dda57600080fd5b5051835184906008858a0201908110612def57fe5b602002602001018181525050846001600160a01b031663f07456ce826040518263ffffffff1660e01b815260040180826001600160a01b0316815260200191505060206040518083038186803b158015612e4857600080fd5b505afa158015612e5c573d6000803e3d6000fd5b505050506040513d6020811015612e7257600080fd5b5051835184906009858a0201908110612e8757fe5b602090810291909101810191909152604080516356c8c2c160e01b81526001600160a01b038481166004830152600060248301529151918716926356c8c2c192604480840193829003018186803b158015612ee157600080fd5b505afa158015612ef5573d6000803e3d6000fd5b505050506040513d6020811015612f0b57600080fd5b505183518490600a858a0201908110612f2057fe5b602090810291909101810191909152604080516356c8c2c160e01b81526001600160a01b038481166004830152600160248301529151918716926356c8c2c192604480840193829003018186803b158015612f7a57600080fd5b505afa158015612f8e573d6000803e3d6000fd5b505050506040513d6020811015612fa457600080fd5b505183518490600b858a0201908110612fb957fe5b60209081029190910101525060010161285f565b60608082516001600160401b0381118015612fe757600080fd5b50604051908082528060200260200182016040528015613011578160200160208202803683370190505b50905060005b835181101561174957846001600160a01b0316631ce9cb8f85838151811061303b57fe5b60200260200101516040518263ffffffff1660e01b815260040180826001600160a01b0316815260200191505060206040518083038186803b15801561308057600080fd5b505afa158015613094573d6000803e3d6000fd5b505050506040513d60208110156130aa57600080fd5b505182518390839081106130ba57fe5b6020908102919091010152600101613017565b60606000600e905060008690506000816001600160a01b031663741bef1a6040518163ffffffff1660e01b815260040160206040518083038186803b15801561311557600080fd5b505afa158015613129573d6000803e3d6000fd5b505050506040513d602081101561313f57600080fd5b5051855190915060609084026001600160401b038111801561316057600080fd5b5060405190808252806020026020018201604052801561318a578160200160208202803683370190505b50905060005b86518110156115225760008782815181106131a757fe5b6020026020010151905060006001600160a01b0316816001600160a01b031614156131cf5750885b60008054600160a01b900460ff166131e8576000613262565b856001600160a01b0316639698d25a836040518263ffffffff1660e01b815260040180826001600160a01b0316815260200191505060206040518083038186803b15801561323557600080fd5b505afa158015613249573d6000803e3d6000fd5b505050506040513d602081101561325f57600080fd5b50515b9050856001600160a01b03166352f55eed836040518263ffffffff1660e01b815260040180826001600160a01b0316815260200191505060206040518083038186803b1580156132b157600080fd5b505afa1580156132c5573d6000803e3d6000fd5b505050506040513d60208110156132db57600080fd5b505184518590858a029081106132ed57fe5b602002602001018181525050856001600160a01b031663c3c7b9e9836040518263ffffffff1660e01b815260040180826001600160a01b0316815260200191505060206040518083038186803b15801561334657600080fd5b505afa15801561335a573d6000803e3d6000fd5b505050506040513d602081101561337057600080fd5b5051845185906001868b020190811061338557fe5b602002602001018181525050856001600160a01b031663e3f646b7836040518263ffffffff1660e01b815260040180826001600160a01b0316815260200191505060206040518083038186803b1580156133de57600080fd5b505afa1580156133f2573d6000803e3d6000fd5b505050506040513d602081101561340857600080fd5b5051845185906002868b020190811061341d57fe5b602002602001018181525050856001600160a01b0316632c668ec1838c6040518363ffffffff1660e01b815260040180836001600160a01b031681526020018281526020019250505060206040518083038186803b15801561347e57600080fd5b505afa158015613492573d6000803e3d6000fd5b505050506040513d60208110156134a857600080fd5b5051845185906003868b02019081106134bd57fe5b602002602001018181525050856001600160a01b031663ab2f3ad4836040518263ffffffff1660e01b815260040180826001600160a01b0316815260200191505060206040518083038186803b15801561351657600080fd5b505afa15801561352a573d6000803e3d6000fd5b505050506040513d602081101561354057600080fd5b5051845185906004868b020190811061355557fe5b602002602001018181525050856001600160a01b0316634a993ee9836040518263ffffffff1660e01b815260040180826001600160a01b0316815260200191505060206040518083038186803b1580156135ae57600080fd5b505afa1580156135c2573d6000803e3d6000fd5b505050506040513d60208110156135d857600080fd5b5051845185906005868b02019081106135ed57fe5b602002602001018181525050856001600160a01b031663e6eaf59c836040518263ffffffff1660e01b815260040180826001600160a01b0316815260200191505060206040518083038186803b15801561364657600080fd5b505afa15801561365a573d6000803e3d6000fd5b505050506040513d602081101561367057600080fd5b5051845185906006868b020190811061368557fe5b602002602001018181525050856001600160a01b0316638a78daa8836040518263ffffffff1660e01b815260040180826001600160a01b0316815260200191505060206040518083038186803b1580156136de57600080fd5b505afa1580156136f2573d6000803e3d6000fd5b505050506040513d602081101561370857600080fd5b5051845185906007868b020190811061371d57fe5b60200260200101818152505080848885026008018151811061373b57fe5b602002602001018181525050856001600160a01b03166381a612d6836040518263ffffffff1660e01b815260040180826001600160a01b0316815260200191505060206040518083038186803b15801561379457600080fd5b505afa1580156137a8573d6000803e3d6000fd5b505050506040513d60208110156137be57600080fd5b5051845185906009868b02019081106137d357fe5b602002602001018181525050856001600160a01b031663e124e6d2836040518263ffffffff1660e01b815260040180826001600160a01b0316815260200191505060206040518083038186803b15801561382c57600080fd5b505afa158015613840573d6000803e3d6000fd5b505050506040513d602081101561385657600080fd5b505184518590600a868b020190811061386b57fe5b602002602001018181525050856001600160a01b031663f07456ce836040518263ffffffff1660e01b815260040180826001600160a01b0316815260200191505060206040518083038186803b1580156138c457600080fd5b505afa1580156138d8573d6000803e3d6000fd5b505050506040513d60208110156138ee57600080fd5b505184518590600b868b020190811061390357fe5b602090810291909101810191909152604080516356c8c2c160e01b81526001600160a01b038581166004830152600060248301529151918816926356c8c2c192604480840193829003018186803b15801561395d57600080fd5b505afa158015613971573d6000803e3d6000fd5b505050506040513d602081101561398757600080fd5b505184518590600c868b020190811061399c57fe5b602090810291909101810191909152604080516356c8c2c160e01b81526001600160a01b038581166004830152600160248301529151918816926356c8c2c192604480840193829003018186803b1580156139f657600080fd5b505afa158015613a0a573d6000803e3d6000fd5b505050506040513d6020811015613a2057600080fd5b505184518590600d868b0201908110613a3557fe5b60209081029190910101525050600101613190565b60606000600290506060818451026001600160401b0381118015613a6d57600080fd5b50604051908082528060200260200182016040528015613a97578160200160208202803683370190505b50905060005b845181101561194f576000858281518110613ab457fe5b60200260200101519050806001600160a01b031663402914f5886040518263ffffffff1660e01b815260040180826001600160a01b0316815260200191505060206040518083038186803b158015613b0b57600080fd5b505afa158015613b1f573d6000803e3d6000fd5b505050506040513d6020811015613b3557600080fd5b505183518490848702908110613b4757fe5b602002602001018181525050806001600160a01b0316632459f51d6040518163ffffffff1660e01b815260040160206040518083038186803b158015613b8c57600080fd5b505afa158015613ba0573d6000803e3d6000fd5b505050506040513d6020811015613bb657600080fd5b505183518490600185880201908110613bcb57fe5b602090810291909101015250600101613a9d565b68327cb2734119d3b7a9601e1b81565b60606000600290506060818451026001600160401b0381118015613c1257600080fd5b50604051908082528060200260200182016040528015613c3c578160200160208202803683370190505b5090508560005b85518110156140af576000868281518110613c5a57fe5b6020026020010151905060006001600160a01b0316816001600160a01b03161415613c825750865b6000836001600160a01b03166342b60b03836040518263ffffffff1660e01b815260040180826001600160a01b0316815260200191505060206040518083038186803b158015613cd157600080fd5b505afa158015613ce5573d6000803e3d6000fd5b505050506040513d6020811015613cfb57600080fd5b5051613d6b57836001600160a01b031663c4f718bf6040518163ffffffff1660e01b815260040160206040518083038186803b158015613d3a57600080fd5b505afa158015613d4e573d6000803e3d6000fd5b505050506040513d6020811015613d6457600080fd5b5051613dd1565b836001600160a01b031663134ca63b6040518163ffffffff1660e01b815260040160206040518083038186803b158015613da457600080fd5b505afa158015613db8573d6000803e3d6000fd5b505050506040513d6020811015613dce57600080fd5b50515b90506000846001600160a01b031663c3c7b9e9846040518263ffffffff1660e01b815260040180826001600160a01b0316815260200191505060206040518083038186803b158015613e2257600080fd5b505afa158015613e36573d6000803e3d6000fd5b505050506040513d6020811015613e4c57600080fd5b5051604080516352f55eed60e01b81526001600160a01b0386811660048301529151929350600092918816916352f55eed91602480820192602092909190829003018186803b158015613e9e57600080fd5b505afa158015613eb2573d6000803e3d6000fd5b505050506040513d6020811015613ec857600080fd5b505190508015613efb57613ee081611e978585615480565b8789870281518110613eee57fe5b6020026020010181815250505b6000866001600160a01b031663c65bc7b1866040518263ffffffff1660e01b815260040180826001600160a01b0316815260200191505060206040518083038186803b158015613f4a57600080fd5b505afa158015613f5e573d6000803e3d6000fd5b505050506040513d6020811015613f7457600080fd5b5051111561409f576000866001600160a01b031663a93acac2866040518263ffffffff1660e01b815260040180826001600160a01b0316815260200191505060206040518083038186803b158015613fcb57600080fd5b505afa158015613fdf573d6000803e3d6000fd5b505050506040513d6020811015613ff557600080fd5b50516040805163c65bc7b160e01b81526001600160a01b0388811660048301529151929350600092918a169163c65bc7b191602480820192602092909190829003018186803b15801561404757600080fd5b505afa15801561405b573d6000803e3d6000fd5b505050506040513d602081101561407157600080fd5b5051905061407f8183615518565b898b89026001018151811061409057fe5b60200260200101818152505050505b505060019092019150613c439050565b5090925050505b9392505050565b6000546001600160a01b03163314614114576040805162461bcd60e51b815260206004820152601560248201527423b7bb32b93730b136329d103337b93134b23232b760591b604482015290519081900360640190fd5b60008054911515600160a01b0260ff60a01b19909216919091179055565b600981565b600054600160a01b900460ff1681565b6000546001600160a01b0316331461419e576040805162461bcd60e51b815260206004820152601560248201527423b7bb32b93730b136329d103337b93134b23232b760591b604482015290519081900360640190fd5b600080546001600160a01b0319166001600160a01b0392909216919091179055565b6000806000866001600160a01b03166381a612d6876040518263ffffffff1660e01b815260040180826001600160a01b0316815260200191505060206040518083038186803b15801561421257600080fd5b505afa158015614226573d6000803e3d6000fd5b505050506040513d602081101561423c57600080fd5b5051604080516323b95ceb60e21b81526001600160a01b0389811660048301529151929350600092918a1691638ee573ac91602480820192602092909190829003018186803b15801561428e57600080fd5b505afa1580156142a2573d6000803e3d6000fd5b505050506040513d60208110156142b857600080fd5b5051604080516323b95ceb60e21b81526001600160a01b0389811660048301529151929350600092918b1691638ee573ac91602480820192602092909190829003018186803b15801561430a57600080fd5b505afa15801561431e573d6000803e3d6000fd5b505050506040513d602081101561433457600080fd5b5051905060008061435568327cb2734119d3b7a9601e1b611e978a88615480565b9050614371600a85900a611e9783670de0b6b3a7640000615480565b905060008b6001600160a01b03166342b60b038c6040518263ffffffff1660e01b815260040180826001600160a01b0316815260200191505060206040518083038186803b1580156143c257600080fd5b505afa1580156143d6573d6000803e3d6000fd5b505050506040513d60208110156143ec57600080fd5b5051801561446f57508b6001600160a01b03166342b60b038b6040518263ffffffff1660e01b815260040180826001600160a01b0316815260200191505060206040518083038186803b15801561444257600080fd5b505afa158015614456573d6000803e3d6000fd5b505050506040513d602081101561446c57600080fd5b50515b90506000816144e2578c6001600160a01b031663a22f23926040518163ffffffff1660e01b815260040160206040518083038186803b1580156144b157600080fd5b505afa1580156144c5573d6000803e3d6000fd5b505050506040513d60208110156144db57600080fd5b5051614548565b8c6001600160a01b031663df73a2676040518163ffffffff1660e01b815260040160206040518083038186803b15801561451b57600080fd5b505afa15801561452f573d6000803e3d6000fd5b505050506040513d602081101561454557600080fd5b50515b90506000826145bb578d6001600160a01b0316637a210a2b6040518163ffffffff1660e01b815260040160206040518083038186803b15801561458a57600080fd5b505afa15801561459e573d6000803e3d6000fd5b505050506040513d60208110156145b457600080fd5b5051614621565b8d6001600160a01b03166310eb56c26040518163ffffffff1660e01b815260040160206040518083038186803b1580156145f457600080fd5b505afa158015614608573d6000803e3d6000fd5b505050506040513d602081101561461e57600080fd5b50515b905060008e6001600160a01b031663c7e074c38f87868660016040518663ffffffff1660e01b815260040180866001600160a01b0316815260200185815260200184815260200183815260200182151581526020019550505050505060206040518083038186803b15801561469557600080fd5b505afa1580156146a9573d6000803e3d6000fd5b505050506040513d60208110156146bf57600080fd5b8101908080519060200190929190505050905060008f6001600160a01b031663c7e074c38f88878760006040518663ffffffff1660e01b815260040180866001600160a01b0316815260200185815260200184815260200183815260200182151581526020019550505050505060206040518083038186803b15801561474457600080fd5b505afa158015614758573d6000803e3d6000fd5b505050506040513d602081101561476e57600080fd5b5051905080821161477f5780614781565b815b965050505050505060008a6001600160a01b031663e124e6d28a6040518263ffffffff1660e01b815260040180826001600160a01b0316815260200191505060206040518083038186803b1580156147d857600080fd5b505afa1580156147ec573d6000803e3d6000fd5b505050506040513d602081101561480257600080fd5b50519050600061481682611e978b89615480565b905061483585600a0a611e9786600a0a8461548090919063ffffffff16565b90506000614853612710611e9761484c828861543e565b8590615480565b90506000614861838361543e565b919e919d50909b505050505050505050505050565b60608082516001600160401b038111801561489057600080fd5b506040519080825280602002602001820160405280156148ba578160200160208202803683370190505b50905060005b83518110156117495760008482815181106148d757fe5b6020026020010151905060006001600160a01b0316816001600160a01b0316141561492557856001600160a01b03163183838151811061491357fe5b602002602001018181525050506149ba565b806001600160a01b03166370a08231876040518263ffffffff1660e01b815260040180826001600160a01b0316815260200191505060206040518083038186803b15801561497257600080fd5b505afa158015614986573d6000803e3d6000fd5b505050506040513d602081101561499c57600080fd5b505183518490849081106149ac57fe5b602002602001018181525050505b6001016148c0565b60608060098551026001600160401b03811180156149df57600080fd5b50604051908082528060200260200182016040528015614a09578160200160208202803683370190505b50905060005b8551811015614db35760008060008060008060008e6001600160a01b0316634a3f088d8f8f8b81518110614a3f57fe5b60200260200101518f8c81518110614a5357fe5b60200260200101518f8d81518110614a6757fe5b60200260200101516040518563ffffffff1660e01b815260040180856001600160a01b03168152602001846001600160a01b03168152602001836001600160a01b0316815260200182151581526020019450505050506101006040518083038186803b158015614ad657600080fd5b505afa158015614aea573d6000803e3d6000fd5b505050506040513d610100811015614b0157600080fd5b50805160208201516040830151606084015160a085015160c086015160e0909601518f51959d50939b509199509750955091935090915087908a9060098b02908110614b4957fe5b602002602001018181525050858960098a0260010181518110614b6857fe5b602002602001018181525050848960098a0260020181518110614b8757fe5b602002602001018181525050838960098a0260030181518110614ba657fe5b60200260200101818152505081614bbe576000614bc1565b60015b60ff168960098a0260040181518110614bd657fe5b602002602001018181525050828960098a0260050181518110614bf557fe5b602002602001018181525050808960098a0260060181518110614c1457fe5b602002602001018181525050505050505050506000826009830281518110614c3857fe5b602002602001015190506000836009840260020181518110614c5657fe5b602002602001015190506000846009850260060181518110614c7457fe5b602002602001015190506000821115614da8576000808c6001600160a01b0316635c07eaab8b8881518110614ca557fe5b602002602001015187878d8b81518110614cbb57fe5b6020026020010151886040518663ffffffff1660e01b815260040180866001600160a01b03168152602001858152602001848152602001831515815260200182815260200195505050505050604080518083038186803b158015614d1e57600080fd5b505afa158015614d32573d6000803e3d6000fd5b505050506040513d6040811015614d4857600080fd5b508051602090910151909250905081614d62576000614d65565b60015b60ff16876009880260070181518110614d7a57fe5b60200260200101818152505080876009880260080181518110614d9957fe5b60200260200101818152505050505b505050600101614a0f565b509695505050505050565b600080846001600160a01b03166381a612d6856040518263ffffffff1660e01b815260040180826001600160a01b0316815260200191505060206040518083038186803b158015614e0e57600080fd5b505afa158015614e22573d6000803e3d6000fd5b505050506040513d6020811015614e3857600080fd5b505160408051637092736960e11b81526001600160a01b03868116600483015291519293506000929188169163e124e6d291602480820192602092909190829003018186803b158015614e8a57600080fd5b505afa158015614e9e573d6000803e3d6000fd5b505050506040513d6020811015614eb457600080fd5b5051604080516323b95ceb60e21b81526001600160a01b038881166004830152915192935060009291891691638ee573ac91602480820192602092909190829003018186803b158015614f0657600080fd5b505afa158015614f1a573d6000803e3d6000fd5b505050506040513d6020811015614f3057600080fd5b5051604080516323b95ceb60e21b81526001600160a01b0388811660048301529151929350600092918a1691638ee573ac91602480820192602092909190829003018186803b158015614f8257600080fd5b505afa158015614f96573d6000803e3d6000fd5b505050506040513d6020811015614fac57600080fd5b5051604080516352f55eed60e01b81526001600160a01b038981166004830152915192935060009283928c16916352f55eed916024808301926020929190829003018186803b158015614ffe57600080fd5b505afa158015615012573d6000803e3d6000fd5b505050506040513d602081101561502857600080fd5b50516040805163c3c7b9e960e01b81526001600160a01b038b811660048301529151929350600092918d169163c3c7b9e991602480820192602092909190829003018186803b15801561507a57600080fd5b505afa15801561508e573d6000803e3d6000fd5b505050506040513d60208110156150a457600080fd5b505160408051634a993ee960e01b81526001600160a01b038c811660048301529151929350600092918e1691634a993ee991602480820192602092909190829003018186803b1580156150f657600080fd5b505afa15801561510a573d6000803e3d6000fd5b505050506040513d602081101561512057600080fd5b5051905060008183116151335781615135565b825b905083811061515057600099505050505050505050506140b6565b600061515c858361543e565b905061518987600a0a611e978a600a0a6151838e611e978f8861548090919063ffffffff16565b90615480565b955050505050506000896001600160a01b031663e6eaf59c8a6040518263ffffffff1660e01b815260040180826001600160a01b0316815260200191505060206040518083038186803b1580156151df57600080fd5b505afa1580156151f3573d6000803e3d6000fd5b505050506040513d602081101561520957600080fd5b50519050801561152257896001600160a01b031663e3f646b78a6040518263ffffffff1660e01b815260040180826001600160a01b0316815260200191505060206040518083038186803b15801561526057600080fd5b505afa158015615274573d6000803e3d6000fd5b505050506040513d602081101561528a57600080fd5b50518110156152a257600096505050505050506140b6565b60006153278b6001600160a01b031663e3f646b78c6040518263ffffffff1660e01b815260040180826001600160a01b0316815260200191505060206040518083038186803b1580156152f457600080fd5b505afa158015615308573d6000803e3d6000fd5b505050506040513d602081101561531e57600080fd5b5051839061543e565b9050615343670de0b6b3a7640000611e9783600a89900a615480565b905061535f87611e978368327cb2734119d3b7a9601e1b615480565b9050808311156153775796506140b695505050505050565b505098975050505050505050565b600080805b83518110156117495760008482815181106153a157fe5b602002602001015190506000866001600160a01b03166370a08231836040518263ffffffff1660e01b815260040180826001600160a01b0316815260200191505060206040518083038186803b1580156153fa57600080fd5b505afa15801561540e573d6000803e3d6000fd5b505050506040513d602081101561542457600080fd5b505190506154328482615518565b9350505060010161538a565b60006140b683836040518060400160405280601e81526020017f536166654d6174683a207375627472616374696f6e206f766572666c6f770000815250615570565b60008261548f5750600061174d565b8282028284828161549c57fe5b04146140b65760405162461bcd60e51b815260040180806020018281038252602181526020018061566d6021913960400191505060405180910390fd5b60006140b683836040518060400160405280601a815260200179536166654d6174683a206469766973696f6e206279207a65726f60301b815250615607565b6000828201838110156140b6576040805162461bcd60e51b815260206004820152601b60248201527a536166654d6174683a206164646974696f6e206f766572666c6f7760281b604482015290519081900360640190fd5b600081848411156155ff5760405162461bcd60e51b81526004018080602001828103825283818151815260200191508051906020019080838360005b838110156155c45781810151838201526020016155ac565b50505050905090810190601f1680156155f15780820380516001836020036101000a031916815260200191505b509250505060405180910390fd5b505050900390565b600081836156565760405162461bcd60e51b81526020600482018181528351602484015283519092839260449091019190850190808383600083156155c45781810151838201526020016155ac565b50600083858161566257fe5b049594505050505056fe536166654d6174683a206d756c7469706c69636174696f6e206f766572666c6f77a264697066735822122011ab0fc103335f7288ecaac851accaa15895d6c8e88eb26e39255f7564d8d2d464736f6c634300060c0033",
  "linkReferences": {},
  "deployedLinkReferences": {}
}