{
  "_format": "hh-sol-artifact-1",
  "contractName": "RewardTracker",
  "sourceName": "contracts/staking/RewardTracker.sol",
  "abi": [
    {
      "inputs": [
        {
          "internalType": "string",
          "name": "_name",
          "type": "string"
        },
        {
          "internalType": "string",
          "name": "_symbol",
          "type": "string"
        }
      ],
      "stateMutability": "nonpayable",
      "type": "constructor"
    },
    {
      "anonymous": false,
      "inputs": [
        {
          "indexed": true,
          "internalType": "address",
          "name": "owner",
          "type": "address"
        },
        {
          "indexed": true,
          "internalType": "address",
          "name": "spender",
          "type": "address"
        },
        {
          "indexed": false,
          "internalType": "uint256",
          "name": "value",
          "type": "uint256"
        }
      ],
      "name": "Approval",
      "type": "event"
    },
    {
      "anonymous": false,
      "inputs": [
        {
          "indexed": true,
          "internalType": "address",
          "name": "receiver",
          "type": "address"
        },
        {
          "indexed": false,
          "internalType": "address",
          "name": "rewardToken",
          "type": "address"
        },
        {
          "indexed": false,
          "internalType": "uint256",
          "name": "amount",
          "type": "uint256"
        }
      ],
      "name": "Claim",
      "type": "event"
    },
    {
      "anonymous": false,
      "inputs": [
        {
          "indexed": true,
          "internalType": "address",
          "name": "from",
          "type": "address"
        },
        {
          "indexed": true,
          "internalType": "address",
          "name": "to",
          "type": "address"
        },
        {
          "indexed": false,
          "internalType": "uint256",
          "name": "value",
          "type": "uint256"
        }
      ],
      "name": "Transfer",
      "type": "event"
    },
    {
      "inputs": [],
      "name": "BASIS_POINTS_DIVISOR",
      "outputs": [
        {
          "internalType": "uint256",
          "name": "",
          "type": "uint256"
        }
      ],
      "stateMutability": "view",
      "type": "function"
    },
    {
      "inputs": [],
      "name": "PRECISION",
      "outputs": [
        {
          "internalType": "uint256",
          "name": "",
          "type": "uint256"
        }
      ],
      "stateMutability": "view",
      "type": "function"
    },
    {
      "inputs": [
        {
          "internalType": "address",
          "name": "_rewardToken",
          "type": "address"
        }
      ],
      "name": "allTokens",
      "outputs": [
        {
          "internalType": "bool",
          "name": "",
          "type": "bool"
        }
      ],
      "stateMutability": "view",
      "type": "function"
    },
    {
      "inputs": [
        {
          "internalType": "address",
          "name": "_owner",
          "type": "address"
        },
        {
          "internalType": "address",
          "name": "_spender",
          "type": "address"
        }
      ],
      "name": "allowance",
      "outputs": [
        {
          "internalType": "uint256",
          "name": "",
          "type": "uint256"
        }
      ],
      "stateMutability": "view",
      "type": "function"
    },
    {
      "inputs": [
        {
          "internalType": "address",
          "name": "",
          "type": "address"
        },
        {
          "internalType": "address",
          "name": "",
          "type": "address"
        }
      ],
      "name": "allowances",
      "outputs": [
        {
          "internalType": "uint256",
          "name": "",
          "type": "uint256"
        }
      ],
      "stateMutability": "view",
      "type": "function"
    },
    {
      "inputs": [
        {
          "internalType": "address",
          "name": "_spender",
          "type": "address"
        },
        {
          "internalType": "uint256",
          "name": "_amount",
          "type": "uint256"
        }
      ],
      "name": "approve",
      "outputs": [
        {
          "internalType": "bool",
          "name": "",
          "type": "bool"
        }
      ],
      "stateMutability": "nonpayable",
      "type": "function"
    },
    {
      "inputs": [
        {
          "internalType": "address",
          "name": "_account",
          "type": "address"
        }
      ],
      "name": "balanceOf",
      "outputs": [
        {
          "internalType": "uint256",
          "name": "",
          "type": "uint256"
        }
      ],
      "stateMutability": "view",
      "type": "function"
    },
    {
      "inputs": [
        {
          "internalType": "address",
          "name": "",
          "type": "address"
        }
      ],
      "name": "balances",
      "outputs": [
        {
          "internalType": "uint256",
          "name": "",
          "type": "uint256"
        }
      ],
      "stateMutability": "view",
      "type": "function"
    },
    {
      "inputs": [
        {
          "internalType": "address",
          "name": "_rewardToken",
          "type": "address"
        },
        {
          "internalType": "address",
          "name": "_receiver",
          "type": "address"
        }
      ],
      "name": "claim",
      "outputs": [
        {
          "internalType": "uint256",
          "name": "",
          "type": "uint256"
        }
      ],
      "stateMutability": "nonpayable",
      "type": "function"
    },
    {
      "inputs": [
        {
          "internalType": "address",
          "name": "_receiver",
          "type": "address"
        }
      ],
      "name": "claimAll",
      "outputs": [
        {
          "internalType": "address[]",
          "name": "",
          "type": "address[]"
        },
        {
          "internalType": "uint256[]",
          "name": "",
          "type": "uint256[]"
        }
      ],
      "stateMutability": "nonpayable",
      "type": "function"
    },
    {
      "inputs": [
        {
          "internalType": "address",
          "name": "_account",
          "type": "address"
        },
        {
          "internalType": "address",
          "name": "_receiver",
          "type": "address"
        }
      ],
      "name": "claimAllForAccount",
      "outputs": [
        {
          "internalType": "address[]",
          "name": "",
          "type": "address[]"
        },
        {
          "internalType": "uint256[]",
          "name": "",
          "type": "uint256[]"
        }
      ],
      "stateMutability": "nonpayable",
      "type": "function"
    },
    {
      "inputs": [
        {
          "internalType": "address",
          "name": "_account",
          "type": "address"
        },
        {
          "internalType": "address",
          "name": "_rewardToken",
          "type": "address"
        },
        {
          "internalType": "address",
          "name": "_receiver",
          "type": "address"
        }
      ],
      "name": "claimForAccount",
      "outputs": [
        {
          "internalType": "uint256",
          "name": "",
          "type": "uint256"
        }
      ],
      "stateMutability": "nonpayable",
      "type": "function"
    },
    {
      "inputs": [
        {
          "internalType": "address",
          "name": "_account",
          "type": "address"
        },
        {
          "internalType": "address",
          "name": "_rewardToken",
          "type": "address"
        }
      ],
      "name": "claimable",
      "outputs": [
        {
          "internalType": "uint256",
          "name": "",
          "type": "uint256"
        }
      ],
      "stateMutability": "view",
      "type": "function"
    },
    {
      "inputs": [
        {
          "internalType": "address",
          "name": "_account",
          "type": "address"
        }
      ],
      "name": "claimableAll",
      "outputs": [
        {
          "internalType": "address[]",
          "name": "",
          "type": "address[]"
        },
        {
          "internalType": "uint256[]",
          "name": "",
          "type": "uint256[]"
        }
      ],
      "stateMutability": "view",
      "type": "function"
    },
    {
      "inputs": [
        {
          "internalType": "address",
          "name": "",
          "type": "address"
        },
        {
          "internalType": "address",
          "name": "",
          "type": "address"
        }
      ],
      "name": "claimableReward",
      "outputs": [
        {
          "internalType": "uint256",
          "name": "",
          "type": "uint256"
        }
      ],
      "stateMutability": "view",
      "type": "function"
    },
    {
      "inputs": [
        {
          "internalType": "address",
          "name": "",
          "type": "address"
        }
      ],
      "name": "cumulativeRewardPerToken",
      "outputs": [
        {
          "internalType": "uint256",
          "name": "",
          "type": "uint256"
        }
      ],
      "stateMutability": "view",
      "type": "function"
    },
    {
      "inputs": [
        {
          "internalType": "address",
          "name": "",
          "type": "address"
        },
        {
          "internalType": "address",
          "name": "",
          "type": "address"
        }
      ],
      "name": "cumulativeRewards",
      "outputs": [
        {
          "internalType": "uint256",
          "name": "",
          "type": "uint256"
        }
      ],
      "stateMutability": "view",
      "type": "function"
    },
    {
      "inputs": [],
      "name": "decimals",
      "outputs": [
        {
          "internalType": "uint8",
          "name": "",
          "type": "uint8"
        }
      ],
      "stateMutability": "view",
      "type": "function"
    },
    {
      "inputs": [
        {
          "internalType": "address",
          "name": "",
          "type": "address"
        },
        {
          "internalType": "address",
          "name": "",
          "type": "address"
        }
      ],
      "name": "depositBalances",
      "outputs": [
        {
          "internalType": "uint256",
          "name": "",
          "type": "uint256"
        }
      ],
      "stateMutability": "view",
      "type": "function"
    },
    {
      "inputs": [],
      "name": "distributor",
      "outputs": [
        {
          "internalType": "address",
          "name": "",
          "type": "address"
        }
      ],
      "stateMutability": "view",
      "type": "function"
    },
    {
      "inputs": [],
      "name": "getAllRewardTokens",
      "outputs": [
        {
          "internalType": "address[]",
          "name": "",
          "type": "address[]"
        }
      ],
      "stateMutability": "view",
      "type": "function"
    },
    {
      "inputs": [],
      "name": "gov",
      "outputs": [
        {
          "internalType": "address",
          "name": "",
          "type": "address"
        }
      ],
      "stateMutability": "view",
      "type": "function"
    },
    {
      "inputs": [
        {
          "internalType": "address",
          "name": "_account",
          "type": "address"
        }
      ],
      "name": "hasCumulativeRewards",
      "outputs": [
        {
          "internalType": "bool",
          "name": "",
          "type": "bool"
        }
      ],
      "stateMutability": "view",
      "type": "function"
    },
    {
      "inputs": [],
      "name": "inPrivateClaimingMode",
      "outputs": [
        {
          "internalType": "bool",
          "name": "",
          "type": "bool"
        }
      ],
      "stateMutability": "view",
      "type": "function"
    },
    {
      "inputs": [],
      "name": "inPrivateStakingMode",
      "outputs": [
        {
          "internalType": "bool",
          "name": "",
          "type": "bool"
        }
      ],
      "stateMutability": "view",
      "type": "function"
    },
    {
      "inputs": [],
      "name": "inPrivateTransferMode",
      "outputs": [
        {
          "internalType": "bool",
          "name": "",
          "type": "bool"
        }
      ],
      "stateMutability": "view",
      "type": "function"
    },
    {
      "inputs": [
        {
          "internalType": "address[]",
          "name": "_depositTokens",
          "type": "address[]"
        },
        {
          "internalType": "address",
          "name": "_distributor",
          "type": "address"
        }
      ],
      "name": "initialize",
      "outputs": [],
      "stateMutability": "nonpayable",
      "type": "function"
    },
    {
      "inputs": [
        {
          "internalType": "address",
          "name": "",
          "type": "address"
        }
      ],
      "name": "isDepositToken",
      "outputs": [
        {
          "internalType": "bool",
          "name": "",
          "type": "bool"
        }
      ],
      "stateMutability": "view",
      "type": "function"
    },
    {
      "inputs": [
        {
          "internalType": "address",
          "name": "",
          "type": "address"
        }
      ],
      "name": "isHandler",
      "outputs": [
        {
          "internalType": "bool",
          "name": "",
          "type": "bool"
        }
      ],
      "stateMutability": "view",
      "type": "function"
    },
    {
      "inputs": [],
      "name": "isInitialized",
      "outputs": [
        {
          "internalType": "bool",
          "name": "",
          "type": "bool"
        }
      ],
      "stateMutability": "view",
      "type": "function"
    },
    {
      "inputs": [],
      "name": "name",
      "outputs": [
        {
          "internalType": "string",
          "name": "",
          "type": "string"
        }
      ],
      "stateMutability": "view",
      "type": "function"
    },
    {
      "inputs": [
        {
          "internalType": "address",
          "name": "",
          "type": "address"
        },
        {
          "internalType": "address",
          "name": "",
          "type": "address"
        }
      ],
      "name": "previousCumulatedRewardPerToken",
      "outputs": [
        {
          "internalType": "uint256",
          "name": "",
          "type": "uint256"
        }
      ],
      "stateMutability": "view",
      "type": "function"
    },
    {
      "inputs": [
        {
          "internalType": "address",
          "name": "_rewardToken",
          "type": "address"
        }
      ],
      "name": "rewardTokens",
      "outputs": [
        {
          "internalType": "bool",
          "name": "",
          "type": "bool"
        }
      ],
      "stateMutability": "view",
      "type": "function"
    },
    {
      "inputs": [
        {
          "internalType": "address",
          "name": "_depositToken",
          "type": "address"
        },
        {
          "internalType": "bool",
          "name": "_isDepositToken",
          "type": "bool"
        }
      ],
      "name": "setDepositToken",
      "outputs": [],
      "stateMutability": "nonpayable",
      "type": "function"
    },
    {
      "inputs": [
        {
          "internalType": "address",
          "name": "_gov",
          "type": "address"
        }
      ],
      "name": "setGov",
      "outputs": [],
      "stateMutability": "nonpayable",
      "type": "function"
    },
    {
      "inputs": [
        {
          "internalType": "address",
          "name": "_handler",
          "type": "address"
        },
        {
          "internalType": "bool",
          "name": "_isActive",
          "type": "bool"
        }
      ],
      "name": "setHandler",
      "outputs": [],
      "stateMutability": "nonpayable",
      "type": "function"
    },
    {
      "inputs": [
        {
          "internalType": "bool",
          "name": "_inPrivateClaimingMode",
          "type": "bool"
        }
      ],
      "name": "setInPrivateClaimingMode",
      "outputs": [],
      "stateMutability": "nonpayable",
      "type": "function"
    },
    {
      "inputs": [
        {
          "internalType": "bool",
          "name": "_inPrivateStakingMode",
          "type": "bool"
        }
      ],
      "name": "setInPrivateStakingMode",
      "outputs": [],
      "stateMutability": "nonpayable",
      "type": "function"
    },
    {
      "inputs": [
        {
          "internalType": "bool",
          "name": "_inPrivateTransferMode",
          "type": "bool"
        }
      ],
      "name": "setInPrivateTransferMode",
      "outputs": [],
      "stateMutability": "nonpayable",
      "type": "function"
    },
    {
      "inputs": [
        {
          "internalType": "address",
          "name": "_depositToken",
          "type": "address"
        },
        {
          "internalType": "uint256",
          "name": "_amount",
          "type": "uint256"
        }
      ],
      "name": "stake",
      "outputs": [],
      "stateMutability": "nonpayable",
      "type": "function"
    },
    {
      "inputs": [
        {
          "internalType": "address",
          "name": "_fundingAccount",
          "type": "address"
        },
        {
          "internalType": "address",
          "name": "_account",
          "type": "address"
        },
        {
          "internalType": "address",
          "name": "_depositToken",
          "type": "address"
        },
        {
          "internalType": "uint256",
          "name": "_amount",
          "type": "uint256"
        }
      ],
      "name": "stakeForAccount",
      "outputs": [],
      "stateMutability": "nonpayable",
      "type": "function"
    },
    {
      "inputs": [
        {
          "internalType": "address",
          "name": "",
          "type": "address"
        }
      ],
      "name": "stakedAmounts",
      "outputs": [
        {
          "internalType": "uint256",
          "name": "",
          "type": "uint256"
        }
      ],
      "stateMutability": "view",
      "type": "function"
    },
    {
      "inputs": [],
      "name": "symbol",
      "outputs": [
        {
          "internalType": "string",
          "name": "",
          "type": "string"
        }
      ],
      "stateMutability": "view",
      "type": "function"
    },
    {
      "inputs": [
        {
          "internalType": "address",
          "name": "_rewardToken",
          "type": "address"
        }
      ],
      "name": "tokensPerInterval",
      "outputs": [
        {
          "internalType": "uint256",
          "name": "",
          "type": "uint256"
        }
      ],
      "stateMutability": "view",
      "type": "function"
    },
    {
      "inputs": [
        {
          "internalType": "address",
          "name": "",
          "type": "address"
        }
      ],
      "name": "totalDepositSupply",
      "outputs": [
        {
          "internalType": "uint256",
          "name": "",
          "type": "uint256"
        }
      ],
      "stateMutability": "view",
      "type": "function"
    },
    {
      "inputs": [],
      "name": "totalSupply",
      "outputs": [
        {
          "internalType": "uint256",
          "name": "",
          "type": "uint256"
        }
      ],
      "stateMutability": "view",
      "type": "function"
    },
    {
      "inputs": [
        {
          "internalType": "address",
          "name": "_recipient",
          "type": "address"
        },
        {
          "internalType": "uint256",
          "name": "_amount",
          "type": "uint256"
        }
      ],
      "name": "transfer",
      "outputs": [
        {
          "internalType": "bool",
          "name": "",
          "type": "bool"
        }
      ],
      "stateMutability": "nonpayable",
      "type": "function"
    },
    {
      "inputs": [
        {
          "internalType": "address",
          "name": "_sender",
          "type": "address"
        },
        {
          "internalType": "address",
          "name": "_recipient",
          "type": "address"
        },
        {
          "internalType": "uint256",
          "name": "_amount",
          "type": "uint256"
        }
      ],
      "name": "transferFrom",
      "outputs": [
        {
          "internalType": "bool",
          "name": "",
          "type": "bool"
        }
      ],
      "stateMutability": "nonpayable",
      "type": "function"
    },
    {
      "inputs": [
        {
          "internalType": "address",
          "name": "_depositToken",
          "type": "address"
        },
        {
          "internalType": "uint256",
          "name": "_amount",
          "type": "uint256"
        }
      ],
      "name": "unstake",
      "outputs": [],
      "stateMutability": "nonpayable",
      "type": "function"
    },
    {
      "inputs": [
        {
          "internalType": "address",
          "name": "_account",
          "type": "address"
        },
        {
          "internalType": "address",
          "name": "_depositToken",
          "type": "address"
        },
        {
          "internalType": "uint256",
          "name": "_amount",
          "type": "uint256"
        },
        {
          "internalType": "address",
          "name": "_receiver",
          "type": "address"
        }
      ],
      "name": "unstakeForAccount",
      "outputs": [],
      "stateMutability": "nonpayable",
      "type": "function"
    },
    {
      "inputs": [
        {
          "internalType": "address",
          "name": "_rewardToken",
          "type": "address"
        }
      ],
      "name": "updateRewards",
      "outputs": [],
      "stateMutability": "nonpayable",
      "type": "function"
    },
    {
      "inputs": [
        {
          "internalType": "address",
          "name": "_token",
          "type": "address"
        },
        {
          "internalType": "address",
          "name": "_account",
          "type": "address"
        },
        {
          "internalType": "uint256",
          "name": "_amount",
          "type": "uint256"
        }
      ],
      "name": "withdrawToken",
      "outputs": [],
      "stateMutability": "nonpayable",
      "type": "function"
    }
  ],
  "bytecode": "0x60806040523480156200001157600080fd5b5060405162003b2838038062003b28833981810160405260408110156200003757600080fd5b81019080805160405193929190846401000000008211156200005857600080fd5b9083019060208201858111156200006e57600080fd5b82516401000000008111828201881017156200008957600080fd5b82525081516020918201929091019080838360005b83811015620000b85781810151838201526020016200009e565b50505050905090810190601f168015620000e65780820380516001836020036101000a031916815260200191505b50604052602001805160405193929190846401000000008211156200010a57600080fd5b9083019060208201858111156200012057600080fd5b82516401000000008111828201881017156200013b57600080fd5b82525081516020918201929091019080838360005b838110156200016a57818101518382015260200162000150565b50505050905090810190601f168015620001985780820380516001836020036101000a031916815260200191505b5060405250506001600081905580546001600160a01b03191633179055508151620001cb906002906020850190620001ea565b508051620001e1906003906020840190620001ea565b50505062000286565b828054600181600116156101000203166002900490600052602060002090601f016020900481019282601f106200022d57805160ff19168380011785556200025d565b828001600101855582156200025d579182015b828111156200025d57825182559160200191906001019062000240565b506200026b9291506200026f565b5090565b5b808211156200026b576000815560010162000270565b61389280620002966000396000f3fe608060405234801561001057600080fd5b506004361061025c5760003560e01c806301e336671461026157806303bc54771461029957806306fdde03146102d9578063095ea7b314610356578063098bf59d1461039657806310c1c103146103d2578063126082cf146103f857806312d43a511461040057806312edb24c1461042457806318160ddd1461047c5780631d30d5bc1461048457806321c0b342146104a357806323b872dd146104d1578063270da2401461050757806327e235e31461052d578063313ce56714610553578063392e53cd146105715780633cd7f70014610579578063462d0b2e1461059857806346ea87af14610644578063552ce1dc1461066a57806355b6ed5c146106905780635a47a1a7146106be5780635aacb6f3146106dd5780635fd619651461079c57806370a08231146107c257806377329f35146107e8578063790b5a6c1461080e57806395d89b411461084a57806395ded45c146108525780639862ddb6146108785780639cb7de4b1461089e5780639e2e6023146108cc578063a39331a8146108fa578063a9059cbb14610928578063aaf5eb6814610954578063adc9772e1461095c578063b89e45b314610988578063bfe10928146109ae578063c2a672e0146109b6578063c5fa2730146109e2578063cb9bb45f146109ea578063cfad57a214610a10578063d26abffa14610a36578063d4570c1c14610a64578063dd62ed3e14610a92578063dfbaefb114610ac0578063e44b755814610ac8578063f5ab16cc14610af6578063f5d9d63e14610b1c578063f76033d314610b4a578063f777b81314610b52575b600080fd5b6102976004803603606081101561027757600080fd5b506001600160a01b03813581169160208101359091169060400135610b8a565b005b6102c7600480360360408110156102af57600080fd5b506001600160a01b0381358116916020013516610bf0565b60408051918252519081900360200190f35b6102e1610c0d565b6040805160208082528351818301528351919283929083019185019080838360005b8381101561031b578181015183820152602001610303565b50505050905090810190601f1680156103485780820380516001836020036101000a031916815260200191505b509250505060405180910390f35b6103826004803603604081101561036c57600080fd5b506001600160a01b038135169060200135610c98565b604080519115158252519081900360200190f35b610297600480360360808110156103ac57600080fd5b506001600160a01b03813581169160208101358216916040820135916060013516610caf565b6102c7600480360360208110156103e857600080fd5b50356001600160a01b0316610d19565b6102c7610d2b565b610408610d31565b604080516001600160a01b039092168252519081900360200190f35b61042c610d40565b60408051602080825283518183015283519192839290830191858101910280838360005b83811015610468578181015183820152602001610450565b505050509050019250505060405180910390f35b6102c7610e5c565b6102976004803603602081101561049a57600080fd5b50351515610e62565b6102c7600480360360408110156104b957600080fd5b506001600160a01b0381358116916020013516610ec9565b610382600480360360608110156104e757600080fd5b506001600160a01b0381358116916020810135909116906040013561103e565b6102c76004803603602081101561051d57600080fd5b50356001600160a01b03166110d8565b6102c76004803603602081101561054357600080fd5b50356001600160a01b0316611170565b61055b611182565b6040805160ff9092168252519081900360200190f35b610382611187565b6102976004803603602081101561058f57600080fd5b50351515611197565b610297600480360360408110156105ae57600080fd5b810190602081018135600160201b8111156105c857600080fd5b8201836020820111156105da57600080fd5b803590602001918460208302840111600160201b831117156105fb57600080fd5b919080806020026020016040519081016040528093929190818152602001838360200280828437600092019190915250929550505090356001600160a01b031691506112009050565b6103826004803603602081101561065a57600080fd5b50356001600160a01b0316611323565b6102c76004803603602081101561068057600080fd5b50356001600160a01b0316611338565b6102c7600480360360408110156106a657600080fd5b506001600160a01b038135811691602001351661134a565b610297600480360360208110156106d457600080fd5b50351515611367565b610703600480360360208110156106f357600080fd5b50356001600160a01b03166113c7565b604051808060200180602001838103835285818151815260200191508051906020019060200280838360005b8381101561074757818101518382015260200161072f565b50505050905001838103825284818151815260200191508051906020019060200280838360005b8381101561078657818101518382015260200161076e565b5050505090500194505050505060405180910390f35b610297600480360360208110156107b257600080fd5b50356001600160a01b03166115c1565b6102c7600480360360208110156107d857600080fd5b50356001600160a01b03166116d7565b610703600480360360208110156107fe57600080fd5b50356001600160a01b03166116f2565b6102976004803603608081101561082457600080fd5b506001600160a01b038135811691602081013582169160408201351690606001356117a1565b6102e1611800565b6103826004803603602081101561086857600080fd5b50356001600160a01b031661185b565b6102c76004803603602081101561088e57600080fd5b50356001600160a01b03166118bf565b610297600480360360408110156108b457600080fd5b506001600160a01b03813516906020013515156118d1565b610703600480360360408110156108e257600080fd5b506001600160a01b0381358116916020013516611949565b6102c76004803603604081101561091057600080fd5b506001600160a01b03813581169160200135166119b9565b6103826004803603604081101561093e57600080fd5b506001600160a01b0381351690602001356119d6565b6102c76119e3565b6102976004803603604081101561097257600080fd5b506001600160a01b0381351690602001356119f3565b6103826004803603602081101561099e57600080fd5b50356001600160a01b0316611a9a565b610408611aaf565b610297600480360360408110156109cc57600080fd5b506001600160a01b038135169060200135611abe565b610382611b5c565b61038260048036036020811015610a0057600080fd5b50356001600160a01b0316611b6a565b61029760048036036020811015610a2657600080fd5b50356001600160a01b0316611cad565b6102c760048036036040811015610a4c57600080fd5b506001600160a01b0381358116916020013516611d1c565b6102c760048036036040811015610a7a57600080fd5b506001600160a01b0381358116916020013516611d39565b6102c760048036036040811015610aa857600080fd5b506001600160a01b0381358116916020013516611faa565b610382611fd5565b61029760048036036040811015610ade57600080fd5b506001600160a01b0381351690602001351515611fde565b61038260048036036020811015610b0c57600080fd5b50356001600160a01b0316612056565b6102c760048036036040811015610b3257600080fd5b506001600160a01b03813581169160200135166120ba565b6103826120d7565b6102c760048036036060811015610b6857600080fd5b506001600160a01b0381358116916020810135821691604090910135166120e6565b6001546001600160a01b03163314610bd7576040805162461bcd60e51b81526020600482015260156024820152600080516020613637833981519152604482015290519081900360640190fd5b610beb6001600160a01b038416838361221c565b505050565b600e60209081526000928352604080842090915290825290205481565b6002805460408051602060018416156101000260001901909316849004601f81018490048402820184019092528181529291830182828015610c905780601f10610c6557610100808354040283529160200191610c90565b820191906000526020600020905b815481529060010190602001808311610c7357829003601f168201915b505050505081565b6000610ca533848461226e565b5060015b92915050565b60026000541415610cf5576040805162461bcd60e51b815260206004820152601f6024820152600080516020613574833981519152604482015290519081900360640190fd5b6002600055610d0261235a565b610d0e848484846123bb565b505060016000555050565b600c6020526000908152604090205481565b61271081565b6001546001600160a01b031681565b6060600460009054906101000a90046001600160a01b03166001600160a01b03166312edb24c6040518163ffffffff1660e01b815260040160006040518083038186803b158015610d9057600080fd5b505afa158015610da4573d6000803e3d6000fd5b505050506040513d6000823e601f3d908101601f191682016040526020811015610dcd57600080fd5b8101908080516040519392919084600160201b821115610dec57600080fd5b908301906020820185811115610e0157600080fd5b82518660208202830111600160201b82111715610e1d57600080fd5b82525081516020918201928201910280838360005b83811015610e4a578181015183820152602001610e32565b50505050905001604052505050905090565b60085481565b6001546001600160a01b03163314610eaf576040805162461bcd60e51b81526020600482015260156024820152600080516020613637833981519152604482015290519081900360640190fd5b601080549115156101000261ff0019909216919091179055565b600060026000541415610f11576040805162461bcd60e51b815260206004820152601f6024820152600080516020613574833981519152604482015290519081900360640190fd5b600260005560105462010000900460ff1615610f5e5760405162461bcd60e51b81526004018080602001828103825260218152602001806137e16021913960400191505060405180910390fd5b600460009054906101000a90046001600160a01b03166001600160a01b03166395ded45c846040518263ffffffff1660e01b815260040180826001600160a01b0316815260200191505060206040518083038186803b158015610fc057600080fd5b505afa158015610fd4573d6000803e3d6000fd5b505050506040513d6020811015610fea57600080fd5b50516110275760405162461bcd60e51b81526004018080602001828103825260238152602001806135bf6023913960400191505060405180910390fd5b6110323384846125b7565b60016000559392505050565b3360009081526011602052604081205460ff161561106957611061848484612658565b5060016110d1565b60006110b383604051806060016040528060308152602001613787603091396001600160a01b0388166000908152600a6020908152604080832033845290915290205491906127ab565b90506110c085338361226e565b6110cb858585612658565b60019150505b9392505050565b6000600460009054906101000a90046001600160a01b03166001600160a01b031663270da240836040518263ffffffff1660e01b815260040180826001600160a01b0316815260200191505060206040518083038186803b15801561113c57600080fd5b505afa158015611150573d6000803e3d6000fd5b505050506040513d602081101561116657600080fd5b505190505b919050565b60096020526000908152604090205481565b601281565b600154600160a01b900460ff1681565b6001546001600160a01b031633146111e4576040805162461bcd60e51b81526020600482015260156024820152600080516020613637833981519152604482015290519081900360640190fd5b60108054911515620100000262ff000019909216919091179055565b6001546001600160a01b0316331461124d576040805162461bcd60e51b81526020600482015260156024820152600080516020613637833981519152604482015290519081900360640190fd5b600154600160a01b900460ff16156112965760405162461bcd60e51b81526004018080602001828103825260228152602001806136f16022913960400191505060405180910390fd5b6001805460ff60a01b1916600160a01b17905560005b82518110156112ff5760008382815181106112c357fe5b6020908102919091018101516001600160a01b03166000908152600590915260409020805460ff191660019081179091559190910190506112ac565b50600480546001600160a01b0319166001600160a01b039290921691909117905550565b60116020526000908152604090205460ff1681565b60076020526000908152604090205481565b600a60209081526000928352604080842090915290825290205481565b6001546001600160a01b031633146113b4576040805162461bcd60e51b81526020600482015260156024820152600080516020613637833981519152604482015290519081900360640190fd5b6010805460ff1916911515919091179055565b6060806000600460009054906101000a90046001600160a01b03166001600160a01b031663286c6a946040518163ffffffff1660e01b815260040160206040518083038186803b15801561141a57600080fd5b505afa15801561142e573d6000803e3d6000fd5b505050506040513d602081101561144457600080fd5b505190506060816001600160401b038111801561146057600080fd5b5060405190808252806020026020018201604052801561148a578160200160208202803683370190505b5090506060826001600160401b03811180156114a557600080fd5b506040519080825280602002602001820160405280156114cf578160200160208202803683370190505b50905060005b838110156115b55760048054604080516327ba031760e21b8152928301849052516000926001600160a01b0390921691639ee80c5c916024808301926020929190829003018186803b15801561152a57600080fd5b505afa15801561153e573d6000803e3d6000fd5b505050506040513d602081101561155457600080fd5b5051905060006115648983611d39565b90508185848151811061157357fe5b60200260200101906001600160a01b031690816001600160a01b031681525050808484815181106115a057fe5b602090810291909101015250506001016114d5565b50909350915050915091565b60026000541415611607576040805162461bcd60e51b815260206004820152601f6024820152600080516020613574833981519152604482015290519081900360640190fd5b60026000556004805460408051632577b51760e21b81526001600160a01b0385811694820194909452905192909116916395ded45c91602480820192602092909190829003018186803b15801561165d57600080fd5b505afa158015611671573d6000803e3d6000fd5b505050506040513d602081101561168757600080fd5b50516116c45760405162461bcd60e51b81526004018080602001828103825260238152602001806135bf6023913960400191505060405180910390fd5b6116cf600082612842565b506001600055565b6001600160a01b031660009081526009602052604090205490565b6060806002600054141561173b576040805162461bcd60e51b815260206004820152601f6024820152600080516020613574833981519152604482015290519081900360640190fd5b600260005560105462010000900460ff16156117885760405162461bcd60e51b81526004018080602001828103825260218152602001806137e16021913960400191505060405180910390fd5b6117923384612979565b60016000559094909350915050565b600260005414156117e7576040805162461bcd60e51b815260206004820152601f6024820152600080516020613574833981519152604482015290519081900360640190fd5b60026000556117f461235a565b610d0e84848484612b73565b6003805460408051602060026001851615610100026000190190941693909304601f81018490048402820184019092528181529291830182828015610c905780601f10610c6557610100808354040283529160200191610c90565b6000600460009054906101000a90046001600160a01b03166001600160a01b03166395ded45c836040518263ffffffff1660e01b815260040180826001600160a01b0316815260200191505060206040518083038186803b15801561113c57600080fd5b600b6020526000908152604090205481565b6001546001600160a01b0316331461191e576040805162461bcd60e51b81526020600482015260156024820152600080516020613637833981519152604482015290519081900360640190fd5b6001600160a01b03919091166000908152601160205260409020805460ff1916911515919091179055565b60608060026000541415611992576040805162461bcd60e51b815260206004820152601f6024820152600080516020613574833981519152604482015290519081900360640190fd5b600260005561199f61235a565b6119a98484612979565b6001600055909590945092505050565b600f60209081526000928352604080842090915290825290205481565b6000610ca5338484612658565b68327cb2734119d3b7a9601e1b81565b60026000541415611a39576040805162461bcd60e51b815260206004820152601f6024820152600080516020613574833981519152604482015290519081900360640190fd5b6002600055601054610100900460ff1615611a855760405162461bcd60e51b81526004018080602001828103825260218152602001806137e16021913960400191505060405180910390fd5b611a9133338484612b73565b50506001600055565b60056020526000908152604090205460ff1681565b6004546001600160a01b031681565b60026000541415611b04576040805162461bcd60e51b815260206004820152601f6024820152600080516020613574833981519152604482015290519081900360640190fd5b6002600055601054610100900460ff1615611b505760405162461bcd60e51b81526004018080602001828103825260218152602001806137e16021913960400191505060405180910390fd5b611a91338383336123bb565b601054610100900460ff1681565b6004805460408051630a1b1aa560e21b8152905160009384936001600160a01b03169263286c6a949281830192602092829003018186803b158015611bae57600080fd5b505afa158015611bc2573d6000803e3d6000fd5b505050506040513d6020811015611bd857600080fd5b5051905060005b81811015611ca35760048054604080516327ba031760e21b8152928301849052516000926001600160a01b0390921691639ee80c5c916024808301926020929190829003018186803b158015611c3457600080fd5b505afa158015611c48573d6000803e3d6000fd5b505050506040513d6020811015611c5e57600080fd5b50516001600160a01b038087166000908152600f602090815260408083209385168352929052205490915015611c9a576001935050505061116b565b50600101611bdf565b5060009392505050565b6001546001600160a01b03163314611cfa576040805162461bcd60e51b81526020600482015260156024820152600080516020613637833981519152604482015290519081900360640190fd5b600180546001600160a01b0319166001600160a01b0392909216919091179055565b600d60209081526000928352604080842090915290825290205481565b6000600460009054906101000a90046001600160a01b03166001600160a01b03166395ded45c836040518263ffffffff1660e01b815260040180826001600160a01b0316815260200191505060206040518083038186803b158015611d9d57600080fd5b505afa158015611db1573d6000803e3d6000fd5b505050506040513d6020811015611dc757600080fd5b5051611e045760405162461bcd60e51b81526004018080602001828103825260238152602001806135bf6023913960400191505060405180910390fd5b6001600160a01b0383166000908152600c602052604090205480611e4f5750506001600160a01b038083166000908152600d6020908152604080832093851683529290522054610ca9565b60085460048054604080516318ebd13160e11b81526001600160a01b03888116948201949094529051600093611ee89368327cb2734119d3b7a9601e1b939116916331d7a26291602480820192602092909190829003018186803b158015611eb657600080fd5b505afa158015611eca573d6000803e3d6000fd5b505050506040513d6020811015611ee057600080fd5b505190612cf0565b90506000611f18611ef98385612d49565b6001600160a01b0388166000908152600b602052604090205490612d88565b6001600160a01b038089166000908152600e60209081526040808320938b1683529290522054909150611f9f90611f739068327cb2734119d3b7a9601e1b90611f6d90611f66908690612de0565b8890612cf0565b90612d49565b6001600160a01b03808a166000908152600d60209081526040808320938c168352929052205490612d88565b979650505050505050565b6001600160a01b039182166000908152600a6020908152604080832093909416825291909152205490565b60105460ff1681565b6001546001600160a01b0316331461202b576040805162461bcd60e51b81526020600482015260156024820152600080516020613637833981519152604482015290519081900360640190fd5b6001600160a01b03919091166000908152600560205260409020805460ff1916911515919091179055565b6000600460009054906101000a90046001600160a01b03166001600160a01b031663f5ab16cc836040518263ffffffff1660e01b815260040180826001600160a01b0316815260200191505060206040518083038186803b15801561113c57600080fd5b600660209081526000928352604080842090915290825290205481565b60105462010000900460ff1681565b60006002600054141561212e576040805162461bcd60e51b815260206004820152601f6024820152600080516020613574833981519152604482015290519081900360640190fd5b600260005561213b61235a565b600460009054906101000a90046001600160a01b03166001600160a01b03166395ded45c846040518263ffffffff1660e01b815260040180826001600160a01b0316815260200191505060206040518083038186803b15801561219d57600080fd5b505afa1580156121b1573d6000803e3d6000fd5b505050506040513d60208110156121c757600080fd5b50516122045760405162461bcd60e51b81526004018080602001828103825260238152602001806135bf6023913960400191505060405180910390fd5b61220f8484846125b7565b6001600055949350505050565b604080516001600160a01b038416602482015260448082018490528251808303909101815260649091019091526020810180516001600160e01b031663a9059cbb60e01b179052610beb908490612e22565b6001600160a01b0383166122b35760405162461bcd60e51b815260040180806020018281038252602c8152602001806135e2602c913960400191505060405180910390fd5b6001600160a01b0382166122f85760405162461bcd60e51b815260040180806020018281038252602a8152602001806136a6602a913960400191505060405180910390fd5b6001600160a01b038084166000818152600a6020908152604080832094871680845294825291829020859055815185815291517f8c5be1e5ebec7d5bd14f71427d1e84f3dd0314c0f7b2291e5b200ac8c7c3b9259281900390910190a3505050565b3360009081526011602052604090205460ff166123b9576040805162461bcd60e51b81526020600482015260186024820152772932bbb0b9322a3930b1b5b2b91d103337b93134b23232b760411b604482015290519081900360640190fd5b565b600082116123fe576040805162461bcd60e51b815260206004820152601e602482015260008051602061352a833981519152604482015290519081900360640190fd5b6001600160a01b03831660009081526005602052604090205460ff166124555760405162461bcd60e51b81526004018080602001828103825260248152602001806136826024913960400191505060405180910390fd5b61245e84612ed3565b6001600160a01b0384166000908152600c6020526040902054828110156124b65760405162461bcd60e51b815260040180806020018281038252602b815260200180613594602b913960400191505060405180910390fd5b6124c08184612de0565b6001600160a01b038087166000908152600c6020908152604080832094909455600681528382209288168252919091522054838110156125315760405162461bcd60e51b815260040180806020018281038252602d815260200180613802602d913960400191505060405180910390fd5b61253b8185612de0565b6001600160a01b038088166000908152600660209081526040808320938a1683529281528282209390935560079092529020546125789085612de0565b6001600160a01b03861660009081526007602052604090205561259b8685612fea565b6125af6001600160a01b038616848661221c565b505050505050565b60006125c38484612842565b6001600160a01b038481166000908152600d60209081526040808320938716835292905290812080549190558015612650576126096001600160a01b038516848361221c565b604080516001600160a01b038681168252602082018490528251908816927f70eb43c4a8ae8c40502dcf22436c509c28d6ff421cf07c491be56984bd987068928290030190a25b949350505050565b6001600160a01b03831661269d5760405162461bcd60e51b815260040180806020018281038252602d815260200180613713602d913960400191505060405180910390fd5b6001600160a01b0382166126e25760405162461bcd60e51b815260040180806020018281038252602b815260200180613657602b913960400191505060405180910390fd5b60105460ff16156126f5576126f561235a565b612732816040518060600160405280602e815260200161382f602e91396001600160a01b03861660009081526009602052604090205491906127ab565b6001600160a01b0380851660009081526009602052604080822093909355908416815220546127619082612d88565b6001600160a01b03808416600081815260096020908152604091829020949094558051858152905191939287169260008051602061376783398151915292918290030190a3505050565b6000818484111561283a5760405162461bcd60e51b81526004018080602001828103825283818151815260200191508051906020019080838360005b838110156127ff5781810151838201526020016127e7565b50505050905090810190601f16801561282c5780820380516001836020036101000a031916815260200191505b509250505060405180910390fd5b505050900390565b6000600460009054906101000a90046001600160a01b03166001600160a01b03166363453ae1836040518263ffffffff1660e01b815260040180826001600160a01b03168152602001915050602060405180830381600087803b1580156128a857600080fd5b505af11580156128bc573d6000803e3d6000fd5b505050506040513d60208110156128d257600080fd5b50516008546001600160a01b0384166000908152600b60205260409020549192509081158015906129035750600083115b1561294a5761292c61292583611f6d8668327cb2734119d3b7a9601e1b612cf0565b8290612d88565b6001600160a01b0385166000908152600b6020526040902081905590505b8061295757505050612975565b6001600160a01b03851615612971576129718585836130c8565b5050505b5050565b6060806000600460009054906101000a90046001600160a01b03166001600160a01b031663286c6a946040518163ffffffff1660e01b815260040160206040518083038186803b1580156129cc57600080fd5b505afa1580156129e0573d6000803e3d6000fd5b505050506040513d60208110156129f657600080fd5b505190506060816001600160401b0381118015612a1257600080fd5b50604051908082528060200260200182016040528015612a3c578160200160208202803683370190505b5090506060826001600160401b0381118015612a5757600080fd5b50604051908082528060200260200182016040528015612a81578160200160208202803683370190505b50905060005b83811015612b665760048054604080516327ba031760e21b8152928301849052516000926001600160a01b0390921691639ee80c5c916024808301926020929190829003018186803b158015612adc57600080fd5b505afa158015612af0573d6000803e3d6000fd5b505050506040513d6020811015612b0657600080fd5b505184519091508190859084908110612b1b57fe5b60200260200101906001600160a01b031690816001600160a01b031681525050612b4689828a6125b7565b838381518110612b5257fe5b602090810291909101015250600101612a87565b5090969095509350505050565b60008111612bb6576040805162461bcd60e51b815260206004820152601e602482015260008051602061352a833981519152604482015290519081900360640190fd5b6001600160a01b03821660009081526005602052604090205460ff16612c0d5760405162461bcd60e51b81526004018080602001828103825260248152602001806136826024913960400191505060405180910390fd5b612c226001600160a01b038316853084613225565b612c2b83612ed3565b6001600160a01b0383166000908152600c6020526040902054612c4e9082612d88565b6001600160a01b038085166000908152600c6020908152604080832094909455600681528382209286168252919091522054612c8a9082612d88565b6001600160a01b0380851660009081526006602090815260408083209387168352928152828220939093556007909252902054612cc79082612d88565b6001600160a01b038316600090815260076020526040902055612cea838261327f565b50505050565b600082612cff57506000610ca9565b82820282848281612d0c57fe5b04146110d15760405162461bcd60e51b81526004018080602001828103825260218152602001806136d06021913960400191505060405180910390fd5b60006110d183836040518060400160405280601a815260200179536166654d6174683a206469766973696f6e206279207a65726f60301b81525061333d565b6000828201838110156110d1576040805162461bcd60e51b815260206004820152601b60248201527a536166654d6174683a206164646974696f6e206f766572666c6f7760281b604482015290519081900360640190fd5b60006110d183836040518060400160405280601e81526020017f536166654d6174683a207375627472616374696f6e206f766572666c6f7700008152506127ab565b6060612e77826040518060400160405280602081526020017f5361666545524332303a206c6f772d6c6576656c2063616c6c206661696c6564815250856001600160a01b03166133a29092919063ffffffff16565b805190915015610beb57808060200190516020811015612e9657600080fd5b5051610beb5760405162461bcd60e51b815260040180806020018281038252602a8152602001806137b7602a913960400191505060405180910390fd5b6000600460009054906101000a90046001600160a01b03166001600160a01b031663286c6a946040518163ffffffff1660e01b815260040160206040518083038186803b158015612f2357600080fd5b505afa158015612f37573d6000803e3d6000fd5b505050506040513d6020811015612f4d57600080fd5b5051905060005b81811015610beb5760048054604080516327ba031760e21b8152928301849052516000926001600160a01b0390921691639ee80c5c916024808301926020929190829003018186803b158015612fa957600080fd5b505afa158015612fbd573d6000803e3d6000fd5b505050506040513d6020811015612fd357600080fd5b50519050612fe18482612842565b50600101612f54565b6001600160a01b03821661302f5760405162461bcd60e51b815260040180806020018281038252602981526020018061360e6029913960400191505060405180910390fd5b61306c816040518060600160405280602a815260200161354a602a91396001600160a01b03851660009081526009602052604090205491906127ab565b6001600160a01b0383166000908152600960205260409020556008546130929082612de0565b6008556040805182815290516000916001600160a01b038516916000805160206137678339815191529181900360200190a35050565b6001600160a01b038084166000908152600c6020908152604080832054600e83528184209487168452939091528120546131209068327cb2734119d3b7a9601e1b90611f6d90613119908790612de0565b8590612cf0565b6001600160a01b038087166000908152600d60209081526040808320938916835292905290812054919250906131569083612d88565b6001600160a01b038088166000818152600d60209081526040808320948b16808452948252808320869055928252600e8152828220938252929092529020859055905080158015906131bf57506001600160a01b0386166000908152600c602052604090205415155b156125af576001600160a01b038087166000908152600f602090815260408083209389168352929052908120546131f69084612d88565b6001600160a01b038089166000908152600f60209081526040808320938b168352929052205550505050505050565b604080516001600160a01b0380861660248301528416604482015260648082018490528251808303909101815260849091019091526020810180516001600160e01b03166323b872dd60e01b179052612cea908590612e22565b6001600160a01b0382166132c45760405162461bcd60e51b81526004018080602001828103825260278152602001806137406027913960400191505060405180910390fd5b6008546132d19082612d88565b6008556001600160a01b0382166000908152600960205260409020546132f79082612d88565b6001600160a01b03831660008181526009602090815260408083209490945583518581529351929391926000805160206137678339815191529281900390910190a35050565b6000818361338c5760405162461bcd60e51b81526020600482018181528351602484015283519092839260449091019190850190808383600083156127ff5781810151838201526020016127e7565b50600083858161339857fe5b0495945050505050565b60606126508484600085856133b6856134bd565b613407576040805162461bcd60e51b815260206004820152601d60248201527f416464726573733a2063616c6c20746f206e6f6e2d636f6e7472616374000000604482015290519081900360640190fd5b60006060866001600160a01b031685876040518082805190602001908083835b602083106134465780518252601f199092019160209182019101613427565b6001836020036101000a03801982511681845116808217855250505050505090500191505060006040518083038185875af1925050503d80600081146134a8576040519150601f19603f3d011682016040523d82523d6000602084013e6134ad565b606091505b5091509150611f9f8282866134c3565b3b151590565b606083156134d25750816110d1565b8251156134e25782518084602001fd5b60405162461bcd60e51b81526020600482018181528451602484015284518593919283926044019190850190808383600083156127ff5781810151838201526020016127e756fe526577617264547261636b65723a20696e76616c6964205f616d6f756e740000526577617264547261636b65723a206275726e20616d6f756e7420657863656564732062616c616e63655265656e7472616e637947756172643a207265656e7472616e742063616c6c00526577617264547261636b65723a205f616d6f756e742065786365656473207374616b6564416d6f756e74526577617264547261636b65723a20696e76616c6964205f726577617264546f6b656e526577617264547261636b65723a20617070726f76652066726f6d20746865207a65726f2061646472657373526577617264547261636b65723a206275726e2066726f6d20746865207a65726f2061646472657373476f7665726e61626c653a20666f7262696464656e0000000000000000000000526577617264547261636b65723a207472616e7366657220746f20746865207a65726f2061646472657373526577617264547261636b65723a20696e76616c6964205f6465706f736974546f6b656e526577617264547261636b65723a20617070726f766520746f20746865207a65726f2061646472657373536166654d6174683a206d756c7469706c69636174696f6e206f766572666c6f77526577617264547261636b65723a20616c726561647920696e697469616c697a6564526577617264547261636b65723a207472616e736665722066726f6d20746865207a65726f2061646472657373526577617264547261636b65723a206d696e7420746f20746865207a65726f2061646472657373ddf252ad1be2c89b69c2b068fc378daa952ba7f163c4a11628f55a4df523b3ef526577617264547261636b65723a207472616e7366657220616d6f756e74206578636565647320616c6c6f77616e63655361666545524332303a204552433230206f7065726174696f6e20646964206e6f742073756363656564526577617264547261636b65723a20616374696f6e206e6f7420656e61626c6564526577617264547261636b65723a205f616d6f756e742065786365656473206465706f73697442616c616e6365526577617264547261636b65723a207472616e7366657220616d6f756e7420657863656564732062616c616e6365a2646970667358221220aa7e62254865ac5ac89ba8f0a991079f0f1c193f6eaf73f53ef806b0dabde63164736f6c634300060c0033",
  "linkReferences": {},
  "deployedLinkReferences": {}
}