{
  "_format": "hh-sol-artifact-1",
  "contractName": "RewardRouterV2",
  "sourceName": "contracts/staking/RewardRouterV2.sol",
  "abi": [
    {
      "anonymous": false,
      "inputs": [
        {
          "indexed": true,
          "internalType": "address",
          "name": "account",
          "type": "address"
        },
        {
          "indexed": false,
          "internalType": "uint256",
          "name": "amount",
          "type": "uint256"
        }
      ],
      "name": "StakeLlp",
      "type": "event"
    },
    {
      "anonymous": false,
      "inputs": [
        {
          "indexed": true,
          "internalType": "address",
          "name": "account",
          "type": "address"
        },
        {
          "indexed": false,
          "internalType": "uint256",
          "name": "amount",
          "type": "uint256"
        }
      ],
      "name": "UnstakeLlp",
      "type": "event"
    },
    {
      "inputs": [
        {
          "internalType": "address",
          "name": "_sender",
          "type": "address"
        }
      ],
      "name": "acceptTransfer",
      "outputs": [],
      "stateMutability": "nonpayable",
      "type": "function"
    },
    {
      "inputs": [
        {
          "internalType": "address",
          "name": "_rewardToken",
          "type": "address"
        },
        {
          "internalType": "bool",
          "name": "_compound",
          "type": "bool"
        },
        {
          "internalType": "bool",
          "name": "_withdrawETH",
          "type": "bool"
        }
      ],
      "name": "claim",
      "outputs": [],
      "stateMutability": "nonpayable",
      "type": "function"
    },
    {
      "inputs": [],
      "name": "feeLlpTracker",
      "outputs": [
        {
          "internalType": "address",
          "name": "",
          "type": "address"
        }
      ],
      "stateMutability": "view",
      "type": "function"
    },
    {
      "inputs": [],
      "name": "llp",
      "outputs": [
        {
          "internalType": "address",
          "name": "",
          "type": "address"
        }
      ],
      "stateMutability": "view",
      "type": "function"
    },
    {
      "inputs": [],
      "name": "llpManager",
      "outputs": [
        {
          "internalType": "address",
          "name": "",
          "type": "address"
        }
      ],
      "stateMutability": "view",
      "type": "function"
    },
    {
      "inputs": [],
      "name": "gov",
      "outputs": [
        {
          "internalType": "address",
          "name": "",
          "type": "address"
        }
      ],
      "stateMutability": "view",
      "type": "function"
    },
    {
      "inputs": [
        {
          "internalType": "bool",
          "name": "_shouldConvertWethToEth",
          "type": "bool"
        },
        {
          "internalType": "bool",
          "name": "_shouldCompound",
          "type": "bool"
        }
      ],
      "name": "handleRewards",
      "outputs": [],
      "stateMutability": "nonpayable",
      "type": "function"
    },
    {
      "inputs": [
        {
          "internalType": "address",
          "name": "_weth",
          "type": "address"
        },
        {
          "internalType": "address",
          "name": "_llp",
          "type": "address"
        },
        {
          "internalType": "address",
          "name": "_vault",
          "type": "address"
        },
        {
          "internalType": "address",
          "name": "_feeLlpTracker",
          "type": "address"
        },
        {
          "internalType": "address",
          "name": "_llpManager",
          "type": "address"
        }
      ],
      "name": "initialize",
      "outputs": [],
      "stateMutability": "nonpayable",
      "type": "function"
    },
    {
      "inputs": [],
      "name": "isInitialized",
      "outputs": [
        {
          "internalType": "bool",
          "name": "",
          "type": "bool"
        }
      ],
      "stateMutability": "view",
      "type": "function"
    },
    {
      "inputs": [
        {
          "internalType": "address",
          "name": "_token",
          "type": "address"
        },
        {
          "internalType": "uint256",
          "name": "_amount",
          "type": "uint256"
        },
        {
          "internalType": "uint256",
          "name": "_minUsdf",
          "type": "uint256"
        },
        {
          "internalType": "uint256",
          "name": "_minLlp",
          "type": "uint256"
        }
      ],
      "name": "mintAndStakeLlp",
      "outputs": [
        {
          "internalType": "uint256",
          "name": "",
          "type": "uint256"
        }
      ],
      "stateMutability": "nonpayable",
      "type": "function"
    },
    {
      "inputs": [
        {
          "internalType": "uint256",
          "name": "_minUsdf",
          "type": "uint256"
        },
        {
          "internalType": "uint256",
          "name": "_minLlp",
          "type": "uint256"
        }
      ],
      "name": "mintAndStakeLlpETH",
      "outputs": [
        {
          "internalType": "uint256",
          "name": "",
          "type": "uint256"
        }
      ],
      "stateMutability": "payable",
      "type": "function"
    },
    {
      "inputs": [
        {
          "internalType": "address",
          "name": "",
          "type": "address"
        }
      ],
      "name": "pendingReceivers",
      "outputs": [
        {
          "internalType": "address",
          "name": "",
          "type": "address"
        }
      ],
      "stateMutability": "view",
      "type": "function"
    },
    {
      "inputs": [
        {
          "internalType": "address",
          "name": "_gov",
          "type": "address"
        }
      ],
      "name": "setGov",
      "outputs": [],
      "stateMutability": "nonpayable",
      "type": "function"
    },
    {
      "inputs": [
        {
          "internalType": "address",
          "name": "_receiver",
          "type": "address"
        }
      ],
      "name": "signalTransfer",
      "outputs": [],
      "stateMutability": "nonpayable",
      "type": "function"
    },
    {
      "inputs": [
        {
          "internalType": "address",
          "name": "_tokenOut",
          "type": "address"
        },
        {
          "internalType": "uint256",
          "name": "_llpAmount",
          "type": "uint256"
        },
        {
          "internalType": "uint256",
          "name": "_minOut",
          "type": "uint256"
        },
        {
          "internalType": "address",
          "name": "_receiver",
          "type": "address"
        }
      ],
      "name": "unstakeAndRedeemLlp",
      "outputs": [
        {
          "internalType": "uint256",
          "name": "",
          "type": "uint256"
        }
      ],
      "stateMutability": "nonpayable",
      "type": "function"
    },
    {
      "inputs": [
        {
          "internalType": "uint256",
          "name": "_llpAmount",
          "type": "uint256"
        },
        {
          "internalType": "uint256",
          "name": "_minOut",
          "type": "uint256"
        },
        {
          "internalType": "address payable",
          "name": "_receiver",
          "type": "address"
        }
      ],
      "name": "unstakeAndRedeemLlpETH",
      "outputs": [
        {
          "internalType": "uint256",
          "name": "",
          "type": "uint256"
        }
      ],
      "stateMutability": "nonpayable",
      "type": "function"
    },
    {
      "inputs": [],
      "name": "vault",
      "outputs": [
        {
          "internalType": "address",
          "name": "",
          "type": "address"
        }
      ],
      "stateMutability": "view",
      "type": "function"
    },
    {
      "inputs": [],
      "name": "weth",
      "outputs": [
        {
          "internalType": "address",
          "name": "",
          "type": "address"
        }
      ],
      "stateMutability": "view",
      "type": "function"
    },
    {
      "inputs": [
        {
          "internalType": "address",
          "name": "_token",
          "type": "address"
        },
        {
          "internalType": "address",
          "name": "_account",
          "type": "address"
        },
        {
          "internalType": "uint256",
          "name": "_amount",
          "type": "uint256"
        }
      ],
      "name": "withdrawToken",
      "outputs": [],
      "stateMutability": "nonpayable",
      "type": "function"
    },
    {
      "stateMutability": "payable",
      "type": "receive"
    }
  ],
  "bytecode": "0x608060405234801561001057600080fd5b506001600081905580546001600160a01b0319163317905561251a806100376000396000f3fe6080604052600436106100e85760003560e01c806301e336671461012757806312d43a51146101475780631459457a146101725780631cd26b1314610192578063392e53cd146101bf5780633fc8cef3146101e15780634864ce25146101f6578063655603a41461020b5780636907ab371461022b5780637bd23cc91461024b578063800eabe514610260578063a799d97514610280578063bcea264514610295578063cfad57a2146102b5578063e1b9db89146102d5578063e7cf6c10146102f5578063ef9aacfd14610315578063fbfa77cf14610335578063fd34119c1461034a57610122565b36610122576002546001600160a01b031633146101205760405162461bcd60e51b815260040161011790612030565b60405180910390fd5b005b600080fd5b34801561013357600080fd5b50610120610142366004611c23565b61035d565b34801561015357600080fd5b5061015c6103a0565b6040516101699190611eca565b60405180910390f35b34801561017e57600080fd5b5061012061018d366004611bb3565b6103af565b34801561019e57600080fd5b506101b26101ad366004611cf6565b610476565b6040516101699190612400565b3480156101cb57600080fd5b506101d46104db565b6040516101699190611ff2565b3480156101ed57600080fd5b5061015c6104eb565b34801561020257600080fd5b5061015c6104fa565b34801561021757600080fd5b50610120610226366004611b97565b610509565b34801561023757600080fd5b50610120610246366004611c63565b610823565b34801561025757600080fd5b5061015c610c7f565b34801561026c57600080fd5b506101b261027b366004611e7e565b610c8e565b34801561028c57600080fd5b5061015c610e85565b3480156102a157600080fd5b506101b26102b0366004611cad565b610e94565b3480156102c157600080fd5b506101206102d0366004611b97565b611014565b3480156102e157600080fd5b5061015c6102f0366004611b97565b611060565b34801561030157600080fd5b50610120610310366004611e0d565b61107b565b34801561032157600080fd5b50610120610330366004611b97565b611427565b34801561034157600080fd5b5061015c611482565b6101b2610358366004611e5d565b611491565b6001546001600160a01b031633146103875760405162461bcd60e51b8152600401610117906122ad565b61039b6001600160a01b0384168383611558565b505050565b6001546001600160a01b031681565b6001546001600160a01b031633146103d95760405162461bcd60e51b8152600401610117906122ad565b600154600160a01b900460ff16156104035760405162461bcd60e51b815260040161011790612174565b6001805460ff60a01b1916600160a01b179055600280546001600160a01b039687166001600160a01b031991821617909155600380549587169582169590951790945560068054938616938516939093179092556005805491851691841691909117905560048054919093169116179055565b60006002600054141561049b5760405162461bcd60e51b8152600401610117906123c9565b6002600055836104bd5760405162461bcd60e51b815260040161011790612232565b336104cc8180888888886115ae565b60016000559695505050505050565b600154600160a01b900460ff1681565b6002546001600160a01b031681565b6004546001600160a01b031681565b6002600054141561052c5760405162461bcd60e51b8152600401610117906123c9565b600260009081556001600160a01b0382811682526007602052604090912054339116811461056c5760405162461bcd60e51b815260040161011790612269565b6004805460408051633526931560e01b815290514293610672936001600160a01b031692633526931592818301926020928290030181600087803b1580156105b357600080fd5b505af11580156105c7573d6000803e3d6000fd5b505050506040513d601f19601f820116820180604052508101906105eb9190611e45565b60048054604051638b770e1160e01b81526001600160a01b0390911691638b770e119161061a91899101611eca565b602060405180830381600087803b15801561063457600080fd5b505af1158015610648573d6000803e3d6000fd5b505050506040513d601f19601f8201168201806040525081019061066c9190611e45565b906116e6565b11156106905760405162461bcd60e51b815260040161011790612095565b6001600160a01b0380831660009081526007602052604080822080546001600160a01b03191690556005546003549151637aeceb1f60e11b815292939081169263f5d9d63e926106e7928892911690600401611f17565b60206040518083038186803b1580156106ff57600080fd5b505afa158015610713573d6000803e3d6000fd5b505050506040513d601f19601f820116820180604052508101906107379190611e45565b905080156108195760055460035460405163098bf59d60e01b81526001600160a01b039283169263098bf59d9261077a9288929091169086908390600401611f7e565b600060405180830381600087803b15801561079457600080fd5b505af11580156107a8573d6000803e3d6000fd5b5050600554600354604051631e42d69b60e21b81526001600160a01b03928316945063790b5a6c93506107e692889288929116908790600401611f54565b600060405180830381600087803b15801561080057600080fd5b505af1158015610814573d6000803e3d6000fd5b505050505b5050600160005550565b600260005414156108465760405162461bcd60e51b8152600401610117906123c9565b6002600055600554604051632577b51760e21b81526001600160a01b03909116906395ded45c9061087b908690600401611eca565b60206040518083038186803b15801561089357600080fd5b505afa1580156108a7573d6000803e3d6000fd5b505050506040513d601f19601f820116820180604052508101906108cb9190611df1565b6108e75760405162461bcd60e51b815260040161011790612392565b338280156109705750600654604051630daf9c2160e41b81526001600160a01b039091169063daf9c21090610920908790600401611eca565b60206040518083038186803b15801561093857600080fd5b505afa15801561094c573d6000803e3d6000fd5b505050506040513d601f19601f820116820180604052508101906109709190611df1565b15610ac85760055460405163f777b81360e01b81526000916001600160a01b03169063f777b813906109aa90859089903090600401611f31565b602060405180830381600087803b1580156109c457600080fd5b505af11580156109d8573d6000803e3d6000fd5b505050506040513d601f19601f820116820180604052508101906109fc9190611e45565b90508015610ac2576002546001600160a01b0386811691161415610a2c57610a2681600080611714565b50610ac2565b6004805460405163095ea7b360e01b81526001600160a01b038089169363095ea7b393610a5e93921691869101611fd9565b602060405180830381600087803b158015610a7857600080fd5b505af1158015610a8c573d6000803e3d6000fd5b505050506040513d601f19601f82011682018060405250810190610ab09190611df1565b50610ac0308387846000806115ae565b505b50610c74565b818015610ae257506002546001600160a01b038581169116145b15610bec5760055460405163f777b81360e01b81526000916001600160a01b03169063f777b81390610b1c90859089903090600401611f31565b602060405180830381600087803b158015610b3657600080fd5b505af1158015610b4a573d6000803e3d6000fd5b505050506040513d601f19601f82011682018060405250810190610b6e9190611e45565b90508015610ac257600254604051632e1a7d4d60e01b81526001600160a01b0390911690632e1a7d4d90610ba6908490600401612400565b600060405180830381600087803b158015610bc057600080fd5b505af1158015610bd4573d6000803e3d6000fd5b50610ac2925050506001600160a01b038316826118dc565b60055460405163f777b81360e01b81526001600160a01b039091169063f777b81390610c2090849088908290600401611f31565b602060405180830381600087803b158015610c3a57600080fd5b505af1158015610c4e573d6000803e3d6000fd5b505050506040513d601f19601f82011682018060405250810190610c729190611e45565b505b505060016000555050565b6003546001600160a01b031681565b600060026000541415610cb35760405162461bcd60e51b8152600401610117906123c9565b600260005583610cd55760405162461bcd60e51b8152600401610117906122dc565b60055460035460405163098bf59d60e01b815233926001600160a01b039081169263098bf59d92610d1092869216908a908390600401611f7e565b600060405180830381600087803b158015610d2a57600080fd5b505af1158015610d3e573d6000803e3d6000fd5b5050600480546002546040516371d597ad60e01b8152600095506001600160a01b0392831694506371d597ad93610d7f93889316918c918c91309101611fa9565b602060405180830381600087803b158015610d9957600080fd5b505af1158015610dad573d6000803e3d6000fd5b505050506040513d601f19601f82011682018060405250810190610dd19190611e45565b600254604051632e1a7d4d60e01b81529192506001600160a01b031690632e1a7d4d90610e02908490600401612400565b600060405180830381600087803b158015610e1c57600080fd5b505af1158015610e30573d6000803e3d6000fd5b50610e48925050506001600160a01b038516826118dc565b816001600160a01b03166000805160206124a583398151915287604051610e6f9190612400565b60405180910390a2600160005595945050505050565b6005546001600160a01b031681565b600060026000541415610eb95760405162461bcd60e51b8152600401610117906123c9565b600260005583610edb5760405162461bcd60e51b8152600401610117906122dc565b60055460035460405163098bf59d60e01b815233926001600160a01b039081169263098bf59d92610f1692869216908a908390600401611f7e565b600060405180830381600087803b158015610f3057600080fd5b505af1158015610f44573d6000803e3d6000fd5b5050600480546040516371d597ad60e01b8152600094506001600160a01b0390911692506371d597ad91610f829186918c918c918c918c9101611fa9565b602060405180830381600087803b158015610f9c57600080fd5b505af1158015610fb0573d6000803e3d6000fd5b505050506040513d601f19601f82011682018060405250810190610fd49190611e45565b9050816001600160a01b03166000805160206124a583398151915287604051610ffd9190612400565b60405180910390a260016000559695505050505050565b6001546001600160a01b0316331461103e5760405162461bcd60e51b8152600401610117906122ad565b600180546001600160a01b0319166001600160a01b0392909216919091179055565b6007602052600090815260409020546001600160a01b031681565b6002600054141561109e5760405162461bcd60e51b8152600401610117906123c9565b60026000553382806110ad5750815b1561139357600554604051639e2e602360e01b815260609182916001600160a01b0390911690639e2e6023906110e99086903090600401611f17565b600060405180830381600087803b15801561110357600080fd5b505af1158015611117573d6000803e3d6000fd5b505050506040513d6000823e601f3d908101601f1916820160405261113f9190810190611d30565b9150915060005b825181101561138b57600083828151811061115d57fe5b60200260200101519050600083838151811061117557fe5b602002602001015190506000811115611381578680156112105750600654604051630daf9c2160e41b81526001600160a01b039091169063daf9c210906111c0908590600401611eca565b60206040518083038186803b1580156111d857600080fd5b505afa1580156111ec573d6000803e3d6000fd5b505050506040513d601f19601f820116820180604052508101906112109190611df1565b156112d8576002546001600160a01b038381169116141561123d5761123781600080611714565b506112d3565b6004805460405163095ea7b360e01b81526001600160a01b038086169363095ea7b39361126f93921691869101611fd9565b602060405180830381600087803b15801561128957600080fd5b505af115801561129d573d6000803e3d6000fd5b505050506040513d601f19601f820116820180604052508101906112c19190611df1565b506112d1308784846000806115ae565b505b611381565b8780156112f257506002546001600160a01b038381169116145b1561136d57600254604051632e1a7d4d60e01b81526001600160a01b0390911690632e1a7d4d90611327908490600401612400565b600060405180830381600087803b15801561134157600080fd5b505af1158015611355573d6000803e3d6000fd5b506112d3925050506001600160a01b038716826118dc565b6113816001600160a01b0383168783611558565b5050600101611146565b505050610819565b600554604051639e2e602360e01b81526001600160a01b0390911690639e2e6023906113c59084908190600401611f17565b600060405180830381600087803b1580156113df57600080fd5b505af11580156113f3573d6000803e3d6000fd5b505050506040513d6000823e601f3d908101601f1916820160405261141b9190810190611d30565b50505050600160005550565b6002600054141561144a5760405162461bcd60e51b8152600401610117906123c9565b6002600090815533815260076020526040812080546001600160a01b0319166001600160a01b03939093169290921790915560019055565b6006546001600160a01b031681565b6000600260005414156114b65760405162461bcd60e51b8152600401610117906123c9565b6002600055346114d85760405162461bcd60e51b8152600401610117906120e3565b600260009054906101000a90046001600160a01b03166001600160a01b031663d0e30db0346040518263ffffffff1660e01b81526004016000604051808303818588803b15801561152857600080fd5b505af115801561153c573d6000803e3d6000fd5b505050505061154c348484611714565b60016000559392505050565b61039b8363a9059cbb60e01b8484604051602401611577929190611fd9565b60408051601f198184030181529190526020810180516001600160e01b03166001600160e01b031990931692909217909152611978565b600480546040516317eb2a1560e01b815260009283926001600160a01b0316916317eb2a15916115ea918c918c918c918c918c918c9101611ede565b602060405180830381600087803b15801561160457600080fd5b505af1158015611618573d6000803e3d6000fd5b505050506040513d601f19601f8201168201806040525081019061163c9190611e45565b600554600354604051631e42d69b60e21b81529293506001600160a01b039182169263790b5a6c9261167a928c928392909116908790600401611f54565b600060405180830381600087803b15801561169457600080fd5b505af11580156116a8573d6000803e3d6000fd5b50505050866001600160a01b03166000805160206124c5833981519152826040516116d39190612400565b60405180910390a2979650505050505050565b60008282018381101561170b5760405162461bcd60e51b815260040161011790612060565b90505b92915050565b6002546004805460405163095ea7b360e01b81526000936001600160a01b039081169363095ea7b39361174c93921691899101611fd9565b602060405180830381600087803b15801561176657600080fd5b505af115801561177a573d6000803e3d6000fd5b505050506040513d601f19601f8201168201806040525081019061179e9190611df1565b50600480546002546040516317eb2a1560e01b815233936000936001600160a01b03908116936317eb2a15936117e0933093899316918d918d918d9101611ede565b602060405180830381600087803b1580156117fa57600080fd5b505af115801561180e573d6000803e3d6000fd5b505050506040513d601f19601f820116820180604052508101906118329190611e45565b600554600354604051631e42d69b60e21b81529293506001600160a01b039182169263790b5a6c926118709287928392909116908790600401611f54565b600060405180830381600087803b15801561188a57600080fd5b505af115801561189e573d6000803e3d6000fd5b50505050816001600160a01b03166000805160206124c5833981519152826040516118c99190612400565b60405180910390a29150505b9392505050565b804710156118fc5760405162461bcd60e51b8152600401610117906121b5565b6000826001600160a01b03168260405161191590611ec7565b60006040518083038185875af1925050503d8060008114611952576040519150601f19603f3d011682016040523d82523d6000602084013e611957565b606091505b505090508061039b5760405162461bcd60e51b81526004016101179061211a565b60606119cd826040518060400160405280602081526020017f5361666545524332303a206c6f772d6c6576656c2063616c6c206661696c6564815250856001600160a01b0316611a079092919063ffffffff16565b80519091501561039b57808060200190518101906119eb9190611df1565b61039b5760405162461bcd60e51b815260040161011790612348565b6060611a168484600085611a1e565b949350505050565b606082471015611a405760405162461bcd60e51b8152600401610117906121ec565b611a4985611adf565b611a655760405162461bcd60e51b815260040161011790612311565b60006060866001600160a01b03168587604051611a829190611eab565b60006040518083038185875af1925050503d8060008114611abf576040519150601f19603f3d011682016040523d82523d6000602084013e611ac4565b606091505b5091509150611ad4828286611ae5565b979650505050505050565b3b151590565b60608315611af45750816118d5565b825115611b045782518084602001fd5b8160405162461bcd60e51b81526004016101179190611ffd565b805161170e8161247e565b600082601f830112611b39578081fd5b8151611b4c611b478261242f565b612409565b818152915060208083019084810181840286018201871015611b6d57600080fd5b60005b84811015611b8c57815184529282019290820190600101611b70565b505050505092915050565b600060208284031215611ba8578081fd5b813561170b8161247e565b600080600080600060a08688031215611bca578081fd5b8535611bd58161247e565b94506020860135611be58161247e565b93506040860135611bf58161247e565b92506060860135611c058161247e565b91506080860135611c158161247e565b809150509295509295909350565b600080600060608486031215611c37578283fd5b8335611c428161247e565b92506020840135611c528161247e565b929592945050506040919091013590565b600080600060608486031215611c77578283fd5b8335611c828161247e565b92506020840135611c9281612496565b91506040840135611ca281612496565b809150509250925092565b60008060008060808587031215611cc2578384fd5b8435611ccd8161247e565b935060208501359250604085013591506060850135611ceb8161247e565b939692955090935050565b60008060008060808587031215611d0b578384fd5b8435611d168161247e565b966020860135965060408601359560600135945092505050565b60008060408385031215611d42578182fd5b82516001600160401b0380821115611d58578384fd5b818501915085601f830112611d6b578384fd5b8151611d79611b478261242f565b80828252602080830192508086018a828387028901011115611d99578889fd5b8896505b84871015611dc357611daf8b82611b1e565b845260019690960195928101928101611d9d565b508801519096509350505080821115611dda578283fd5b50611de785828601611b29565b9150509250929050565b600060208284031215611e02578081fd5b815161170b81612496565b60008060408385031215611e1f578182fd5b8235611e2a81612496565b91506020830135611e3a81612496565b809150509250929050565b600060208284031215611e56578081fd5b5051919050565b60008060408385031215611e6f578182fd5b50508035926020909101359150565b600080600060608486031215611e92578081fd5b83359250602084013591506040840135611ca28161247e565b60008251611ebd81846020870161244e565b9190910192915050565b90565b6001600160a01b0391909116815260200190565b6001600160a01b03968716815294861660208601529290941660408401526060830152608082019290925260a081019190915260c00190565b6001600160a01b0392831681529116602082015260400190565b6001600160a01b0393841681529183166020830152909116604082015260600190565b6001600160a01b039485168152928416602084015292166040820152606081019190915260800190565b6001600160a01b03948516815292841660208401526040830191909152909116606082015260800190565b6001600160a01b039586168152938516602085015260408401929092526060830152909116608082015260a00190565b6001600160a01b03929092168252602082015260400190565b901515815260200190565b600060208252825180602084015261201c81604085016020870161244e565b601f01601f19169190910160400192915050565b6020808252601690820152752937baba32b91d1034b73b30b634b21039b2b73232b960511b604082015260600190565b6020808252601b908201527a536166654d6174683a206164646974696f6e206f766572666c6f7760281b604082015260600190565b6020808252602e908201527f526577617264526f757465723a20636f6f6c646f776e206475726174696f6e2060408201526d1b9bdd081e595d081c185cdcd95960921b606082015260800190565b6020808252601f908201527f526577617264526f757465723a20696e76616c6964206d73672e76616c756500604082015260600190565b6020808252603a908201527f416464726573733a20756e61626c6520746f2073656e642076616c75652c20726040820152791958da5c1a595b9d081b585e481a185d99481c995d995c9d195960321b606082015260800190565b60208082526021908201527f526577617264526f757465723a20616c726561647920696e697469616c697a656040820152601960fa1b606082015260800190565b6020808252601d908201527f416464726573733a20696e73756666696369656e742062616c616e6365000000604082015260600190565b60208082526026908201527f416464726573733a20696e73756666696369656e742062616c616e636520666f6040820152651c8818d85b1b60d21b606082015260800190565b6020808252601d908201527f526577617264526f757465723a20696e76616c6964205f616d6f756e74000000604082015260600190565b60208082526024908201527f526577617264526f757465723a207472616e73666572206e6f74207369676e616040820152631b1b195960e21b606082015260800190565b60208082526015908201527423b7bb32b93730b136329d103337b93134b23232b760591b604082015260600190565b6020808252818101527f526577617264526f757465723a20696e76616c6964205f666c70416d6f756e74604082015260600190565b6020808252601d908201527f416464726573733a2063616c6c20746f206e6f6e2d636f6e7472616374000000604082015260600190565b6020808252602a908201527f5361666545524332303a204552433230206f7065726174696f6e20646964206e6040820152691bdd081cdd58d8d9595960b21b606082015260800190565b6020808252601e908201527f526577617264526f757465723a206e6f74205f726577617264546f6b656e0000604082015260600190565b6020808252601f908201527f5265656e7472616e637947756172643a207265656e7472616e742063616c6c00604082015260600190565b90815260200190565b6040518181016001600160401b038111828210171561242757600080fd5b604052919050565b60006001600160401b03821115612444578081fd5b5060209081020190565b60005b83811015612469578181015183820152602001612451565b83811115612478576000848401525b50505050565b6001600160a01b038116811461249357600080fd5b50565b801515811461249357600080fdfea84ce6aaafd318f648dfed0b78a757dcb88a7cf3b4007e577b61710d122d6f6ce2f83277ce4d0839bdbf7bef339367a3af34e56d832103eaf3ee47d5f223e430a2646970667358221220c348f32adbae387f811ce02f4e57694cdfda1f4a21990aca1e7b09d78aa1cad864736f6c634300060c0033",
  "linkReferences": {},
  "deployedLinkReferences": {}
}