{
  "_format": "hh-sol-artifact-1",
  "contractName": "RewardRouterV2",
  "sourceName": "contracts/staking/RewardRouterV2.sol",
  "abi": [
    {
      "anonymous": false,
      "inputs": [
        {
          "indexed": true,
          "internalType": "address",
          "name": "account",
          "type": "address"
        },
        {
          "indexed": false,
          "internalType": "uint256",
          "name": "amount",
          "type": "uint256"
        }
      ],
      "name": "StakeLlp",
      "type": "event"
    },
    {
      "anonymous": false,
      "inputs": [
        {
          "indexed": true,
          "internalType": "address",
          "name": "account",
          "type": "address"
        },
        {
          "indexed": false,
          "internalType": "uint256",
          "name": "amount",
          "type": "uint256"
        }
      ],
      "name": "UnstakeLlp",
      "type": "event"
    },
    {
      "inputs": [
        {
          "internalType": "address",
          "name": "_sender",
          "type": "address"
        }
      ],
      "name": "acceptTransfer",
      "outputs": [],
      "stateMutability": "nonpayable",
      "type": "function"
    },
    {
      "inputs": [
        {
          "internalType": "address",
          "name": "_rewardToken",
          "type": "address"
        },
        {
          "internalType": "bool",
          "name": "_compound",
          "type": "bool"
        },
        {
          "internalType": "bool",
          "name": "_withdrawETH",
          "type": "bool"
        },
        {
          "internalType": "uint256",
          "name": "_minUsdl",
          "type": "uint256"
        },
        {
          "internalType": "uint256",
          "name": "_minLlp",
          "type": "uint256"
        }
      ],
      "name": "claim",
      "outputs": [],
      "stateMutability": "nonpayable",
      "type": "function"
    },
    {
      "inputs": [],
      "name": "feeLlpTracker",
      "outputs": [
        {
          "internalType": "address",
          "name": "",
          "type": "address"
        }
      ],
      "stateMutability": "view",
      "type": "function"
    },
    {
      "inputs": [],
      "name": "gov",
      "outputs": [
        {
          "internalType": "address",
          "name": "",
          "type": "address"
        }
      ],
      "stateMutability": "view",
      "type": "function"
    },
    {
      "inputs": [
        {
          "internalType": "bool",
          "name": "_shouldConvertWethToEth",
          "type": "bool"
        },
        {
          "internalType": "bool",
          "name": "_shouldCompound",
          "type": "bool"
        },
        {
          "internalType": "uint256",
          "name": "_minUsdl",
          "type": "uint256"
        },
        {
          "internalType": "uint256",
          "name": "_minLlp",
          "type": "uint256"
        }
      ],
      "name": "handleRewards",
      "outputs": [],
      "stateMutability": "nonpayable",
      "type": "function"
    },
    {
      "inputs": [
        {
          "internalType": "address",
          "name": "_weth",
          "type": "address"
        },
        {
          "internalType": "address",
          "name": "_llp",
          "type": "address"
        },
        {
          "internalType": "address",
          "name": "_vault",
          "type": "address"
        },
        {
          "internalType": "address",
          "name": "_feeLlpTracker",
          "type": "address"
        },
        {
          "internalType": "address",
          "name": "_llpManager",
          "type": "address"
        }
      ],
      "name": "initialize",
      "outputs": [],
      "stateMutability": "nonpayable",
      "type": "function"
    },
    {
      "inputs": [],
      "name": "isInitialized",
      "outputs": [
        {
          "internalType": "bool",
          "name": "",
          "type": "bool"
        }
      ],
      "stateMutability": "view",
      "type": "function"
    },
    {
      "inputs": [],
      "name": "llp",
      "outputs": [
        {
          "internalType": "address",
          "name": "",
          "type": "address"
        }
      ],
      "stateMutability": "view",
      "type": "function"
    },
    {
      "inputs": [],
      "name": "llpManager",
      "outputs": [
        {
          "internalType": "address",
          "name": "",
          "type": "address"
        }
      ],
      "stateMutability": "view",
      "type": "function"
    },
    {
      "inputs": [
        {
          "internalType": "address",
          "name": "_token",
          "type": "address"
        },
        {
          "internalType": "uint256",
          "name": "_amount",
          "type": "uint256"
        },
        {
          "internalType": "uint256",
          "name": "_minUsdl",
          "type": "uint256"
        },
        {
          "internalType": "uint256",
          "name": "_minLlp",
          "type": "uint256"
        }
      ],
      "name": "mintAndStakeLlp",
      "outputs": [
        {
          "internalType": "uint256",
          "name": "",
          "type": "uint256"
        }
      ],
      "stateMutability": "nonpayable",
      "type": "function"
    },
    {
      "inputs": [
        {
          "internalType": "uint256",
          "name": "_minUsdl",
          "type": "uint256"
        },
        {
          "internalType": "uint256",
          "name": "_minLlp",
          "type": "uint256"
        }
      ],
      "name": "mintAndStakeLlpETH",
      "outputs": [
        {
          "internalType": "uint256",
          "name": "",
          "type": "uint256"
        }
      ],
      "stateMutability": "payable",
      "type": "function"
    },
    {
      "inputs": [
        {
          "internalType": "address",
          "name": "",
          "type": "address"
        }
      ],
      "name": "pendingReceivers",
      "outputs": [
        {
          "internalType": "address",
          "name": "",
          "type": "address"
        }
      ],
      "stateMutability": "view",
      "type": "function"
    },
    {
      "inputs": [
        {
          "internalType": "address",
          "name": "_gov",
          "type": "address"
        }
      ],
      "name": "setGov",
      "outputs": [],
      "stateMutability": "nonpayable",
      "type": "function"
    },
    {
      "inputs": [
        {
          "internalType": "address",
          "name": "_receiver",
          "type": "address"
        }
      ],
      "name": "signalTransfer",
      "outputs": [],
      "stateMutability": "nonpayable",
      "type": "function"
    },
    {
      "inputs": [
        {
          "internalType": "address",
          "name": "_tokenOut",
          "type": "address"
        },
        {
          "internalType": "uint256",
          "name": "_llpAmount",
          "type": "uint256"
        },
        {
          "internalType": "uint256",
          "name": "_minOut",
          "type": "uint256"
        },
        {
          "internalType": "address",
          "name": "_receiver",
          "type": "address"
        }
      ],
      "name": "unstakeAndRedeemLlp",
      "outputs": [
        {
          "internalType": "uint256",
          "name": "",
          "type": "uint256"
        }
      ],
      "stateMutability": "nonpayable",
      "type": "function"
    },
    {
      "inputs": [
        {
          "internalType": "uint256",
          "name": "_llpAmount",
          "type": "uint256"
        },
        {
          "internalType": "uint256",
          "name": "_minOut",
          "type": "uint256"
        },
        {
          "internalType": "address payable",
          "name": "_receiver",
          "type": "address"
        }
      ],
      "name": "unstakeAndRedeemLlpETH",
      "outputs": [
        {
          "internalType": "uint256",
          "name": "",
          "type": "uint256"
        }
      ],
      "stateMutability": "nonpayable",
      "type": "function"
    },
    {
      "inputs": [],
      "name": "vault",
      "outputs": [
        {
          "internalType": "address",
          "name": "",
          "type": "address"
        }
      ],
      "stateMutability": "view",
      "type": "function"
    },
    {
      "inputs": [],
      "name": "weth",
      "outputs": [
        {
          "internalType": "address",
          "name": "",
          "type": "address"
        }
      ],
      "stateMutability": "view",
      "type": "function"
    },
    {
      "inputs": [
        {
          "internalType": "address",
          "name": "_token",
          "type": "address"
        },
        {
          "internalType": "address",
          "name": "_account",
          "type": "address"
        },
        {
          "internalType": "uint256",
          "name": "_amount",
          "type": "uint256"
        }
      ],
      "name": "withdrawToken",
      "outputs": [],
      "stateMutability": "nonpayable",
      "type": "function"
    },
    {
      "stateMutability": "payable",
      "type": "receive"
    }
  ],
  "bytecode": "0x608060405234801561001057600080fd5b506001600081905580546001600160a01b03191633179055612542806100376000396000f3fe6080604052600436106100e75760003560e01c8062389ac51461012657806301e336671461015157806304bc68211461017157806312d43a51146101915780631459457a146101a65780631d4b3779146101c65780632f92c49e146101f357806335cdc94214610213578063392e53cd146102335780633fc8cef314610255578063655603a41461026a5780638116f1311461028a57806381abfdc91461029f578063af5604a1146102b4578063c8964d12146102d4578063cfad57a2146102e7578063e1b9db8914610307578063ef9aacfd14610327578063fbfa77cf1461034757610121565b36610121576002546001600160a01b0316331461011f5760405162461bcd60e51b815260040161011690612058565b60405180910390fd5b005b600080fd5b34801561013257600080fd5b5061013b61035c565b6040516101489190611ef2565b60405180910390f35b34801561015d57600080fd5b5061011f61016c366004611c23565b61036b565b34801561017d57600080fd5b5061011f61018c366004611e1d565b6103ae565b34801561019d57600080fd5b5061013b61075b565b3480156101b257600080fd5b5061011f6101c1366004611bb3565b61076a565b3480156101d257600080fd5b506101e66101e1366004611cbd565b610831565b6040516101489190612428565b3480156101ff57600080fd5b506101e661020e366004611e9b565b6109b1565b34801561021f57600080fd5b506101e661022e366004611d06565b610ba8565b34801561023f57600080fd5b50610248610c0d565b604051610148919061201a565b34801561026157600080fd5b5061013b610c1d565b34801561027657600080fd5b5061011f610285366004611b97565b610c2c565b34801561029657600080fd5b5061013b610f46565b3480156102ab57600080fd5b5061013b610f55565b3480156102c057600080fd5b5061011f6102cf366004611c63565b610f64565b6101e66102e2366004611e7a565b6113c0565b3480156102f357600080fd5b5061011f610302366004611b97565b611487565b34801561031357600080fd5b5061013b610322366004611b97565b6114d3565b34801561033357600080fd5b5061011f610342366004611b97565b6114ee565b34801561035357600080fd5b5061013b611549565b6005546001600160a01b031681565b6001546001600160a01b031633146103955760405162461bcd60e51b8152600401610116906122d5565b6103a96001600160a01b0384168383611558565b505050565b600260005414156103d15760405162461bcd60e51b8152600401610116906123f1565b60026000553384806103e05750835b156106c457600554604051639e2e602360e01b815260609182916001600160a01b0390911690639e2e60239061041c9086903090600401611f3f565b600060405180830381600087803b15801561043657600080fd5b505af115801561044a573d6000803e3d6000fd5b505050506040513d6000823e601f3d908101601f191682016040526104729190810190611d40565b9150915060005b82518110156106bc57600083828151811061049057fe5b6020026020010151905060008383815181106104a857fe5b6020026020010151905060008111156106b2578880156105435750600654604051630daf9c2160e41b81526001600160a01b039091169063daf9c210906104f3908590600401611ef2565b60206040518083038186803b15801561050b57600080fd5b505afa15801561051f573d6000803e3d6000fd5b505050506040513d601f19601f820116820180604052508101906105439190611e01565b15610609576002546001600160a01b038381169116141561056f576105698189896115ae565b50610604565b6004805460405163095ea7b360e01b81526001600160a01b038086169363095ea7b3936105a193921691869101612001565b602060405180830381600087803b1580156105bb57600080fd5b505af11580156105cf573d6000803e3d6000fd5b505050506040513d601f19601f820116820180604052508101906105f39190611e01565b50610602308784848c8c611776565b505b6106b2565b89801561062357506002546001600160a01b038381169116145b1561069e57600254604051632e1a7d4d60e01b81526001600160a01b0390911690632e1a7d4d90610658908490600401612428565b600060405180830381600087803b15801561067257600080fd5b505af1158015610686573d6000803e3d6000fd5b50610604925050506001600160a01b038716826118ae565b6106b26001600160a01b0383168783611558565b5050600101610479565b50505061074f565b600554604051639e2e602360e01b81526001600160a01b0390911690639e2e6023906106f69084908190600401611f3f565b600060405180830381600087803b15801561071057600080fd5b505af1158015610724573d6000803e3d6000fd5b505050506040513d6000823e601f3d908101601f1916820160405261074c9190810190611d40565b50505b50506001600055505050565b6001546001600160a01b031681565b6001546001600160a01b031633146107945760405162461bcd60e51b8152600401610116906122d5565b600154600160a01b900460ff16156107be5760405162461bcd60e51b81526004016101169061219c565b6001805460ff60a01b1916600160a01b179055600280546001600160a01b039687166001600160a01b031991821617909155600380549587169582169590951790945560068054938616938516939093179092556005805491851691841691909117905560048054919093169116179055565b6000600260005414156108565760405162461bcd60e51b8152600401610116906123f1565b6002600055836108785760405162461bcd60e51b815260040161011690612304565b60055460035460405163098bf59d60e01b815233926001600160a01b039081169263098bf59d926108b392869216908a908390600401611fa6565b600060405180830381600087803b1580156108cd57600080fd5b505af11580156108e1573d6000803e3d6000fd5b5050600480546040516371d597ad60e01b8152600094506001600160a01b0390911692506371d597ad9161091f9186918c918c918c918c9101611fd1565b602060405180830381600087803b15801561093957600080fd5b505af115801561094d573d6000803e3d6000fd5b505050506040513d601f19601f820116820180604052508101906109719190611e62565b9050816001600160a01b03166000805160206124ed8339815191528760405161099a9190612428565b60405180910390a260016000559695505050505050565b6000600260005414156109d65760405162461bcd60e51b8152600401610116906123f1565b6002600055836109f85760405162461bcd60e51b815260040161011690612304565b60055460035460405163098bf59d60e01b815233926001600160a01b039081169263098bf59d92610a3392869216908a908390600401611fa6565b600060405180830381600087803b158015610a4d57600080fd5b505af1158015610a61573d6000803e3d6000fd5b5050600480546002546040516371d597ad60e01b8152600095506001600160a01b0392831694506371d597ad93610aa293889316918c918c91309101611fd1565b602060405180830381600087803b158015610abc57600080fd5b505af1158015610ad0573d6000803e3d6000fd5b505050506040513d601f19601f82011682018060405250810190610af49190611e62565b600254604051632e1a7d4d60e01b81529192506001600160a01b031690632e1a7d4d90610b25908490600401612428565b600060405180830381600087803b158015610b3f57600080fd5b505af1158015610b53573d6000803e3d6000fd5b50610b6b925050506001600160a01b038516826118ae565b816001600160a01b03166000805160206124ed83398151915287604051610b929190612428565b60405180910390a2600160005595945050505050565b600060026000541415610bcd5760405162461bcd60e51b8152600401610116906123f1565b600260005583610bef5760405162461bcd60e51b81526004016101169061225a565b33610bfe818088888888611776565b60016000559695505050505050565b600154600160a01b900460ff1681565b6002546001600160a01b031681565b60026000541415610c4f5760405162461bcd60e51b8152600401610116906123f1565b600260009081556001600160a01b03828116825260076020526040909120543391168114610c8f5760405162461bcd60e51b815260040161011690612291565b6004805460408051633526931560e01b815290514293610d95936001600160a01b031692633526931592818301926020928290030181600087803b158015610cd657600080fd5b505af1158015610cea573d6000803e3d6000fd5b505050506040513d601f19601f82011682018060405250810190610d0e9190611e62565b60048054604051638b770e1160e01b81526001600160a01b0390911691638b770e1191610d3d91899101611ef2565b602060405180830381600087803b158015610d5757600080fd5b505af1158015610d6b573d6000803e3d6000fd5b505050506040513d601f19601f82011682018060405250810190610d8f9190611e62565b9061194a565b1115610db35760405162461bcd60e51b8152600401610116906120bd565b6001600160a01b0380831660009081526007602052604080822080546001600160a01b03191690556005546003549151637aeceb1f60e11b815292939081169263f5d9d63e92610e0a928892911690600401611f3f565b60206040518083038186803b158015610e2257600080fd5b505afa158015610e36573d6000803e3d6000fd5b505050506040513d601f19601f82011682018060405250810190610e5a9190611e62565b90508015610f3c5760055460035460405163098bf59d60e01b81526001600160a01b039283169263098bf59d92610e9d9288929091169086908390600401611fa6565b600060405180830381600087803b158015610eb757600080fd5b505af1158015610ecb573d6000803e3d6000fd5b5050600554600354604051631e42d69b60e21b81526001600160a01b03928316945063790b5a6c9350610f0992889288929116908790600401611f7c565b600060405180830381600087803b158015610f2357600080fd5b505af1158015610f37573d6000803e3d6000fd5b505050505b5050600160005550565b6003546001600160a01b031681565b6004546001600160a01b031681565b60026000541415610f875760405162461bcd60e51b8152600401610116906123f1565b6002600055600554604051632577b51760e21b81526001600160a01b03909116906395ded45c90610fbc908890600401611ef2565b60206040518083038186803b158015610fd457600080fd5b505afa158015610fe8573d6000803e3d6000fd5b505050506040513d601f19601f8201168201806040525081019061100c9190611e01565b6110285760405162461bcd60e51b8152600401610116906123ba565b338480156110b15750600654604051630daf9c2160e41b81526001600160a01b039091169063daf9c21090611061908990600401611ef2565b60206040518083038186803b15801561107957600080fd5b505afa15801561108d573d6000803e3d6000fd5b505050506040513d601f19601f820116820180604052508101906110b19190611e01565b156112075760055460405163f777b81360e01b81526000916001600160a01b03169063f777b813906110eb9085908b903090600401611f59565b602060405180830381600087803b15801561110557600080fd5b505af1158015611119573d6000803e3d6000fd5b505050506040513d601f19601f8201168201806040525081019061113d9190611e62565b90508015611201576002546001600160a01b038881169116141561116c576111668185856115ae565b50611201565b6004805460405163095ea7b360e01b81526001600160a01b03808b169363095ea7b39361119e93921691869101612001565b602060405180830381600087803b1580156111b857600080fd5b505af11580156111cc573d6000803e3d6000fd5b505050506040513d601f19601f820116820180604052508101906111f09190611e01565b506111ff308389848888611776565b505b506113b3565b83801561122157506002546001600160a01b038781169116145b1561132b5760055460405163f777b81360e01b81526000916001600160a01b03169063f777b8139061125b9085908b903090600401611f59565b602060405180830381600087803b15801561127557600080fd5b505af1158015611289573d6000803e3d6000fd5b505050506040513d601f19601f820116820180604052508101906112ad9190611e62565b9050801561120157600254604051632e1a7d4d60e01b81526001600160a01b0390911690632e1a7d4d906112e5908490600401612428565b600060405180830381600087803b1580156112ff57600080fd5b505af1158015611313573d6000803e3d6000fd5b50611201925050506001600160a01b038316826118ae565b60055460405163f777b81360e01b81526001600160a01b039091169063f777b8139061135f9084908a908290600401611f59565b602060405180830381600087803b15801561137957600080fd5b505af115801561138d573d6000803e3d6000fd5b505050506040513d601f19601f820116820180604052508101906113b19190611e62565b505b5050600160005550505050565b6000600260005414156113e55760405162461bcd60e51b8152600401610116906123f1565b6002600055346114075760405162461bcd60e51b81526004016101169061210b565b600260009054906101000a90046001600160a01b03166001600160a01b031663d0e30db0346040518263ffffffff1660e01b81526004016000604051808303818588803b15801561145757600080fd5b505af115801561146b573d6000803e3d6000fd5b505050505061147b3484846115ae565b60016000559392505050565b6001546001600160a01b031633146114b15760405162461bcd60e51b8152600401610116906122d5565b600180546001600160a01b0319166001600160a01b0392909216919091179055565b6007602052600090815260409020546001600160a01b031681565b600260005414156115115760405162461bcd60e51b8152600401610116906123f1565b6002600090815533815260076020526040812080546001600160a01b0319166001600160a01b03939093169290921790915560019055565b6006546001600160a01b031681565b6103a98363a9059cbb60e01b8484604051602401611577929190612001565b60408051601f198184030181529190526020810180516001600160e01b03166001600160e01b031990931692909217909152611978565b6002546004805460405163095ea7b360e01b81526000936001600160a01b039081169363095ea7b3936115e693921691899101612001565b602060405180830381600087803b15801561160057600080fd5b505af1158015611614573d6000803e3d6000fd5b505050506040513d601f19601f820116820180604052508101906116389190611e01565b50600480546002546040516317eb2a1560e01b815233936000936001600160a01b03908116936317eb2a159361167a933093899316918d918d918d9101611f06565b602060405180830381600087803b15801561169457600080fd5b505af11580156116a8573d6000803e3d6000fd5b505050506040513d601f19601f820116820180604052508101906116cc9190611e62565b600554600354604051631e42d69b60e21b81529293506001600160a01b039182169263790b5a6c9261170a9287928392909116908790600401611f7c565b600060405180830381600087803b15801561172457600080fd5b505af1158015611738573d6000803e3d6000fd5b50505050816001600160a01b03166000805160206124cd833981519152826040516117639190612428565b60405180910390a29150505b9392505050565b600480546040516317eb2a1560e01b815260009283926001600160a01b0316916317eb2a15916117b2918c918c918c918c918c918c9101611f06565b602060405180830381600087803b1580156117cc57600080fd5b505af11580156117e0573d6000803e3d6000fd5b505050506040513d601f19601f820116820180604052508101906118049190611e62565b600554600354604051631e42d69b60e21b81529293506001600160a01b039182169263790b5a6c92611842928c928392909116908790600401611f7c565b600060405180830381600087803b15801561185c57600080fd5b505af1158015611870573d6000803e3d6000fd5b50505050866001600160a01b03166000805160206124cd8339815191528260405161189b9190612428565b60405180910390a2979650505050505050565b804710156118ce5760405162461bcd60e51b8152600401610116906121dd565b6000826001600160a01b0316826040516118e790611eef565b60006040518083038185875af1925050503d8060008114611924576040519150601f19603f3d011682016040523d82523d6000602084013e611929565b606091505b50509050806103a95760405162461bcd60e51b815260040161011690612142565b60008282018381101561196f5760405162461bcd60e51b815260040161011690612088565b90505b92915050565b60606119cd826040518060400160405280602081526020017f5361666545524332303a206c6f772d6c6576656c2063616c6c206661696c6564815250856001600160a01b0316611a079092919063ffffffff16565b8051909150156103a957808060200190518101906119eb9190611e01565b6103a95760405162461bcd60e51b815260040161011690612370565b6060611a168484600085611a1e565b949350505050565b606082471015611a405760405162461bcd60e51b815260040161011690612214565b611a4985611adf565b611a655760405162461bcd60e51b815260040161011690612339565b60006060866001600160a01b03168587604051611a829190611ed3565b60006040518083038185875af1925050503d8060008114611abf576040519150601f19603f3d011682016040523d82523d6000602084013e611ac4565b606091505b5091509150611ad4828286611ae5565b979650505050505050565b3b151590565b60608315611af457508161176f565b825115611b045782518084602001fd5b8160405162461bcd60e51b81526004016101169190612025565b8051611972816124a6565b600082601f830112611b39578081fd5b8151611b4c611b4782612457565b612431565b818152915060208083019084810181840286018201871015611b6d57600080fd5b60005b84811015611b8c57815184529282019290820190600101611b70565b505050505092915050565b600060208284031215611ba8578081fd5b813561196f816124a6565b600080600080600060a08688031215611bca578081fd5b8535611bd5816124a6565b94506020860135611be5816124a6565b93506040860135611bf5816124a6565b92506060860135611c05816124a6565b91506080860135611c15816124a6565b809150509295509295909350565b600080600060608486031215611c37578283fd5b8335611c42816124a6565b92506020840135611c52816124a6565b929592945050506040919091013590565b600080600080600060a08688031215611c7a578081fd5b8535611c85816124a6565b94506020860135611c95816124be565b93506040860135611ca5816124be565b94979396509394606081013594506080013592915050565b60008060008060808587031215611cd2578384fd5b8435611cdd816124a6565b935060208501359250604085013591506060850135611cfb816124a6565b939692955090935050565b60008060008060808587031215611d1b578384fd5b8435611d26816124a6565b966020860135965060408601359560600135945092505050565b60008060408385031215611d52578182fd5b82516001600160401b0380821115611d68578384fd5b818501915085601f830112611d7b578384fd5b8151611d89611b4782612457565b80828252602080830192508086018a828387028901011115611da9578889fd5b8896505b84871015611dd357611dbf8b82611b1e565b845260019690960195928101928101611dad565b508801519096509350505080821115611dea578283fd5b50611df785828601611b29565b9150509250929050565b600060208284031215611e12578081fd5b815161196f816124be565b60008060008060808587031215611e32578384fd5b8435611e3d816124be565b93506020850135611e4d816124be565b93969395505050506040820135916060013590565b600060208284031215611e73578081fd5b5051919050565b60008060408385031215611e8c578182fd5b50508035926020909101359150565b600080600060608486031215611eaf578081fd5b83359250602084013591506040840135611ec8816124a6565b809150509250925092565b60008251611ee5818460208701612476565b9190910192915050565b90565b6001600160a01b0391909116815260200190565b6001600160a01b03968716815294861660208601529290941660408401526060830152608082019290925260a081019190915260c00190565b6001600160a01b0392831681529116602082015260400190565b6001600160a01b0393841681529183166020830152909116604082015260600190565b6001600160a01b039485168152928416602084015292166040820152606081019190915260800190565b6001600160a01b03948516815292841660208401526040830191909152909116606082015260800190565b6001600160a01b039586168152938516602085015260408401929092526060830152909116608082015260a00190565b6001600160a01b03929092168252602082015260400190565b901515815260200190565b6000602082528251806020840152612044816040850160208701612476565b601f01601f19169190910160400192915050565b6020808252601690820152752937baba32b91d1034b73b30b634b21039b2b73232b960511b604082015260600190565b6020808252601b908201527a536166654d6174683a206164646974696f6e206f766572666c6f7760281b604082015260600190565b6020808252602e908201527f526577617264526f757465723a20636f6f6c646f776e206475726174696f6e2060408201526d1b9bdd081e595d081c185cdcd95960921b606082015260800190565b6020808252601f908201527f526577617264526f757465723a20696e76616c6964206d73672e76616c756500604082015260600190565b6020808252603a908201527f416464726573733a20756e61626c6520746f2073656e642076616c75652c20726040820152791958da5c1a595b9d081b585e481a185d99481c995d995c9d195960321b606082015260800190565b60208082526021908201527f526577617264526f757465723a20616c726561647920696e697469616c697a656040820152601960fa1b606082015260800190565b6020808252601d908201527f416464726573733a20696e73756666696369656e742062616c616e6365000000604082015260600190565b60208082526026908201527f416464726573733a20696e73756666696369656e742062616c616e636520666f6040820152651c8818d85b1b60d21b606082015260800190565b6020808252601d908201527f526577617264526f757465723a20696e76616c6964205f616d6f756e74000000604082015260600190565b60208082526024908201527f526577617264526f757465723a207472616e73666572206e6f74207369676e616040820152631b1b195960e21b606082015260800190565b60208082526015908201527423b7bb32b93730b136329d103337b93134b23232b760591b604082015260600190565b6020808252818101527f526577617264526f757465723a20696e76616c6964205f6c6c70416d6f756e74604082015260600190565b6020808252601d908201527f416464726573733a2063616c6c20746f206e6f6e2d636f6e7472616374000000604082015260600190565b6020808252602a908201527f5361666545524332303a204552433230206f7065726174696f6e20646964206e6040820152691bdd081cdd58d8d9595960b21b606082015260800190565b6020808252601e908201527f526577617264526f757465723a206e6f74205f726577617264546f6b656e0000604082015260600190565b6020808252601f908201527f5265656e7472616e637947756172643a207265656e7472616e742063616c6c00604082015260600190565b90815260200190565b6040518181016001600160401b038111828210171561244f57600080fd5b604052919050565b60006001600160401b0382111561246c578081fd5b5060209081020190565b60005b83811015612491578181015183820152602001612479565b838111156124a0576000848401525b50505050565b6001600160a01b03811681146124bb57600080fd5b50565b80151581146124bb57600080fdfe97661d8ff024272cadda8d01287c0fa51562b75744fcf42e0857797135547064e29f11186f22fb1d9e34dc3eda3a041f1bca3a375c88a268a1e29a5d8ec7a985a2646970667358221220798a3a9d338a4aa558509e3ad8472de346754ca209c677bc08c3cba89674024b64736f6c634300060c0033",
  "linkReferences": {},
  "deployedLinkReferences": {}
}