{
  "_format": "hh-sol-artifact-1",
  "contractName": "RewardReader",
  "sourceName": "contracts/peripherals/RewardReader.sol",
  "abi": [
    {
      "inputs": [
        {
          "internalType": "address",
          "name": "_account",
          "type": "address"
        },
        {
          "internalType": "address[]",
          "name": "_depositTokens",
          "type": "address[]"
        },
        {
          "internalType": "address[]",
          "name": "_rewardTrackers",
          "type": "address[]"
        }
      ],
      "name": "getDepositBalances",
      "outputs": [
        {
          "internalType": "uint256[]",
          "name": "",
          "type": "uint256[]"
        }
      ],
      "stateMutability": "view",
      "type": "function"
    },
    {
      "inputs": [
        {
          "internalType": "address",
          "name": "_account",
          "type": "address"
        },
        {
          "internalType": "address[]",
          "name": "_rewardTrackers",
          "type": "address[]"
        }
      ],
      "name": "getStakingInfo",
      "outputs": [
        {
          "internalType": "uint256[]",
          "name": "",
          "type": "uint256[]"
        },
        {
          "internalType": "address[]",
          "name": "",
          "type": "address[]"
        }
      ],
      "stateMutability": "view",
      "type": "function"
    }
  ],
  "bytecode": "0x608060405234801561001057600080fd5b50610a56806100206000396000f3fe608060405234801561001057600080fd5b50600436106100365760003560e01c8063575157e41461003b578063937a0be8146101be575b600080fd5b61016e6004803603606081101561005157600080fd5b6001600160a01b038235169190810190604081016020820135600160201b81111561007b57600080fd5b82018360208201111561008d57600080fd5b803590602001918460208302840111600160201b831117156100ae57600080fd5b9190808060200260200160405190810160405280939291908181526020018383602002808284376000920191909152509295949360208101935035915050600160201b8111156100fd57600080fd5b82018360208201111561010f57600080fd5b803590602001918460208302840111600160201b8311171561013057600080fd5b919080806020026020016040519081016040528093929190818152602001838360200280828437600092019190915250929550610308945050505050565b60408051602080825283518183015283519192839290830191858101910280838360005b838110156101aa578181015183820152602001610192565b505050509050019250505060405180910390f35b61026f600480360360408110156101d457600080fd5b6001600160a01b038235169190810190604081016020820135600160201b8111156101fe57600080fd5b82018360208201111561021057600080fd5b803590602001918460208302840111600160201b8311171561023157600080fd5b91908080602002602001604051908101604052809392919081815260200183836020028082843760009201919091525092955061043b945050505050565b604051808060200180602001838103835285818151815260200191508051906020019060200280838360005b838110156102b357818101518382015260200161029b565b50505050905001838103825284818151815260200191508051906020019060200280838360005b838110156102f25781810151838201526020016102da565b5050505090500194505050505060405180910390f35b60608082516001600160401b038111801561032257600080fd5b5060405190808252806020026020018201604052801561034c578160200160208202803683370190505b50905060005b835181101561043257600084828151811061036957fe5b60200260200101519050806001600160a01b031663f5d9d63e8888858151811061038f57fe5b60200260200101516040518363ffffffff1660e01b815260040180836001600160a01b03168152602001826001600160a01b031681526020019250505060206040518083038186803b1580156103e457600080fd5b505afa1580156103f8573d6000803e3d6000fd5b505050506040513d602081101561040e57600080fd5b5051835184908490811061041e57fe5b602090810291909101015250600101610352565b50949350505050565b60608060046000805b855181101561054757600086828151811061045b57fe5b60200260200101516001600160a01b031663bfe109286040518163ffffffff1660e01b815260040160206040518083038186803b15801561049b57600080fd5b505afa1580156104af573d6000803e3d6000fd5b505050506040513d60208110156104c557600080fd5b505160408051630a1b1aa560e21b8152905191925085916001600160a01b0384169163286c6a94916004808301926020929190829003018186803b15801561050c57600080fd5b505afa158015610520573d6000803e3d6000fd5b505050506040513d602081101561053657600080fd5b505102929092019150600101610444565b50606082828161055357fe5b046001600160401b038111801561056957600080fd5b50604051908082528060200260200182016040528015610593578160200160208202803683370190505b5090506060826001600160401b03811180156105ae57600080fd5b506040519080825280602002602001820160405280156105d8578160200160208202803683370190505b5090506000805b8851811015610a105760008982815181106105f657fe5b6020026020010151905060608a838151811061060e57fe5b60200260200101516001600160a01b03166312edb24c6040518163ffffffff1660e01b815260040160006040518083038186803b15801561064e57600080fd5b505afa158015610662573d6000803e3d6000fd5b505050506040513d6000823e601f3d908101601f19168201604052602081101561068b57600080fd5b8101908080516040519392919084600160201b8211156106aa57600080fd5b9083019060208201858111156106bf57600080fd5b82518660208202830111600160201b821117156106db57600080fd5b82525081516020918201928201910280838360005b838110156107085781810151838201526020016106f0565b50505050905001604052505050905060005b8151811015610a0557600082828151811061073157fe5b602002602001015190508088838c898161074757fe5b04018151811061075357fe5b60200260200101906001600160a01b031690816001600160a01b031681525050836001600160a01b031663d4570c1c8f836040518363ffffffff1660e01b815260040180836001600160a01b03168152602001826001600160a01b031681526020019250505060206040518083038186803b1580156107d157600080fd5b505afa1580156107e5573d6000803e3d6000fd5b505050506040513d60208110156107fb57600080fd5b505187518890848d02890190811061080f57fe5b602002602001018181525050836001600160a01b031663270da240826040518263ffffffff1660e01b815260040180826001600160a01b0316815260200191505060206040518083038186803b15801561086857600080fd5b505afa15801561087c573d6000803e3d6000fd5b505050506040513d602081101561089257600080fd5b5051875188906001858e028a01019081106108a957fe5b602002602001018181525050836001600160a01b031663a39331a88f836040518363ffffffff1660e01b815260040180836001600160a01b03168152602001826001600160a01b031681526020019250505060206040518083038186803b15801561091357600080fd5b505afa158015610927573d6000803e3d6000fd5b505050506040513d602081101561093d57600080fd5b5051875188906002858e028a010190811061095457fe5b602002602001018181525050806001600160a01b03166318160ddd6040518163ffffffff1660e01b815260040160206040518083038186803b15801561099957600080fd5b505afa1580156109ad573d6000803e3d6000fd5b505050506040513d60208110156109c357600080fd5b5051875188906003858e028a01019081106109da57fe5b60200260200101818152505060018351038214156109fc57898a830201860195505b5060010161071a565b5050506001016105df565b509098919750909550505050505056fea26469706673582212204ea4e7ea21c63f8e4aba544c07b686191b1a49c4cf23fa7332a5766612dcadcc64736f6c634300060c0033",
  "linkReferences": {},
  "deployedLinkReferences": {}
}