{
  "_format": "hh-sol-artifact-1",
  "contractName": "RewardTracker",
  "sourceName": "contracts/staking/RewardTracker.sol",
  "abi": [
    {
      "inputs": [
        {
          "internalType": "string",
          "name": "_name",
          "type": "string"
        },
        {
          "internalType": "string",
          "name": "_symbol",
          "type": "string"
        }
      ],
      "stateMutability": "nonpayable",
      "type": "constructor"
    },
    {
      "anonymous": false,
      "inputs": [
        {
          "indexed": true,
          "internalType": "address",
          "name": "owner",
          "type": "address"
        },
        {
          "indexed": true,
          "internalType": "address",
          "name": "spender",
          "type": "address"
        },
        {
          "indexed": false,
          "internalType": "uint256",
          "name": "value",
          "type": "uint256"
        }
      ],
      "name": "Approval",
      "type": "event"
    },
    {
      "anonymous": false,
      "inputs": [
        {
          "indexed": true,
          "internalType": "address",
          "name": "receiver",
          "type": "address"
        },
        {
          "indexed": false,
          "internalType": "address",
          "name": "rewardToken",
          "type": "address"
        },
        {
          "indexed": false,
          "internalType": "uint256",
          "name": "amount",
          "type": "uint256"
        }
      ],
      "name": "Claim",
      "type": "event"
    },
    {
      "anonymous": false,
      "inputs": [
        {
          "indexed": true,
          "internalType": "address",
          "name": "from",
          "type": "address"
        },
        {
          "indexed": true,
          "internalType": "address",
          "name": "to",
          "type": "address"
        },
        {
          "indexed": false,
          "internalType": "uint256",
          "name": "value",
          "type": "uint256"
        }
      ],
      "name": "Transfer",
      "type": "event"
    },
    {
      "inputs": [],
      "name": "BASIS_POINTS_DIVISOR",
      "outputs": [
        {
          "internalType": "uint256",
          "name": "",
          "type": "uint256"
        }
      ],
      "stateMutability": "view",
      "type": "function"
    },
    {
      "inputs": [],
      "name": "PRECISION",
      "outputs": [
        {
          "internalType": "uint256",
          "name": "",
          "type": "uint256"
        }
      ],
      "stateMutability": "view",
      "type": "function"
    },
    {
      "inputs": [
        {
          "internalType": "address",
          "name": "_rewardToken",
          "type": "address"
        }
      ],
      "name": "allTokens",
      "outputs": [
        {
          "internalType": "bool",
          "name": "",
          "type": "bool"
        }
      ],
      "stateMutability": "view",
      "type": "function"
    },
    {
      "inputs": [
        {
          "internalType": "address",
          "name": "_owner",
          "type": "address"
        },
        {
          "internalType": "address",
          "name": "_spender",
          "type": "address"
        }
      ],
      "name": "allowance",
      "outputs": [
        {
          "internalType": "uint256",
          "name": "",
          "type": "uint256"
        }
      ],
      "stateMutability": "view",
      "type": "function"
    },
    {
      "inputs": [
        {
          "internalType": "address",
          "name": "",
          "type": "address"
        },
        {
          "internalType": "address",
          "name": "",
          "type": "address"
        }
      ],
      "name": "allowances",
      "outputs": [
        {
          "internalType": "uint256",
          "name": "",
          "type": "uint256"
        }
      ],
      "stateMutability": "view",
      "type": "function"
    },
    {
      "inputs": [
        {
          "internalType": "address",
          "name": "_spender",
          "type": "address"
        },
        {
          "internalType": "uint256",
          "name": "_amount",
          "type": "uint256"
        }
      ],
      "name": "approve",
      "outputs": [
        {
          "internalType": "bool",
          "name": "",
          "type": "bool"
        }
      ],
      "stateMutability": "nonpayable",
      "type": "function"
    },
    {
      "inputs": [
        {
          "internalType": "address",
          "name": "",
          "type": "address"
        }
      ],
      "name": "averageStakedAmounts",
      "outputs": [
        {
          "internalType": "uint256",
          "name": "",
          "type": "uint256"
        }
      ],
      "stateMutability": "view",
      "type": "function"
    },
    {
      "inputs": [
        {
          "internalType": "address",
          "name": "_account",
          "type": "address"
        }
      ],
      "name": "balanceOf",
      "outputs": [
        {
          "internalType": "uint256",
          "name": "",
          "type": "uint256"
        }
      ],
      "stateMutability": "view",
      "type": "function"
    },
    {
      "inputs": [
        {
          "internalType": "address",
          "name": "",
          "type": "address"
        }
      ],
      "name": "balances",
      "outputs": [
        {
          "internalType": "uint256",
          "name": "",
          "type": "uint256"
        }
      ],
      "stateMutability": "view",
      "type": "function"
    },
    {
      "inputs": [
        {
          "internalType": "address",
          "name": "_rewardToken",
          "type": "address"
        },
        {
          "internalType": "address",
          "name": "_receiver",
          "type": "address"
        }
      ],
      "name": "claim",
      "outputs": [
        {
          "internalType": "uint256",
          "name": "",
          "type": "uint256"
        }
      ],
      "stateMutability": "nonpayable",
      "type": "function"
    },
    {
      "inputs": [
        {
          "internalType": "address",
          "name": "_receiver",
          "type": "address"
        }
      ],
      "name": "claimAll",
      "outputs": [
        {
          "internalType": "address[]",
          "name": "",
          "type": "address[]"
        },
        {
          "internalType": "uint256[]",
          "name": "",
          "type": "uint256[]"
        }
      ],
      "stateMutability": "nonpayable",
      "type": "function"
    },
    {
      "inputs": [
        {
          "internalType": "address",
          "name": "_account",
          "type": "address"
        },
        {
          "internalType": "address",
          "name": "_receiver",
          "type": "address"
        }
      ],
      "name": "claimAllForAccount",
      "outputs": [
        {
          "internalType": "address[]",
          "name": "",
          "type": "address[]"
        },
        {
          "internalType": "uint256[]",
          "name": "",
          "type": "uint256[]"
        }
      ],
      "stateMutability": "nonpayable",
      "type": "function"
    },
    {
      "inputs": [
        {
          "internalType": "address",
          "name": "_account",
          "type": "address"
        },
        {
          "internalType": "address",
          "name": "_rewardToken",
          "type": "address"
        },
        {
          "internalType": "address",
          "name": "_receiver",
          "type": "address"
        }
      ],
      "name": "claimForAccount",
      "outputs": [
        {
          "internalType": "uint256",
          "name": "",
          "type": "uint256"
        }
      ],
      "stateMutability": "nonpayable",
      "type": "function"
    },
    {
      "inputs": [
        {
          "internalType": "address",
          "name": "_account",
          "type": "address"
        },
        {
          "internalType": "address",
          "name": "_rewardToken",
          "type": "address"
        }
      ],
      "name": "claimable",
      "outputs": [
        {
          "internalType": "uint256",
          "name": "",
          "type": "uint256"
        }
      ],
      "stateMutability": "view",
      "type": "function"
    },
    {
      "inputs": [
        {
          "internalType": "address",
          "name": "_account",
          "type": "address"
        }
      ],
      "name": "claimableAll",
      "outputs": [
        {
          "internalType": "address[]",
          "name": "",
          "type": "address[]"
        },
        {
          "internalType": "uint256[]",
          "name": "",
          "type": "uint256[]"
        }
      ],
      "stateMutability": "view",
      "type": "function"
    },
    {
      "inputs": [
        {
          "internalType": "address",
          "name": "",
          "type": "address"
        },
        {
          "internalType": "address",
          "name": "",
          "type": "address"
        }
      ],
      "name": "claimableReward",
      "outputs": [
        {
          "internalType": "uint256",
          "name": "",
          "type": "uint256"
        }
      ],
      "stateMutability": "view",
      "type": "function"
    },
    {
      "inputs": [
        {
          "internalType": "address",
          "name": "",
          "type": "address"
        }
      ],
      "name": "cumulativeRewardPerToken",
      "outputs": [
        {
          "internalType": "uint256",
          "name": "",
          "type": "uint256"
        }
      ],
      "stateMutability": "view",
      "type": "function"
    },
    {
      "inputs": [
        {
          "internalType": "address",
          "name": "",
          "type": "address"
        },
        {
          "internalType": "address",
          "name": "",
          "type": "address"
        }
      ],
      "name": "cumulativeRewards",
      "outputs": [
        {
          "internalType": "uint256",
          "name": "",
          "type": "uint256"
        }
      ],
      "stateMutability": "view",
      "type": "function"
    },
    {
      "inputs": [],
      "name": "decimals",
      "outputs": [
        {
          "internalType": "uint8",
          "name": "",
          "type": "uint8"
        }
      ],
      "stateMutability": "view",
      "type": "function"
    },
    {
      "inputs": [
        {
          "internalType": "address",
          "name": "",
          "type": "address"
        },
        {
          "internalType": "address",
          "name": "",
          "type": "address"
        }
      ],
      "name": "depositBalances",
      "outputs": [
        {
          "internalType": "uint256",
          "name": "",
          "type": "uint256"
        }
      ],
      "stateMutability": "view",
      "type": "function"
    },
    {
      "inputs": [],
      "name": "distributor",
      "outputs": [
        {
          "internalType": "address",
          "name": "",
          "type": "address"
        }
      ],
      "stateMutability": "view",
      "type": "function"
    },
    {
      "inputs": [],
      "name": "getAllRewardTokens",
      "outputs": [
        {
          "internalType": "address[]",
          "name": "",
          "type": "address[]"
        }
      ],
      "stateMutability": "view",
      "type": "function"
    },
    {
      "inputs": [],
      "name": "gov",
      "outputs": [
        {
          "internalType": "address",
          "name": "",
          "type": "address"
        }
      ],
      "stateMutability": "view",
      "type": "function"
    },
    {
      "inputs": [
        {
          "internalType": "address",
          "name": "_account",
          "type": "address"
        }
      ],
      "name": "hasCumulativeRewards",
      "outputs": [
        {
          "internalType": "bool",
          "name": "",
          "type": "bool"
        }
      ],
      "stateMutability": "view",
      "type": "function"
    },
    {
      "inputs": [],
      "name": "inPrivateClaimingMode",
      "outputs": [
        {
          "internalType": "bool",
          "name": "",
          "type": "bool"
        }
      ],
      "stateMutability": "view",
      "type": "function"
    },
    {
      "inputs": [],
      "name": "inPrivateStakingMode",
      "outputs": [
        {
          "internalType": "bool",
          "name": "",
          "type": "bool"
        }
      ],
      "stateMutability": "view",
      "type": "function"
    },
    {
      "inputs": [],
      "name": "inPrivateTransferMode",
      "outputs": [
        {
          "internalType": "bool",
          "name": "",
          "type": "bool"
        }
      ],
      "stateMutability": "view",
      "type": "function"
    },
    {
      "inputs": [
        {
          "internalType": "address[]",
          "name": "_depositTokens",
          "type": "address[]"
        },
        {
          "internalType": "address",
          "name": "_distributor",
          "type": "address"
        }
      ],
      "name": "initialize",
      "outputs": [],
      "stateMutability": "nonpayable",
      "type": "function"
    },
    {
      "inputs": [
        {
          "internalType": "address",
          "name": "",
          "type": "address"
        }
      ],
      "name": "isDepositToken",
      "outputs": [
        {
          "internalType": "bool",
          "name": "",
          "type": "bool"
        }
      ],
      "stateMutability": "view",
      "type": "function"
    },
    {
      "inputs": [
        {
          "internalType": "address",
          "name": "",
          "type": "address"
        }
      ],
      "name": "isHandler",
      "outputs": [
        {
          "internalType": "bool",
          "name": "",
          "type": "bool"
        }
      ],
      "stateMutability": "view",
      "type": "function"
    },
    {
      "inputs": [],
      "name": "isInitialized",
      "outputs": [
        {
          "internalType": "bool",
          "name": "",
          "type": "bool"
        }
      ],
      "stateMutability": "view",
      "type": "function"
    },
    {
      "inputs": [],
      "name": "name",
      "outputs": [
        {
          "internalType": "string",
          "name": "",
          "type": "string"
        }
      ],
      "stateMutability": "view",
      "type": "function"
    },
    {
      "inputs": [
        {
          "internalType": "address",
          "name": "",
          "type": "address"
        },
        {
          "internalType": "address",
          "name": "",
          "type": "address"
        }
      ],
      "name": "previousCumulatedRewardPerToken",
      "outputs": [
        {
          "internalType": "uint256",
          "name": "",
          "type": "uint256"
        }
      ],
      "stateMutability": "view",
      "type": "function"
    },
    {
      "inputs": [
        {
          "internalType": "address",
          "name": "_rewardToken",
          "type": "address"
        }
      ],
      "name": "rewardTokens",
      "outputs": [
        {
          "internalType": "bool",
          "name": "",
          "type": "bool"
        }
      ],
      "stateMutability": "view",
      "type": "function"
    },
    {
      "inputs": [
        {
          "internalType": "address",
          "name": "_depositToken",
          "type": "address"
        },
        {
          "internalType": "bool",
          "name": "_isDepositToken",
          "type": "bool"
        }
      ],
      "name": "setDepositToken",
      "outputs": [],
      "stateMutability": "nonpayable",
      "type": "function"
    },
    {
      "inputs": [
        {
          "internalType": "address",
          "name": "_gov",
          "type": "address"
        }
      ],
      "name": "setGov",
      "outputs": [],
      "stateMutability": "nonpayable",
      "type": "function"
    },
    {
      "inputs": [
        {
          "internalType": "address",
          "name": "_handler",
          "type": "address"
        },
        {
          "internalType": "bool",
          "name": "_isActive",
          "type": "bool"
        }
      ],
      "name": "setHandler",
      "outputs": [],
      "stateMutability": "nonpayable",
      "type": "function"
    },
    {
      "inputs": [
        {
          "internalType": "bool",
          "name": "_inPrivateClaimingMode",
          "type": "bool"
        }
      ],
      "name": "setInPrivateClaimingMode",
      "outputs": [],
      "stateMutability": "nonpayable",
      "type": "function"
    },
    {
      "inputs": [
        {
          "internalType": "bool",
          "name": "_inPrivateStakingMode",
          "type": "bool"
        }
      ],
      "name": "setInPrivateStakingMode",
      "outputs": [],
      "stateMutability": "nonpayable",
      "type": "function"
    },
    {
      "inputs": [
        {
          "internalType": "bool",
          "name": "_inPrivateTransferMode",
          "type": "bool"
        }
      ],
      "name": "setInPrivateTransferMode",
      "outputs": [],
      "stateMutability": "nonpayable",
      "type": "function"
    },
    {
      "inputs": [
        {
          "internalType": "address",
          "name": "_depositToken",
          "type": "address"
        },
        {
          "internalType": "uint256",
          "name": "_amount",
          "type": "uint256"
        }
      ],
      "name": "stake",
      "outputs": [],
      "stateMutability": "nonpayable",
      "type": "function"
    },
    {
      "inputs": [
        {
          "internalType": "address",
          "name": "_fundingAccount",
          "type": "address"
        },
        {
          "internalType": "address",
          "name": "_account",
          "type": "address"
        },
        {
          "internalType": "address",
          "name": "_depositToken",
          "type": "address"
        },
        {
          "internalType": "uint256",
          "name": "_amount",
          "type": "uint256"
        }
      ],
      "name": "stakeForAccount",
      "outputs": [],
      "stateMutability": "nonpayable",
      "type": "function"
    },
    {
      "inputs": [
        {
          "internalType": "address",
          "name": "",
          "type": "address"
        }
      ],
      "name": "stakedAmounts",
      "outputs": [
        {
          "internalType": "uint256",
          "name": "",
          "type": "uint256"
        }
      ],
      "stateMutability": "view",
      "type": "function"
    },
    {
      "inputs": [],
      "name": "symbol",
      "outputs": [
        {
          "internalType": "string",
          "name": "",
          "type": "string"
        }
      ],
      "stateMutability": "view",
      "type": "function"
    },
    {
      "inputs": [
        {
          "internalType": "address",
          "name": "_rewardToken",
          "type": "address"
        }
      ],
      "name": "tokensPerInterval",
      "outputs": [
        {
          "internalType": "uint256",
          "name": "",
          "type": "uint256"
        }
      ],
      "stateMutability": "view",
      "type": "function"
    },
    {
      "inputs": [
        {
          "internalType": "address",
          "name": "",
          "type": "address"
        }
      ],
      "name": "totalDepositSupply",
      "outputs": [
        {
          "internalType": "uint256",
          "name": "",
          "type": "uint256"
        }
      ],
      "stateMutability": "view",
      "type": "function"
    },
    {
      "inputs": [],
      "name": "totalSupply",
      "outputs": [
        {
          "internalType": "uint256",
          "name": "",
          "type": "uint256"
        }
      ],
      "stateMutability": "view",
      "type": "function"
    },
    {
      "inputs": [
        {
          "internalType": "address",
          "name": "_recipient",
          "type": "address"
        },
        {
          "internalType": "uint256",
          "name": "_amount",
          "type": "uint256"
        }
      ],
      "name": "transfer",
      "outputs": [
        {
          "internalType": "bool",
          "name": "",
          "type": "bool"
        }
      ],
      "stateMutability": "nonpayable",
      "type": "function"
    },
    {
      "inputs": [
        {
          "internalType": "address",
          "name": "_sender",
          "type": "address"
        },
        {
          "internalType": "address",
          "name": "_recipient",
          "type": "address"
        },
        {
          "internalType": "uint256",
          "name": "_amount",
          "type": "uint256"
        }
      ],
      "name": "transferFrom",
      "outputs": [
        {
          "internalType": "bool",
          "name": "",
          "type": "bool"
        }
      ],
      "stateMutability": "nonpayable",
      "type": "function"
    },
    {
      "inputs": [
        {
          "internalType": "address",
          "name": "_depositToken",
          "type": "address"
        },
        {
          "internalType": "uint256",
          "name": "_amount",
          "type": "uint256"
        }
      ],
      "name": "unstake",
      "outputs": [],
      "stateMutability": "nonpayable",
      "type": "function"
    },
    {
      "inputs": [
        {
          "internalType": "address",
          "name": "_account",
          "type": "address"
        },
        {
          "internalType": "address",
          "name": "_depositToken",
          "type": "address"
        },
        {
          "internalType": "uint256",
          "name": "_amount",
          "type": "uint256"
        },
        {
          "internalType": "address",
          "name": "_receiver",
          "type": "address"
        }
      ],
      "name": "unstakeForAccount",
      "outputs": [],
      "stateMutability": "nonpayable",
      "type": "function"
    },
    {
      "inputs": [
        {
          "internalType": "address",
          "name": "_rewardToken",
          "type": "address"
        }
      ],
      "name": "updateRewards",
      "outputs": [],
      "stateMutability": "nonpayable",
      "type": "function"
    },
    {
      "inputs": [
        {
          "internalType": "address",
          "name": "_token",
          "type": "address"
        },
        {
          "internalType": "address",
          "name": "_account",
          "type": "address"
        },
        {
          "internalType": "uint256",
          "name": "_amount",
          "type": "uint256"
        }
      ],
      "name": "withdrawToken",
      "outputs": [],
      "stateMutability": "nonpayable",
      "type": "function"
    }
  ],
  "bytecode": "0x60806040523480156200001157600080fd5b5060405162003bd238038062003bd2833981810160405260408110156200003757600080fd5b81019080805160405193929190846401000000008211156200005857600080fd5b9083019060208201858111156200006e57600080fd5b82516401000000008111828201881017156200008957600080fd5b82525081516020918201929091019080838360005b83811015620000b85781810151838201526020016200009e565b50505050905090810190601f168015620000e65780820380516001836020036101000a031916815260200191505b50604052602001805160405193929190846401000000008211156200010a57600080fd5b9083019060208201858111156200012057600080fd5b82516401000000008111828201881017156200013b57600080fd5b82525081516020918201929091019080838360005b838110156200016a57818101518382015260200162000150565b50505050905090810190601f168015620001985780820380516001836020036101000a031916815260200191505b5060405250506001600081905580546001600160a01b03191633179055508151620001cb906002906020850190620001ea565b508051620001e1906003906020840190620001ea565b50505062000286565b828054600181600116156101000203166002900490600052602060002090601f016020900481019282601f106200022d57805160ff19168380011785556200025d565b828001600101855582156200025d579182015b828111156200025d57825182559160200191906001019062000240565b506200026b9291506200026f565b5090565b5b808211156200026b576000815560010162000270565b61393c80620002966000396000f3fe608060405234801561001057600080fd5b50600436106102675760003560e01c806301e336671461026c57806303bc5477146102a457806306fdde03146102e4578063095ea7b314610361578063098bf59d146103a157806310c1c103146103dd578063126082cf1461040357806312d43a511461040b57806312edb24c1461042f57806318160ddd146104875780631d30d5bc1461048f57806321c0b342146104ae57806323b872dd146104dc578063270da2401461051257806327e235e314610538578063313ce5671461055e578063392e53cd1461057c5780633cd7f70014610584578063462d0b2e146105a357806346ea87af1461064f578063552ce1dc1461067557806355b6ed5c1461069b5780635a47a1a7146106c95780635aacb6f3146106e85780635fd61965146107a757806370a08231146107cd57806377329f35146107f3578063790b5a6c1461081957806395d89b411461085557806395ded45c1461085d5780639862ddb6146108835780639cb7de4b146108a95780639e2e6023146108d7578063a318021714610905578063a39331a81461092b578063a9059cbb14610959578063aaf5eb6814610985578063adc9772e1461098d578063b89e45b3146109b9578063bfe10928146109df578063c2a672e0146109e7578063c5fa273014610a13578063cb9bb45f14610a1b578063cfad57a214610a41578063d26abffa14610a67578063d4570c1c14610a95578063dd62ed3e14610ac3578063dfbaefb114610af1578063e44b755814610af9578063f5ab16cc14610b27578063f5d9d63e14610b4d578063f76033d314610b7b578063f777b81314610b83575b600080fd5b6102a26004803603606081101561028257600080fd5b506001600160a01b03813581169160208101359091169060400135610bbb565b005b6102d2600480360360408110156102ba57600080fd5b506001600160a01b0381358116916020013516610c21565b60408051918252519081900360200190f35b6102ec610c3e565b6040805160208082528351818301528351919283929083019185019080838360005b8381101561032657818101518382015260200161030e565b50505050905090810190601f1680156103535780820380516001836020036101000a031916815260200191505b509250505060405180910390f35b61038d6004803603604081101561037757600080fd5b506001600160a01b038135169060200135610cc9565b604080519115158252519081900360200190f35b6102a2600480360360808110156103b757600080fd5b506001600160a01b03813581169160208101358216916040820135916060013516610ce0565b6102d2600480360360208110156103f357600080fd5b50356001600160a01b0316610d4a565b6102d2610d5c565b610413610d62565b604080516001600160a01b039092168252519081900360200190f35b610437610d71565b60408051602080825283518183015283519192839290830191858101910280838360005b8381101561047357818101518382015260200161045b565b505050509050019250505060405180910390f35b6102d2610e8d565b6102a2600480360360208110156104a557600080fd5b50351515610e93565b6102d2600480360360408110156104c457600080fd5b506001600160a01b0381358116916020013516610efa565b61038d600480360360608110156104f257600080fd5b506001600160a01b0381358116916020810135909116906040013561106f565b6102d26004803603602081101561052857600080fd5b50356001600160a01b0316611109565b6102d26004803603602081101561054e57600080fd5b50356001600160a01b03166111a1565b6105666111b3565b6040805160ff9092168252519081900360200190f35b61038d6111b8565b6102a26004803603602081101561059a57600080fd5b503515156111c8565b6102a2600480360360408110156105b957600080fd5b810190602081018135600160201b8111156105d357600080fd5b8201836020820111156105e557600080fd5b803590602001918460208302840111600160201b8311171561060657600080fd5b919080806020026020016040519081016040528093929190818152602001838360200280828437600092019190915250929550505090356001600160a01b031691506112319050565b61038d6004803603602081101561066557600080fd5b50356001600160a01b0316611354565b6102d26004803603602081101561068b57600080fd5b50356001600160a01b0316611369565b6102d2600480360360408110156106b157600080fd5b506001600160a01b038135811691602001351661137b565b6102a2600480360360208110156106df57600080fd5b50351515611398565b61070e600480360360208110156106fe57600080fd5b50356001600160a01b03166113f8565b604051808060200180602001838103835285818151815260200191508051906020019060200280838360005b8381101561075257818101518382015260200161073a565b50505050905001838103825284818151815260200191508051906020019060200280838360005b83811015610791578181015183820152602001610779565b5050505090500194505050505060405180910390f35b6102a2600480360360208110156107bd57600080fd5b50356001600160a01b03166115f2565b6102d2600480360360208110156107e357600080fd5b50356001600160a01b0316611708565b61070e6004803603602081101561080957600080fd5b50356001600160a01b0316611723565b6102a26004803603608081101561082f57600080fd5b506001600160a01b038135811691602081013582169160408201351690606001356117d2565b6102ec611831565b61038d6004803603602081101561087357600080fd5b50356001600160a01b031661188c565b6102d26004803603602081101561089957600080fd5b50356001600160a01b03166118f0565b6102a2600480360360408110156108bf57600080fd5b506001600160a01b0381351690602001351515611902565b61070e600480360360408110156108ed57600080fd5b506001600160a01b038135811691602001351661197a565b6102d26004803603602081101561091b57600080fd5b50356001600160a01b03166119ea565b6102d26004803603604081101561094157600080fd5b506001600160a01b03813581169160200135166119fc565b61038d6004803603604081101561096f57600080fd5b506001600160a01b038135169060200135611a19565b6102d2611a26565b6102a2600480360360408110156109a357600080fd5b506001600160a01b038135169060200135611a36565b61038d600480360360208110156109cf57600080fd5b50356001600160a01b0316611add565b610413611af2565b6102a2600480360360408110156109fd57600080fd5b506001600160a01b038135169060200135611b01565b61038d611b9f565b61038d60048036036020811015610a3157600080fd5b50356001600160a01b0316611bad565b6102a260048036036020811015610a5757600080fd5b50356001600160a01b0316611cf0565b6102d260048036036040811015610a7d57600080fd5b506001600160a01b0381358116916020013516611d5f565b6102d260048036036040811015610aab57600080fd5b506001600160a01b0381358116916020013516611d7c565b6102d260048036036040811015610ad957600080fd5b506001600160a01b0381358116916020013516611fed565b61038d612018565b6102a260048036036040811015610b0f57600080fd5b506001600160a01b0381351690602001351515612021565b61038d60048036036020811015610b3d57600080fd5b50356001600160a01b0316612099565b6102d260048036036040811015610b6357600080fd5b506001600160a01b03813581169160200135166120fd565b61038d61211a565b6102d260048036036060811015610b9957600080fd5b506001600160a01b038135811691602081013582169160409091013516612129565b6001546001600160a01b03163314610c08576040805162461bcd60e51b815260206004820152601560248201526000805160206136e1833981519152604482015290519081900360640190fd5b610c1c6001600160a01b038416838361225f565b505050565b600e60209081526000928352604080842090915290825290205481565b6002805460408051602060018416156101000260001901909316849004601f81018490048402820184019092528181529291830182828015610cc15780601f10610c9657610100808354040283529160200191610cc1565b820191906000526020600020905b815481529060010190602001808311610ca457829003601f168201915b505050505081565b6000610cd63384846122b1565b5060015b92915050565b60026000541415610d26576040805162461bcd60e51b815260206004820152601f602482015260008051602061361e833981519152604482015290519081900360640190fd5b6002600055610d3361239d565b610d3f848484846123fe565b505060016000555050565b600c6020526000908152604090205481565b61271081565b6001546001600160a01b031681565b6060600460009054906101000a90046001600160a01b03166001600160a01b03166312edb24c6040518163ffffffff1660e01b815260040160006040518083038186803b158015610dc157600080fd5b505afa158015610dd5573d6000803e3d6000fd5b505050506040513d6000823e601f3d908101601f191682016040526020811015610dfe57600080fd5b8101908080516040519392919084600160201b821115610e1d57600080fd5b908301906020820185811115610e3257600080fd5b82518660208202830111600160201b82111715610e4e57600080fd5b82525081516020918201928201910280838360005b83811015610e7b578181015183820152602001610e63565b50505050905001604052505050905090565b60085481565b6001546001600160a01b03163314610ee0576040805162461bcd60e51b815260206004820152601560248201526000805160206136e1833981519152604482015290519081900360640190fd5b601180549115156101000261ff0019909216919091179055565b600060026000541415610f42576040805162461bcd60e51b815260206004820152601f602482015260008051602061361e833981519152604482015290519081900360640190fd5b600260005560115462010000900460ff1615610f8f5760405162461bcd60e51b815260040180806020018281038252602181526020018061388b6021913960400191505060405180910390fd5b600460009054906101000a90046001600160a01b03166001600160a01b03166395ded45c846040518263ffffffff1660e01b815260040180826001600160a01b0316815260200191505060206040518083038186803b158015610ff157600080fd5b505afa158015611005573d6000803e3d6000fd5b505050506040513d602081101561101b57600080fd5b50516110585760405162461bcd60e51b81526004018080602001828103825260238152602001806136696023913960400191505060405180910390fd5b6110633384846125fa565b60016000559392505050565b3360009081526012602052604081205460ff161561109a5761109284848461269b565b506001611102565b60006110e483604051806060016040528060308152602001613831603091396001600160a01b0388166000908152600a6020908152604080832033845290915290205491906127ee565b90506110f18533836122b1565b6110fc85858561269b565b60019150505b9392505050565b6000600460009054906101000a90046001600160a01b03166001600160a01b031663270da240836040518263ffffffff1660e01b815260040180826001600160a01b0316815260200191505060206040518083038186803b15801561116d57600080fd5b505afa158015611181573d6000803e3d6000fd5b505050506040513d602081101561119757600080fd5b505190505b919050565b60096020526000908152604090205481565b601281565b600154600160a01b900460ff1681565b6001546001600160a01b03163314611215576040805162461bcd60e51b815260206004820152601560248201526000805160206136e1833981519152604482015290519081900360640190fd5b60118054911515620100000262ff000019909216919091179055565b6001546001600160a01b0316331461127e576040805162461bcd60e51b815260206004820152601560248201526000805160206136e1833981519152604482015290519081900360640190fd5b600154600160a01b900460ff16156112c75760405162461bcd60e51b815260040180806020018281038252602281526020018061379b6022913960400191505060405180910390fd5b6001805460ff60a01b1916600160a01b17905560005b82518110156113305760008382815181106112f457fe5b6020908102919091018101516001600160a01b03166000908152600590915260409020805460ff191660019081179091559190910190506112dd565b50600480546001600160a01b0319166001600160a01b039290921691909117905550565b60126020526000908152604090205460ff1681565b60076020526000908152604090205481565b600a60209081526000928352604080842090915290825290205481565b6001546001600160a01b031633146113e5576040805162461bcd60e51b815260206004820152601560248201526000805160206136e1833981519152604482015290519081900360640190fd5b6011805460ff1916911515919091179055565b6060806000600460009054906101000a90046001600160a01b03166001600160a01b031663286c6a946040518163ffffffff1660e01b815260040160206040518083038186803b15801561144b57600080fd5b505afa15801561145f573d6000803e3d6000fd5b505050506040513d602081101561147557600080fd5b505190506060816001600160401b038111801561149157600080fd5b506040519080825280602002602001820160405280156114bb578160200160208202803683370190505b5090506060826001600160401b03811180156114d657600080fd5b50604051908082528060200260200182016040528015611500578160200160208202803683370190505b50905060005b838110156115e65760048054604080516327ba031760e21b8152928301849052516000926001600160a01b0390921691639ee80c5c916024808301926020929190829003018186803b15801561155b57600080fd5b505afa15801561156f573d6000803e3d6000fd5b505050506040513d602081101561158557600080fd5b5051905060006115958983611d7c565b9050818584815181106115a457fe5b60200260200101906001600160a01b031690816001600160a01b031681525050808484815181106115d157fe5b60209081029190910101525050600101611506565b50909350915050915091565b60026000541415611638576040805162461bcd60e51b815260206004820152601f602482015260008051602061361e833981519152604482015290519081900360640190fd5b60026000556004805460408051632577b51760e21b81526001600160a01b0385811694820194909452905192909116916395ded45c91602480820192602092909190829003018186803b15801561168e57600080fd5b505afa1580156116a2573d6000803e3d6000fd5b505050506040513d60208110156116b857600080fd5b50516116f55760405162461bcd60e51b81526004018080602001828103825260238152602001806136696023913960400191505060405180910390fd5b611700600082612885565b506001600055565b6001600160a01b031660009081526009602052604090205490565b6060806002600054141561176c576040805162461bcd60e51b815260206004820152601f602482015260008051602061361e833981519152604482015290519081900360640190fd5b600260005560115462010000900460ff16156117b95760405162461bcd60e51b815260040180806020018281038252602181526020018061388b6021913960400191505060405180910390fd5b6117c333846129bc565b60016000559094909350915050565b60026000541415611818576040805162461bcd60e51b815260206004820152601f602482015260008051602061361e833981519152604482015290519081900360640190fd5b600260005561182561239d565b610d3f84848484612bb6565b6003805460408051602060026001851615610100026000190190941693909304601f81018490048402820184019092528181529291830182828015610cc15780601f10610c9657610100808354040283529160200191610cc1565b6000600460009054906101000a90046001600160a01b03166001600160a01b03166395ded45c836040518263ffffffff1660e01b815260040180826001600160a01b0316815260200191505060206040518083038186803b15801561116d57600080fd5b600b6020526000908152604090205481565b6001546001600160a01b0316331461194f576040805162461bcd60e51b815260206004820152601560248201526000805160206136e1833981519152604482015290519081900360640190fd5b6001600160a01b03919091166000908152601260205260409020805460ff1916911515919091179055565b606080600260005414156119c3576040805162461bcd60e51b815260206004820152601f602482015260008051602061361e833981519152604482015290519081900360640190fd5b60026000556119d061239d565b6119da84846129bc565b6001600055909590945092505050565b60106020526000908152604090205481565b600f60209081526000928352604080842090915290825290205481565b6000610cd633848461269b565b68327cb2734119d3b7a9601e1b81565b60026000541415611a7c576040805162461bcd60e51b815260206004820152601f602482015260008051602061361e833981519152604482015290519081900360640190fd5b6002600055601154610100900460ff1615611ac85760405162461bcd60e51b815260040180806020018281038252602181526020018061388b6021913960400191505060405180910390fd5b611ad433338484612bb6565b50506001600055565b60056020526000908152604090205460ff1681565b6004546001600160a01b031681565b60026000541415611b47576040805162461bcd60e51b815260206004820152601f602482015260008051602061361e833981519152604482015290519081900360640190fd5b6002600055601154610100900460ff1615611b935760405162461bcd60e51b815260040180806020018281038252602181526020018061388b6021913960400191505060405180910390fd5b611ad4338383336123fe565b601154610100900460ff1681565b6004805460408051630a1b1aa560e21b8152905160009384936001600160a01b03169263286c6a949281830192602092829003018186803b158015611bf157600080fd5b505afa158015611c05573d6000803e3d6000fd5b505050506040513d6020811015611c1b57600080fd5b5051905060005b81811015611ce65760048054604080516327ba031760e21b8152928301849052516000926001600160a01b0390921691639ee80c5c916024808301926020929190829003018186803b158015611c7757600080fd5b505afa158015611c8b573d6000803e3d6000fd5b505050506040513d6020811015611ca157600080fd5b50516001600160a01b038087166000908152600f602090815260408083209385168352929052205490915015611cdd576001935050505061119c565b50600101611c22565b5060009392505050565b6001546001600160a01b03163314611d3d576040805162461bcd60e51b815260206004820152601560248201526000805160206136e1833981519152604482015290519081900360640190fd5b600180546001600160a01b0319166001600160a01b0392909216919091179055565b600d60209081526000928352604080842090915290825290205481565b6000600460009054906101000a90046001600160a01b03166001600160a01b03166395ded45c836040518263ffffffff1660e01b815260040180826001600160a01b0316815260200191505060206040518083038186803b158015611de057600080fd5b505afa158015611df4573d6000803e3d6000fd5b505050506040513d6020811015611e0a57600080fd5b5051611e475760405162461bcd60e51b81526004018080602001828103825260238152602001806136696023913960400191505060405180910390fd5b6001600160a01b0383166000908152600c602052604090205480611e925750506001600160a01b038083166000908152600d6020908152604080832093851683529290522054610cda565b60085460048054604080516318ebd13160e11b81526001600160a01b03888116948201949094529051600093611f2b9368327cb2734119d3b7a9601e1b939116916331d7a26291602480820192602092909190829003018186803b158015611ef957600080fd5b505afa158015611f0d573d6000803e3d6000fd5b505050506040513d6020811015611f2357600080fd5b505190612d33565b90506000611f5b611f3c8385612d8c565b6001600160a01b0388166000908152600b602052604090205490612dcb565b6001600160a01b038089166000908152600e60209081526040808320938b1683529290522054909150611fe290611fb69068327cb2734119d3b7a9601e1b90611fb090611fa9908690612e23565b8890612d33565b90612d8c565b6001600160a01b03808a166000908152600d60209081526040808320938c168352929052205490612dcb565b979650505050505050565b6001600160a01b039182166000908152600a6020908152604080832093909416825291909152205490565b60115460ff1681565b6001546001600160a01b0316331461206e576040805162461bcd60e51b815260206004820152601560248201526000805160206136e1833981519152604482015290519081900360640190fd5b6001600160a01b03919091166000908152600560205260409020805460ff1916911515919091179055565b6000600460009054906101000a90046001600160a01b03166001600160a01b031663f5ab16cc836040518263ffffffff1660e01b815260040180826001600160a01b0316815260200191505060206040518083038186803b15801561116d57600080fd5b600660209081526000928352604080842090915290825290205481565b60115462010000900460ff1681565b600060026000541415612171576040805162461bcd60e51b815260206004820152601f602482015260008051602061361e833981519152604482015290519081900360640190fd5b600260005561217e61239d565b600460009054906101000a90046001600160a01b03166001600160a01b03166395ded45c846040518263ffffffff1660e01b815260040180826001600160a01b0316815260200191505060206040518083038186803b1580156121e057600080fd5b505afa1580156121f4573d6000803e3d6000fd5b505050506040513d602081101561220a57600080fd5b50516122475760405162461bcd60e51b81526004018080602001828103825260238152602001806136696023913960400191505060405180910390fd5b6122528484846125fa565b6001600055949350505050565b604080516001600160a01b038416602482015260448082018490528251808303909101815260649091019091526020810180516001600160e01b031663a9059cbb60e01b179052610c1c908490612e65565b6001600160a01b0383166122f65760405162461bcd60e51b815260040180806020018281038252602c81526020018061368c602c913960400191505060405180910390fd5b6001600160a01b03821661233b5760405162461bcd60e51b815260040180806020018281038252602a815260200180613750602a913960400191505060405180910390fd5b6001600160a01b038084166000818152600a6020908152604080832094871680845294825291829020859055815185815291517f8c5be1e5ebec7d5bd14f71427d1e84f3dd0314c0f7b2291e5b200ac8c7c3b9259281900390910190a3505050565b3360009081526012602052604090205460ff166123fc576040805162461bcd60e51b81526020600482015260186024820152772932bbb0b9322a3930b1b5b2b91d103337b93134b23232b760411b604482015290519081900360640190fd5b565b60008211612441576040805162461bcd60e51b815260206004820152601e60248201526000805160206135d4833981519152604482015290519081900360640190fd5b6001600160a01b03831660009081526005602052604090205460ff166124985760405162461bcd60e51b815260040180806020018281038252602481526020018061372c6024913960400191505060405180910390fd5b6124a184612f16565b6001600160a01b0384166000908152600c6020526040902054828110156124f95760405162461bcd60e51b815260040180806020018281038252602b81526020018061363e602b913960400191505060405180910390fd5b6125038184612e23565b6001600160a01b038087166000908152600c6020908152604080832094909455600681528382209288168252919091522054838110156125745760405162461bcd60e51b815260040180806020018281038252602d8152602001806138ac602d913960400191505060405180910390fd5b61257e8185612e23565b6001600160a01b038088166000908152600660209081526040808320938a1683529281528282209390935560079092529020546125bb9085612e23565b6001600160a01b0386166000908152600760205260409020556125de868561302d565b6125f26001600160a01b038616848661225f565b505050505050565b60006126068484612885565b6001600160a01b038481166000908152600d602090815260408083209387168352929052908120805491905580156126935761264c6001600160a01b038516848361225f565b604080516001600160a01b038681168252602082018490528251908816927f70eb43c4a8ae8c40502dcf22436c509c28d6ff421cf07c491be56984bd987068928290030190a25b949350505050565b6001600160a01b0383166126e05760405162461bcd60e51b815260040180806020018281038252602d8152602001806137bd602d913960400191505060405180910390fd5b6001600160a01b0382166127255760405162461bcd60e51b815260040180806020018281038252602b815260200180613701602b913960400191505060405180910390fd5b60115460ff16156127385761273861239d565b612775816040518060600160405280602e81526020016138d9602e91396001600160a01b03861660009081526009602052604090205491906127ee565b6001600160a01b0380851660009081526009602052604080822093909355908416815220546127a49082612dcb565b6001600160a01b03808416600081815260096020908152604091829020949094558051858152905191939287169260008051602061381183398151915292918290030190a3505050565b6000818484111561287d5760405162461bcd60e51b81526004018080602001828103825283818151815260200191508051906020019080838360005b8381101561284257818101518382015260200161282a565b50505050905090810190601f16801561286f5780820380516001836020036101000a031916815260200191505b509250505060405180910390fd5b505050900390565b6000600460009054906101000a90046001600160a01b03166001600160a01b03166363453ae1836040518263ffffffff1660e01b815260040180826001600160a01b03168152602001915050602060405180830381600087803b1580156128eb57600080fd5b505af11580156128ff573d6000803e3d6000fd5b505050506040513d602081101561291557600080fd5b50516008546001600160a01b0384166000908152600b60205260409020549192509081158015906129465750600083115b1561298d5761296f61296883611fb08668327cb2734119d3b7a9601e1b612d33565b8290612dcb565b6001600160a01b0385166000908152600b6020526040902081905590505b8061299a575050506129b8565b6001600160a01b038516156129b4576129b485858361310b565b5050505b5050565b6060806000600460009054906101000a90046001600160a01b03166001600160a01b031663286c6a946040518163ffffffff1660e01b815260040160206040518083038186803b158015612a0f57600080fd5b505afa158015612a23573d6000803e3d6000fd5b505050506040513d6020811015612a3957600080fd5b505190506060816001600160401b0381118015612a5557600080fd5b50604051908082528060200260200182016040528015612a7f578160200160208202803683370190505b5090506060826001600160401b0381118015612a9a57600080fd5b50604051908082528060200260200182016040528015612ac4578160200160208202803683370190505b50905060005b83811015612ba95760048054604080516327ba031760e21b8152928301849052516000926001600160a01b0390921691639ee80c5c916024808301926020929190829003018186803b158015612b1f57600080fd5b505afa158015612b33573d6000803e3d6000fd5b505050506040513d6020811015612b4957600080fd5b505184519091508190859084908110612b5e57fe5b60200260200101906001600160a01b031690816001600160a01b031681525050612b8989828a6125fa565b838381518110612b9557fe5b602090810291909101015250600101612aca565b5090969095509350505050565b60008111612bf9576040805162461bcd60e51b815260206004820152601e60248201526000805160206135d4833981519152604482015290519081900360640190fd5b6001600160a01b03821660009081526005602052604090205460ff16612c505760405162461bcd60e51b815260040180806020018281038252602481526020018061372c6024913960400191505060405180910390fd5b612c656001600160a01b0383168530846132cf565b612c6e83612f16565b6001600160a01b0383166000908152600c6020526040902054612c919082612dcb565b6001600160a01b038085166000908152600c6020908152604080832094909455600681528382209286168252919091522054612ccd9082612dcb565b6001600160a01b0380851660009081526006602090815260408083209387168352928152828220939093556007909252902054612d0a9082612dcb565b6001600160a01b038316600090815260076020526040902055612d2d8382613329565b50505050565b600082612d4257506000610cda565b82820282848281612d4f57fe5b04146111025760405162461bcd60e51b815260040180806020018281038252602181526020018061377a6021913960400191505060405180910390fd5b600061110283836040518060400160405280601a815260200179536166654d6174683a206469766973696f6e206279207a65726f60301b8152506133e7565b600082820183811015611102576040805162461bcd60e51b815260206004820152601b60248201527a536166654d6174683a206164646974696f6e206f766572666c6f7760281b604482015290519081900360640190fd5b600061110283836040518060400160405280601e81526020017f536166654d6174683a207375627472616374696f6e206f766572666c6f7700008152506127ee565b6060612eba826040518060400160405280602081526020017f5361666545524332303a206c6f772d6c6576656c2063616c6c206661696c6564815250856001600160a01b031661344c9092919063ffffffff16565b805190915015610c1c57808060200190516020811015612ed957600080fd5b5051610c1c5760405162461bcd60e51b815260040180806020018281038252602a815260200180613861602a913960400191505060405180910390fd5b6000600460009054906101000a90046001600160a01b03166001600160a01b031663286c6a946040518163ffffffff1660e01b815260040160206040518083038186803b158015612f6657600080fd5b505afa158015612f7a573d6000803e3d6000fd5b505050506040513d6020811015612f9057600080fd5b5051905060005b81811015610c1c5760048054604080516327ba031760e21b8152928301849052516000926001600160a01b0390921691639ee80c5c916024808301926020929190829003018186803b158015612fec57600080fd5b505afa158015613000573d6000803e3d6000fd5b505050506040513d602081101561301657600080fd5b505190506130248482612885565b50600101612f97565b6001600160a01b0382166130725760405162461bcd60e51b81526004018080602001828103825260298152602001806136b86029913960400191505060405180910390fd5b6130af816040518060600160405280602a81526020016135f4602a91396001600160a01b03851660009081526009602052604090205491906127ee565b6001600160a01b0383166000908152600960205260409020556008546130d59082612e23565b6008556040805182815290516000916001600160a01b038516916000805160206138118339815191529181900360200190a35050565b6001600160a01b038084166000908152600c6020908152604080832054600e83528184209487168452939091528120546131639068327cb2734119d3b7a9601e1b90611fb09061315c908790612e23565b8590612d33565b6001600160a01b038087166000908152600d60209081526040808320938916835292905290812054919250906131999083612dcb565b6001600160a01b038088166000818152600d60209081526040808320948b16808452948252808320869055928252600e81528282209382529290925290208590559050801580159061320257506001600160a01b0386166000908152600c602052604090205415155b156125f2576001600160a01b038087166000908152600f602090815260408083209389168352929052908120546132399084612dcb565b905061329561324c82611fb08787612d33565b6001600160a01b03808a166000818152600f60209081526040808320948d1683529381528382205492825260109052919091205461328f918591611fb091612d33565b90612dcb565b6001600160a01b03808916600090815260106020908152604080832094909455600f8152838220928a168252919091522055505050505050565b604080516001600160a01b0380861660248301528416604482015260648082018490528251808303909101815260849091019091526020810180516001600160e01b03166323b872dd60e01b179052612d2d908590612e65565b6001600160a01b03821661336e5760405162461bcd60e51b81526004018080602001828103825260278152602001806137ea6027913960400191505060405180910390fd5b60085461337b9082612dcb565b6008556001600160a01b0382166000908152600960205260409020546133a19082612dcb565b6001600160a01b03831660008181526009602090815260408083209490945583518581529351929391926000805160206138118339815191529281900390910190a35050565b600081836134365760405162461bcd60e51b815260206004820181815283516024840152835190928392604490910191908501908083836000831561284257818101518382015260200161282a565b50600083858161344257fe5b0495945050505050565b606061269384846000858561346085613567565b6134b1576040805162461bcd60e51b815260206004820152601d60248201527f416464726573733a2063616c6c20746f206e6f6e2d636f6e7472616374000000604482015290519081900360640190fd5b60006060866001600160a01b031685876040518082805190602001908083835b602083106134f05780518252601f1990920191602091820191016134d1565b6001836020036101000a03801982511681845116808217855250505050505090500191505060006040518083038185875af1925050503d8060008114613552576040519150601f19603f3d011682016040523d82523d6000602084013e613557565b606091505b5091509150611fe282828661356d565b3b151590565b6060831561357c575081611102565b82511561358c5782518084602001fd5b60405162461bcd60e51b815260206004820181815284516024840152845185939192839260440191908501908083836000831561284257818101518382015260200161282a56fe526577617264547261636b65723a20696e76616c6964205f616d6f756e740000526577617264547261636b65723a206275726e20616d6f756e7420657863656564732062616c616e63655265656e7472616e637947756172643a207265656e7472616e742063616c6c00526577617264547261636b65723a205f616d6f756e742065786365656473207374616b6564416d6f756e74526577617264547261636b65723a20696e76616c6964205f726577617264546f6b656e526577617264547261636b65723a20617070726f76652066726f6d20746865207a65726f2061646472657373526577617264547261636b65723a206275726e2066726f6d20746865207a65726f2061646472657373476f7665726e61626c653a20666f7262696464656e0000000000000000000000526577617264547261636b65723a207472616e7366657220746f20746865207a65726f2061646472657373526577617264547261636b65723a20696e76616c6964205f6465706f736974546f6b656e526577617264547261636b65723a20617070726f766520746f20746865207a65726f2061646472657373536166654d6174683a206d756c7469706c69636174696f6e206f766572666c6f77526577617264547261636b65723a20616c726561647920696e697469616c697a6564526577617264547261636b65723a207472616e736665722066726f6d20746865207a65726f2061646472657373526577617264547261636b65723a206d696e7420746f20746865207a65726f2061646472657373ddf252ad1be2c89b69c2b068fc378daa952ba7f163c4a11628f55a4df523b3ef526577617264547261636b65723a207472616e7366657220616d6f756e74206578636565647320616c6c6f77616e63655361666545524332303a204552433230206f7065726174696f6e20646964206e6f742073756363656564526577617264547261636b65723a20616374696f6e206e6f7420656e61626c6564526577617264547261636b65723a205f616d6f756e742065786365656473206465706f73697442616c616e6365526577617264547261636b65723a207472616e7366657220616d6f756e7420657863656564732062616c616e6365a2646970667358221220e7899a5d74da9ae011f037f038c018c4254fc2ce1110c13ec810649f8a96591f64736f6c634300060c0033",
  "linkReferences": {},
  "deployedLinkReferences": {}
}