{
  "_format": "hh-sol-artifact-1",
  "contractName": "Vault",
  "sourceName": "contracts/core/Vault.sol",
  "abi": [
    {
      "inputs": [],
      "stateMutability": "nonpayable",
      "type": "constructor"
    },
    {
      "anonymous": false,
      "inputs": [
        {
          "indexed": false,
          "internalType": "address",
          "name": "account",
          "type": "address"
        },
        {
          "indexed": false,
          "internalType": "address",
          "name": "token",
          "type": "address"
        },
        {
          "indexed": false,
          "internalType": "uint256",
          "name": "tokenAmount",
          "type": "uint256"
        },
        {
          "indexed": false,
          "internalType": "uint256",
          "name": "usdlAmount",
          "type": "uint256"
        },
        {
          "indexed": false,
          "internalType": "uint256",
          "name": "feeBasisPoints",
          "type": "uint256"
        }
      ],
      "name": "BuyUSDL",
      "type": "event"
    },
    {
      "anonymous": false,
      "inputs": [
        {
          "indexed": false,
          "internalType": "bytes32",
          "name": "key",
          "type": "bytes32"
        },
        {
          "indexed": false,
          "internalType": "uint256",
          "name": "size",
          "type": "uint256"
        },
        {
          "indexed": false,
          "internalType": "uint256",
          "name": "collateral",
          "type": "uint256"
        },
        {
          "indexed": false,
          "internalType": "uint256",
          "name": "averagePrice",
          "type": "uint256"
        },
        {
          "indexed": false,
          "internalType": "uint256",
          "name": "entryFundingRate",
          "type": "uint256"
        },
        {
          "indexed": false,
          "internalType": "uint256",
          "name": "reserveAmount",
          "type": "uint256"
        },
        {
          "indexed": false,
          "internalType": "int256",
          "name": "realisedPnl",
          "type": "int256"
        }
      ],
      "name": "ClosePosition",
      "type": "event"
    },
    {
      "anonymous": false,
      "inputs": [
        {
          "indexed": false,
          "internalType": "address",
          "name": "token",
          "type": "address"
        },
        {
          "indexed": false,
          "internalType": "uint256",
          "name": "feeUsd",
          "type": "uint256"
        },
        {
          "indexed": false,
          "internalType": "uint256",
          "name": "feeTokens",
          "type": "uint256"
        }
      ],
      "name": "CollectMarginFees",
      "type": "event"
    },
    {
      "anonymous": false,
      "inputs": [
        {
          "indexed": false,
          "internalType": "address",
          "name": "token",
          "type": "address"
        },
        {
          "indexed": false,
          "internalType": "uint256",
          "name": "feeUsd",
          "type": "uint256"
        },
        {
          "indexed": false,
          "internalType": "uint256",
          "name": "feeTokens",
          "type": "uint256"
        }
      ],
      "name": "CollectSwapFees",
      "type": "event"
    },
    {
      "anonymous": false,
      "inputs": [
        {
          "indexed": false,
          "internalType": "address",
          "name": "token",
          "type": "address"
        },
        {
          "indexed": false,
          "internalType": "uint256",
          "name": "amount",
          "type": "uint256"
        }
      ],
      "name": "DecreaseGuaranteedUsd",
      "type": "event"
    },
    {
      "anonymous": false,
      "inputs": [
        {
          "indexed": false,
          "internalType": "address",
          "name": "token",
          "type": "address"
        },
        {
          "indexed": false,
          "internalType": "uint256",
          "name": "amount",
          "type": "uint256"
        }
      ],
      "name": "DecreasePoolAmount",
      "type": "event"
    },
    {
      "anonymous": false,
      "inputs": [
        {
          "indexed": false,
          "internalType": "bytes32",
          "name": "key",
          "type": "bytes32"
        },
        {
          "indexed": false,
          "internalType": "address",
          "name": "account",
          "type": "address"
        },
        {
          "indexed": false,
          "internalType": "address",
          "name": "collateralToken",
          "type": "address"
        },
        {
          "indexed": false,
          "internalType": "address",
          "name": "indexToken",
          "type": "address"
        },
        {
          "indexed": false,
          "internalType": "uint256",
          "name": "collateralDelta",
          "type": "uint256"
        },
        {
          "indexed": false,
          "internalType": "uint256",
          "name": "sizeDelta",
          "type": "uint256"
        },
        {
          "indexed": false,
          "internalType": "bool",
          "name": "isLong",
          "type": "bool"
        },
        {
          "indexed": false,
          "internalType": "uint256",
          "name": "price",
          "type": "uint256"
        },
        {
          "indexed": false,
          "internalType": "uint256",
          "name": "fee",
          "type": "uint256"
        }
      ],
      "name": "DecreasePosition",
      "type": "event"
    },
    {
      "anonymous": false,
      "inputs": [
        {
          "indexed": false,
          "internalType": "address",
          "name": "token",
          "type": "address"
        },
        {
          "indexed": false,
          "internalType": "uint256",
          "name": "amount",
          "type": "uint256"
        }
      ],
      "name": "DecreaseReservedAmount",
      "type": "event"
    },
    {
      "anonymous": false,
      "inputs": [
        {
          "indexed": false,
          "internalType": "address",
          "name": "token",
          "type": "address"
        },
        {
          "indexed": false,
          "internalType": "uint256",
          "name": "amount",
          "type": "uint256"
        }
      ],
      "name": "DecreaseUsdlAmount",
      "type": "event"
    },
    {
      "anonymous": false,
      "inputs": [
        {
          "indexed": false,
          "internalType": "address",
          "name": "token",
          "type": "address"
        },
        {
          "indexed": false,
          "internalType": "uint256",
          "name": "amount",
          "type": "uint256"
        }
      ],
      "name": "DirectPoolDeposit",
      "type": "event"
    },
    {
      "anonymous": false,
      "inputs": [
        {
          "indexed": false,
          "internalType": "address",
          "name": "token",
          "type": "address"
        },
        {
          "indexed": false,
          "internalType": "uint256",
          "name": "amount",
          "type": "uint256"
        }
      ],
      "name": "IncreaseGuaranteedUsd",
      "type": "event"
    },
    {
      "anonymous": false,
      "inputs": [
        {
          "indexed": false,
          "internalType": "address",
          "name": "token",
          "type": "address"
        },
        {
          "indexed": false,
          "internalType": "uint256",
          "name": "amount",
          "type": "uint256"
        }
      ],
      "name": "IncreasePoolAmount",
      "type": "event"
    },
    {
      "anonymous": false,
      "inputs": [
        {
          "indexed": false,
          "internalType": "bytes32",
          "name": "key",
          "type": "bytes32"
        },
        {
          "indexed": false,
          "internalType": "address",
          "name": "account",
          "type": "address"
        },
        {
          "indexed": false,
          "internalType": "address",
          "name": "collateralToken",
          "type": "address"
        },
        {
          "indexed": false,
          "internalType": "address",
          "name": "indexToken",
          "type": "address"
        },
        {
          "indexed": false,
          "internalType": "uint256",
          "name": "collateralDelta",
          "type": "uint256"
        },
        {
          "indexed": false,
          "internalType": "uint256",
          "name": "sizeDelta",
          "type": "uint256"
        },
        {
          "indexed": false,
          "internalType": "bool",
          "name": "isLong",
          "type": "bool"
        },
        {
          "indexed": false,
          "internalType": "uint256",
          "name": "price",
          "type": "uint256"
        },
        {
          "indexed": false,
          "internalType": "uint256",
          "name": "fee",
          "type": "uint256"
        }
      ],
      "name": "IncreasePosition",
      "type": "event"
    },
    {
      "anonymous": false,
      "inputs": [
        {
          "indexed": false,
          "internalType": "address",
          "name": "token",
          "type": "address"
        },
        {
          "indexed": false,
          "internalType": "uint256",
          "name": "amount",
          "type": "uint256"
        }
      ],
      "name": "IncreaseReservedAmount",
      "type": "event"
    },
    {
      "anonymous": false,
      "inputs": [
        {
          "indexed": false,
          "internalType": "address",
          "name": "token",
          "type": "address"
        },
        {
          "indexed": false,
          "internalType": "uint256",
          "name": "amount",
          "type": "uint256"
        }
      ],
      "name": "IncreaseUsdlAmount",
      "type": "event"
    },
    {
      "anonymous": false,
      "inputs": [
        {
          "indexed": false,
          "internalType": "bytes32",
          "name": "key",
          "type": "bytes32"
        },
        {
          "indexed": false,
          "internalType": "address",
          "name": "account",
          "type": "address"
        },
        {
          "indexed": false,
          "internalType": "address",
          "name": "collateralToken",
          "type": "address"
        },
        {
          "indexed": false,
          "internalType": "address",
          "name": "indexToken",
          "type": "address"
        },
        {
          "indexed": false,
          "internalType": "bool",
          "name": "isLong",
          "type": "bool"
        },
        {
          "indexed": false,
          "internalType": "uint256",
          "name": "size",
          "type": "uint256"
        },
        {
          "indexed": false,
          "internalType": "uint256",
          "name": "collateral",
          "type": "uint256"
        },
        {
          "indexed": false,
          "internalType": "uint256",
          "name": "reserveAmount",
          "type": "uint256"
        },
        {
          "indexed": false,
          "internalType": "int256",
          "name": "realisedPnl",
          "type": "int256"
        },
        {
          "indexed": false,
          "internalType": "uint256",
          "name": "markPrice",
          "type": "uint256"
        }
      ],
      "name": "LiquidatePosition",
      "type": "event"
    },
    {
      "anonymous": false,
      "inputs": [
        {
          "indexed": false,
          "internalType": "address",
          "name": "account",
          "type": "address"
        },
        {
          "indexed": false,
          "internalType": "address",
          "name": "token",
          "type": "address"
        },
        {
          "indexed": false,
          "internalType": "uint256",
          "name": "usdlAmount",
          "type": "uint256"
        },
        {
          "indexed": false,
          "internalType": "uint256",
          "name": "tokenAmount",
          "type": "uint256"
        },
        {
          "indexed": false,
          "internalType": "uint256",
          "name": "feeBasisPoints",
          "type": "uint256"
        }
      ],
      "name": "SellUSDL",
      "type": "event"
    },
    {
      "anonymous": false,
      "inputs": [
        {
          "indexed": false,
          "internalType": "address",
          "name": "account",
          "type": "address"
        },
        {
          "indexed": false,
          "internalType": "address",
          "name": "tokenIn",
          "type": "address"
        },
        {
          "indexed": false,
          "internalType": "address",
          "name": "tokenOut",
          "type": "address"
        },
        {
          "indexed": false,
          "internalType": "uint256",
          "name": "amountIn",
          "type": "uint256"
        },
        {
          "indexed": false,
          "internalType": "uint256",
          "name": "amountOut",
          "type": "uint256"
        },
        {
          "indexed": false,
          "internalType": "uint256",
          "name": "amountOutAfterFees",
          "type": "uint256"
        },
        {
          "indexed": false,
          "internalType": "uint256",
          "name": "feeBasisPoints",
          "type": "uint256"
        }
      ],
      "name": "Swap",
      "type": "event"
    },
    {
      "anonymous": false,
      "inputs": [
        {
          "indexed": false,
          "internalType": "address",
          "name": "token",
          "type": "address"
        },
        {
          "indexed": false,
          "internalType": "uint256",
          "name": "fundingRate",
          "type": "uint256"
        }
      ],
      "name": "UpdateFundingRate",
      "type": "event"
    },
    {
      "anonymous": false,
      "inputs": [
        {
          "indexed": false,
          "internalType": "bytes32",
          "name": "key",
          "type": "bytes32"
        },
        {
          "indexed": false,
          "internalType": "bool",
          "name": "hasProfit",
          "type": "bool"
        },
        {
          "indexed": false,
          "internalType": "uint256",
          "name": "delta",
          "type": "uint256"
        }
      ],
      "name": "UpdatePnl",
      "type": "event"
    },
    {
      "anonymous": false,
      "inputs": [
        {
          "indexed": false,
          "internalType": "bytes32",
          "name": "key",
          "type": "bytes32"
        },
        {
          "indexed": false,
          "internalType": "uint256",
          "name": "size",
          "type": "uint256"
        },
        {
          "indexed": false,
          "internalType": "uint256",
          "name": "collateral",
          "type": "uint256"
        },
        {
          "indexed": false,
          "internalType": "uint256",
          "name": "averagePrice",
          "type": "uint256"
        },
        {
          "indexed": false,
          "internalType": "uint256",
          "name": "entryFundingRate",
          "type": "uint256"
        },
        {
          "indexed": false,
          "internalType": "uint256",
          "name": "reserveAmount",
          "type": "uint256"
        },
        {
          "indexed": false,
          "internalType": "int256",
          "name": "realisedPnl",
          "type": "int256"
        },
        {
          "indexed": false,
          "internalType": "uint256",
          "name": "markPrice",
          "type": "uint256"
        }
      ],
      "name": "UpdatePosition",
      "type": "event"
    },
    {
      "inputs": [],
      "name": "BASIS_POINTS_DIVISOR",
      "outputs": [
        {
          "internalType": "uint256",
          "name": "",
          "type": "uint256"
        }
      ],
      "stateMutability": "view",
      "type": "function"
    },
    {
      "inputs": [],
      "name": "FUNDING_RATE_PRECISION",
      "outputs": [
        {
          "internalType": "uint256",
          "name": "",
          "type": "uint256"
        }
      ],
      "stateMutability": "view",
      "type": "function"
    },
    {
      "inputs": [],
      "name": "MAX_FEE_BASIS_POINTS",
      "outputs": [
        {
          "internalType": "uint256",
          "name": "",
          "type": "uint256"
        }
      ],
      "stateMutability": "view",
      "type": "function"
    },
    {
      "inputs": [],
      "name": "MAX_FUNDING_RATE_FACTOR",
      "outputs": [
        {
          "internalType": "uint256",
          "name": "",
          "type": "uint256"
        }
      ],
      "stateMutability": "view",
      "type": "function"
    },
    {
      "inputs": [],
      "name": "MAX_LIQUIDATION_FEE_USD",
      "outputs": [
        {
          "internalType": "uint256",
          "name": "",
          "type": "uint256"
        }
      ],
      "stateMutability": "view",
      "type": "function"
    },
    {
      "inputs": [],
      "name": "MIN_FUNDING_RATE_INTERVAL",
      "outputs": [
        {
          "internalType": "uint256",
          "name": "",
          "type": "uint256"
        }
      ],
      "stateMutability": "view",
      "type": "function"
    },
    {
      "inputs": [],
      "name": "MIN_LEVERAGE",
      "outputs": [
        {
          "internalType": "uint256",
          "name": "",
          "type": "uint256"
        }
      ],
      "stateMutability": "view",
      "type": "function"
    },
    {
      "inputs": [],
      "name": "PRICE_PRECISION",
      "outputs": [
        {
          "internalType": "uint256",
          "name": "",
          "type": "uint256"
        }
      ],
      "stateMutability": "view",
      "type": "function"
    },
    {
      "inputs": [],
      "name": "USDL_DECIMALS",
      "outputs": [
        {
          "internalType": "uint256",
          "name": "",
          "type": "uint256"
        }
      ],
      "stateMutability": "view",
      "type": "function"
    },
    {
      "inputs": [
        {
          "internalType": "address",
          "name": "_router",
          "type": "address"
        }
      ],
      "name": "addRouter",
      "outputs": [],
      "stateMutability": "nonpayable",
      "type": "function"
    },
    {
      "inputs": [
        {
          "internalType": "uint256",
          "name": "_amount",
          "type": "uint256"
        },
        {
          "internalType": "address",
          "name": "_tokenDiv",
          "type": "address"
        },
        {
          "internalType": "address",
          "name": "_tokenMul",
          "type": "address"
        }
      ],
      "name": "adjustForDecimals",
      "outputs": [
        {
          "internalType": "uint256",
          "name": "",
          "type": "uint256"
        }
      ],
      "stateMutability": "view",
      "type": "function"
    },
    {
      "inputs": [
        {
          "internalType": "uint256",
          "name": "",
          "type": "uint256"
        }
      ],
      "name": "allWhitelistedTokens",
      "outputs": [
        {
          "internalType": "address",
          "name": "",
          "type": "address"
        }
      ],
      "stateMutability": "view",
      "type": "function"
    },
    {
      "inputs": [],
      "name": "allWhitelistedTokensLength",
      "outputs": [
        {
          "internalType": "uint256",
          "name": "",
          "type": "uint256"
        }
      ],
      "stateMutability": "view",
      "type": "function"
    },
    {
      "inputs": [
        {
          "internalType": "address",
          "name": "",
          "type": "address"
        },
        {
          "internalType": "address",
          "name": "",
          "type": "address"
        }
      ],
      "name": "approvedRouters",
      "outputs": [
        {
          "internalType": "bool",
          "name": "",
          "type": "bool"
        }
      ],
      "stateMutability": "view",
      "type": "function"
    },
    {
      "inputs": [
        {
          "internalType": "address",
          "name": "",
          "type": "address"
        }
      ],
      "name": "bufferAmounts",
      "outputs": [
        {
          "internalType": "uint256",
          "name": "",
          "type": "uint256"
        }
      ],
      "stateMutability": "view",
      "type": "function"
    },
    {
      "inputs": [
        {
          "internalType": "address",
          "name": "_token",
          "type": "address"
        },
        {
          "internalType": "address",
          "name": "_receiver",
          "type": "address"
        }
      ],
      "name": "buyUSDL",
      "outputs": [
        {
          "internalType": "uint256",
          "name": "",
          "type": "uint256"
        }
      ],
      "stateMutability": "nonpayable",
      "type": "function"
    },
    {
      "inputs": [
        {
          "internalType": "address",
          "name": "_token",
          "type": "address"
        }
      ],
      "name": "clearTokenConfig",
      "outputs": [],
      "stateMutability": "nonpayable",
      "type": "function"
    },
    {
      "inputs": [
        {
          "internalType": "address",
          "name": "",
          "type": "address"
        }
      ],
      "name": "cumulativeFundingRates",
      "outputs": [
        {
          "internalType": "uint256",
          "name": "",
          "type": "uint256"
        }
      ],
      "stateMutability": "view",
      "type": "function"
    },
    {
      "inputs": [
        {
          "internalType": "address",
          "name": "_account",
          "type": "address"
        },
        {
          "internalType": "address",
          "name": "_collateralToken",
          "type": "address"
        },
        {
          "internalType": "address",
          "name": "_indexToken",
          "type": "address"
        },
        {
          "internalType": "uint256",
          "name": "_collateralDelta",
          "type": "uint256"
        },
        {
          "internalType": "uint256",
          "name": "_sizeDelta",
          "type": "uint256"
        },
        {
          "internalType": "bool",
          "name": "_isLong",
          "type": "bool"
        },
        {
          "internalType": "address",
          "name": "_receiver",
          "type": "address"
        }
      ],
      "name": "decreasePosition",
      "outputs": [
        {
          "internalType": "uint256",
          "name": "",
          "type": "uint256"
        }
      ],
      "stateMutability": "nonpayable",
      "type": "function"
    },
    {
      "inputs": [
        {
          "internalType": "address",
          "name": "_token",
          "type": "address"
        }
      ],
      "name": "directPoolDeposit",
      "outputs": [],
      "stateMutability": "nonpayable",
      "type": "function"
    },
    {
      "inputs": [],
      "name": "errorController",
      "outputs": [
        {
          "internalType": "address",
          "name": "",
          "type": "address"
        }
      ],
      "stateMutability": "view",
      "type": "function"
    },
    {
      "inputs": [
        {
          "internalType": "uint256",
          "name": "",
          "type": "uint256"
        }
      ],
      "name": "errors",
      "outputs": [
        {
          "internalType": "string",
          "name": "",
          "type": "string"
        }
      ],
      "stateMutability": "view",
      "type": "function"
    },
    {
      "inputs": [
        {
          "internalType": "address",
          "name": "",
          "type": "address"
        }
      ],
      "name": "feeReserves",
      "outputs": [
        {
          "internalType": "uint256",
          "name": "",
          "type": "uint256"
        }
      ],
      "stateMutability": "view",
      "type": "function"
    },
    {
      "inputs": [],
      "name": "fundingInterval",
      "outputs": [
        {
          "internalType": "uint256",
          "name": "",
          "type": "uint256"
        }
      ],
      "stateMutability": "view",
      "type": "function"
    },
    {
      "inputs": [],
      "name": "fundingRateFactor",
      "outputs": [
        {
          "internalType": "uint256",
          "name": "",
          "type": "uint256"
        }
      ],
      "stateMutability": "view",
      "type": "function"
    },
    {
      "inputs": [
        {
          "internalType": "address",
          "name": "_indexToken",
          "type": "address"
        },
        {
          "internalType": "uint256",
          "name": "_size",
          "type": "uint256"
        },
        {
          "internalType": "uint256",
          "name": "_averagePrice",
          "type": "uint256"
        },
        {
          "internalType": "bool",
          "name": "_isLong",
          "type": "bool"
        },
        {
          "internalType": "uint256",
          "name": "_lastIncreasedTime",
          "type": "uint256"
        }
      ],
      "name": "getDelta",
      "outputs": [
        {
          "internalType": "bool",
          "name": "",
          "type": "bool"
        },
        {
          "internalType": "uint256",
          "name": "",
          "type": "uint256"
        }
      ],
      "stateMutability": "view",
      "type": "function"
    },
    {
      "inputs": [
        {
          "internalType": "address",
          "name": "_collateralToken",
          "type": "address"
        },
        {
          "internalType": "address",
          "name": "_indexToken",
          "type": "address"
        },
        {
          "internalType": "bool",
          "name": "_isLong",
          "type": "bool"
        }
      ],
      "name": "getEntryFundingRate",
      "outputs": [
        {
          "internalType": "uint256",
          "name": "",
          "type": "uint256"
        }
      ],
      "stateMutability": "view",
      "type": "function"
    },
    {
      "inputs": [
        {
          "internalType": "address",
          "name": "_token",
          "type": "address"
        },
        {
          "internalType": "uint256",
          "name": "_usdlDelta",
          "type": "uint256"
        },
        {
          "internalType": "uint256",
          "name": "_feeBasisPoints",
          "type": "uint256"
        },
        {
          "internalType": "uint256",
          "name": "_taxBasisPoints",
          "type": "uint256"
        },
        {
          "internalType": "bool",
          "name": "_increment",
          "type": "bool"
        }
      ],
      "name": "getFeeBasisPoints",
      "outputs": [
        {
          "internalType": "uint256",
          "name": "",
          "type": "uint256"
        }
      ],
      "stateMutability": "view",
      "type": "function"
    },
    {
      "inputs": [
        {
          "internalType": "address",
          "name": "_account",
          "type": "address"
        },
        {
          "internalType": "address",
          "name": "_collateralToken",
          "type": "address"
        },
        {
          "internalType": "address",
          "name": "_indexToken",
          "type": "address"
        },
        {
          "internalType": "bool",
          "name": "_isLong",
          "type": "bool"
        },
        {
          "internalType": "uint256",
          "name": "_size",
          "type": "uint256"
        },
        {
          "internalType": "uint256",
          "name": "_entryFundingRate",
          "type": "uint256"
        }
      ],
      "name": "getFundingFee",
      "outputs": [
        {
          "internalType": "uint256",
          "name": "",
          "type": "uint256"
        }
      ],
      "stateMutability": "view",
      "type": "function"
    },
    {
      "inputs": [
        {
          "internalType": "address",
          "name": "_token",
          "type": "address"
        }
      ],
      "name": "getGlobalShortDelta",
      "outputs": [
        {
          "internalType": "bool",
          "name": "",
          "type": "bool"
        },
        {
          "internalType": "uint256",
          "name": "",
          "type": "uint256"
        }
      ],
      "stateMutability": "view",
      "type": "function"
    },
    {
      "inputs": [
        {
          "internalType": "address",
          "name": "_token",
          "type": "address"
        }
      ],
      "name": "getMaxPrice",
      "outputs": [
        {
          "internalType": "uint256",
          "name": "",
          "type": "uint256"
        }
      ],
      "stateMutability": "view",
      "type": "function"
    },
    {
      "inputs": [
        {
          "internalType": "address",
          "name": "_token",
          "type": "address"
        }
      ],
      "name": "getMinPrice",
      "outputs": [
        {
          "internalType": "uint256",
          "name": "",
          "type": "uint256"
        }
      ],
      "stateMutability": "view",
      "type": "function"
    },
    {
      "inputs": [
        {
          "internalType": "address",
          "name": "_indexToken",
          "type": "address"
        },
        {
          "internalType": "uint256",
          "name": "_size",
          "type": "uint256"
        },
        {
          "internalType": "uint256",
          "name": "_averagePrice",
          "type": "uint256"
        },
        {
          "internalType": "bool",
          "name": "_isLong",
          "type": "bool"
        },
        {
          "internalType": "uint256",
          "name": "_nextPrice",
          "type": "uint256"
        },
        {
          "internalType": "uint256",
          "name": "_sizeDelta",
          "type": "uint256"
        },
        {
          "internalType": "uint256",
          "name": "_lastIncreasedTime",
          "type": "uint256"
        }
      ],
      "name": "getNextAveragePrice",
      "outputs": [
        {
          "internalType": "uint256",
          "name": "",
          "type": "uint256"
        }
      ],
      "stateMutability": "view",
      "type": "function"
    },
    {
      "inputs": [
        {
          "internalType": "address",
          "name": "_token",
          "type": "address"
        }
      ],
      "name": "getNextFundingRate",
      "outputs": [
        {
          "internalType": "uint256",
          "name": "",
          "type": "uint256"
        }
      ],
      "stateMutability": "view",
      "type": "function"
    },
    {
      "inputs": [
        {
          "internalType": "address",
          "name": "_indexToken",
          "type": "address"
        },
        {
          "internalType": "uint256",
          "name": "_nextPrice",
          "type": "uint256"
        },
        {
          "internalType": "uint256",
          "name": "_sizeDelta",
          "type": "uint256"
        }
      ],
      "name": "getNextGlobalShortAveragePrice",
      "outputs": [
        {
          "internalType": "uint256",
          "name": "",
          "type": "uint256"
        }
      ],
      "stateMutability": "view",
      "type": "function"
    },
    {
      "inputs": [
        {
          "internalType": "address",
          "name": "_account",
          "type": "address"
        },
        {
          "internalType": "address",
          "name": "_collateralToken",
          "type": "address"
        },
        {
          "internalType": "address",
          "name": "_indexToken",
          "type": "address"
        },
        {
          "internalType": "bool",
          "name": "_isLong",
          "type": "bool"
        }
      ],
      "name": "getPosition",
      "outputs": [
        {
          "internalType": "uint256",
          "name": "",
          "type": "uint256"
        },
        {
          "internalType": "uint256",
          "name": "",
          "type": "uint256"
        },
        {
          "internalType": "uint256",
          "name": "",
          "type": "uint256"
        },
        {
          "internalType": "uint256",
          "name": "",
          "type": "uint256"
        },
        {
          "internalType": "uint256",
          "name": "",
          "type": "uint256"
        },
        {
          "internalType": "uint256",
          "name": "",
          "type": "uint256"
        },
        {
          "internalType": "bool",
          "name": "",
          "type": "bool"
        },
        {
          "internalType": "uint256",
          "name": "",
          "type": "uint256"
        }
      ],
      "stateMutability": "view",
      "type": "function"
    },
    {
      "inputs": [
        {
          "internalType": "address",
          "name": "_account",
          "type": "address"
        },
        {
          "internalType": "address",
          "name": "_collateralToken",
          "type": "address"
        },
        {
          "internalType": "address",
          "name": "_indexToken",
          "type": "address"
        },
        {
          "internalType": "bool",
          "name": "_isLong",
          "type": "bool"
        }
      ],
      "name": "getPositionDelta",
      "outputs": [
        {
          "internalType": "bool",
          "name": "",
          "type": "bool"
        },
        {
          "internalType": "uint256",
          "name": "",
          "type": "uint256"
        }
      ],
      "stateMutability": "view",
      "type": "function"
    },
    {
      "inputs": [
        {
          "internalType": "address",
          "name": "_account",
          "type": "address"
        },
        {
          "internalType": "address",
          "name": "_collateralToken",
          "type": "address"
        },
        {
          "internalType": "address",
          "name": "_indexToken",
          "type": "address"
        },
        {
          "internalType": "bool",
          "name": "_isLong",
          "type": "bool"
        },
        {
          "internalType": "uint256",
          "name": "_sizeDelta",
          "type": "uint256"
        }
      ],
      "name": "getPositionFee",
      "outputs": [
        {
          "internalType": "uint256",
          "name": "",
          "type": "uint256"
        }
      ],
      "stateMutability": "view",
      "type": "function"
    },
    {
      "inputs": [
        {
          "internalType": "address",
          "name": "_account",
          "type": "address"
        },
        {
          "internalType": "address",
          "name": "_collateralToken",
          "type": "address"
        },
        {
          "internalType": "address",
          "name": "_indexToken",
          "type": "address"
        },
        {
          "internalType": "bool",
          "name": "_isLong",
          "type": "bool"
        }
      ],
      "name": "getPositionKey",
      "outputs": [
        {
          "internalType": "bytes32",
          "name": "",
          "type": "bytes32"
        }
      ],
      "stateMutability": "pure",
      "type": "function"
    },
    {
      "inputs": [
        {
          "internalType": "address",
          "name": "_account",
          "type": "address"
        },
        {
          "internalType": "address",
          "name": "_collateralToken",
          "type": "address"
        },
        {
          "internalType": "address",
          "name": "_indexToken",
          "type": "address"
        },
        {
          "internalType": "bool",
          "name": "_isLong",
          "type": "bool"
        }
      ],
      "name": "getPositionLeverage",
      "outputs": [
        {
          "internalType": "uint256",
          "name": "",
          "type": "uint256"
        }
      ],
      "stateMutability": "view",
      "type": "function"
    },
    {
      "inputs": [
        {
          "internalType": "address",
          "name": "_token",
          "type": "address"
        },
        {
          "internalType": "uint256",
          "name": "_usdlAmount",
          "type": "uint256"
        }
      ],
      "name": "getRedemptionAmount",
      "outputs": [
        {
          "internalType": "uint256",
          "name": "",
          "type": "uint256"
        }
      ],
      "stateMutability": "view",
      "type": "function"
    },
    {
      "inputs": [
        {
          "internalType": "address",
          "name": "_token",
          "type": "address"
        }
      ],
      "name": "getRedemptionCollateral",
      "outputs": [
        {
          "internalType": "uint256",
          "name": "",
          "type": "uint256"
        }
      ],
      "stateMutability": "view",
      "type": "function"
    },
    {
      "inputs": [
        {
          "internalType": "address",
          "name": "_token",
          "type": "address"
        }
      ],
      "name": "getRedemptionCollateralUsd",
      "outputs": [
        {
          "internalType": "uint256",
          "name": "",
          "type": "uint256"
        }
      ],
      "stateMutability": "view",
      "type": "function"
    },
    {
      "inputs": [
        {
          "internalType": "address",
          "name": "_token",
          "type": "address"
        }
      ],
      "name": "getTargetUsdlAmount",
      "outputs": [
        {
          "internalType": "uint256",
          "name": "",
          "type": "uint256"
        }
      ],
      "stateMutability": "view",
      "type": "function"
    },
    {
      "inputs": [
        {
          "internalType": "address",
          "name": "_token",
          "type": "address"
        }
      ],
      "name": "getUtilisation",
      "outputs": [
        {
          "internalType": "uint256",
          "name": "",
          "type": "uint256"
        }
      ],
      "stateMutability": "view",
      "type": "function"
    },
    {
      "inputs": [
        {
          "internalType": "address",
          "name": "",
          "type": "address"
        }
      ],
      "name": "globalShortAveragePrices",
      "outputs": [
        {
          "internalType": "uint256",
          "name": "",
          "type": "uint256"
        }
      ],
      "stateMutability": "view",
      "type": "function"
    },
    {
      "inputs": [
        {
          "internalType": "address",
          "name": "",
          "type": "address"
        }
      ],
      "name": "globalShortSizes",
      "outputs": [
        {
          "internalType": "uint256",
          "name": "",
          "type": "uint256"
        }
      ],
      "stateMutability": "view",
      "type": "function"
    },
    {
      "inputs": [],
      "name": "gov",
      "outputs": [
        {
          "internalType": "address",
          "name": "",
          "type": "address"
        }
      ],
      "stateMutability": "view",
      "type": "function"
    },
    {
      "inputs": [
        {
          "internalType": "address",
          "name": "",
          "type": "address"
        }
      ],
      "name": "guaranteedUsd",
      "outputs": [
        {
          "internalType": "uint256",
          "name": "",
          "type": "uint256"
        }
      ],
      "stateMutability": "view",
      "type": "function"
    },
    {
      "inputs": [],
      "name": "hasDynamicFees",
      "outputs": [
        {
          "internalType": "bool",
          "name": "",
          "type": "bool"
        }
      ],
      "stateMutability": "view",
      "type": "function"
    },
    {
      "inputs": [],
      "name": "inManagerMode",
      "outputs": [
        {
          "internalType": "bool",
          "name": "",
          "type": "bool"
        }
      ],
      "stateMutability": "view",
      "type": "function"
    },
    {
      "inputs": [],
      "name": "inPrivateLiquidationMode",
      "outputs": [
        {
          "internalType": "bool",
          "name": "",
          "type": "bool"
        }
      ],
      "stateMutability": "view",
      "type": "function"
    },
    {
      "inputs": [],
      "name": "includeAmmPrice",
      "outputs": [
        {
          "internalType": "bool",
          "name": "",
          "type": "bool"
        }
      ],
      "stateMutability": "view",
      "type": "function"
    },
    {
      "inputs": [
        {
          "internalType": "address",
          "name": "_account",
          "type": "address"
        },
        {
          "internalType": "address",
          "name": "_collateralToken",
          "type": "address"
        },
        {
          "internalType": "address",
          "name": "_indexToken",
          "type": "address"
        },
        {
          "internalType": "uint256",
          "name": "_sizeDelta",
          "type": "uint256"
        },
        {
          "internalType": "bool",
          "name": "_isLong",
          "type": "bool"
        }
      ],
      "name": "increasePosition",
      "outputs": [],
      "stateMutability": "nonpayable",
      "type": "function"
    },
    {
      "inputs": [
        {
          "internalType": "address",
          "name": "_router",
          "type": "address"
        },
        {
          "internalType": "address",
          "name": "_usdl",
          "type": "address"
        },
        {
          "internalType": "address",
          "name": "_priceFeed",
          "type": "address"
        },
        {
          "internalType": "uint256",
          "name": "_liquidationFeeUsd",
          "type": "uint256"
        },
        {
          "internalType": "uint256",
          "name": "_fundingRateFactor",
          "type": "uint256"
        },
        {
          "internalType": "uint256",
          "name": "_stableFundingRateFactor",
          "type": "uint256"
        }
      ],
      "name": "initialize",
      "outputs": [],
      "stateMutability": "nonpayable",
      "type": "function"
    },
    {
      "inputs": [],
      "name": "isInitialized",
      "outputs": [
        {
          "internalType": "bool",
          "name": "",
          "type": "bool"
        }
      ],
      "stateMutability": "view",
      "type": "function"
    },
    {
      "inputs": [],
      "name": "isLeverageEnabled",
      "outputs": [
        {
          "internalType": "bool",
          "name": "",
          "type": "bool"
        }
      ],
      "stateMutability": "view",
      "type": "function"
    },
    {
      "inputs": [
        {
          "internalType": "address",
          "name": "",
          "type": "address"
        }
      ],
      "name": "isLiquidator",
      "outputs": [
        {
          "internalType": "bool",
          "name": "",
          "type": "bool"
        }
      ],
      "stateMutability": "view",
      "type": "function"
    },
    {
      "inputs": [
        {
          "internalType": "address",
          "name": "",
          "type": "address"
        }
      ],
      "name": "isManager",
      "outputs": [
        {
          "internalType": "bool",
          "name": "",
          "type": "bool"
        }
      ],
      "stateMutability": "view",
      "type": "function"
    },
    {
      "inputs": [],
      "name": "isSwapEnabled",
      "outputs": [
        {
          "internalType": "bool",
          "name": "",
          "type": "bool"
        }
      ],
      "stateMutability": "view",
      "type": "function"
    },
    {
      "inputs": [
        {
          "internalType": "address",
          "name": "",
          "type": "address"
        }
      ],
      "name": "lastFundingTimes",
      "outputs": [
        {
          "internalType": "uint256",
          "name": "",
          "type": "uint256"
        }
      ],
      "stateMutability": "view",
      "type": "function"
    },
    {
      "inputs": [
        {
          "internalType": "address",
          "name": "_account",
          "type": "address"
        },
        {
          "internalType": "address",
          "name": "_collateralToken",
          "type": "address"
        },
        {
          "internalType": "address",
          "name": "_indexToken",
          "type": "address"
        },
        {
          "internalType": "bool",
          "name": "_isLong",
          "type": "bool"
        },
        {
          "internalType": "address",
          "name": "_feeReceiver",
          "type": "address"
        }
      ],
      "name": "liquidatePosition",
      "outputs": [],
      "stateMutability": "nonpayable",
      "type": "function"
    },
    {
      "inputs": [],
      "name": "liquidationFeeUsd",
      "outputs": [
        {
          "internalType": "uint256",
          "name": "",
          "type": "uint256"
        }
      ],
      "stateMutability": "view",
      "type": "function"
    },
    {
      "inputs": [],
      "name": "marginFeeBasisPoints",
      "outputs": [
        {
          "internalType": "uint256",
          "name": "",
          "type": "uint256"
        }
      ],
      "stateMutability": "view",
      "type": "function"
    },
    {
      "inputs": [],
      "name": "maxGasPrice",
      "outputs": [
        {
          "internalType": "uint256",
          "name": "",
          "type": "uint256"
        }
      ],
      "stateMutability": "view",
      "type": "function"
    },
    {
      "inputs": [
        {
          "internalType": "address",
          "name": "",
          "type": "address"
        }
      ],
      "name": "maxGlobalShortSizes",
      "outputs": [
        {
          "internalType": "uint256",
          "name": "",
          "type": "uint256"
        }
      ],
      "stateMutability": "view",
      "type": "function"
    },
    {
      "inputs": [],
      "name": "maxLeverage",
      "outputs": [
        {
          "internalType": "uint256",
          "name": "",
          "type": "uint256"
        }
      ],
      "stateMutability": "view",
      "type": "function"
    },
    {
      "inputs": [
        {
          "internalType": "address",
          "name": "",
          "type": "address"
        }
      ],
      "name": "maxUsdlAmounts",
      "outputs": [
        {
          "internalType": "uint256",
          "name": "",
          "type": "uint256"
        }
      ],
      "stateMutability": "view",
      "type": "function"
    },
    {
      "inputs": [
        {
          "internalType": "address",
          "name": "",
          "type": "address"
        }
      ],
      "name": "minProfitBasisPoints",
      "outputs": [
        {
          "internalType": "uint256",
          "name": "",
          "type": "uint256"
        }
      ],
      "stateMutability": "view",
      "type": "function"
    },
    {
      "inputs": [],
      "name": "minProfitTime",
      "outputs": [
        {
          "internalType": "uint256",
          "name": "",
          "type": "uint256"
        }
      ],
      "stateMutability": "view",
      "type": "function"
    },
    {
      "inputs": [],
      "name": "mintBurnFeeBasisPoints",
      "outputs": [
        {
          "internalType": "uint256",
          "name": "",
          "type": "uint256"
        }
      ],
      "stateMutability": "view",
      "type": "function"
    },
    {
      "inputs": [
        {
          "internalType": "address",
          "name": "",
          "type": "address"
        }
      ],
      "name": "poolAmounts",
      "outputs": [
        {
          "internalType": "uint256",
          "name": "",
          "type": "uint256"
        }
      ],
      "stateMutability": "view",
      "type": "function"
    },
    {
      "inputs": [
        {
          "internalType": "bytes32",
          "name": "",
          "type": "bytes32"
        }
      ],
      "name": "positions",
      "outputs": [
        {
          "internalType": "uint256",
          "name": "size",
          "type": "uint256"
        },
        {
          "internalType": "uint256",
          "name": "collateral",
          "type": "uint256"
        },
        {
          "internalType": "uint256",
          "name": "averagePrice",
          "type": "uint256"
        },
        {
          "internalType": "uint256",
          "name": "entryFundingRate",
          "type": "uint256"
        },
        {
          "internalType": "uint256",
          "name": "reserveAmount",
          "type": "uint256"
        },
        {
          "internalType": "int256",
          "name": "realisedPnl",
          "type": "int256"
        },
        {
          "internalType": "uint256",
          "name": "lastIncreasedTime",
          "type": "uint256"
        }
      ],
      "stateMutability": "view",
      "type": "function"
    },
    {
      "inputs": [],
      "name": "priceFeed",
      "outputs": [
        {
          "internalType": "address",
          "name": "",
          "type": "address"
        }
      ],
      "stateMutability": "view",
      "type": "function"
    },
    {
      "inputs": [
        {
          "internalType": "address",
          "name": "_router",
          "type": "address"
        }
      ],
      "name": "removeRouter",
      "outputs": [],
      "stateMutability": "nonpayable",
      "type": "function"
    },
    {
      "inputs": [
        {
          "internalType": "address",
          "name": "",
          "type": "address"
        }
      ],
      "name": "reservedAmounts",
      "outputs": [
        {
          "internalType": "uint256",
          "name": "",
          "type": "uint256"
        }
      ],
      "stateMutability": "view",
      "type": "function"
    },
    {
      "inputs": [],
      "name": "router",
      "outputs": [
        {
          "internalType": "address",
          "name": "",
          "type": "address"
        }
      ],
      "stateMutability": "view",
      "type": "function"
    },
    {
      "inputs": [
        {
          "internalType": "address",
          "name": "_token",
          "type": "address"
        },
        {
          "internalType": "address",
          "name": "_receiver",
          "type": "address"
        }
      ],
      "name": "sellUSDL",
      "outputs": [
        {
          "internalType": "uint256",
          "name": "",
          "type": "uint256"
        }
      ],
      "stateMutability": "nonpayable",
      "type": "function"
    },
    {
      "inputs": [
        {
          "internalType": "address",
          "name": "_token",
          "type": "address"
        },
        {
          "internalType": "uint256",
          "name": "_amount",
          "type": "uint256"
        }
      ],
      "name": "setBufferAmount",
      "outputs": [],
      "stateMutability": "nonpayable",
      "type": "function"
    },
    {
      "inputs": [
        {
          "internalType": "uint256",
          "name": "_errorCode",
          "type": "uint256"
        },
        {
          "internalType": "string",
          "name": "_error",
          "type": "string"
        }
      ],
      "name": "setError",
      "outputs": [],
      "stateMutability": "nonpayable",
      "type": "function"
    },
    {
      "inputs": [
        {
          "internalType": "address",
          "name": "_errorController",
          "type": "address"
        }
      ],
      "name": "setErrorController",
      "outputs": [],
      "stateMutability": "nonpayable",
      "type": "function"
    },
    {
      "inputs": [
        {
          "internalType": "uint256",
          "name": "_taxBasisPoints",
          "type": "uint256"
        },
        {
          "internalType": "uint256",
          "name": "_stableTaxBasisPoints",
          "type": "uint256"
        },
        {
          "internalType": "uint256",
          "name": "_mintBurnFeeBasisPoints",
          "type": "uint256"
        },
        {
          "internalType": "uint256",
          "name": "_swapFeeBasisPoints",
          "type": "uint256"
        },
        {
          "internalType": "uint256",
          "name": "_stableSwapFeeBasisPoints",
          "type": "uint256"
        },
        {
          "internalType": "uint256",
          "name": "_marginFeeBasisPoints",
          "type": "uint256"
        },
        {
          "internalType": "uint256",
          "name": "_liquidationFeeUsd",
          "type": "uint256"
        },
        {
          "internalType": "uint256",
          "name": "_minProfitTime",
          "type": "uint256"
        },
        {
          "internalType": "bool",
          "name": "_hasDynamicFees",
          "type": "bool"
        }
      ],
      "name": "setFees",
      "outputs": [],
      "stateMutability": "nonpayable",
      "type": "function"
    },
    {
      "inputs": [
        {
          "internalType": "uint256",
          "name": "_fundingInterval",
          "type": "uint256"
        },
        {
          "internalType": "uint256",
          "name": "_fundingRateFactor",
          "type": "uint256"
        },
        {
          "internalType": "uint256",
          "name": "_stableFundingRateFactor",
          "type": "uint256"
        }
      ],
      "name": "setFundingRate",
      "outputs": [],
      "stateMutability": "nonpayable",
      "type": "function"
    },
    {
      "inputs": [
        {
          "internalType": "address",
          "name": "_gov",
          "type": "address"
        }
      ],
      "name": "setGov",
      "outputs": [],
      "stateMutability": "nonpayable",
      "type": "function"
    },
    {
      "inputs": [
        {
          "internalType": "bool",
          "name": "_inManagerMode",
          "type": "bool"
        }
      ],
      "name": "setInManagerMode",
      "outputs": [],
      "stateMutability": "nonpayable",
      "type": "function"
    },
    {
      "inputs": [
        {
          "internalType": "bool",
          "name": "_inPrivateLiquidationMode",
          "type": "bool"
        }
      ],
      "name": "setInPrivateLiquidationMode",
      "outputs": [],
      "stateMutability": "nonpayable",
      "type": "function"
    },
    {
      "inputs": [
        {
          "internalType": "bool",
          "name": "_isLeverageEnabled",
          "type": "bool"
        }
      ],
      "name": "setIsLeverageEnabled",
      "outputs": [],
      "stateMutability": "nonpayable",
      "type": "function"
    },
    {
      "inputs": [
        {
          "internalType": "bool",
          "name": "_isSwapEnabled",
          "type": "bool"
        }
      ],
      "name": "setIsSwapEnabled",
      "outputs": [],
      "stateMutability": "nonpayable",
      "type": "function"
    },
    {
      "inputs": [
        {
          "internalType": "address",
          "name": "_liquidator",
          "type": "address"
        },
        {
          "internalType": "bool",
          "name": "_isActive",
          "type": "bool"
        }
      ],
      "name": "setLiquidator",
      "outputs": [],
      "stateMutability": "nonpayable",
      "type": "function"
    },
    {
      "inputs": [
        {
          "internalType": "address",
          "name": "_manager",
          "type": "address"
        },
        {
          "internalType": "bool",
          "name": "_isManager",
          "type": "bool"
        }
      ],
      "name": "setManager",
      "outputs": [],
      "stateMutability": "nonpayable",
      "type": "function"
    },
    {
      "inputs": [
        {
          "internalType": "uint256",
          "name": "_maxGasPrice",
          "type": "uint256"
        }
      ],
      "name": "setMaxGasPrice",
      "outputs": [],
      "stateMutability": "nonpayable",
      "type": "function"
    },
    {
      "inputs": [
        {
          "internalType": "address",
          "name": "_token",
          "type": "address"
        },
        {
          "internalType": "uint256",
          "name": "_amount",
          "type": "uint256"
        }
      ],
      "name": "setMaxGlobalShortSize",
      "outputs": [],
      "stateMutability": "nonpayable",
      "type": "function"
    },
    {
      "inputs": [
        {
          "internalType": "uint256",
          "name": "_maxLeverage",
          "type": "uint256"
        }
      ],
      "name": "setMaxLeverage",
      "outputs": [],
      "stateMutability": "nonpayable",
      "type": "function"
    },
    {
      "inputs": [
        {
          "internalType": "address",
          "name": "_priceFeed",
          "type": "address"
        }
      ],
      "name": "setPriceFeed",
      "outputs": [],
      "stateMutability": "nonpayable",
      "type": "function"
    },
    {
      "inputs": [
        {
          "internalType": "address",
          "name": "_token",
          "type": "address"
        },
        {
          "internalType": "uint256",
          "name": "_tokenDecimals",
          "type": "uint256"
        },
        {
          "internalType": "uint256",
          "name": "_tokenWeight",
          "type": "uint256"
        },
        {
          "internalType": "uint256",
          "name": "_minProfitBps",
          "type": "uint256"
        },
        {
          "internalType": "uint256",
          "name": "_maxUsdlAmount",
          "type": "uint256"
        },
        {
          "internalType": "bool",
          "name": "_isStable",
          "type": "bool"
        },
        {
          "internalType": "bool",
          "name": "_isShortable",
          "type": "bool"
        }
      ],
      "name": "setTokenConfig",
      "outputs": [],
      "stateMutability": "nonpayable",
      "type": "function"
    },
    {
      "inputs": [
        {
          "internalType": "address",
          "name": "_token",
          "type": "address"
        },
        {
          "internalType": "uint256",
          "name": "_amount",
          "type": "uint256"
        }
      ],
      "name": "setUsdlAmount",
      "outputs": [],
      "stateMutability": "nonpayable",
      "type": "function"
    },
    {
      "inputs": [
        {
          "internalType": "contract IVaultUtils",
          "name": "_vaultUtils",
          "type": "address"
        }
      ],
      "name": "setVaultUtils",
      "outputs": [],
      "stateMutability": "nonpayable",
      "type": "function"
    },
    {
      "inputs": [
        {
          "internalType": "address",
          "name": "",
          "type": "address"
        }
      ],
      "name": "shortableTokens",
      "outputs": [
        {
          "internalType": "bool",
          "name": "",
          "type": "bool"
        }
      ],
      "stateMutability": "view",
      "type": "function"
    },
    {
      "inputs": [],
      "name": "stableFundingRateFactor",
      "outputs": [
        {
          "internalType": "uint256",
          "name": "",
          "type": "uint256"
        }
      ],
      "stateMutability": "view",
      "type": "function"
    },
    {
      "inputs": [],
      "name": "stableSwapFeeBasisPoints",
      "outputs": [
        {
          "internalType": "uint256",
          "name": "",
          "type": "uint256"
        }
      ],
      "stateMutability": "view",
      "type": "function"
    },
    {
      "inputs": [],
      "name": "stableTaxBasisPoints",
      "outputs": [
        {
          "internalType": "uint256",
          "name": "",
          "type": "uint256"
        }
      ],
      "stateMutability": "view",
      "type": "function"
    },
    {
      "inputs": [
        {
          "internalType": "address",
          "name": "",
          "type": "address"
        }
      ],
      "name": "stableTokens",
      "outputs": [
        {
          "internalType": "bool",
          "name": "",
          "type": "bool"
        }
      ],
      "stateMutability": "view",
      "type": "function"
    },
    {
      "inputs": [
        {
          "internalType": "address",
          "name": "_tokenIn",
          "type": "address"
        },
        {
          "internalType": "address",
          "name": "_tokenOut",
          "type": "address"
        },
        {
          "internalType": "address",
          "name": "_receiver",
          "type": "address"
        }
      ],
      "name": "swap",
      "outputs": [
        {
          "internalType": "uint256",
          "name": "",
          "type": "uint256"
        }
      ],
      "stateMutability": "nonpayable",
      "type": "function"
    },
    {
      "inputs": [],
      "name": "swapFeeBasisPoints",
      "outputs": [
        {
          "internalType": "uint256",
          "name": "",
          "type": "uint256"
        }
      ],
      "stateMutability": "view",
      "type": "function"
    },
    {
      "inputs": [],
      "name": "taxBasisPoints",
      "outputs": [
        {
          "internalType": "uint256",
          "name": "",
          "type": "uint256"
        }
      ],
      "stateMutability": "view",
      "type": "function"
    },
    {
      "inputs": [
        {
          "internalType": "address",
          "name": "",
          "type": "address"
        }
      ],
      "name": "tokenBalances",
      "outputs": [
        {
          "internalType": "uint256",
          "name": "",
          "type": "uint256"
        }
      ],
      "stateMutability": "view",
      "type": "function"
    },
    {
      "inputs": [
        {
          "internalType": "address",
          "name": "",
          "type": "address"
        }
      ],
      "name": "tokenDecimals",
      "outputs": [
        {
          "internalType": "uint256",
          "name": "",
          "type": "uint256"
        }
      ],
      "stateMutability": "view",
      "type": "function"
    },
    {
      "inputs": [
        {
          "internalType": "address",
          "name": "_token",
          "type": "address"
        },
        {
          "internalType": "uint256",
          "name": "_tokenAmount",
          "type": "uint256"
        }
      ],
      "name": "tokenToUsdMin",
      "outputs": [
        {
          "internalType": "uint256",
          "name": "",
          "type": "uint256"
        }
      ],
      "stateMutability": "view",
      "type": "function"
    },
    {
      "inputs": [
        {
          "internalType": "address",
          "name": "",
          "type": "address"
        }
      ],
      "name": "tokenWeights",
      "outputs": [
        {
          "internalType": "uint256",
          "name": "",
          "type": "uint256"
        }
      ],
      "stateMutability": "view",
      "type": "function"
    },
    {
      "inputs": [],
      "name": "totalTokenWeights",
      "outputs": [
        {
          "internalType": "uint256",
          "name": "",
          "type": "uint256"
        }
      ],
      "stateMutability": "view",
      "type": "function"
    },
    {
      "inputs": [
        {
          "internalType": "address",
          "name": "_collateralToken",
          "type": "address"
        },
        {
          "internalType": "address",
          "name": "_indexToken",
          "type": "address"
        }
      ],
      "name": "updateCumulativeFundingRate",
      "outputs": [],
      "stateMutability": "nonpayable",
      "type": "function"
    },
    {
      "inputs": [
        {
          "internalType": "address",
          "name": "_newVault",
          "type": "address"
        },
        {
          "internalType": "address",
          "name": "_token",
          "type": "address"
        },
        {
          "internalType": "uint256",
          "name": "_amount",
          "type": "uint256"
        }
      ],
      "name": "upgradeVault",
      "outputs": [],
      "stateMutability": "nonpayable",
      "type": "function"
    },
    {
      "inputs": [
        {
          "internalType": "address",
          "name": "_token",
          "type": "address"
        },
        {
          "internalType": "uint256",
          "name": "_usdAmount",
          "type": "uint256"
        },
        {
          "internalType": "uint256",
          "name": "_price",
          "type": "uint256"
        }
      ],
      "name": "usdToToken",
      "outputs": [
        {
          "internalType": "uint256",
          "name": "",
          "type": "uint256"
        }
      ],
      "stateMutability": "view",
      "type": "function"
    },
    {
      "inputs": [
        {
          "internalType": "address",
          "name": "_token",
          "type": "address"
        },
        {
          "internalType": "uint256",
          "name": "_usdAmount",
          "type": "uint256"
        }
      ],
      "name": "usdToTokenMax",
      "outputs": [
        {
          "internalType": "uint256",
          "name": "",
          "type": "uint256"
        }
      ],
      "stateMutability": "view",
      "type": "function"
    },
    {
      "inputs": [
        {
          "internalType": "address",
          "name": "_token",
          "type": "address"
        },
        {
          "internalType": "uint256",
          "name": "_usdAmount",
          "type": "uint256"
        }
      ],
      "name": "usdToTokenMin",
      "outputs": [
        {
          "internalType": "uint256",
          "name": "",
          "type": "uint256"
        }
      ],
      "stateMutability": "view",
      "type": "function"
    },
    {
      "inputs": [],
      "name": "usdl",
      "outputs": [
        {
          "internalType": "address",
          "name": "",
          "type": "address"
        }
      ],
      "stateMutability": "view",
      "type": "function"
    },
    {
      "inputs": [
        {
          "internalType": "address",
          "name": "",
          "type": "address"
        }
      ],
      "name": "usdlAmounts",
      "outputs": [
        {
          "internalType": "uint256",
          "name": "",
          "type": "uint256"
        }
      ],
      "stateMutability": "view",
      "type": "function"
    },
    {
      "inputs": [],
      "name": "useSwapPricing",
      "outputs": [
        {
          "internalType": "bool",
          "name": "",
          "type": "bool"
        }
      ],
      "stateMutability": "view",
      "type": "function"
    },
    {
      "inputs": [
        {
          "internalType": "address",
          "name": "_account",
          "type": "address"
        },
        {
          "internalType": "address",
          "name": "_collateralToken",
          "type": "address"
        },
        {
          "internalType": "address",
          "name": "_indexToken",
          "type": "address"
        },
        {
          "internalType": "bool",
          "name": "_isLong",
          "type": "bool"
        },
        {
          "internalType": "bool",
          "name": "_raise",
          "type": "bool"
        }
      ],
      "name": "validateLiquidation",
      "outputs": [
        {
          "internalType": "uint256",
          "name": "",
          "type": "uint256"
        },
        {
          "internalType": "uint256",
          "name": "",
          "type": "uint256"
        }
      ],
      "stateMutability": "view",
      "type": "function"
    },
    {
      "inputs": [],
      "name": "vaultUtils",
      "outputs": [
        {
          "internalType": "contract IVaultUtils",
          "name": "",
          "type": "address"
        }
      ],
      "stateMutability": "view",
      "type": "function"
    },
    {
      "inputs": [],
      "name": "whitelistedTokenCount",
      "outputs": [
        {
          "internalType": "uint256",
          "name": "",
          "type": "uint256"
        }
      ],
      "stateMutability": "view",
      "type": "function"
    },
    {
      "inputs": [
        {
          "internalType": "address",
          "name": "",
          "type": "address"
        }
      ],
      "name": "whitelistedTokens",
      "outputs": [
        {
          "internalType": "bool",
          "name": "",
          "type": "bool"
        }
      ],
      "stateMutability": "view",
      "type": "function"
    },
    {
      "inputs": [
        {
          "internalType": "address",
          "name": "_token",
          "type": "address"
        },
        {
          "internalType": "address",
          "name": "_receiver",
          "type": "address"
        }
      ],
      "name": "withdrawFees",
      "outputs": [
        {
          "internalType": "uint256",
          "name": "",
          "type": "uint256"
        }
      ],
      "stateMutability": "nonpayable",
      "type": "function"
    }
  ],
  "bytecode": "0x60806040526001805462ff00001961ff00199091166101001716620100001781556207a1206008556032600a9081556014600b55601e600c819055600d556004600e55600f556011805460ff199081169091556170806012556016805463ffffff0019921690921716905534801561007657600080fd5b506001600055600680546001600160a01b03191633179055615e9d806200009e6000396000f3fe608060405234801561001057600080fd5b50600436106105695760003560e01c806304fef1db1461056e57806307c58752146105a65780630842b076146105ae5780630a48d5a9146105b657806310eb56c2146105e2578063114c58a6146105ea578063126082cf1461061857806312d43a5114610620578063134ca63b14610644578063174d26941461064c578063181e210e146106545780631ce9cb8f1461067057806324b0c04d1461069657806324ca984e146106b757806328e67be5146106dd57806329ff9615146107525780632c668ec1146107785780632d4b0576146107a457806330455ede146107e2578063318bc6891461080157806334c1557d14610618578063351a964d14610809578063392e53cd146108115780633c5a6e35146108195780633de39c11146108675780633e72a2621461086f57806340eb38021461087757806342152873146108c857806342b60b03146108fc5780634453a3741461092257806345a6f3701461095057806348d91abf146109a957806348f35cbb146109ed5780634a3f088d146109f55780634a993ee914610a765780634befe2ca14610a9c5780634d47b30414610aa45780635000600114610aac578063514ea4bf14610ada57806351723e8214610b2f578063523fba7f14610b6d578063529a356f14610b9357806352f55eed14610bb95780635c07eaab14610bdf5780635f7bc11914610c1f5780636092219914610c4557806361dbc8c514610c7357806362287a3214610c7b5780636274980314610c835780636abbe0c814610ca95780636ae0b15414610cb15780636be6026b14610cd757806371089f4d14610cdf578063724e78da14610d05578063728cdbca14610d2b578063741bef1a14610d735780637a210a2b14610d7b5780637c2eb9f714610d8357806381a612d614610da257806382a0849014610dc85780638585f4d214610e1c57806388b1fbdf14610e485780638a27d46814610e6e5780638a39735a146106185780638a78daa814610e975780638ee573ac14610ebd5780638f7b840414610ee35780639060b1ca14610f095780639331621214610f1157806395082d2514610f495780639698d25a14610f515780639849e41214610f775780639899cd0214610f7f5780639d7432ca14610fab5780639f392eb314610fdd578063a22f239214610fe5578063a42ab3d214610fed578063a5e90eee14611019578063a93acac214611047578063ab08c1c61461106d578063ab2f3ad414611075578063ae3302c21461109b578063b06423f3146110a3578063b136ca49146110ab578063b1cc53ab146110d1578063b364accb14611109578063c3c7b9e91461112f578063c4b0f54814611155578063c4f718bf14611181578063c65bc7b114611189578063c7e074c3146111af578063cea0c328146111ef578063cfad57a214611225578063d2fa635e1461124b578063d3127e6314611268578063d54d5a9f14611285578063d8f897c3146112e4578063d9ac42251461130a578063da76524c14611312578063daf9c2101461135c578063db3555fb14611382578063db97495f146113a8578063dc8f5fac146113f4578063de2ea948146113fc578063df73a26714611444578063e06c30001461144c578063e124e6d214611472578063e3f646b714611498578063e468baf0146114be578063e67f59a7146114db578063e6eaf59c14611501578063efa10a6e14611527578063f073658a14611553578063f07456ce1461155b578063f07bbf7714611581578063f2555278146115a0578063f3ae2415146115ce578063f887ea40146115f4578063fa12dbc0146115fc578063fbfded6d1461162e578063fce28c101461165c578063fdaf6ac314611664578063fed1a606146116a8575b600080fd5b6105946004803603602081101561058457600080fd5b50356001600160a01b031661173a565b60408051918252519081900360200190f35b61059461179d565b6105946117ae565b610594600480360360408110156105cc57600080fd5b506001600160a01b0381351690602001356117b4565b610594611807565b6105946004803603604081101561060057600080fd5b506001600160a01b038135811691602001351661180d565b610594611aa1565b610628611aa7565b604080516001600160a01b039092168252519081900360200190f35b610594611ab6565b610594611abc565b61065c611ac2565b604080519115158252519081900360200190f35b6105946004803603602081101561068657600080fd5b50356001600160a01b0316611ad2565b6106b5600480360360208110156106ac57600080fd5b50351515611ae4565b005b6106b5600480360360208110156106cd57600080fd5b50356001600160a01b0316611b08565b6106b5600480360360408110156106f357600080fd5b81359190810190604081016020820135600160201b81111561071457600080fd5b82018360208201111561072657600080fd5b803590602001918460018302840111600160201b8311171561074757600080fd5b509092509050611b39565b6105946004803603602081101561076857600080fd5b50356001600160a01b0316611bb7565b6105946004803603604081101561078e57600080fd5b506001600160a01b038135169060200135611bcb565b610594600480360360808110156107ba57600080fd5b506001600160a01b038135811691602081013582169160408201351690606001351515611c10565b6106b5600480360360208110156107f857600080fd5b50351515611c66565b610594611c88565b61065c611c8e565b61065c611c9c565b6106b5600480360360e081101561082f57600080fd5b506001600160a01b038135169060208101359060408101359060608101359060808101359060a081013515159060c001351515611ca5565b610594611de7565b61065c611ded565b6106b5600480360361012081101561088e57600080fd5b5080359060208101359060408101359060608101359060808101359060a08101359060c08101359060e08101359061010001351515611dfc565b610594600480360360608110156108de57600080fd5b508035906001600160a01b0360208201358116916040013516611eb6565b61065c6004803603602081101561091257600080fd5b50356001600160a01b0316611f58565b6106b56004803603604081101561093857600080fd5b506001600160a01b0381351690602001351515611f6d565b61098e6004803603608081101561096657600080fd5b506001600160a01b038135811691602081013582169160408201351690606001351515611fa0565b60408051921515835260208301919091528051918290030190f35b6106b5600480360360a08110156109bf57600080fd5b506001600160a01b03813581169160208101358216916040820135169060608101359060800135151561203e565b61062861246b565b610a3360048036036080811015610a0b57600080fd5b506001600160a01b03813581169160208101358216916040820135169060600135151561247a565b604080519889526020890197909752878701959095526060870193909352608086019190915260a0850152151560c084015260e083015251908190036101000190f35b61059460048036036020811015610a8c57600080fd5b50356001600160a01b0316612570565b610594612582565b610594612588565b61059460048036036040811015610ac257600080fd5b506001600160a01b038135811691602001351661258e565b610af760048036036020811015610af057600080fd5b503561285e565b604080519788526020880196909652868601949094526060860192909252608085015260a084015260c0830152519081900360e00190f35b61059460048036036080811015610b4557600080fd5b506001600160a01b03813581169160208101358216916040820135169060600135151561289b565b61059460048036036020811015610b8357600080fd5b50356001600160a01b0316612941565b61065c60048036036020811015610ba957600080fd5b50356001600160a01b0316612953565b61059460048036036020811015610bcf57600080fd5b50356001600160a01b0316612968565b61098e600480360360a0811015610bf557600080fd5b506001600160a01b038135169060208101359060408101359060608101351515906080013561297a565b6106b560048036036020811015610c3557600080fd5b50356001600160a01b0316612a72565b61065c60048036036040811015610c5b57600080fd5b506001600160a01b0381358116916020013516612b55565b610594612b75565b610594612b7a565b61059460048036036020811015610c9957600080fd5b50356001600160a01b0316612b80565b610628612b92565b6106b560048036036020811015610cc757600080fd5b50356001600160a01b0316612ba8565b610594612bd6565b6106b560048036036020811015610cf557600080fd5b50356001600160a01b0316612bdd565b6106b560048036036020811015610d1b57600080fd5b50356001600160a01b0316612c11565b6106b5600480360360c0811015610d4157600080fd5b506001600160a01b03813581169160208101358216916040820135169060608101359060808101359060a00135612c3b565b610628612cb2565b610594612cc1565b6106b560048036036020811015610d9957600080fd5b50351515612cc7565b61059460048036036020811015610db857600080fd5b50356001600160a01b0316612ceb565b610594600480360360e0811015610dde57600080fd5b506001600160a01b0381358116916020810135821691604082013581169160608101359160808201359160a081013515159160c09091013516612d77565b6106b560048036036040811015610e3257600080fd5b506001600160a01b038135169060200135612df5565b61059460048036036020811015610e5e57600080fd5b50356001600160a01b0316612e19565b6106b560048036036060811015610e8457600080fd5b5080359060208101359060400135612e2b565b61059460048036036020811015610ead57600080fd5b50356001600160a01b0316612e71565b61059460048036036020811015610ed357600080fd5b50356001600160a01b0316612e83565b6106b560048036036020811015610ef957600080fd5b50356001600160a01b0316612e95565b61065c612ebf565b61059460048036036060811015610f2757600080fd5b506001600160a01b038135811691602081013582169160409091013516612ece565b6105946131b6565b61059460048036036020811015610f6757600080fd5b50356001600160a01b03166131c6565b6105946131d8565b61059460048036036040811015610f9557600080fd5b506001600160a01b0381351690602001356131de565b61059460048036036060811015610fc157600080fd5b506001600160a01b038135169060208101359060400135613200565b61065c6132a9565b6105946132b2565b6105946004803603604081101561100357600080fd5b506001600160a01b0381351690602001356132b8565b6106b56004803603604081101561102f57600080fd5b506001600160a01b03813516906020013515156132d5565b6105946004803603602081101561105d57600080fd5b50356001600160a01b0316613308565b61065c613406565b6105946004803603602081101561108b57600080fd5b50356001600160a01b031661340f565b610594613421565b61065c613427565b610594600480360360208110156110c157600080fd5b50356001600160a01b0316613435565b610594600480360360608110156110e757600080fd5b506001600160a01b0381358116916020810135909116906040013515156134d6565b61098e6004803603602081101561111f57600080fd5b50356001600160a01b0316613571565b6105946004803603602081101561114557600080fd5b50356001600160a01b0316613609565b6106b56004803603604081101561116b57600080fd5b506001600160a01b03813516906020013561361b565b610594613676565b6105946004803603602081101561119f57600080fd5b50356001600160a01b031661367c565b610594600480360360a08110156111c557600080fd5b506001600160a01b038135169060208101359060408101359060608101359060800135151561368e565b6106b56004803603606081101561120557600080fd5b506001600160a01b03813581169160208101359091169060400135613738565b6106b56004803603602081101561123b57600080fd5b50356001600160a01b0316613754565b6106b56004803603602081101561126157600080fd5b503561377e565b6106b56004803603602081101561127e57600080fd5b503561378b565b6112cb600480360360a081101561129b57600080fd5b506001600160a01b03813581169160208101358216916040820135169060608101351515906080013515156137a7565b6040805192835260208301919091528051918290030190f35b610594600480360360208110156112fa57600080fd5b50356001600160a01b031661385e565b610594613870565b610594600480360360c081101561132857600080fd5b506001600160a01b038135811691602081013582169160408201351690606081013515159060808101359060a00135613876565b61065c6004803603602081101561137257600080fd5b50356001600160a01b031661392a565b61065c6004803603602081101561139857600080fd5b50356001600160a01b031661393f565b610594600480360360e08110156113be57600080fd5b506001600160a01b0381351690602081013590604081013590606081013515159060808101359060a08101359060c00135613953565b6105946139e4565b6106b5600480360360a081101561141257600080fd5b506001600160a01b038135811691602081013582169160408201358116916060810135151591608090910135166139ea565b610594613db0565b6105946004803603602081101561146257600080fd5b50356001600160a01b0316613db6565b6105946004803603602081101561148857600080fd5b50356001600160a01b0316613e76565b610594600480360360208110156114ae57600080fd5b50356001600160a01b0316613ed0565b610628600480360360208110156114d457600080fd5b5035613ee2565b6106b5600480360360208110156114f157600080fd5b50356001600160a01b0316613f09565b6105946004803603602081101561151757600080fd5b50356001600160a01b0316613fdc565b6106b56004803603604081101561153d57600080fd5b506001600160a01b038135169060200135613fee565b610628614012565b6105946004803603602081101561157157600080fd5b50356001600160a01b0316614021565b6106b56004803603602081101561159757600080fd5b50351515614033565b610594600480360360408110156115b657600080fd5b506001600160a01b0381358116916020013516614059565b61065c600480360360208110156115e457600080fd5b50356001600160a01b03166140af565b6106286140c4565b6105946004803603606081101561161257600080fd5b506001600160a01b0381351690602081013590604001356140d3565b6106b56004803603604081101561164457600080fd5b506001600160a01b038135811691602001351661410d565b6105946142e6565b610594600480360360a081101561167a57600080fd5b506001600160a01b0381358116916020810135821691604082013516906060810135151590608001356142ec565b6116c5600480360360208110156116be57600080fd5b5035614362565b6040805160208082528351818301528351919283929083019185019080838360005b838110156116ff5781810151838201526020016116e7565b50505050905090810190601f16801561172c5780820380516001836020036101000a031916815260200191505b509250505060405180910390f35b6001600160a01b03811660009081526025602052604081205480611762576000915050611798565b6001600160a01b03831660009081526026602052604090205461179490829061178e90620f42406143fd565b90614456565b9150505b919050565b6904ee2d6d415b85acef8160201b81565b601b5490565b6000816117c357506000611801565b60006117ce84612ceb565b6001600160a01b0385166000908152601d60205260409020549091506117fc600a82900a61178e86856143fd565b925050505b92915050565b600b5481565b600060026000541415611855576040805162461bcd60e51b815260206004820152601f6024820152600080516020615d7d833981519152604482015290519081900360640190fd5b6002600055611862614495565b6001600160a01b0383166000908152601c60205260409020546118899060ff1660136144c6565b6016805461ff0019166101001790556005546000906118b0906001600160a01b0316614572565b90506118c06000821160146144c6565b6118ca848561410d565b60006118d68583611bcb565b90506118e66000821160156144c6565b6118f0858361461f565b6118fa85826146dd565b60055460408051632770a7eb60e21b81523060048201526024810185905290516001600160a01b0390921691639dc29fac9160448082019260009290919082900301818387803b15801561194d57600080fd5b505af1158015611961573d6000803e3d6000fd5b505060055461197b92506001600160a01b031690506147b0565b6001546040805163cb212f1560e01b81526001600160a01b038881166004830152602482018690529151600093630100000090049092169163cb212f1591604480820192602092909190829003018186803b1580156119d957600080fd5b505afa1580156119ed573d6000803e3d6000fd5b505050506040513d6020811015611a0357600080fd5b505190506000611a1487848461484b565b9050611a246000821160166144c6565b611a2f878288614913565b604080516001600160a01b03808916825289166020820152808201869052606081018390526080810184905290517fc5810385352ebbf76085b88c0225dd113d4b38640b39242b0a570680bf47284f9181900360a00190a16016805461ff001916905560016000559695505050505050565b61271081565b6006546001600160a01b031681565b60145481565b60095481565b6016546301000000900460ff1681565b602c6020526000908152604090205481565b611aec6149ba565b60168054911515620100000262ff000019909216919091179055565b3360009081526018602090815260408083206001600160a01b0394909416835292905220805460ff19166001179055565b6002546001600160a01b03163314611b98576040805162461bcd60e51b815260206004820152601e60248201527f5661756c743a20696e76616c6964206572726f72436f6e74726f6c6c65720000604482015290519081900360640190fd5b6000838152603060205260409020611bb1908383615cac565b50505050565b600061180182611bc684613435565b6117b4565b600080611bd784613e76565b90506000611bf58261178e8668327cb2734119d3b7a9601e1b6143fd565b6005549091506117fc9082906001600160a01b031687611eb6565b604080516001600160601b0319606096871b811660208084019190915295871b811660348301529390951b9092166048850152151560f81b605c8401528051603d818503018152605d9093019052815191012090565b611c6e6149ba565b600180549115156101000261ff0019909216919091179055565b600f5481565b600154610100900460ff1681565b60015460ff1681565b611cad6149ba565b6001600160a01b0387166000908152601c602052604090205460ff16611d2a57600754611cdb9060016149d3565b600755601b80546001810182556000919091527f3ad8aa4f87544323a9d1e5dd902f40c356527a7955687113db5f9a85ad579dc10180546001600160a01b0319166001600160a01b0389161790555b6015546001600160a01b038816600090815260226020526040902054611d51908290614a2b565b6001600160a01b0389166000908152601c602090815260408083208054600160ff1991821617909155601d83528184208c9055602283528184208b9055601e83528184208a905560248352818420899055601f83528184208054821689151517905591805290912080549091168415151790559050611dd081876149d3565b601555611ddc88613e76565b505050505050505050565b60175481565b60015462010000900460ff1681565b611e046149ba565b611e146101f48a111560036144c6565b611e246101f489111560046144c6565b611e346101f488111560056144c6565b611e446101f487111560066144c6565b611e546101f486111560076144c6565b611e646101f485111560086144c6565b611e7f6904ee2d6d415b85acef8160201b84111560096144c6565b600a98909855600b96909655600c94909455600d92909255600e55600f556009556010556011805460ff1916911515919091179055565b60055460009081906001600160a01b03858116911614611eee576001600160a01b0384166000908152601d6020526040902054611ef1565b60125b6005549091506000906001600160a01b03858116911614611f2a576001600160a01b0384166000908152601d6020526040902054611f2d565b60125b9050611f4c82600a0a61178e83600a0a896143fd90919063ffffffff16565b925050505b9392505050565b601f6020526000908152604090205460ff1681565b611f756149ba565b6001600160a01b03919091166000908152601960205260409020805460ff1916911515919091179055565b6000806000611fb187878787611c10565b9050611fbb615d2a565b506000818152602b6020908152604091829020825160e081018452815480825260018301549382019390935260028201549381018490526003820154606082015260048201546080820152600582015460a082015260069091015460c08201819052909261202f928992909190899061297a565b93509350505094509492505050565b60026000541415612084576040805162461bcd60e51b815260206004820152601f6024820152600080516020615d7d833981519152604482015290519081900360640190fd5b60026000556001546120a09062010000900460ff16601c6144c6565b6120a8614a6d565b6120b185614a89565b6120bc848483614aec565b60015460408051634eae147d60e11b81526001600160a01b038881166004830152878116602483015286811660448301526064820186905284151560848301529151630100000090930490911691639d5c28fa9160a480820192600092909190829003018186803b15801561213057600080fd5b505afa158015612144573d6000803e3d6000fd5b50505050612152848461410d565b600061216086868685611c10565b6000818152602b60205260408120919250836121845761217f86612ceb565b61218d565b61218d86613e76565b825490915061219e57600282018190555b8154158015906121ae5750600085115b156121d4576121ce868360000154846002015487858a8860060154613953565b60028301555b60006121ed898989888a88600001548960030154614c01565b905060006121fa89614572565b905060006122088a836117b4565b600186015490915061221a90826149d3565b6001860181905561222f90841115601d6144c6565b600185015461223e9084614a2b565b600186015561224e8a8a896134d6565b6003860155845461225f90896149d3565b808655426006870155612275901515601e6144c6565b61228785600001548660010154614cbd565b6122958b8b8b8a60016137a7565b505060006122a38b8a6132b8565b60048701549091506122b590826149d3565b60048701556122c48b82614ce1565b8715612309576122dd8b6122d88b876149d3565b614d81565b6122e78b83614e00565b6122f18b84614e7f565b6123048b6122ff8d876131de565b6146dd565b612375565b6001600160a01b038a166000908152602d6020526040902054612346576001600160a01b038a166000908152602e6020526040902085905561236b565b6123518a868b613200565b6001600160a01b038b166000908152602e60205260409020555b6123758a8a614f97565b604080518881526001600160a01b03808f166020830152808e16828401528c1660608201526080810184905260a081018b905289151560c082015260e08101879052610100810186905290517f2fe68525253654c21998f35787a8d0f361905ef647c854092430ab65f2f15022918190036101200190a1855460018701546002880154600389015460048a015460058b0154604080518e81526020810197909752868101959095526060860193909352608085019190915260a084015260c083015260e0820187905251600080516020615d9d833981519152918190036101000190a15050600160005550505050505050505050565b6002546001600160a01b031681565b60008060008060008060008060006124948d8d8d8d611c10565b905061249e615d2a565b602b60008381526020019081526020016000206040518060e001604052908160008201548152602001600182015481526020016002820154815260200160038201548152602001600482015481526020016005820154815260200160068201548152505090506000808260a001511361251e578160a00151600003612524565b8160a001515b9050816000015182602001518360400151846060015185608001518560008860a0015112158860c001519a509a509a509a509a509a509a509a5050505094995094995094999196509450565b60276020526000908152604090205481565b6101f481565b600c5481565b6000600260005414156125d6576040805162461bcd60e51b815260206004820152601f6024820152600080516020615d7d833981519152604482015290519081900360640190fd5b60026000556125e3614495565b6001600160a01b0383166000908152601c602052604090205461260a9060ff1660106144c6565b6016805461ff001916610100179055600061262484614572565b90506126346000821160116144c6565b61263e848561410d565b600061264985612ceb565b9050600061266768327cb2734119d3b7a9601e1b61178e85856143fd565b60055490915061268390829088906001600160a01b0316611eb6565b90506126936000821160126144c6565b60015460408051634773bd1b60e01b81526001600160a01b0389811660048301526024820185905291516000936301000000900490921691634773bd1b91604480820192602092909190829003018186803b1580156126f157600080fd5b505afa158015612705573d6000803e3d6000fd5b505050506040513d602081101561271b57600080fd5b50519050600061272c88868461484b565b9050600061274a68327cb2734119d3b7a9601e1b61178e84886143fd565b6005549091506127669082908b906001600160a01b0316611eb6565b9050612772898261504f565b61277c8983614e7f565b600554604080516340c10f1960e01b81526001600160a01b038b8116600483015260248201859052915191909216916340c10f1991604480830192600092919082900301818387803b1580156127d157600080fd5b505af11580156127e5573d6000803e3d6000fd5b5050604080516001600160a01b03808d1682528d1660208201528082018a9052606081018590526080810187905290517fb021847b8d9b06facf029c8c64ab263782363d31ecfa09ef120fa350d47931b593509081900360a0019150a16016805461ff0019169055600160005598975050505050505050565b602b602052600090815260409020805460018201546002830154600384015460048501546005860154600690960154949593949293919290919087565b6000806128aa86868686611c10565b90506128b4615d2a565b506000818152602b6020908152604091829020825160e0810184528154815260018201549281018390526002820154938101939093526003810154606084015260048101546080840152600581015460a08401526006015460c083015261291e90151560256144c6565b60208101518151612936919061178e906127106143fd565b979650505050505050565b60216020526000908152604090205481565b60196020526000908152604090205460ff1681565b60256020526000908152604090205481565b60008061298b6000861160266144c6565b6000846129a05761299b88613e76565b6129a9565b6129a988612ceb565b905060008187116129c3576129be8288614a2b565b6129cd565b6129cd8783614a2b565b905060006129df8861178e8b856143fd565b9050600087156129f257508783116129f7565b508288115b6000612a0e601054896149d390919063ffffffff16565b4211612a32576001600160a01b038c166000908152601e6020526040902054612a35565b60005b9050818015612a585750612a498b826143fd565b612a55846127106143fd565b11155b15612a6257600092505b509a909950975050505050505050565b60026000541415612ab8576040805162461bcd60e51b815260206004820152601f6024820152600080516020615d7d833981519152604482015290519081900360640190fd5b600260009081556001600160a01b0382168152601c6020526040902054612ae39060ff16600e6144c6565b6000612aee82614572565b9050612afe60008211600f6144c6565b612b088282614e7f565b604080516001600160a01b03841681526020810183905281517fa5a389190ebf6170a133bda5c769b77f4d6715b8aa172ec0ddf8473d0b4944bd929181900390910190a150506001600055565b601860209081526000928352604080842090915290825290205460ff1681565b601281565b60075481565b602e6020526000908152604090205481565b600154630100000090046001600160a01b031681565b3360009081526018602090815260408083206001600160a01b0394909416835292905220805460ff19169055565b620f424081565b612be56149ba565b600180546001600160a01b039092166301000000026301000000600160b81b0319909216919091179055565b612c196149ba565b600480546001600160a01b0319166001600160a01b0392909216919091179055565b612c436149ba565b60018054612c579160ff90911615906144c6565b6001805460ff191681179055600380546001600160a01b03199081166001600160a01b039889161790915560058054821696881696909617909555600480549095169390951692909217909255600991909155601355601455565b6004546001600160a01b031681565b600a5481565b612ccf6149ba565b60018054911515620100000262ff000019909216919091179055565b60048054604080516303b6b4bb60e51b81526001600160a01b038581169482019490945260006024820181905291519193909216916376d69760916044808301926020929190829003018186803b158015612d4557600080fd5b505afa158015612d59573d6000803e3d6000fd5b505050506040513d6020811015612d6f57600080fd5b505192915050565b600060026000541415612dbf576040805162461bcd60e51b815260206004820152601f6024820152600080516020615d7d833981519152604482015290519081900360640190fd5b6002600055612dcc614a6d565b612dd588614a89565b612de48888888888888861510d565b600160005598975050505050505050565b612dfd6149ba565b6001600160a01b03909116600090815260276020526040902055565b601e6020526000908152604090205481565b612e336149ba565b612e43610e10841015600a6144c6565b612e53612710831115600b6144c6565b612e63612710821115600c6144c6565b601292909255601355601455565b602d6020526000908152604090205481565b601d6020526000908152604090205481565b612e9d6149ba565b600280546001600160a01b0319166001600160a01b0392909216919091179055565b60165462010000900460ff1681565b600060026000541415612f16576040805162461bcd60e51b815260206004820152601f6024820152600080516020615d7d833981519152604482015290519081900360640190fd5b6002600055600154612f3190610100900460ff1660176144c6565b6001600160a01b0384166000908152601c6020526040902054612f589060ff1660186144c6565b6001600160a01b0383166000908152601c6020526040902054612f7f9060ff1660196144c6565b612f9f836001600160a01b0316856001600160a01b03161415601a6144c6565b6016805461ff001916610100179055612fb8848061410d565b612fc2838461410d565b6000612fcd85614572565b9050612fdd60008211601b6144c6565b6000612fe886612ceb565b90506000612ff586613e76565b905060006130078261178e86866143fd565b9050613014818989611eb6565b9050600061303268327cb2734119d3b7a9601e1b61178e87876143fd565b60055490915061304e9082908b906001600160a01b0316611eb6565b60015460408051636d099c0b60e11b81526001600160a01b038d811660048301528c8116602483015260448201859052915193945060009363010000009093049091169163da13381691606480820192602092909190829003018186803b1580156130b857600080fd5b505afa1580156130cc573d6000803e3d6000fd5b505050506040513d60208110156130e257600080fd5b5051905060006130f38a858461484b565b90506130ff8b8461504f565b6131098a8461461f565b6131138b88614e7f565b61311d8a856146dd565b6131268a61559a565b6131318a828b614913565b604080516001600160a01b03808c168252808e1660208301528c1681830152606081018990526080810186905260a0810183905260c0810184905290517f0874b2d545cb271cdbda4e093020c452328b24af12382ed62c4d00f5c26709db9181900360e00190a16016805461ff001916905560016000559a9950505050505050505050565b68327cb2734119d3b7a9601e1b81565b602f6020526000908152604090205481565b60125481565b6000816131ed57506000611801565b611f5183836131fb86613e76565b6140d3565b6001600160a01b0383166000908152602d6020908152604080832054602e9092528220548285821161323b576132368683614a2b565b613245565b6132458287614a2b565b905060006132578361178e86856143fd565b9050868311600061326886896149d3565b90506000826132805761327b82856149d3565b61328a565b61328a8285614a2b565b905061329a8161178e8c856143fd565b9b9a5050505050505050505050565b60115460ff1681565b600d5481565b6000816132c757506000611801565b611f5183836131fb86612ceb565b6132dd6149ba565b6001600160a01b03919091166000908152601a60205260409020805460ff1916911515919091179055565b6012546001600160a01b0382166000908152602a602052604081205490914291613331916149d3565b111561333f57506000611798565b6012546001600160a01b0383166000908152602a6020526040812054909161336c9161178e904290614a2b565b6001600160a01b0384166000908152602560205260409020549091508061339857600092505050611798565b6001600160a01b0384166000908152601f602052604081205460ff166133c0576013546133c4565b6014545b6001600160a01b0386166000908152602660205260409020549091506133fd90839061178e9086906133f79086906143fd565b906143fd565b95945050505050565b60165460ff1681565b60226020526000908152604090205481565b60085481565b601654610100900460ff1681565b6001600160a01b0381166000908152601f602052604081205460ff161561347557506001600160a01b038116600090815260256020526040902054611798565b6001600160a01b0382166000908152602860205260408120546134999084906131de565b6001600160a01b038416600090815260266020908152604080832054602590925290912054919250611794916134d09084906149d3565b90614a2b565b6001546040805163b1cc53ab60e01b81526001600160a01b038681166004830152858116602483015284151560448301529151600093630100000090049092169163b1cc53ab91606480820192602092909190829003018186803b15801561353d57600080fd5b505afa158015613551573d6000803e3d6000fd5b505050506040513d602081101561356757600080fd5b5051949350505050565b6001600160a01b0381166000908152602d602052604081205481908061359e576000809250925050613604565b60006135a985613e76565b6001600160a01b0386166000908152602e60205260408120549192508282116135db576135d68383614a2b565b6135e5565b6135e58284614a2b565b905060006135f78361178e87856143fd565b9390921195509193505050505b915091565b60266020526000908152604090205481565b6136236149ba565b6001600160a01b0382166000908152602360205260409020548082111561365d57613657836136528484614a2b565b61504f565b50613672565b6136708361366b8385614a2b565b61461f565b505b5050565b60135481565b60296020526000908152604090205481565b6001546040805163c7e074c360e01b81526001600160a01b03888116600483015260248201889052604482018790526064820186905284151560848301529151600093630100000090049092169163c7e074c39160a480820192602092909190829003018186803b15801561370257600080fd5b505afa158015613716573d6000803e3d6000fd5b505050506040513d602081101561372c57600080fd5b50519695505050505050565b6137406149ba565b6136706001600160a01b038316848361560f565b61375c6149ba565b600680546001600160a01b0319166001600160a01b0392909216919091179055565b6137866149ba565b601755565b6137936149ba565b6137a2612710821160026144c6565b600855565b6001546040805163d54d5a9f60e01b81526001600160a01b03888116600483015287811660248301528681166044830152851515606483015284151560848301528251600094859463010000009091049092169263d54d5a9f9260a4808301939192829003018186803b15801561381d57600080fd5b505afa158015613831573d6000803e3d6000fd5b505050506040513d604081101561384757600080fd5b508051602090910151909890975095505050505050565b602a6020526000908152604090205481565b60105481565b6001546040805163369d949360e21b81526001600160a01b0389811660048301528881166024830152878116604483015286151560648301526084820186905260a482018590529151600093630100000090049092169163da76524c9160c480820192602092909190829003018186803b1580156138f357600080fd5b505afa158015613907573d6000803e3d6000fd5b505050506040513d602081101561391d57600080fd5b5051979650505050505050565b601c6020526000908152604090205460ff1681565b602080526000908152604090205460ff1681565b60008060006139658a8a8a8a8861297a565b909250905060006139768a876149d3565b9050600088156139a557836139945761398f8284614a2b565b61399e565b61399e82846149d3565b90506139c6565b836139b9576139b482846149d3565b6139c3565b6139c38284614a2b565b90505b6139d48161178e8a856143fd565b9c9b505050505050505050505050565b60155481565b60026000541415613a30576040805162461bcd60e51b815260206004820152601f6024820152600080516020615d7d833981519152604482015290519081900360640190fd5b60026000556016546301000000900460ff1615613a655733600090815260196020526040902054613a659060ff1660226144c6565b6016805460ff19169055613a79848461410d565b6000613a8786868686611c10565b9050613a91615d2a565b506000818152602b6020908152604091829020825160e08101845281548082526001830154938201939093526002820154938101939093526003810154606084015260048101546080840152600581015460a08401526006015460c0830152613afd90151560236144c6565b600080613b0e8989898960006137a7565b91509150613b21826000141560246144c6565b8160021415613b5657613b3e898989600087600001518b8f61510d565b50506016805460ff1916600117905550613da4915050565b6000613b6289836131de565b6001600160a01b038a166000908152602c6020526040902054909150613b8890826149d3565b6001600160a01b038a166000818152602c60209081526040918290209390935580519182529181018490528082018390529051600080516020615e488339815191529181900360600190a1613be1898560800151615661565b8615613c105760208401518451613c02918b91613bfd91614a2b565b614e00565b613c10896122ff8b856131de565b600087613c2557613c2089613e76565b613c2e565b613c2e89612ceb565b90507f2e1f85a64a2f22cf2f0c42584e7c919ed4abe8d53675cff0f62bf1e95a1c676f868c8c8c8c8a600001518b602001518c608001518d60a001518a604051808b81526020018a6001600160a01b03168152602001896001600160a01b03168152602001886001600160a01b0316815260200187151581526020018681526020018581526020018481526020018381526020018281526020019a505050505050505050505060405180910390a187158015613ced5750846020015183105b15613d1b576020850151600090613d049085614a2b565b9050613d198b613d148d846131de565b614e7f565b505b87613d2e57613d2e898660000151615716565b6000868152602b60205260408120818155600181018290556002810182905560038101829055600481018290556005810182905560060155600954613d7a908b906122ff9082906131de565b613d908a613d8a8c6009546131de565b89614913565b50506016805460ff19166001179055505050505b50506001600055505050565b600e5481565b600080600560009054906101000a90046001600160a01b03166001600160a01b03166318160ddd6040518163ffffffff1660e01b815260040160206040518083038186803b158015613e0757600080fd5b505afa158015613e1b573d6000803e3d6000fd5b505050506040513d6020811015613e3157600080fd5b5051905080613e44576000915050611798565b6001600160a01b038316600090815260226020526040902054601554613e6e9061178e83856143fd565b949350505050565b60048054604080516303b6b4bb60e51b81526001600160a01b0385811694820194909452600160248201529051600093909216916376d6976091604480820192602092909190829003018186803b158015612d4557600080fd5b60236020526000908152604090205481565b601b8181548110613eef57fe5b6000918252602090912001546001600160a01b0316905081565b613f116149ba565b6001600160a01b0381166000908152601c6020526040902054613f389060ff16600d6144c6565b6001600160a01b038116600090815260226020526040902054601554613f5d91614a2b565b6015556001600160a01b0381166000908152601c60209081526040808320805460ff19908116909155601d835281842084905560228352818420849055601e835281842084905560248352818420849055601f835281842080548216905591805290912080549091169055600754613fd6906001614a2b565b60075550565b60246020526000908152604090205481565b613ff66149ba565b6001600160a01b039091166000908152602f6020526040902055565b6005546001600160a01b031681565b60286020526000908152604090205481565b61403b6149ba565b6016805491151563010000000263ff00000019909216919091179055565b60006140636149ba565b6001600160a01b0383166000908152602c60205260409020548061408b576000915050611801565b6001600160a01b0384166000908152602c6020526040812055611f51848285614913565b601a6020526000908152604090205460ff1681565b6003546001600160a01b031681565b6000826140e257506000611f51565b6001600160a01b0384166000908152601d60205260409020546133fd8361178e86600a85900a6143fd565b6001546040805163fbfded6d60e01b81526001600160a01b03858116600483015284811660248301529151600093630100000090049092169163fbfded6d9160448082019260209290919082900301818787803b15801561416d57600080fd5b505af1158015614181573d6000803e3d6000fd5b505050506040513d602081101561419757600080fd5b50519050806141a65750613672565b6001600160a01b0383166000908152602a60205260409020546141f3576012546141d4906133f74282614456565b6001600160a01b0384166000908152602a602052604090205550613672565b6012546001600160a01b0384166000908152602a6020526040902054429161421b91906149d3565b11156142275750613672565b600061423284613308565b6001600160a01b03851660009081526029602052604090205490915061425890826149d3565b6001600160a01b038516600090815260296020526040902055601254614282906133f74282614456565b6001600160a01b0385166000818152602a602090815260408083209490945560298152908390205483519283529082015281517fa146fc154e1913322e9817d49f0d5c37466c24326e15de10e739a948be815eab929181900390910190a150505050565b610e1081565b6001546040805163fdaf6ac360e01b81526001600160a01b038881166004830152878116602483015286811660448301528515156064830152608482018590529151600093630100000090049092169163fdaf6ac39160a480820192602092909190829003018186803b15801561370257600080fd5b60306020908152600091825260409182902080548351601f6002600019610100600186161502019093169290920491820184900484028101840190945280845290918301828280156143f55780601f106143ca576101008083540402835291602001916143f5565b820191906000526020600020905b8154815290600101906020018083116143d857829003601f168201915b505050505081565b60008261440c57506000611801565b8282028284828161441957fe5b0414611f515760405162461bcd60e51b8152600401808060200182810382526021815260200180615dfd6021913960400191505060405180910390fd5b6000611f5183836040518060400160405280601a815260200179536166654d6174683a206469766973696f6e206279207a65726f60301b81525061577e565b60165462010000900460ff16156144c457336000908152601a60205260409020546144c49060ff1660366144c6565b565b6000818152603060205260409020826136705760405162461bcd60e51b81526020600482019081528254600260001961010060018416150201909116046024830181905290918291604490910190849080156145635780601f1061453857610100808354040283529160200191614563565b820191906000526020600020905b81548152906001019060200180831161454657829003601f168201915b50509250505060405180910390fd5b6001600160a01b03811660008181526021602090815260408083205481516370a0823160e01b8152306004820152915193949093859391926370a08231926024808301939192829003018186803b1580156145cc57600080fd5b505afa1580156145e0573d6000803e3d6000fd5b505050506040513d60208110156145f657600080fd5b50516001600160a01b03851660009081526021602052604090208190559050613e6e8183614a2b565b6001600160a01b038216600090815260236020526040902054818111614688576001600160a01b038316600081815260236020908152604080832092909255815192835282018390528051600080516020615ddd8339815191529281900390910190a150613672565b6146928183614a2b565b6001600160a01b0384166000818152602360209081526040918290209390935580519182529181018490528151600080516020615ddd833981519152929181900390910190a1505050565b604080518082018252601a81527915985d5b1d0e881c1bdbdb105b5bdd5b9d08195e18d95959195960321b6020808301919091526001600160a01b038516600090815260259091529190912054614735918390615820565b6001600160a01b0383166000908152602560209081526040808320849055602690915290205461476891101560326144c6565b604080516001600160a01b03841681526020810183905281517f112726233fbeaeed0f5b1dba5cb0b2b81883dee49fb35ff99fd98ed9f6d31eb0929181900390910190a15050565b6000816001600160a01b03166370a08231306040518263ffffffff1660e01b815260040180826001600160a01b0316815260200191505060206040518083038186803b1580156147ff57600080fd5b505afa158015614813573d6000803e3d6000fd5b505050506040513d602081101561482957600080fd5b50516001600160a01b0390921660009081526021602052604090209190915550565b60008061486861271061178e6148618287614a2b565b87906143fd565b905060006148768583614a2b565b6001600160a01b0387166000908152602c602052604090205490915061489c90826149d3565b6001600160a01b0387166000908152602c60205260409020557f47cd9dda0e50ce30bcaaacd0488452b596221c07ac402a581cfae4d3933cac2b866148e181846117b4565b604080516001600160a01b0390931683526020830191909152818101849052519081900360600190a150949350505050565b6149276001600160a01b038416828461560f565b604080516370a0823160e01b815230600482015290516001600160a01b038516916370a08231916024808301926020929190829003018186803b15801561496d57600080fd5b505afa158015614981573d6000803e3d6000fd5b505050506040513d602081101561499757600080fd5b50516001600160a01b039093166000908152602160205260409020929092555050565b6006546144c4906001600160a01b0316331460356144c6565b600082820183811015611f51576040805162461bcd60e51b815260206004820152601b60248201527a536166654d6174683a206164646974696f6e206f766572666c6f7760281b604482015290519081900360640190fd5b6000611f5183836040518060400160405280601e81526020017f536166654d6174683a207375627472616374696f6e206f766572666c6f770000815250615820565b601754614a79576144c4565b6144c46017543a111560376144c6565b336001600160a01b0382161415614a9f57614ae9565b6003546001600160a01b0316331415614ab757614ae9565b6001600160a01b0381166000908152601860209081526040808320338452909152902054614ae99060ff1660296144c6565b50565b8015614b6557614b11826001600160a01b0316846001600160a01b031614602a6144c6565b6001600160a01b0383166000908152601c6020526040902054614b389060ff16602b6144c6565b6001600160a01b0383166000908152601f6020526040902054614b609060ff1615602c6144c6565b613670565b6001600160a01b0383166000908152601c6020526040902054614b8c9060ff16602d6144c6565b6001600160a01b0383166000908152601f6020526040902054614bb39060ff16602e6144c6565b6001600160a01b0382166000908152601f6020526040902054614bdb9060ff1615602f6144c6565b6001600160a01b03821660009081526020805260409020546136709060ff1660306144c6565b600080614c1189898989896142ec565b90506000614c238a8a8a8a8989613876565b9050614c2f82826149d3565b91506000614c3d8a846131de565b6001600160a01b038b166000908152602c6020526040902054909150614c6390826149d3565b6001600160a01b038b166000818152602c60209081526040918290209390935580519182529181018590528082018390529051600080516020615e488339815191529181900360600190a150909998505050505050505050565b81614cd357614cce811560276144c6565b613672565b6136728183101560286144c6565b6001600160a01b038216600090815260266020526040902054614d0490826149d3565b6001600160a01b038316600090815260266020818152604080842085905560258252909220549152614d3991111560346144c6565b604080516001600160a01b03841681526020810183905281517faa5649d82f5462be9d19b0f2b31a59b2259950a6076550bac9f3a1c07db9f66d929181900390910190a15050565b6001600160a01b038216600090815260286020526040902054614da490826149d3565b6001600160a01b03831660008181526028602090815260409182902093909355805191825291810183905281517fd9d4761f75e0d0103b5cbeab941eeb443d7a56a35b5baf2a0787c03f03f4e474929181900390910190a15050565b6001600160a01b038216600090815260286020526040902054614e239082614a2b565b6001600160a01b03831660008181526028602090815260409182902093909355805191825291810183905281517f34e07158b9db50df5613e591c44ea2ebc82834eff4a4dc3a46e000e608261d68929181900390910190a15050565b6001600160a01b038216600090815260256020526040902054614ea290826149d3565b6001600160a01b03831660008181526025602090815260408083209490945583516370a0823160e01b8152306004820152935191936370a082319260248083019392829003018186803b158015614ef857600080fd5b505afa158015614f0c573d6000803e3d6000fd5b505050506040513d6020811015614f2257600080fd5b50516001600160a01b038416600090815260256020526040902054909150614f4e9082101560316144c6565b604080516001600160a01b03851681526020810184905281517f976177fbe09a15e5e43f848844963a42b41ef919ef17ff21a17a5421de8f4737929181900390910190a1505050565b6001600160a01b0382166000908152602d6020526040902054614fba90826149d3565b6001600160a01b0383166000908152602d6020908152604080832093909355602f905220548015613670576001600160a01b0383166000908152602d6020526040902054811015613670576040805162461bcd60e51b815260206004820152601a60248201527915985d5b1d0e881b585e081cda1bdc9d1cc8195e18d95959195960321b604482015290519081900360640190fd5b6001600160a01b03821660009081526023602052604090205461507290826149d3565b6001600160a01b03831660009081526023602090815260408083209390935560249052205480156150c4576001600160a01b0383166000908152602360205260409020546150c49082101560336144c6565b604080516001600160a01b03851681526020810184905281517fe643406dd63a871faf866468ec2dfb6e59b57ef0280971a4cc2734ca224895a7929181900390910190a1505050565b600154604080516381d11a2360e01b81526001600160a01b038a8116600483015289811660248301528881166044830152606482018890526084820187905285151560a483015284811660c4830152915160009363010000009004909216916381d11a239160e4808201928692909190829003018186803b15801561519157600080fd5b505afa1580156151a5573d6000803e3d6000fd5b505050506151b3878761410d565b60006151c189898987611c10565b6000818152602b602052604090208054919250906151e2901515601f6144c6565b6151f4868260000154101560206144c6565b615206878260010154101560216144c6565b6001810154815460048301546000916152239161178e908b6143fd565b60048401549091506152359082614a2b565b60048401556152448b82615661565b506000806152568d8d8d8d8d8d61587a565b8554919350915089146153d65761526e8c8c8a6134d6565b6003850155835461527f908a614a2b565b80855560018501546152919190614cbd565b61529f8d8d8d8b60016137a7565b505087156152cc576152c28c6122d8866001015486614a2b90919063ffffffff16565b6152cc8c8a614e00565b6000886152e1576152dc8c613e76565b6152ea565b6152ea8c612ceb565b9050600080516020615dbd833981519152868f8f8f8f8f8f8861530d8c8c614a2b565b60408051998a526001600160a01b0398891660208b015296881689880152949096166060880152608087019290925260a0860152151560c085015260e084019290925261010083019190915251908190036101200190a18454600186015460028701546003880154600489015460058a0154604080518d81526020810197909752868101959095526060860193909352608085019190915260a084015260c083015260e0820183905251600080516020615d9d833981519152918190036101000190a150615538565b87156153f0576153e68c84614d81565b6153f08c8a614e00565b600088615405576154008c613e76565b61540e565b61540e8c612ceb565b9050600080516020615dbd833981519152868f8f8f8f8f8f886154318c8c614a2b565b60408051998a526001600160a01b0398891660208b015296881689880152949096166060880152608087019290925260a0860152151560c085015260e084019290925261010083019190915251908190036101200190a18454600186015460028701546003880154600489015460058a0154604080518d81526020810197909752868101959095526060860193909352608085019190915260a084015260c0830152517f73af1d417d82c240fdb6d319b34ad884487c6bf2845d98980cc52ad9171cb4559181900360e00190a1506000858152602b602052604081208181556001810182905560028101829055600381018290556004810182905560058101829055600601555b87615547576155478b8a615716565b8115615587578715615561576155618c6122ff8e856131de565b600061556d8d836131de565b905061557a8d828a614913565b9550612936945050505050565b5060009c9b505050505050505050505050565b6001600160a01b0381166000908152602760209081526040808320546025909252909120541015614ae9576040805162461bcd60e51b815260206004820152601a6024820152792b30bab63a1d103837b7b620b6b7bab73a101e10313ab33332b960311b604482015290519081900360640190fd5b604080516001600160a01b038416602482015260448082018490528251808303909101815260649091019091526020810180516001600160e01b031663a9059cbb60e01b179052613670908490615a74565b604080518082018252601b81527a5661756c743a20696e73756666696369656e74207265736572766560281b6020808301919091526001600160a01b0385166000908152602690915291909120546156ba918390615820565b6001600160a01b03831660008181526026602090815260409182902093909355805191825291810183905281517f533cb5ed32be6a90284e96b5747a1bfc2d38fdb5768a6b5f67ff7d62144ed67b929181900390910190a15050565b6001600160a01b0382166000908152602d60205260409020548082111561575657506001600160a01b0382166000908152602d6020526040812055613672565b6157608183614a2b565b6001600160a01b0384166000908152602d6020526040902055505050565b6000818361580a5760405162461bcd60e51b81526004018080602001828103825283818151815260200191508051906020019080838360005b838110156157cf5781810151838201526020016157b7565b50505050905090810190601f1680156157fc5780820380516001836020036101000a031916815260200191505b509250505060405180910390fd5b50600083858161581657fe5b0495945050505050565b600081848411156158725760405162461bcd60e51b81526020600482018181528351602484015283519092839260449091019190850190808383600083156157cf5781810151838201526020016157b7565b505050900390565b600080600061588b89898987611c10565b6000818152602b602052604081208054600382015493945090926158b8918d918d918d918b918d91614c01565b90506000806000806158d98d876000015488600201548d8a6006015461297a565b875491955085935091506158f19061178e8d846143fd565b9250505060008280156159045750600082115b1561593457506005840180548201905580886159345760006159268e846131de565b90506159328e826146dd565b505b821580156159425750600082115b156159865760018501546159569083614a2b565b60018601558861597a57600061596c8e846131de565b90506159788e82614e7f565b505b60058501805483900390555b8a156159ae57615996818c6149d3565b60018601549091506159a8908c614a2b565b60018601555b84548a14156159d15760018501546159c79082906149d3565b6000600187015590505b80848111156159eb576159e48286614a2b565b9050615a1f565b60018601546159fa9086614a2b565b60018701558915615a1f576000615a118f876131de565b9050615a1d8f826146dd565b505b60408051888152851515602082015280820185905290517f3ff41bdde87755b687ae83d0221a232b6be51a803330ed9661c1b5d0105e0d8a9181900360600190a1909e909d509b505050505050505050505050565b6060615ac9826040518060400160405280602081526020017f5361666545524332303a206c6f772d6c6576656c2063616c6c206661696c6564815250856001600160a01b0316615b259092919063ffffffff16565b80519091501561367057808060200190516020811015615ae857600080fd5b50516136705760405162461bcd60e51b815260040180806020018281038252602a815260200180615e1e602a913960400191505060405180910390fd5b6060613e6e848460008585615b3985615c40565b615b8a576040805162461bcd60e51b815260206004820152601d60248201527f416464726573733a2063616c6c20746f206e6f6e2d636f6e7472616374000000604482015290519081900360640190fd5b60006060866001600160a01b031685876040518082805190602001908083835b60208310615bc95780518252601f199092019160209182019101615baa565b6001836020036101000a03801982511681845116808217855250505050505090500191505060006040518083038185875af1925050503d8060008114615c2b576040519150601f19603f3d011682016040523d82523d6000602084013e615c30565b606091505b5091509150612936828286615c46565b3b151590565b60608315615c55575081611f51565b825115615c655782518084602001fd5b60405162461bcd60e51b81526020600482018181528451602484015284518593919283926044019190850190808383600083156157cf5781810151838201526020016157b7565b828054600181600116156101000203166002900490600052602060002090601f016020900481019282601f10615ced5782800160ff19823516178555615d1a565b82800160010185558215615d1a579182015b82811115615d1a578235825591602001919060010190615cff565b50615d26929150615d67565b5090565b6040518060e00160405280600081526020016000815260200160008152602001600081526020016000815260200160008152602001600081525090565b5b80821115615d265760008155600101615d6856fe5265656e7472616e637947756172643a207265656e7472616e742063616c6c0020853733b590dce729d9f4628682ebd9a34d2354e72679e66f43a008fc03b77393d75d64d1f84fc6f430a64fc578bdd4c1e090e90ea2d51773e626d19de56d30ef3b0b5e2bc04ee945d3971f06cd63181d2b9862c4569e6b206dfc95b195633c536166654d6174683a206d756c7469706c69636174696f6e206f766572666c6f775361666545524332303a204552433230206f7065726174696f6e20646964206e6f7420737563636565645d0c0019d3d45fadeb74eff9d2c9924d146d000ac6bcf3c28bf0ac3c9baa011aa26469706673582212207f563c5743c9b988c25405c29b1ba9278cc0c85c176f51000ef4138deebf045b64736f6c634300060c0033",
  "linkReferences": {},
  "deployedLinkReferences": {}
}